:020000040000FA
:100000009007002011030000190300001B030000EB
:100010001D0300001F03000021030000000000007A
:1000200000000000000000000000000023030000AA
:100030002503000000000000270300007D120000DF
:100040002B0300002D0300002F03000031030000EC
:1000500033030000350300003703000039030000BC
:100060003B0300003D0300003F030000410300008C
:10007000430300004503000047030000490300005C
:100080004B0300004D0300004F030000510300002C
:1000900053030000550300005703000059030000FC
:1000A0005B0300005D0300005F03000061030000CC
:1000B000630300006503000067030000690300009C
:1000C0006B0300006D0300006F030000710300006C
:1000D000730300007503000077030000790300003C
:1000E0007B0300007D0300007F030000810300000C
:1000F00083030000850300008703000089030000DC
:100100008B0300008D0300008F03000091030000AB
:10011000930300009503000097030000990300007B
:100120009B0300009D0300009F030000A10300004B
:10013000A3030000A5030000A7030000A90300001B
:10014000AB030000AD030000AF030000C9030000D3
:100150000000000000000000CB030000CD03000001
:10016000CF030000D103000000000000D303000013
:10017000D5030000D7030000D9030000DB03000013
:10018000DD030000DF030000E1030000E3030000E3
:10019000E5030000E7030000E9030000EB030000B3
:1001A000ED030000EF030000F1030000F303000083
:1001B000F5030000F7030000F9030000FB03000053
:1001C000FD030000FF030000010400000304000021
:1001D0000504000007040000090400000B040000EF
:1001E0000D0400000F0400001104000013040000BF
:1001F0001504000017040000190400001B0400008F
:1002000000F002F800F05CF80AA090E8000C8244CC
:100210008344AAF10107DA4501D100F051F8AFF2A9
:10022000090EBAE80F0013F0010F18BFFB1A43F0D4
:1002300001031847C0450000E04500000A444FF0A4
:10024000000C10F8013B13F0070408BF10F8014B35
:100250001D1108BF10F8015B641E05D010F8016B7A
:10026000641E01F8016BF9D113F0080F1EBF10F8DE
:10027000014BAD1C0C1B09D16D1E58BF01F801CB01
:10028000FAD505E014F8016B01F8016B6D1EF9D584
:100290009142D6D370470000002300240025002699
:1002A000103A28BF78C1FBD8520728BF30C148BFD9
:1002B0000B6070471FB504F055F81FBD10B510BD99
:1002C00000F0BFF81146FFF7F5FF01F0B1FC00F0B8
:1002D000DDF803B4FFF7F2FF03BC00F0E5F800001F
:1002E0000138FDD170470000EFF3108072B67047FF
:1002F000EFF310807047EFF3108062B6704730BFA5
:10030000704780F311887047EFF311807047000049
:100310004548804745480047FEE7FEE7FEE7FEE721
:10032000FEE7FEE7FEE7FEE7FEE7FEE7FEE7FEE7A5
:10033000FEE7FEE7FEE7FEE7FEE7FEE7FEE7FEE795
:10034000FEE7FEE7FEE7FEE7FEE7FEE7FEE7FEE785
:10035000FEE7FEE7FEE7FEE7FEE7FEE7FEE7FEE775
:10036000FEE7FEE7FEE7FEE7FEE7FEE7FEE7FEE765
:10037000FEE7FEE7FEE7FEE7FEE7FEE7FEE7FEE755
:10038000FEE7FEE7FEE7FEE7FEE7FEE7FEE7FEE745
:10039000FEE7FEE7FEE7FEE7FEE7FEE7FEE7FEE735
:1003A000FEE7FEE7FEE7FEE7FEE7FEE7FEE7FEE725
:1003B000FEE7FEE7FEE7FEE7FEE7FEE7FEE7FEE715
:1003C000FEE7FEE7FEE7FEE7FEE7FEE7FEE7FEE705
:1003D000FEE7FEE7FEE7FEE7FEE7FEE7FEE7FEE7F5
:1003E000FEE7FEE7FEE7FEE7FEE7FEE7FEE7FEE7E5
:1003F000FEE7FEE7FEE7FEE7FEE7FEE7FEE7FEE7D5
:10040000FEE7FEE7FEE7FEE7FEE7FEE7FEE7FEE7C4
:10041000FEE7FEE7FEE7FEE7FEE7FEE704480549E4
:10042000034A054B704700009113000001020000D1
:10043000900500209007002090050020704770472D
:100440007047754600F02CF8AE46050069465346E5
:1004500020F00700854618B020B5FFF7DFFFBDE8A4
:1004600020404FF000064FF000074FF000084FF01B
:10047000000B21F00701AC46ACE8C009ACE8C009AC
:10048000ACE8C009ACE8C0098D46704710B5044619
:10049000AFF300802046BDE81040FFF71ABF000010
:1004A000004870472C05002001491820ABBEFEE72C
:1004B000260002007047000010B50F4800F090FEC3
:1004C0000E4800F08DFE02210D4800F04AFA00238C
:1004D0001A4603210B4800F043F86223002203214F
:1004E000084800F086F80321064800F07BF8032155
:1004F000044800F009F810BD003800F0040800F0CE
:100500000040024000800340012202FA01F1C16074
:10051000704732B1C0684FF0011202FA01F1084091
:100520007047406801228A4042F48032104010F443
:10053000803F08BF704740F470204FF4803202FAC9
:1005400001F1884370470A4601F00F0101236FF360
:100550000F0203FA01F11143826A1143816270476D
:1005600030B4446989004FF00F0C0CFA01FC02F022
:100570000F0524EA0C048D402C434461046A03F007
:10058000030324EA0C0C03FA01F14CEA01010162B5
:1005900002F00F018B1F032B84BF30BC7047C900D2
:1005A000C3694FF0300C30390CFA01FC02F0300214
:1005B00023EA0C0302FA01F11943C16130BC704710
:1005C00000EB411000F14001002003E08B6842F88D
:1005D000043B401CCB6813F4807F18BF7047082889
:1005E000F4D370470268012303FA01F1114301605B
:1005F000704710B400EB4110910050F840CF0F222B
:100600008A4003F00F042CEA020C8C404CEA040CE4
:10061000C0F800C0D0F818C0C3F303242CEA020CC1
:100620008C404CEA040CC0F818C0D0F804C0C3F3E6
:1006300003142CEA020C8C404CEA040CC0F804C0F1
:10064000D0F81CC0C3F303542CEA020C8C404CEAD3
:10065000040CC0F81CC013F4702F4FF001040DD02F
:10066000D0F814C0C3F302432CEA02028B401A43B1
:100670004261026904FA01F1114304E0026904FADB
:1006800001F122EA0101016110BC704708B50321A4
:100690000A48FFF758FF00BF002203210748FFF771
:1006A00038FF0028F8D003210448FFF72DFF6A46E1
:1006B00003210248FFF784FF009808BD0080034033
:1006C000002100E0491C8142FCD370474FF47A625C
:1006D0005043002100E0491C8142FCD370470000D8
:1006E00010B50E490E4800F009FC0E490860084696
:1006F00000680D49086000F021F800F017F800F0DC
:1007000039F800F00BFA00F09DFD01F015F800F04B
:100710007DFAFFF7D1FE00F041FB10BD0024F4008C
:10072000800600F18C04002090040020024801683B
:1007300041F470010160704788ED00E002480168F3
:1007400041F040410160704734EF00E0D0F80034E0
:1007500012F0010F14BF0B438B43C0F8003412F0AA
:10076000020FD0F8202414BF114322EA0101C0F87F
:100770002014704710B5164800F032FD00BF144831
:1007800000F042FD0028FAD01148801C00F028FD3E
:1007900000BF0F48801C00F037FD0028F9D0302141
:1007A0000C4800F0FAF801210B4800F0F6F8084870
:1007B000401E00F015FD00BF0548401E00F024FD5E
:1007C0000028F9D00321054800F0D9F810BD000039
:1007D000090800F0001006400030064000D0034039
:1007E0002DE9F00301264FF0000C0325C2F3411759
:1007F00006FA0CF40C4211D0D0F8C48F4FEA4C0426
:1008000005FA04F928EA0908C0F8C48FD0F8C48FA3
:1008100007FA04F448EA0404C0F8C44F0CF1010CD0
:100820000CF0FF0CBCF1080FE2D3D0F800C512F0B9
:10083000010F14BF4CEA010C2CEA010CC0F800C5F2
:10084000D0F804C512F0020F14BF4CEA010C2CEAD8
:10085000010CC0F804C5D0F808C512F0040F14BF8D
:100860004CEA010C2CEA010CC0F808C5D0F818C5F8
:1008700012F0080F14BF4CEA010C2CEA010CC0F86E
:1008800018C512F0100FD0F83C2514BF0A438A4354
:10089000C0F83C25D0F80C2513F0010F14BF0A4313
:1008A0008A43C0F80C25D0F8102513F0020F14BFAE
:1008B0000A438A43C0F81025D0F8142513F0040F1A
:1008C00014BF0A438A43C0F81425D0F81C2513F03E
:1008D000080F14BF0A438A43C0F81C25D0F84425EA
:1008E00013F4007F14BF0A438A43C0F84425D0F8AC
:1008F000402513F4407F14BF0A438A43C0F84025C3
:10090000D0F82825002B0CBF114322EA0101C0F8C2
:100910002815BDE8F00370470E4AC0F30741D26EB8
:1009200001238B401A420C4A1ABF02EBC1014968ED
:1009300052F83110020AD1F82C354FF00F0C0CFA96
:1009400002FC00F00F0023EA0C0390401843C1F8AA
:100950002C05704700E00F401045000050F82100C2
:10096000704730B50C4605460022FFF7EFFE2146E2
:100970002846BDE8304000230122FFF731BF30B5E3
:100980000C4605460022FFF7E1FE21462846BDE859
:10099000304008230122FFF723BF30B50C4605463F
:1009A00008230122FFF71CFF21462846BDE83040FE
:1009B0000122FFF7CBBE30B50C4605460222FFF7F9
:1009C000C5FE21462846BDE8304009230122FFF735
:1009D00007BF30B50C4605460222FFF7B7FE214699
:1009E0002846BDE8304008230122FFF7F9BE30B5A4
:1009F0000C4605460222FFF7A9FE21462846BDE81F
:100A0000304008230122FFF7EBBE30B50C46054607
:100A10000222FFF79BFE21462846BDE8304008230E
:100A20000122FFF7DDBE40F8212070472DE9F0419B
:100A30002DED068B054601222946354800F0E2F8E7
:100A400000BF334800F098F80028FAD10B21304855
:100A500000F098F800BF2E4800F08EF80028FAD178
:100A60002B4800F098F818B9294800F08DF887B2A3
:100A70000521274800F086F800BF254800F07CF8E3
:100A80000028FAD1224800F086F818B9204800F072
:100A90007BF886B26420FFF713FE06EB072084B2D2
:100AA000641104F48060A8B1E143491CC1F3090159
:100AB000484203F044FA41EC1A0B9FED160B53EC3D
:100AC000102B03F067FA41EC190B03F031F908EE33
:100AD000100A10E0204603F049FA41EC1A0B9FED92
:100AE0000D0B53EC102B03F055FA41EC190B03F0EE
:100AF0001FF908EE100AB2EE040A28EE000ABDEE55
:100B0000C00A10EE100A00B2BDEC068BBDE8F08101
:100B100000000240000000000000C03F10B50F4878
:100B200000F05EFB0E4800F05BFB0E48FFF7F4FEA2
:100B30000D48FFF7F1FE04210C48FFF74AFF08219A
:100B40000A48FFF738FF012209480168094800F008
:100B50002FF8084800F01AF810BD0000002000F03F
:100B6000010800F0020C01000208010000500040E2
:100B70008C04002000000240406810F0010018BF03
:100B8000012070474160704780687047016A41F0FA
:100B9000100101627047406810F0010F05D110F09C
:100BA000120F1CBF00F01C007047002070470000AF
:100BB000036A43F010030362002A14BF0E4A0F4A6F
:100BC00002EB820301EB830302EB820292005B1EC5
:100BD000B3FBF2F2521EC260D0F8C02F12F0010F28
:100BE00008BF7047064A1144521CB1FBF2F1491E7E
:100BF00041F08001C1607047801A0600A0860100A4
:100C00007F47370142EA41010160704710B5FFF7A5
:100C100072FB002818BF012010BD000010B5274846
:100C200000F0DEFA00BF254800F0EEFA0028FAD006
:100C30002248C01D00F0D4FA00BF2048C01D00F0BB
:100C4000E3FA0028F9D01D48401E00F0C9FA00BFA1
:100C50001A48401E00F0D8FA0028F9D01748801C26
:100C600000F0BEFA00BF1548801C00F0CDFA002845
:100C7000F9D007211248FFF790FE30211148FFF705
:100C80008CFE30211048FFF788FE10210F48FFF737
:100C900084FE40210B48FFF772FE0848C01C00F09C
:100CA0009FFA00BF0548C01C00F0AEFA0028F9D03A
:100CB00002210748FFF771FE10BD0000020800F096
:100CC000001006400060004000500040004002401C
:100CD0000050024070B50446002202210948FFF787
:100CE000A2FE002505E0002600E0761C6E2EFCDB4F
:100CF0006D1CA542F7DB022211460248FFF793FE66
:100D000070BD00000050024070B504460022022170
:100D10000948FFF788FE002505E0002600E0761C64
:100D2000012EFCDB6D1CA542F7DB022211460248B6
:100D3000FFF779FE70BD00000050024008440168D2
:100D40006FF352011143016012F0020F14BFB02182
:100D50008C21016214BF4FF4306140F60C014162F6
:100D60007047425822F0010242507047425842F008
:100D700001024250704708440168006911F0020FF7
:100D800014BF4000401C70470844016811F0020F76
:100D900014BF5108511E01617047000010B51B4877
:100DA00000F01EFA01220821194800F03BF88021CA
:100DB0001748FFF7DBFF174800F012FA1648FFF755
:100DC000ABFD08211548FFF712FE002280211048D4
:100DD000FFF7B4FF012210210D4800F023F8C021D5
:100DE0000B48FFF7C3FF0B48401C00F0F9F94FF028
:100DF0000610FFF791FD01210948FFF7F8FD0022D9
:100E0000C0210348FFF79AFF10BD0000004000F02A
:100E100000800240050800F0060C0500005002406A
:100E200000600240002A826814BF114322EA0101D7
:100E30008160704721F03F031844036813F0020FEC
:100E400018BF520803699A1A11F0010F14BFC2614A
:100E50008261704770B5044680210D48FFF781FF1D
:100E60000C480068B0FBF4F52A4680210848FFF7DB
:100E70008BFF80210648FFF77EFF45082A46832125
:100E80000348FFF7D7FF80210148FFF76FFF70BDD0
:100E9000008002409004002070B50446C0210D4837
:100EA000FFF75FFF0C480068B0FBF4F52A46C0214D
:100EB0000848FFF769FFC0210648FFF75CFF4508B7
:100EC0002A46C4210348FFF7B5FFC0210148FFF7B8
:100ED0004DFF70BD008002409004002010B58021BD
:100EE0000148FFF73EFF10BD0080024010B5C02151
:100EF0000148FFF736FF10BD008002402DE9F003E6
:100F0000AD4D02462868AD4B1840A0F18053B3F5B3
:100F1000A02358D002F03809DFF8A482C2F3841469
:100F2000B9F1100F24D0B9F1300F04BF47F230509F
:100F30004FF400130CD03820904304BF4FF400400E
:100F4000C30105D012F0380F1CBF0020034613D098
:100F50009C4F12F4605F4FF0000618BF00222CD0A7
:100F600057F8324044457DD307EBC2025268DFE0B8
:100F7000002340461524EBE7A4F10900122822D2F1
:100F80009148D5F87CC04FF04C7350F824002CF0F9
:100F90001C0C072CA8BF4CF0100CC5F87CC02E6DA3
:100FA0004FF4002C16F4807FD2D1BCF1010C0AD092
:100FB0002E6D16F4807FF8D0CAE712F0380F18BFF4
:100FC000B9F1100F03D0BDE8F00300207047C2F361
:100FD0000268DFF8F8C1002257F83290E14503D3E8
:100FE00007EBC202526803E0521C062AF4D33246D1
:100FF000C5F8C020D5F8B020DFF8D4C102EA0C0251
:1010000042F00042C5F8B020DFF8C8C1A4F10902DF
:101010004C1E5CF828C0A444BCFBF1FCD5F8B01011
:101020001943C5F8B01008EBC80101EB41046A4947
:1010300002EB420201EBC40101EB82046468C5F8D3
:101040006441D5F864416FF0FF0808EB0C2C44EACA
:101050000C0CC5F864C151F82210D5F8602102F4D7
:10106000000200E05FE01143C5F86011D5F860119F
:10107000D5F86021C1F38921C2F30904D5F86421B0
:10108000C2F3042202F1010CD5F8642102F01F0220
:10109000521CB0FBF2F04A09C2F10008444342433B
:1010A00001EB481104EB5212484302EB9020B0FBD5
:1010B000FCF041080846002257F832C0844503D3AB
:1010C00007EBC200466802E0521C062AF4D3C5F8BA
:1010D000C060D5F8600110F4000F1DBFD5F8B00056
:1010E00040F08040C5F8B000D5F8600104BF40F47E
:1010F0000000C5F860014FF40040D5F8682112F0F7
:10110000010F02D1401E0028F7DC002808BF002193
:1011100048D0D5F8B000184340F0010040F010402E
:10112000C5F8B0003EE0521C062AFFF419AF324663
:10113000C5F8C020D5F8602122F40002C5F860216E
:10114000D5F8B020DFF894C002EA0C0242F0004269
:10115000C5F8B020002908BF4FF0000C0AD0B0FB42
:10116000F1FCBCF1000F18BFACF1010C0CF1010156
:10117000B0FBF1F10846002257F83240844203D315
:1011800007EBC200466802E0521C062AF4D3C5F8F9
:10119000C060D5F8B00043EA8C22104340F0004014
:1011A000C5F8B000D5F8B00020F47000C5F8B00064
:1011B000BDE8F0030846704700E00F400000FF70F4
:1011C0000024F400C4470000A845000040787D01D9
:1011D00000FC0FE0A045000014460000FF0300EFF4
:1011E000C0F307230749C0B2194401F07043C1F3AB
:1011F000130143EA411141EA800040F000700122EE
:101200000260704700E60F40C0F307220849C0B2F1
:10121000114401F07042C1F3130142EA411141EA65
:10122000800040F000700068002818BF012070475F
:1012300000EA0F404FF0E020016941F00501016133
:101240007047000010B5064800683221B0FBF1F489
:10125000204600F00EF8FFF7EDFF00F003F810BD98
:101260008C0400204FF0E020016941F0020101618F
:1012700070474FF0E021401E4861704710B5364876
:101280000078401CC0B2344908700A2805DB0120F0
:101290003249087000203049087031480078401CFD
:1012A000C0B22F490870012805DB01202D490870C4
:1012B00000202B4908702C48007828B92B4A2C486C
:1012C00001782C4800F058F900F006F92A49087016
:1012D00008460078012805D12848007880F00100F0
:1012E000264908702448007880B1234800780328F4
:1012F00002D0072808D103E003202149087004E048
:1013000007201F49087000E000BF00BF1D4800789B
:101310001D490870184800781A4908701A48007862
:1013200038B90846007820B1084600781749087097
:1013300002E00020154908701048007830B11048CC
:101340000078032802D002F03FF803E0FFF7C6FD63
:10135000FFF7CCFD10BD000046040020470400202C
:101360004404002045040020980400205504002077
:10137000540400204C0400207804002023050020A1
:10138000240500207B0400207A0400207C04002037
:101390000448006840F470000249086002480349AC
:1013A0000860704788ED00E00024F4002805002064
:1013B000014600202D2956D014DC212976D2DFE801
:1013C00001F030323436383A3C3E40424446484AD6
:1013D0004C4E75757575757575757575757575750D
:1013E000757554004C294ED00ADCA1F14102092A3E
:1013F0005CD2DFE802F03E5B594E4C443C52400068
:10140000592948D006DC4E2937D052293DD05529DC
:101410004CD136E05F2924D0622943D06F2945D1D1
:101420003EE03F2044E0062042E05B2040E04F20C9
:101430003EE066203CE06D203AE07D2038E0072069
:1014400036E07F2034E06F2032E0772030E07C20EF
:101450002EE039202CE05E202AE0792028E071205F
:1014600026E0082024E0402022E0002020E03D206B
:101470001EE077201CE006201AE0372018E07120DB
:1014800016E03E2014E0382012E0502010E07920D1
:101490000EE05E200CE06E200AE0762008E005E019
:1014A0005C2005E07C2003E0392001E0002000BF43
:1014B00000BF704710B5002210210648FFF7B3FAAD
:1014C0008A2000F0A7F8102211460248FFF7ABFA75
:1014D00010BD00000010064038B500250022102184
:1014E0002448FFF7A0FA422000F094F8002401E01D
:1014F000601CC4B2052CFBDB002405E000F0B4F84E
:101500000DF80400601CC4B2042CF7DB1022114655
:101510001848FFF788FA9DF80000042800D101253B
:101520009DF80000022800D102259DF80000012846
:1015300000D103259DF80000402800D104259DF826
:101540000000202800D105259DF80000102800D1BA
:1015500006259DF80100042800D107259DF801000B
:10156000022800D108259DF80100012800D1092595
:10157000284638BD001006402DE9FF4105460E46BD
:1015800017464FF00108002419E0285DFFF710FF0F
:101590000DF8140006EA080028B11DF8140040F008
:1015A00080000DF814004FEA48604FEA1068385D7B
:1015B000012101EB44010DF80100601CC4B2082CAC
:1015C000E3DB002210211248FFF72DFA402000F043
:1015D00021F8102211460E48FFF725FA00221021AB
:1015E0000B48FFF720FAC02000F014F8002405E0B3
:1015F0001DF8040000F00EF8601CC4B2102CF7DBDC
:10160000102211460248FFF70EFABDE8FF810000E4
:101610000010064070B5044620211148FFF7BDF9BF
:1016200000251AE0002201210E48FFF7FCF904F022
:10163000010028B1202211460948FFF7F4F904E01F
:10164000002220210648FFF7EEF96410012211461E
:101650000448FFF7E8F9681CC5B2082DE2DB70BD4D
:10166000001006400030064070B5002420211148CB
:10167000FFF785F9002518E06410002201210E48CB
:10168000FFF7D1F9012211460B48FFF7CCF92021D1
:101690000848FFF763F908B144F0800400220121F3
:1016A0000548FFF7C0F9681CC5B2082DE4DB2046E9
:1016B00070BD00000010064000300640826912F044
:1016C000200FFBD101607047D0F818C01CF0080F44
:1016D000FAD1D0F82CC02CF0100CC0F82CC0D0F8E7
:1016E00030C02CF0010C2CF4407CC0F830C0D0F895
:1016F00030C0B1EB021F34BF4CF0200C2CF0200C9A
:10170000C0F830C038BF5208C900B1FBF2F1491C23
:1017100049088A09426201F03F018162C3620021E7
:101720008161C16A41F01001C162016B40F2013276
:10173000114301637047000010B52148FFF750FDC9
:101740002048FFF74DFD00BF1E48FFF75DFD002854
:10175000FAD00120FFF7E0F840F20140FFF7DCF893
:1017600003214FF04020FFF750F960234FF4164259
:10177000154801681548FFF7A7FF1148801DFFF7BE
:101780002FFD10480D30FFF72BFD00BF0D480D3029
:10179000FFF73AFD0028F9D00D48FFF7BDF80D48D6
:1017A000FFF7BAF803210C48FFF72FF960234FF435
:1017B0001642054801680948FFF786FF10BD000082
:1017C000001800F0000800F08C04002000C0004069
:1017D00001000D0001040D000050064000200140F2
:1017E00070B505460C4604E014F8011B2846FFF7C7
:1017F00065FF20780028F7D10120FEF767FF70BD54
:1018000070B5002414E004F1B00002F021FA1020B9
:1018100002F01EFA002002F01BFA002504E000206E
:1018200002F04EFA681CC5B2842DF8DB601CC4B20D
:10183000092CE8DB70BD00002DE9F04104460D469F
:1018400016461F462EB9E9B2E0B23B4626A200F08A
:101850005FF8012E05D1E9B2E0B23B4623A200F0C9
:1018600057F8022E05D1E9B2E0B23B4620A200F0C3
:101870004FF8032E05D1E9B2E0B23B461DA200F0BD
:1018800047F8042E05D1E9B2E0B23B461AA200F0B7
:101890003FF8052E05D1E9B2E0B23B4617A200F0B1
:1018A00037F8062E05D1E9B2E0B23B4614A200F0AB
:1018B0002FF8072E05D1E9B2E0B23B4611A200F0A5
:1018C00027F8082E05D1E9B2E0B23B460EA200F09F
:1018D0001FF8092E05D1E9B2E0B23B460BA200F099
:1018E00017F8BDE8F0810000300000003100000072
:1018F000320000003300000034000000350000001A
:1019000036000000370000003800000039000000F9
:101910002DE9F04107460E4615469846002475E02D
:10192000285DB02826DB285DF72823DC601C285CB6
:10193000A1281FDB285DB0385E2110FB01F036497D
:101940000860601C285C00F2AD2009680844324938
:101950000860084600684001086043463246394640
:101960002D48006800F05CF8A01CC4B206F110001D
:10197000C6B24BE0285DA12825DB285DA32822DC28
:10198000601C285CA1281EDB285DA1385E2110FBAD
:1019900001F021490860601C285CA13809680844EE
:1019A0001D49086008460068400108604346324609
:1019B00039461948006800F033F8A01CC4B206F19B
:1019C0001000C6B222E0285D20281DDB285D7E289D
:1019D0001ADC285D203810490860084600680001BC
:1019E0000860084600680D4908440B4908604346F2
:1019F000324639460848006800F058F8601CC4B206
:101A000006F10800C6B201E0601CC4B2285D0028DF
:101A100086DCBDE8F08100004000002080CF03009C
:101A20002DE9F04704460E4617469846002210213D
:101A30001D48FEF7F8FF032002F08EF8C4F30740BC
:101A400002F08AF8C4F3072002F086F8E0B202F050
:101A500083F800251EE07019394600F0D5F84FF0E4
:101A6000000912E0B8F1000F03D100F065F88246DA
:101A700004E000F061F8C04300F0FF0A504602F0B5
:101A80001FF909F1010000F0FF09B9F1100FE9DBBE
:101A9000681CC5B2022DDEDB102211460248FEF79B
:101AA000C2FFBDE8F0870000006000402DE9F0476C
:101AB00004460E4617469846002210211D48FEF7A0
:101AC000B2FF032002F048F8C4F3074002F044F8E4
:101AD000C4F3072002F040F8E0B202F03DF8002520
:101AE0001EE07019394600F08FF84FF0000912E03F
:101AF000B8F1000F03D100F01FF8824604E000F0B7
:101B00001BF8C04300F0FF0A504602F0D9F809F173
:101B1000010000F0FF09B9F1080FE9DB681CC5B24C
:101B2000022DDEDB102211460248FEF77CFFBDE8E5
:101B3000F08700000060004070B50024002516E02A
:101B4000002220210C48FEF76EFF6006040E4021A3
:101B50000948FEF703FF10B1601CC4B200E0E4B214
:101B6000202211460448FEF75EFF681CC5B2082D0E
:101B7000E6DB204670BD00000060004010B5FFF7B6
:101B80004DF8002201211F48FEF74DFF6420FFF7AA
:101B9000A1F8012211461B48FEF745FF6420FFF71C
:101BA00099F8E22002F054F80520FFF793F82C2072
:101BB00002F04EF83220FFF78DF82E2002F048F8A0
:101BC0003220FFF787F82F2002F042F80520FFF7B8
:101BD00081F8232002F03CF8812002F039F8282017
:101BE00002F036F8A22002F033F8C82002F030F8F4
:101BF000A02002F02DF8402002F02AF8AF2002F0D9
:101C000027F810BD0010064070B505460C46641E4E
:101C100005F1AF0002F01CF8C4F3031101F110004C
:101C200002F016F804F00F0002F012F870BD000088
:101C300008B5FEF755FDFE48006840F6B831B0FB28
:101C4000F1F0C0EB001080000090FEF749FBFFF7B9
:101C500031FCFFF793FFF7A1FA48FFF7C1FD4F20D2
:101C6000FEF7E4FEF84908804820FEF7DFFEF7495A
:101C70000880F548B0F90000002808DAF24800882A
:101C80004042F34908800120F249087006E0EE481E
:101C90000088EF4908800020EE490870EB48B0F951
:101CA0000000002808DAE94800884042EA49088034
:101CB0000120EA49087006E0E4480088E649088007
:101CC0000020E6490870E2480088642190FBF1F0AA
:101CD000E0494870DE4800880A2190FBF1F090FB53
:101CE000F1F201FB1200DB498870D94800880A2113
:101CF00090FBF1F201FB1200D649C870D64800886B
:101D0000642190FBF1F0D5494870D34800880A213E
:101D100090FBF1F090FBF1F201FB1200CF498870CB
:101D2000CD4800880A2190FBF1F201FB1200CB495B
:101D3000C870FEF7ABFCCA4908600846006840F668
:101D4000E441484340F6FF71B0FBF1F0C54908603B
:101D5000084600684FF47A71B0FBF1F00A21B0FB3D
:101D6000F1F201FB1200C0490870BE48006864210E
:101D7000B0FBF1F00A21B0FBF1F201FB1200BA490D
:101D80004870B84800680A21B0FBF1F0B0FBF1F2EE
:101D900001FB1200B4498870B24800680A21B0FB08
:101DA000F1F201FB1200B049C870FFF729FD0023D2
:101DB000AEA201210846FFF7ABFD0023ADA2012131
:101DC0000320FFF7A5FDA84800780023024629213B
:101DD00000900120FFF730FD0023A8A2312101204F
:101DE000FFF796FDA0484078002302463921009075
:101DF0000120FFF721FD9C48807800230246412105
:101E000000900120FFF718FD9748C0780023024694
:101E1000492100900120FFF70FFD002398A25121D6
:101E20000120FFF775FD8B480078012806D10023BB
:101E300094A229210320FFF76BFD05E0002392A265
:101E400029210320FFF764FD8248407800230246E1
:101E5000312100900320FFF7EFFC7E4880780023BB
:101E60000246392100900320FFF7E6FC002383A2FD
:101E700041210320FFF74CFD7648C078002302463D
:101E8000492100900320FFF7D7FC00237FA25921AE
:101E90000320FFF73DFD71480078012806D100239B
:101EA00078A229210520FFF733FD05E0002376A263
:101EB00029210520FFF72CFD6848407800230246C1
:101EC000312100900520FFF7B7FC6448807800239B
:101ED0000246392100900520FFF7AEFC002367A2DF
:101EE00041210520FFF714FD5C48C078002302461D
:101EF000492100900520FFF79FFC002363A2592190
:101F00000520FFF705FD01F04DBA61480078012872
:101F100009D100205E49087001F0BEFC5D480078E0
:101F200008B901F031FD5C480078012809D1002092
:101F30005949087001F07EFD5648007808B901F053
:101F4000EBFD56480078032801D101F033FE5448D8
:101F5000007818B9002052490870D4E7504800783A
:101F6000012863D100204E4908704A4800780028B3
:101F7000C9D1012047490870FFF742FC002349A25C
:101F800001210846FFF7C4FC4848007848B9022000
:101F90004749087000233CA229210120FFF7B8FC23
:101FA0000BE00120424908704048007801230246B6
:101FB000292100901846FFF73FFC3C48007848B9BB
:101FC0003A48407801230246312100901846FFF735
:101FD00033FC08E035484078002302463121009068
:101FE0000120FFF729FC314880780023024639217F
:101FF00000900120FFF720FC002320A241210120B6
:10200000FFF786FC2948C07800230246492100904A
:102010000120FFF711FC002326A251210120FFF728
:1020200077FC002324A26121072049E04BE0000057
:102030008C04002041542B4652453D3130302E3027
:102040000D0A0000002001409404002096040020A6
:102050009A0400205D0400209C04002061040020FC
:10206000840400208804002065040020B5E7D1B96D
:102070003A000000CEC2B6C83A0000002E000000B0
:10208000560000002D00000020000000A1E6000026
:10209000470400207D040020450400202405002082
:1020A0007C040020D4D8C6B53A000000700400209B
:1020B0007E0400204D487A00C8B7B6A80000000092
:1020C000FFF726FC1FE7FE48007802287ED100209B
:1020D000FB490870FB480078002863D10120F949CA
:1020E0000870FFF78DFB0023AFF24802012108467C
:1020F000FFF70EFCF448007850B90220F34908704D
:102100000023AFF27C0229210120FFF701FC0BE044
:102110000120EE490870EC4800780123024629218D
:1021200000901846FFF788FBE748007848B9E64872
:10213000407801230246312100901846FFF77CFBCE
:1021400008E0E14840780023024631210090012058
:10215000FFF772FBDC4880780023024639210090AB
:102160000120FFF769FB0023AFF2F00241210120BB
:10217000FFF7CEFBD448C0780023024649210090E7
:102180000120FFF759FB0023AFF2D80251210120B3
:10219000FFF7BEFB0023AFF2E00261210720FFF74B
:1021A000B7FBB0E6C748007801288BD1C748007854
:1021B000012821D1C6480078092810D0C4480078E9
:1021C000401CC34908700846007800E03CE1012348
:1021D0000246292100901846FFF72EFB93E60020C7
:1021E000BB49087008460078012302462921009067
:1021F0001846FFF721FB86E6B448007802283ED156
:10220000B348407809282BD10020B14948700846CE
:10221000407801230246312100901846FFF70CFB5D
:10222000AB48007809280CD10020A949087008465D
:10223000007800230246292100900120FFF7FCFAD4
:1022400061E6A3480078401CA14908700846007860
:1022500000230246292100900120FFF7EDFA52E603
:102260009B484078401C9A494870084640780123B2
:102270000246312100901846FFF7DEFA43E6934804
:10228000007803285DD19248807809284AD100203F
:102290008F498870084680780123024639210090D2
:1022A0001846FFF7C9FA8A48407809282BD1002040
:1022B0008749487008464078002302463121009043
:1022C0000120FFF7B9FA8248007809280CD10020D4
:1022D0007F490870084600780023024629210090B3
:1022E0000120FFF7A9FA0EE679480078401C7849EA
:1022F000087008460078002302462921009001203A
:10230000FFF79AFAFFE572484078401C7049487020
:102310000846407800230246312100900120FFF753
:102320008BFAF0E56A488078401C69498870084655
:10233000807801230246392100901846FFF77CFA85
:10234000E1E56248007805287DD16148C078092818
:1023500069D100205E49C8700846C0780123024652
:10236000492100901846FFF767FA594880780928F4
:102370004AD10020564988700846807800230246DA
:10238000392100900120FFF757FA51484078092879
:102390002BD100204E494870084640780023024661
:1023A000312100900120FFF747FA494800780928B9
:1023B0000CD10020464908700846007800230246E8
:1023C000292100900120FFF737FA9CE5404800786A
:1023D000401C3F4908700846007800230246292126
:1023E00000900120FFF728FA8DE539484078401C1D
:1023F0003749487008464078002302463121009052
:102400000120FFF719FA7EE531488078401C3049F9
:102410008870084680780023024639210090012008
:10242000FFF70AFA6FE52A48C078401C2849C870AF
:102430000846C07801230246492100901846FFF75C
:10244000FBF960E5FFE75EE51D480078032876D1DB
:1024500000201B4908701B4800780028B5D10120D6
:1024600018490870FFF7CCF90023AFF2C8320121F8
:102470000846FFF74DFA1448007850B90220134976
:1024800008700023AFF2004229210120FFF740FA33
:102490000BE001200D4908700B480078012302462B
:1024A000292100901846FFF7C7F907480078A0B91E
:1024B000054840780123024631210090184609E082
:1024C0007C0400207D040020700400207E04002095
:1024D00074040020FFF7B0F908E0FE4840780023BC
:1024E0000246312100900120FFF7A6F9F9488078D3
:1024F00000230246392100900120FFF79DF90023B7
:10250000AFF2884241210120FFF702FAF148C0787A
:1025100000230246492100900120FFF78DF9002396
:10252000AFF2704251210120FFF7F2F90023AFF220
:10253000784261210720FFF7EBF9E4E4FFE7E64882
:10254000007804287DD10020E3490870E348007832
:1025500090BB0120E1490870FFF752F90023AFF268
:10256000BC4201210846FFF7D3F9DA48007850B998
:102570000220DB4908700023AFF2F4422921012038
:10258000FFF7C6F90BE00120D5490870D148007863
:1025900001230246292100901846FFF74DF9CD4846
:1025A000007850B9CB484078012302463121009091
:1025B0001846FFF741F909E030E0C64840780023AB
:1025C0000246312100900120FFF736F9C14880789A
:1025D00000230246392100900120FFF72DF9002346
:1025E000AFF2685241210120FFF792F9B948C07853
:1025F00000230246492100900120FFF71DF9002326
:10260000AFF2505251210120FFF782F90023AFF2BF
:10261000585261210720FFF77BF974E4AF48007836
:1026200001288AD1AE480078012815D10720AC498D
:102630000870AC4800780023024629210090012050
:1026400000E085E0FFF7F8F80123AFF29452612132
:102650000720FFF75DF956E4A148007802282BD146
:10266000A048007890B907209D4908700123AFF277
:10267000B8526121FFF74CF99A484078002302468E
:10268000312100900120FFF7D7F83CE40120944964
:1026900008709448407800230246312100900120C0
:1026A000FFF7CAF88F4800780123024629210090DD
:1026B0001846FFF7C1F826E489480078032815D1A9
:1026C000022087490870874840780123024631215B
:1026D00000901846FFF7B0F8824880780023024641
:1026E000392100900120FFF7A7F80CE47C4800781E
:1026F000052815D103207A4908707A48807801238B
:102700000246392100901846FFF796F87548C078C0
:1027100000230246492100900120FFF78DF81CE4B8
:102720006F480078072896D105206D49087000236E
:10273000AFF27C6261210720FFF7EAF86948C078B0
:1027400001230246492100901846FFF775F804E47A
:102750006148007805287DD100205F4908705F48F6
:10276000007890BB01205D490870FFF749F800230D
:10277000AFF2D06201210846FFF7CAF85548007849
:1027800050B90220564908700023AFF20472292183
:102790000120FFF7BDF80BE00120514908704D48BA
:1027A000007801230246292100901846FFF744F8DB
:1027B0004848007850B94748407801230246312103
:1027C00000901846FFF738F809E030E041484078BB
:1027D00000230246312100900120FFF72DF83D48EB
:1027E000807800230246392100900120FFF724F869
:1027F0000023AFF2787241210120FFF789F83548B4
:10280000C07800230246492100900120FFF714F808
:102810000023AFF2607251210120FFF779F8002305
:10282000AFF26C7261210720FFF772F84AE42B487F
:10283000007801288BD12A480078072887D12948B9
:1028400000784FF47A7110FB01F02649497801EBCA
:10285000C10200E0DFE102EB011100EB8100214940
:10286000897801EB810100EB41001E49C9780844D9
:102870001D49086008460068B0F55C7F7DD30846B6
:102880000068B0F5876F78D816480078114908704D
:102890001448407848701348807888701148C07890
:1028A000C87041211148FEF709FF54210F48FEF777
:1028B00005FF2B210D48FEF701FF46210B48FEF7CF
:1028C000FDFE52210948FEF7F9FE45210748FEF7B3
:1028D000F5FE0DE0700400207C0400207D04002043
:1028E0007E040020740400208004002000200140A9
:1028F0003D21FE48FEF7E2FEFD48007818BBFC488B
:1029000040783030C0B201460090F848FEF7D6FE5D
:10291000F74880783030C0B201460090F348FEF7A7
:10292000CDFEF348C0783030C0B201460090EF4889
:10293000FEF7C4FE0D21ED48FEF7C0FE0A21EB486C
:10294000FEF7BCFE2DE0EA4800783030C0B2014608
:102950000090E648FEF7B2FEE54840783030C0B25D
:1029600001460090E148FEF7A9FEE148807830304A
:10297000C0B201460090DD4800E0D0E0FEF79EFEC8
:10298000DB48C0783030C0B201460090D748FEF72F
:1029900095FE0D21D548FEF791FE0A21D348FEF79A
:1029A0008DFE0020D3490870FEF72AFF0023AFF602
:1029B000441201210846FEF7ABFF0023AFF64C128C
:1029C00001210320FEF7A4FFCB4800780023024634
:1029D000292100900120FEF72FFF0023AFF664129B
:1029E00031210120FEF794FFC348407800230246BE
:1029F000392100900120FEF71FFFBF488078002397
:102A00000246412100900120FEF716FFBA48C07827
:102A100000230246492100900120FEF70DFF00230C
:102A2000AFF6A41251210120FEF772FFB3480078DF
:102A3000012807D10023AFF6B41229210320FEF7A5
:102A400067FF06E00023AFF6C01229210320FEF73E
:102A50005FFFAA48407800230246312100900320FE
:102A6000FEF7EAFEA548807800230246392100904F
:102A70000320FEF7E1FE0023AFF6002241210320F0
:102A8000FEF746FF9D48C07800230246492100908A
:102A90000320FEF7D1FE0023AFF6102259210320B8
:102AA000FEF736FF96480078012807D10023AFF6DD
:102AB0002C2229210520FEF72BFF06E00023AFF68C
:102AC000382229210520FEF723FF8D484078002376
:102AD0000246312100900520FEF7AEFE884880783E
:102AE00000230246392100900520FEF7A5FE0023B1
:102AF000AFF6782241210520FEF70AFF8048C07812
:102B000000230246492100900520FEF795FE002390
:102B1000AFF6882259210520FEF7FAFE10E474482A
:102B2000007878490870724840784870704880781A
:102B300088706F48C078C870FEF762FE002372A2EA
:102B400001210846FEF7E4FE7348FEF7C3F8FEF7DE
:102B500057FE0120674908700023AFF6B822012113
:102B60000846FEF7D5FE6248007850B902206B494E
:102B700008700023AFF6F02229210120FEF7C8FEDD
:102B80000BE001206549087059480078012302468E
:102B9000292100901846FEF74FFE5548007848B9A5
:102BA0005348407801230246312100901846FEF731
:102BB00043FE08E04E484078002302463121009051
:102BC0000120FEF739FE4A48807800230246392169
:102BD00000900120FEF730FE0023AFF66032412165
:102BE0000120FEF795FE4248C078002302464921A5
:102BF00000900120FEF720FE0023AFF6483251215D
:102C00000120FEF785FE0023AFF654326121072034
:102C1000FEF77EFEC6E342480078062864D1002015
:102C20003F4908703348007890BB01203149087053
:102C3000FEF7E6FD0023AFF6943201210846FEF7C9
:102C400067FE2B48007850B90220344908700023F1
:102C5000AFF6CC3229210120FEF75AFE0BE001200D
:102C60002E4908702248007801230246292100904D
:102C70001846FEF7E1FD1E48007850B91C48407820
:102C800001230246312100901846FEF7D5FD09E0E8
:102C90004FE0174840780023024631210090012080
:102CA000FEF7CAFD124880780023024639210090C1
:102CB0000120FEF7C1FD0023AFF640424121012073
:102CC000FEF726FE0A48C0780023024649210090FC
:102CD0000120FEF7B1FD0023AFF62842512101206B
:102CE000FEF716FE00231DE0BCE0000000200140BE
:102CF000700400207D040020650400205D04002095
:102D00006104002074040020D4D8C6B5B3ACB7B6B3
:102D1000CEA7A3A100000000683C01007E040020B3
:102D20007C040020AFF6704261210720FEF7F0FD21
:102D300038E3FE4800780128FAD1FD4800780128E0
:102D400015D10220FA490870FA480078002302469B
:102D5000292100900120FEF76FFDF64840780123FD
:102D60000246312100901846FEF766FD1AE3F0484E
:102D70000078022815D10320ED490870ED4840780D
:102D800000230246312100900120FEF755FDE9485D
:102D9000807801230246392100901846FEF74CFD49
:102DA00000E3E3480078032815D10520E0490870C6
:102DB000E048807800230246392100900120FEF788
:102DC0003BFDDC48C07801230246492100901846AB
:102DD000FEF732FDE6E2D6480078052813D1072039
:102DE000D3490870D348C078002302464921009097
:102DF0000120FEF721FD0123AFF644526121072097
:102E0000FEF786FDCEE2CA480078072890D1C9486F
:102E1000007898B90220C64908700023AFF66852BE
:102E200061210720FEF774FDC24840780123024665
:102E3000312100901846FEF7FFFCB3E20120BC49A7
:102E400008700023AFF6905261210720FEF760FD65
:102E5000B848007801230246292100901846FEF761
:102E6000EBFC9FE2B448007807286AD10020B24901
:102E70000870AE480078002892D10120AB49087054
:102E8000FEF7BEFC0023AFF6E45201210846FEF730
:102E90003FFDAA48007850B90220A54908700023D8
:102EA000AFF61C6229210120FEF732FD0BE0012064
:102EB0009F490870A148007801230246292100900B
:102EC0001846FEF7B9FC9D48007848B99B48407801
:102ED00001230246312100901846FEF7ADFC08E0C0
:102EE0009648407800230246312100900120FEF7E9
:102EF000A3FC9248807800230246392100900120EB
:102F0000FEF79AFC0023AFF68C6241210120FEF708
:102F1000FFFC8A48C0780023024649210090012026
:102F2000FEF78AFC0023AFF6746251210120FEF700
:102F3000EFFC0023AFF6806261210720FEF7E8FC7A
:102F400030E27D48007808287ED100207A49087058
:102F50007648007890BB012074490870FEF750FC59
:102F60000023AFF6C06201210846FEF7D1FC73488A
:102F7000007850B902206E4908700023AFF6F8625D
:102F800029210120FEF7C4FC0BE0012068490870EC
:102F90006A48007801230246292100901846FEF76E
:102FA0004BFC6648007850B96448407801230246DB
:102FB000312100901846FEF73FFC09E030E05F4801
:102FC000407800230246312100900120FEF734FCB6
:102FD0005A48807800230246392100900120FEF7EC
:102FE0002BFC0023AFF66C7241210120FEF790FC10
:102FF0005248C07800230246492100900120FEF784
:103000001BFC0023AFF6547251210120FEF780FC17
:103010000023AFF65C7261210720FEF779FCC1E165
:103020004248007801288BD141480078012820D1FE
:103030004048007870B909203E4908700846007879
:1030400001230246292100E041E100901846FEF7E5
:10305000F3FBA7E137480078401E36490870084660
:10306000007801230246292100901846FEF7E4FB70
:1030700098E12F48007802283CD12E48407850BB78
:1030800009202C4948700846407801230246312126
:1030900000901846FEF7D0FB2648007860B909205A
:1030A0002449087008460078002302462921009030
:1030B0000120FEF7C1FB75E11E480078401E1D4946
:1030C000087008460078002302462921009001205C
:1030D000FEF7B2FB66E117484078401E154948707C
:1030E0000846407801230246312100901846FEF739
:1030F000A3FB57E10E480078032867D10D4880787C
:10310000A8BB09200B498870084680780123024635
:10311000392100901846FEF78FFB0648407838BBEF
:103120000920044948700846407809E07D040020E1
:103130007E040020740400207C0400207004002021
:1031400000230246312100900120FEF775FB9648CE
:10315000007870B909209449087008460078002367
:103160000246292100900120FEF766FB1AE11EE0CD
:103170000EE08D480078401E8B49087008460078A4
:1031800000230246292100900120FEF755FB09E1AA
:1031900085484078401E844948700846407800239E
:1031A0000246312100900120FEF746FBFAE07E48FE
:1031B0008078401E7C49887008468078012302464A
:1031C000392100901846FEF737FBEBE0774800788E
:1031D00005287BD17448C078C8BB09207249C870E3
:1031E0000846C07801230246492100901846FEF7A0
:1031F00023FB6D48807858BB09206B4988700846CE
:10320000807800230246392100900120FEF714FB4C
:103210006548407860BB092063494870084640789B
:1032200000230246312100900120FEF705FB5E4895
:10323000007870B909205C490870084600780023BE
:103240000246292100900120FEF7F6FAAAE02DE0BF
:103250001DE055480078401E534908700846007824
:1032600000230246292100900120FEF7E5FA99E0AB
:103270004D484078401E4C4948700846407800232D
:103280000246312100900120FEF7D6FA8AE0464836
:103290008078401E444988700846807800230246A2
:1032A000392100900120FEF7C7FA7BE03E48C07844
:1032B000401E3D49C8700846C07801230246492196
:1032C00000901846FEF7B8FA6CE0FFE76AE038486D
:1032D0000078092866D10020354908703548007803
:1032E00080BB012033490870FEF78AFA0023324A76
:1032F00001210846FEF70CFB3048007848B902204F
:103300002A49087000232EA229210120FEF700FB84
:103310000BE0012025490870284800780123024667
:10332000292100901846FEF787FA2448007850B902
:103330002248407801230246312100901846FEF7CA
:103340007BFA09E02EE01D48407800230246312137
:1033500000900120FEF770FA18488078002302469A
:10336000392100900120FEF767FA002315A24121C0
:103370000120FEF7CDFA1148C0780023024649210A
:1033800000900120FEF758FA00230B4A1032512119
:103390000120FEF7BDFA0023074A143261210720FD
:1033A000FEF7B6FAFEF7B1BD740400207E040020DB
:1033B0007C0400207D040020A42000007004002074
:1033C000200000002E00000010B5F2480078A6286A
:1033D00003DD2120F0490870F6E0EE480078A028CF
:1033E00003DD2020EC490870EEE0EA4800789D28D3
:1033F00003DD1F20E8490870E6E0E64800789A28D7
:1034000003DD1E20E4490870DEE0E24800789728DA
:1034100003DD1D20E0490870D6E0DE4800788E28E4
:1034200003DD1C20DC490870CEE0DA4800788228F1
:1034300003DD1B20D8490870C6E0D64800787F28F5
:1034400003DD1A20D4490870BEE0D24800787928FC
:1034500003DD1920D0490870B6E0CE480078762800
:1034600003DD1820CC490870AEE0CA480078732804
:1034700003DD1720C8490870A6E0C6480078702808
:1034800003DD1620C44908709EE0C24800786D280C
:1034900003DD1520C049087096E0BE4800786A2810
:1034A00003DD1420BC4908708EE0BA480078672814
:1034B00003DD1320B849087086E0B64800785E281E
:1034C00003DD1220B44908707EE0B24800785B2822
:1034D00003DD1120B049087076E0AE4800785A2824
:1034E00003DD1020AC4908706EE0AA480078482837
:1034F00003DD0F20A849087066E0A648007845283B
:1035000003DD0E20A44908705EE0A248007842283E
:1035100003DD0D20A049087056E09E4800783F2842
:1035200003DD0C209C4908704EE09A4800783C2846
:1035300003DD0B209849087046E09648007839284A
:1035400003DD0A20944908703EE092480078322852
:1035500003DD09209049087036E08E480078302855
:1035600003DD08208C4908702EE08A48007818286E
:1035700003DD07208849087026E086480078152872
:1035800003DD0620844908701EE082480078122876
:1035900003DD05208049087016E07E4800780F287A
:1035A00003DD04207C4908700EE07A4800780C287E
:1035B00003DD03207849087006E076480078092882
:1035C00002DD0220744908707348007822281AD25C
:1035D000DFE800F019111A232C353E475059626B71
:1035E000747D868F98A1AAB3BCC5CED7F0F9EDEC57
:1035F000EBEAE9E8E7E66949886BFDF72BFC6749E8
:10360000886BFDF749FC2FE16449C86CFDF722FC8B
:103610006249C86CFDF740FC26E16049886CFDF703
:1036200019FC5E49886CFDF737FC1DE15B49C86CED
:10363000FDF710FC5949C86CFDF72EFC14E1574901
:10364000486CFDF707FC5549486CFDF725FC0BE17C
:103650005249C86BFDF7FEFB5049C86BFDF71CFCD7
:1036600002E14E49886BFDF7F5FB4C49886BFDF78D
:1036700013FCF9E04949C86CFDF7ECFB4749C86CFD
:10368000FDF70AFCF0E04549886DFDF7E3FB43498F
:10369000886DFDF701FCE7E04049486DFDF7DAFB76
:1036A0003E49486DFDF7F8FBDEE03C49C86CFDF78C
:1036B000D1FB3A49C86CFDF7EFFBD5E03749886C80
:1036C000FDF7C8FB3549886CFDF7E6FBCCE03349D4
:1036D000486CFDF7BFFB3149886CFDF7DDFBC3E0AB
:1036E0002E49886CFDF7B6FB2C49886CFDF7D4FB9E
:1036F000BAE02A49C86CFDF7ADFB2849C86CFDF754
:10370000CBFBB1E02549C86CFDF7A4FB2349C86C8D
:10371000FDF7C2FBA8E02149486DFDF79BFB1F495F
:10372000486DFDF7B9FB9FE01C49886DFDF792FBE2
:103730001A49886DFDF7B0FB96E01849C86DFDF792
:1037400089FB1649C86DFDF7A7FB8DE01349886D0D
:10375000FDF780FB1149886DFDF79EFB84E00F4962
:10376000486DFDF777FB0D49486DFDF795FB7BE054
:103770000A49C86CFDF76EFB0849C86CFDF78CFB65
:1037800072E00649886CFDF765FB0449886CFDF71B
:1037900083FB69E02105002022050020A004002011
:1037A00059E04FE045E03BE031E027E01DE013E069
:1037B00009E0FFE73549486CFDF74CFB3349486C9D
:1037C000FDF76AFB50E03149486CFDF743FB2F4998
:1037D000486CFDF761FB47E02C49886CFDF73AFB2C
:1037E0002A49886CFDF758FB3EE02849C86CFDF774
:1037F00031FB2649C86CFDF74FFB35E02349886C47
:10380000FDF728FB2149886CFDF746FB2CE01F499A
:10381000C86CFDF71FFB1D49C86CFDF73DFB23E09D
:103820001A49C86BFDF716FB1849C86BFDF734FB46
:103830001AE01649886BFDF70DFB1449886BFDF7FC
:103840002BFB11E01149486BFDF704FB0F49486B56
:10385000FDF722FB08E00D49886BFDF7FBFA0B49E9
:10386000886BFDF719FB00BF00BF09480078BE2830
:1038700006D100200649087001200649087004E0BE
:1038800003480078401C0249087010BDA0040020C5
:10389000210500202205002010B54F20FDF7C6F8B5
:1038A000334908804820FDF7C1F832490880304884
:1038B000B0F90000002808DA2D48008840422E495F
:1038C000088001202D49087006E0294800882A490F
:1038D00008800020294908702648B0F90000002817
:1038E00008DA2448008840422549088001202549FB
:1038F000087006E01F4800882149088000202149FF
:1039000008701D480088642190FBF1F01B49487045
:10391000194800880A2190FBF1F090FBF1F201FBBD
:10392000120016498870144800880A2190FBF1F2B1
:1039300001FB12001149C87011480088642190FBF6
:10394000F1F0104948700E4800880A2190FBF1F010
:1039500090FBF1F201FB12000A49887008480088C8
:103960000A2190FBF1F201FB12000649C87010BD5C
:1039700094040020960400209A0400205D04002096
:103980009C0400206104002010B52648007801281E
:1039900006D1002324A229210320FDF7B9FF05E069
:1039A000002322A229210320FDF7B2FF1D484278FF
:1039B000002331210320FDF73FFF1A4882780023BE
:1039C00039210320FDF738FF1648C278002349212A
:1039D0000320FDF731FF16480078012806D10023A7
:1039E00011A229210520FDF793FF05E000230FA276
:1039F00029210520FDF78CFF0D4842780023312155
:103A00000520FDF719FF0A48827800233921052097
:103A1000FDF712FF0648C278002349210520FDF773
:103A20000BFF10BD5D0400202D00000020000000F1
:103A30006104002010B5FCF729FE0446FCF726FEC1
:103A40000444FCF723FE0444FCF720FE0444FCF786
:103A50001DFE0444FCF71AFE0444FCF717FE044460
:103A6000FCF714FE0444FCF711FE0444FCF70EFEC0
:103A70000444FCF70BFE0444FCF708FE0444FCF786
:103A800005FE0444FCF702FE0444FCF7FFFD20445D
:103A90000F21B0FBF1F01D4908600846006840F6B0
:103AA000E441484340F6FF71B0FBF1F0184908606B
:103AB000084600684FF47A71B0FBF1F00A21B0FBC0
:103AC000F1F201FB120013490870114800686421EB
:103AD000B0FBF1F00A21B0FBF1F201FB12000D493D
:103AE00048700B4800680A21B0FBF1F0B0FBF1F21E
:103AF00001FB120007498870054800680A21B0FBE5
:103B0000F1F201FB12000349C87010BD84040020CB
:103B1000880400206504002010B50E4802780023B8
:103B200029210120FDF788FE0A4842780023392127
:103B30000120FDF781FE0748827800234121012002
:103B4000FDF77AFE0348C278002349210120FDF7E2
:103B500073FE10BD6504002070B50446002521E009
:103B6000002220211148FCF75EFF0A20FDF7CCF867
:103B700004F0800028B1042211460D48FCF753FFE1
:103B800004E0002204210A48FCF74DFF6006040E01
:103B9000202211460548FCF746FF0A20FDF7B4F83D
:103BA000681CC5B2082DDBDB70BD00000060004062
:103BB0000010064010B52DED0C8B1D49C87800F0A3
:103BC000D5F941EC1D0B9FED1B0B53EC102B00F0B6
:103BD000E1F941EC1B0B16498978154A527802EB42
:103BE000820201EB420000F0AAF941EC1C0B53ECFD
:103BF0001B2B00F0CFF841EC1A0B9FED100B53EC90
:103C0000102B00F0C7F941EC190B9FED0E0B53EC94
:103C1000102B00F0BFF841EC180B00F063F90B49D2
:103C2000086008460068FDF737F9BDEC0C8B10BD45
:103C3000610400209A9999999999B93F0000000070
:103C4000002057400000000000C072406C040020BB
:103C500070B50446002210211648FCF7E4FE00224D
:103C600002211548FCF7DFFE00251BE00022202181
:103C70001048FCF7D8FE04F0800028B1102211464D
:103C80000E48FCF7D0FE04E0002210210B48FCF7A0
:103C9000CAFE202211460748FCF7C5FE6000044614
:103CA000681CC5B2082DE1DB102211460148FCF763
:103CB000BAFE70BD005000400010064000400240B7
:103CC00070B50446002210211648FCF7ACFE022213
:103CD00011461548FCF7A7FE00251BE00022202115
:103CE0001048FCF7A0FE04F0800028B11022114615
:103CF0000E48FCF798FE04E0002210210B48FCF768
:103D000092FE202211460748FCF78DFE6000044613
:103D1000681CC5B2082DE1DB102211460148FCF7F2
:103D200082FE70BD0050004000100640004002407E
:103D300021F00042A2F16052B2F5801F01F0004371
:103D400028BFD2F17F6C0BD95FEA001C43EAC202A4
:103D500042EB507018BF704728BF20F00100704739
:103D6000B2F5801FBCBF184670474FEA410C1CF5E6
:103D7000001F02D2084600F0FABA70B500F0B4F99C
:103D800000000089FFF7F6BF4FF00040A0F580006B
:103D90007047000010B591EA030F48BF83F000435D
:103DA00000F1FE81841A71EB030C05D2121943EB6A
:103DB0000C03001B61EB0C01DFF824E14FEA115406
:103DC000A4EB135C1EEA430F18BF9EEA445F73D056
:103DD00023EA0E03DCF1200E21EA045143F48013A0
:103DE00032D322FA0CFE10EB0E0023FA0CFE41EB4C
:103DF0000E01CCF1200E03FA0EFE10EB0E0051F175
:103E00000001B1F5801FCCF1200E32D201EB04513C
:103E100012FA0EF2BDE8104058BF7047401C38BF80
:103E20005FEA420218BF7047002814BF20F001006B
:103E300041F100014FEA410313F5001F38BF7047FD
:103E4000A1F1C04100F09EB9012A43EB0302ACF19D
:103E5000200CDCF11F0E32BF4FF0000E23FA0CF3E2
:103E600010EB030041EB0451B4EB115FD0D0A1EB98
:103E7000045101F5801149085FEA300001EB04515B
:103E80000ED350F1000038BF12FA0EFE08D1BDE883
:103E90001040C9E7401C38BF5FEA4202CAD1C3E7FD
:103EA000BDE810404FEA410313F5001F38BF7047CB
:103EB000A1F1C04100F066B99EEA445F08D011EA62
:103EC0005E0FBDE8104004BF01F0004100207047C4
:103ED000BDE8104070B500F007F900BF64FBBE3EBE
:103EE0000000E0FF4FEA1153A3F58063D3F11E03F6
:103EF000A8BFD3F1200C08DB4FF0004242EAC122F8
:103F000052EA505232FA03F0704709420BD4102B98
:103F1000C4BF0020704703F5787CBCF1FF3F05D09B
:103F20004FF0FF3070474FF00000704770B500F061
:103F3000DBF800BF4992248000207047F0E710F0C2
:103F4000004248BF4042B0FA80F310FA03F10AD0B1
:103F5000C3F11D0303F580634FEA415002EB0352A6
:103F600002EBD12170474FF000007047B0FA80F3A8
:103F700010FA03F10AD0C3F11D0303F580634FEA81
:103F800041504FEA035202EBD12170474FF000003D
:103F900070470000DFF848C170B51CEA111E1EBF53
:103FA0001CEA13159EEA0C0F95EA0C0F00F06F80C7
:103FB00081EA030423EA4C134EEAD47E21EA4C1131
:103FC00041F4801143F48013AE44A1FB024CA0FBEA
:103FD0000365AEF17F7E361955EB0C05A1FB034C52
:103FE0004CF10003A0FB021C16EB0C06654153F1DB
:103FF0000003094218BF46F0010613F4007F0BD1FD
:104000004FEA03314FEA0530340341EA155140EAE3
:1040100016506FF003020AE04FEAC3214FEAC520B1
:10402000F40241EA555140EA56506FF0020202EBA9
:104030002E4201EB025585EACE710AD05FEA440CAC
:1040400018BF24F0004450F1000041F1000120EAC3
:10405000D47040F2FE7C624500D270BDA84214BF0D
:104060004FF080444FF04044002E08BF0024BEF1C2
:10407000806FA8BFA1F1C041BDE8704080F282808E
:104080004FF0000001F1C04101F0004170479EEA8D
:104090000C0F0CEA131518BF95EA0C0F06D04FF061
:1040A000000081EA030E0EF0004170BD00F01CF824
:1040B0008900013E00F007B800F009B84FEA430C50
:1040C0005FEA5C5C08D081EA030100F05BB84FEA6C
:1040D000410C5FEA5C5CF6D14FF00000014970478B
:1040E0000000FF070000F87F0EF1020E2EF0030E15
:1040F0005EF8046B364205D4012A43EB030515F53F
:10410000001F12D8012841EB010C1CF5001F0CD830
:104110000ED14FEAD17C15F5001F0CEB4C0C0CF1C5
:10412000020C08BF4CEBD37C04E04FF0080C01E01C
:104130004FEAD37C0CEB4C0526FA05F606F0070691
:10414000B6F1040C06D20EEB860CBDE870404CF0C4
:10415000010C6047DFE80CF0090B02024FF0004150
:104160004FF00000A1F5002170BD1946104601284E
:1041700051EB010418BFD4F5001484BF002001F0F6
:10418000004170BD0808A0F500114FEA31017047E9
:1041900010B591EA030F48BF83F000433FF502AE2C
:1041A000841A71EB030C07D212198CF0004C43EB0C
:1041B0000C03001B61EB0C01DFF8A4E14FEA115482
:1041C000A4EB135C1EEA430F18BF9EEA445F00F0A5
:1041D000B08023EA6E03524221EA0451C3EB6E031E
:1041E00038BF5B1EDCF1200E25D322FA0CFE10EB4B
:1041F0000E0043FA0CFE41EB0E01CCF1200E03FA47
:104200000EFE10EB0E0051F10001CCF1200E29D46E
:1042100012FA0EF201EB0451BDE8104058BF70478E
:10422000401C1CBFB2F1004F704700280CBF491C56
:1042300020F00100704712EB020E43EB030218BF9F
:104240004FF0010E4EEA4202ACF1200CDCF11E0EE2
:1042500054D943FA0CFE10EB0E0051F1FF31CCF1B2
:104260001E0ED5D50EF1010E12FA0EFE404141EBA5
:10427000010101EB445C5FEA5C5C10D910EBDE707D
:1042800001EB045138BFBEF1004FBDE8104018BF2C
:10429000704700280CBF491C20F00100704730D245
:1042A0004FEAD42C11F5001124F400641BD0B1FAAC
:1042B00081F20B3AA41AA41ED2F12003914030FAE5
:1042C00003F31943904001EBCC71002C01EB045136
:1042D000BDE81040A8BF704701F1C0414FF0000099
:1042E00001F000417047B0FA80F310FA03F100D1F9
:1042F00010BDE41A173C4805C90AE4E701EB045174
:1043000010BD491001EB0451BDE810404FEA3000E8
:1043100002E04FF0000170474A0008BF0042F8D0A9
:10432000B2F5001F28BF704701F000414FF00000B8
:1043300070479EEA445F07D011EA5E0FBDE8104067
:1043400004BF002100207047BDE8104070B5FFF7A2
:10435000CBFE00BF40DFF63E83F0004110467047C1
:104360000000E0FF4FF04070E1EE100A7047FF21BF
:1043700041EAD050C00570470040004010000000E6
:1043800000800540100000000050004011000000B7
:104390000090054011000000006000401200000085
:1043A00000A0054012000000007000401300000053
:1043B00000B005401300000000400240140000005F
:1043C00000C0054014000000005002402E00000014
:1043D00000D005402E000000006002402F000000C9
:1043E00000E005402F000000007002403000000097
:1043F00000F005403000000000D0034046000000FF
:104400000000064046000000001006404700000083
:104410000020064048000000003006407F000000F9
:10442000004006408000000000500640840000006C
:10443000006006408C0000000040004010000000BA
:1044400000800540100000000050004011000000F6
:1044500000900540110000000060004012000000C4
:1044600000A0054012000000007000401300000092
:1044700000B005401300000000400240140000009E
:1044800000C0054014000000005002402E00000053
:1044900000D005402E000000006002402F00000008
:1044A00000E005402F0000000070024030000000D6
:1044B00000F005403000000000D003404300000041
:1044C00000000640430000000010064044000000C9
:1044D0000020064045000000003006405800000063
:1044E0000040064059000000005006405C000000FB
:1044F0000060064064000000007006406C00000090
:10450000008006406D000000009006407F00000023
:1045100000400040008005400050004000900540F1
:104520000060004000A005400070004000B0054061
:104530000040024000C005400050024000D005404D
:104540000060024000E005400070024000F00540BD
:1045500000D0034000000640001006400010064056
:104560000020064000200640003006400030064093
:104570000040064000400640005006400050064003
:104580000060064000600640007006400070064073
:1045900000800640008006400090064000900640E3
:1045A00000688909001C4E0E40420F0000201C00CC
:1045B00080841E0000802500999E3600004038004F
:1045C00000093D0000803E0000004B00404B4C00C5
:1045D00000204E00808D5B0000C05D0000807000F8
:1045E00000127A0000007D0080969800001BB70042
:1045F0000080BB00C0E8CE00647ADA000024F4003A
:104600000000FA0080A81201002D310100366E0171
:1046100040787D0140000000000000000001000023
:104620003E0008000000000000010000A0000000A3
:1046300002000000000100003454010000000000EE
:10464000000100002B7006000000000000010000C7
:104650002800000000000000000100002700010009
:104660000000000000010000200000000000000029
:1046700000010000500000000200000000010000E6
:104680001AAC0000000000000001000017940900AF
:104690000000000000010000169805000000000066
:1046A00000010000140000000000000000010000F4
:1046B000138008000000000000010000A0000000BE
:1046C00008000000000100001000000000000000D1
:1046D00000010000280000000200000000010000AE
:1046E0004000000004000000000100006000000025
:1046F00000000000000100005D000C000000000050
:104700000001000050000000000000000001000057
:104710004E000200000000000001000041AC01005A
:1047200000000000000100003C000000000000004C
:10473000000100003A8009000000000000010000B4
:104740003000000000000000000100002800000010
:104750000000000000010000270001000000000030
:1047600000010000236006000000000000010000BE
:104770002160080000000000000100001E00000091
:1047800000000000000100001DC004000000000047
:1047900000010000500000000200000000010000C5
:1047A00018000000000000000001000014000000DC
:1047B0000000000000010000600000000400000094
:1047C000000100000024F40030003000005A6202B2
:1047D0009100910000879303D200D20000B4C4047A
:1047E0001301130100E1F50554015401000E2707E0
:1047F0009501950114480000000000202C050000E0
:104800003C020000244A00002C0500206402000045
:104810009802000011300EFE8242A29E8A82868A91
:10482000B26202FE1C7F40400319012909211809C8
:10483000808080BFA5A5A53F041ABF0C1178087F12
:1048400024243F24247F08410A1DFF01B0087F3F34
:104850001F0F070301194A1AC0011808207060FED3
:10486000FEAEFE77900BF8F8B8F8D080C0E0C080BC
:10487000080D1E0103070F1F3F7FFFFFFBF1F062D2
:10488000091A01A978111D98B8BEBF01180ABBBB4F
:10489000BBB9B91110B890BC2CFAFFFFC3D00DFA08
:1048A000FF1D01071D7FFBFEF8E0C01A0187093AD2
:1048B00080D18B193B011511103B112A3F01212991
:1048C000064A10F6F60F1F1F1F0C093F802F7CFEB3
:1048D000FFFF07070F080C197F3F8FC3F0FC3F0E47
:1048E000C2F0FC351B7F7F910809419FDFFFDF9FEE
:1048F0000F0F0F8081100880E0F87E1F0703380833
:1049000008193979F9F999011A9F01180D9B99999C
:10491000F9F979391F0F0703010161567FE1E1E1E0
:104920007F093D8052801CC0F0FC7C195CB80A8075
:10493000C0E0F0B83C3E3F390148093B3F3E3CF8FF
:10494000F0E0C02D410E40F81C1F1CF880581C02DE
:104950000F3F3F7E7EFEFFFFFBF1F060E0F01010A6
:10496000D3D393131393D3D353530A2A530A59130C
:104970005753D3D01030F01E0306040607AF0B3A8E
:10498000E0F0803BFFFED6280F808081838381800A
:10499000BFFFE0E0E0EFEF04180AEBEAEAEBEFE537
:1049A000E0E0EB092AEA133AE7131EEEEEE0E0BF7F
:1049B0002F1901080A1DC0E0F0F8FCFFFF9F9FE2DD
:1049C000715A20014B440101011023BC0212012B3A
:1049D000010704190A1920F92301351A06471A2676
:1049E000041A4A041A5D041A88041AB8045AEE5FBD
:1049F0001A0B781A4B041A93041ABA042310031AD8
:104A000070041ADC04412316041A97042326051A9D
:104A100075042320061AE0041AB8A66A0FC71324E7
:044A2000F40000009E
:0400000500000201F4
:00000001FF
