:020000040000FA
:1000000080020020D1020000D9020000DB020000C3
:10001000DD020000DF020000E1020000000000003D
:10002000000000000000000000000000E3020000EB
:10003000E502000000000000E7020000E50A000001
:10004000EB020000ED020000EF020000F1020000F0
:10005000F3020000DD0E0000F7020000F9020000CC
:10006000FB020000FD020000FF020000010300008F
:10007000030300000503000007030000090300005C
:100080000B0300000D0300000F030000110300002C
:1000900013030000150300001703000019030000FC
:1000A0001B0300001D0300001F03000021030000CC
:1000B000230300002503000027030000290300009C
:1000C0002B0300002D0300002F030000310300006C
:1000D000330300003503000037030000390300003C
:1000E0003B0300003D0300003F030000410300000C
:1000F00043030000450300004703000049030000DC
:100100004B0300004D0300004F03000051030000AB
:10011000530300005503000057030000590300007B
:100120005B0300005D0300005F030000610300004B
:10013000630300006503000067030000690300001B
:100140006B0300006D0300006F03000089030000D3
:1001500000000000000000008B0300008D03000081
:100160008F030000910300000000000093030000D3
:100170009503000097030000990300009B03000013
:100180009D0300009F030000A1030000A3030000E3
:10019000A5030000A7030000A9030000AB030000B3
:1001A000AD030000AF030000B1030000B303000083
:1001B000B5030000B7030000B9030000BB03000053
:1001C000BD030000BF030000C1030000C303000023
:1001D000C5030000C7030000C9030000CB030000F3
:1001E000CD030000CF030000D1030000D3030000C3
:1001F000D5030000D7030000D9030000DB03000093
:1002000000F002F800F03CF80AA090E8000C8244EC
:100210008344AAF10107DA4501D100F031F8AFF2C9
:10022000090EBAE80F0013F0010F18BFFB1A43F0D4
:1002300001031847A8140000C8140000103A24BF96
:1002400078C878C1FAD8520724BF30C830C144BF3B
:1002500004680C607047000000230024002500267D
:10026000103A28BF78C1FBD8520728BF30C148BF19
:100270000B6070471FB500F067FF1FBD10B510BDC4
:1002800000F0BFF81146FFF7F5FF00F00BFF00F09C
:10029000DDF803B4FFF7F2FF03BC00F0E5F800005F
:1002A0000138FDD170470000EFF3108072B670473F
:1002B000EFF310807047EFF3108062B6704730BFE5
:1002C000704780F311887047EFF31180704700008A
:1002D0004548804745480047FEE7FEE7FEE7FEE762
:1002E000FEE7FEE7FEE7FEE7FEE7FEE7FEE7FEE7E6
:1002F000FEE7FEE7FEE7FEE7FEE7FEE7FEE7FEE7D6
:10030000FEE7FEE7FEE7FEE7FEE7FEE7FEE7FEE7C5
:10031000FEE7FEE7FEE7FEE7FEE7FEE7FEE7FEE7B5
:10032000FEE7FEE7FEE7FEE7FEE7FEE7FEE7FEE7A5
:10033000FEE7FEE7FEE7FEE7FEE7FEE7FEE7FEE795
:10034000FEE7FEE7FEE7FEE7FEE7FEE7FEE7FEE785
:10035000FEE7FEE7FEE7FEE7FEE7FEE7FEE7FEE775
:10036000FEE7FEE7FEE7FEE7FEE7FEE7FEE7FEE765
:10037000FEE7FEE7FEE7FEE7FEE7FEE7FEE7FEE755
:10038000FEE7FEE7FEE7FEE7FEE7FEE7FEE7FEE745
:10039000FEE7FEE7FEE7FEE7FEE7FEE7FEE7FEE735
:1003A000FEE7FEE7FEE7FEE7FEE7FEE7FEE7FEE725
:1003B000FEE7FEE7FEE7FEE7FEE7FEE7FEE7FEE715
:1003C000FEE7FEE7FEE7FEE7FEE7FEE7FEE7FEE705
:1003D000FEE7FEE7FEE7FEE7FEE7FEE70448054925
:1003E000034A054B70470000B10B000001020000FA
:1003F00080000020800200208000002070477047AD
:100400007047754600F02CF8AE4605006946534625
:1004100020F00700854618B020B5FFF7DFFFBDE8E4
:1004200020404FF000064FF000074FF000084FF05B
:10043000000B21F00701AC46ACE8C009ACE8C009EC
:10044000ACE8C009ACE8C0098D46704710B5044659
:10045000AFF300802046BDE81040FFF71ABF000050
:10046000004870471C00002001491820ABBEFEE781
:10047000260002007047000010B50749074800F049
:1004800071F90749086000F021F800F00FFB00F057
:10049000CBFD00F05FF910BD002D3101800600F1A9
:1004A00014000020D0F8003412F0010F14BF0B43E9
:1004B0008B43C0F8003412F0020FD0F8202414BF90
:1004C000114322EA0101C0F82014704710B50E480C
:1004D00000F0BAFA00BF0C4800F0CAFA0028FAD0BF
:1004E0000948801C00F0B0FA00BF0748801C00F0EB
:1004F000BFFA0028F9D03021044800F0DAF80121D1
:10050000034800F0D6F810BD090800F000100640BE
:10051000003006402DE9F00301264FF0000C0325C2
:10052000C2F3411706FA0CF40C4211D0D0F8C48F74
:100530004FEA4C0405FA04F928EA0908C0F8C48F08
:10054000D0F8C48F07FA04F448EA0404C0F8C44F92
:100550000CF1010C0CF0FF0CBCF1080FE2D3D0F849
:1005600000C512F0010F14BF4CEA010C2CEA010C7B
:10057000C0F800C5D0F804C512F0020F14BF4CEA51
:10058000010C2CEA010CC0F804C5D0F808C512F023
:10059000040F14BF4CEA010C2CEA010CC0F808C58A
:1005A000D0F818C512F0080F14BF4CEA010C2CEA61
:1005B000010CC0F818C512F0100FD0F83C2514BF7C
:1005C0000A438A43C0F83C25D0F80C2513F0010FEC
:1005D00014BF0A438A43C0F80C25D0F8102513F045
:1005E000020F14BF0A438A43C0F81025D0F814251F
:1005F00013F0040F14BF0A438A43C0F81425D0F83F
:100600001C2513F0080F14BF0A438A43C0F81C25A9
:10061000D0F8442513F4007F14BF0A438A43C0F87E
:100620004425D0F8402513F4407F14BF0A438A4381
:10063000C0F84025D0F82825002B0CBF114322EA32
:100640000101C0F82815BDE8F00370470E4AC0F359
:100650000741D26E01238B401A420C4A1ABF02EBAB
:10066000C101496852F83110020AD1F82C354FF017
:100670000F0C0CFA02FC00F00F0023EA0C03904070
:100680001843C1F82C05704700E00F40EC12000041
:1006900050F82100704730B50C4605460022FFF7A0
:1006A00001FF21462846BDE8304008230122FFF71C
:1006B00031BF30B50C46054608230122FFF72AFF5B
:1006C00021462846BDE830400122FFF7EBBE30B599
:1006D0000C4605460222FFF7E5FE21462846BDE806
:1006E000304008230122FFF715BF40F82120704752
:1006F0001649042804BF086840F4803018D0052843
:1007000004BF086840F4003012D0062812D00F2829
:1007100015D0102838BF7047103800F01F01012293
:1007200002FA01F142090A4850F8220001607047BC
:1007300008607047086840F48020086070474FF0F8
:10074000E020016941F002010161704724ED00E001
:100750003814000010B5FFF7AEFD002818BF0120C7
:1007600010BD00002DE9F003AD4D02462868AD4BE9
:100770001840A0F18053B3F5A02358D002F03809F7
:10078000DFF8A482C2F38414B9F1100F24D0B9F1B8
:10079000300F04BF47F230504FF400130CD0382014
:1007A000904304BF4FF40040C30105D012F0380F4E
:1007B0001CBF0020034613D09C4F12F4605F4FF023
:1007C000000618BF00222CD057F8324044457DD394
:1007D00007EBC2025268DFE0002340461524EBE736
:1007E000A4F10900122822D29148D5F87CC04FF01C
:1007F0004C7350F824002CF01C0C072CA8BF4CF0B4
:10080000100CC5F87CC02E6D4FF4002C16F4807FC0
:10081000D2D1BCF1010C0AD02E6D16F4807FF8D035
:10082000CAE712F0380F18BFB9F1100F03D0BDE8B6
:10083000F00300207047C2F30268DFF8F8C100221D
:1008400057F83290E14503D307EBC202526803E048
:10085000521C062AF4D33246C5F8C020D5F8B02081
:10086000DFF8D4C102EA0C0242F00042C5F8B02021
:10087000DFF8C8C1A4F109024C1E5CF828C0A444EA
:10088000BCFBF1FCD5F8B0101943C5F8B01008EB6B
:10089000C80101EB41046A4902EB420201EBC401C9
:1008A00001EB82046468C5F86441D5F864416FF0D7
:1008B000FF0808EB0C2C44EA0C0CC5F864C151F895
:1008C0002210D5F8602102F4000200E05FE011433D
:1008D000C5F86011D5F86011D5F86021C1F3892100
:1008E000C2F30904D5F86421C2F3042202F1010C19
:1008F000D5F8642102F01F02521CB0FBF2F04A0945
:10090000C2F100084443424301EB481104EB521288
:10091000484302EB9020B0FBFCF04108084600225F
:1009200057F832C0844503D307EBC200466802E0A3
:10093000521C062AF4D3C5F8C060D5F8600110F443
:10094000000F1DBFD5F8B00040F08040C5F8B000E2
:10095000D5F8600104BF40F40000C5F860014FF411
:100960000040D5F8682112F0010F02D1401E002886
:10097000F7DC002808BF002148D0D5F8B0001843A4
:1009800040F0010040F01040C5F8B0003EE0521CBD
:10099000062AFFF419AF3246C5F8C020D5F8602109
:1009A00022F40002C5F86021D5F8B020DFF894C029
:1009B00002EA0C0242F00042C5F8B020002908BF4C
:1009C0004FF0000C0AD0B0FBF1FCBCF1000F18BFD7
:1009D000ACF1010C0CF10101B0FBF1F10846002271
:1009E00057F83240844203D307EBC200466802E066
:1009F000521C062AF4D3C5F8C060D5F8B00043EA0B
:100A00008C22104340F00040C5F8B000D5F8B0008B
:100A100020F47000C5F8B000BDE8F0030846704748
:100A200000E00F400000FF700024F400AC1600004E
:100A30009014000040787D0100FC0FE08814000055
:100A4000FC140000FF0300EFC0F307230749C0B206
:100A5000194401F07043C1F3130143EA411141EA23
:100A6000800040F0007001220260704700E60F40F5
:100A7000C0F307220849C0B2114401F07042C1F32B
:100A8000130142EA411141EA800040F00070006821
:100A9000002818BF0120704700EA0F404FF0E02007
:100AA000016941F0050101617047000010B5064879
:100AB00000683221B0FBF1F4204600F00EF8FFF799
:100AC000EDFF00F003F810BD140000204FF0E0200F
:100AD000016941F00201016170474FF0E021401EC1
:100AE0004861704710B52C4A2C4801782C4800F01A
:100AF00053F900F001F92B4908702B48007810B128
:100B0000012842D13AE027480078002835DD01204D
:100B1000254908702348007801281CDB214800780B
:100B2000032818DC1F48007820490870002404E0DE
:100B3000002019490855601CC4B2082CF8DB0120BC
:100B40001A490978C1F10701134A5054174800782F
:100B50001349487111E0002014490870002404E092
:100B600000200D490855601CC4B2082CF8DB012098
:100B70000949C87100200A4948710AE0094800780B
:100B800010B900200849087003E0002006490870E9
:100B900000BF00BF10BD00000900002008000020B9
:100BA000000000201100002012000020130000208F
:100BB0000448006840F47000024908600248034994
:100BC0000860704788ED00E00024F4001800002061
:100BD000014600202D2956D014DC212976D2DFE8E9
:100BE00001F030323436383A3C3E40424446484ABE
:100BF0004C4E7575757575757575757575757575F5
:100C0000757554004C294ED00ADCA1F14102092A25
:100C10005CD2DFE802F03E5B594E4C443C5240004F
:100C2000592948D006DC4E2937D052293DD05529C4
:100C30004CD136E05F2924D0622943D06F2945D1B9
:100C40003EE03F2044E0062042E05B2040E04F20B1
:100C50003EE066203CE06D203AE07D2038E0072051
:100C600036E07F2034E06F2032E0772030E07C20D7
:100C70002EE039202CE05E202AE0792028E0712047
:100C800026E0082024E0402022E0002020E03D2053
:100C90001EE077201CE006201AE0372018E07120C3
:100CA00016E03E2014E0382012E0502010E07920B9
:100CB0000EE05E200CE06E200AE0762008E005E001
:100CC0005C2005E07C2003E0392001E0002000BF2B
:100CD00000BF704710B5002210210648FFF705FD40
:100CE0008A2000F0A7F8102211460248FFF7FDFC09
:100CF00010BD00000010064038B50025002210216C
:100D00002448FFF7F2FC422000F094F8002401E0B0
:100D1000601CC4B2052CFBDB002405E000F0B4F835
:100D20000DF80400601CC4B2042CF7DB102211463D
:100D30001848FFF7DAFC9DF80000042800D10125CF
:100D40009DF80000022800D102259DF8000001282E
:100D500000D103259DF80000402800D104259DF80E
:100D60000000202800D105259DF80000102800D1A2
:100D700006259DF80100042800D107259DF80100F3
:100D8000022800D108259DF80100012800D109257D
:100D9000284638BD001006402DE9FF4105460E46A5
:100DA00017464FF00108002419E0285DFFF710FFF7
:100DB0000DF8140006EA080028B11DF8140040F0F0
:100DC00080000DF814004FEA48604FEA1068385D63
:100DD000012101EB44010DF80100601CC4B2082C94
:100DE000E3DB002210211248FFF77FFC402000F0D7
:100DF00021F8102211460E48FFF777FC002210213F
:100E00000B48FFF772FCC02000F014F8002405E046
:100E10001DF8040000F00EF8601CC4B2102CF7DBC3
:100E2000102211460248FFF760FCBDE8FF81000078
:100E30000010064070B5044620211148FFF739FC28
:100E400000251AE0002201210E48FFF74EFC04F0B5
:100E5000010028B1202211460948FFF746FC04E0B2
:100E6000002220210648FFF740FC641001221146B1
:100E70000448FFF73AFC681CC5B2082DE2DB70BDE0
:100E8000001006400030064070B5002420211148B3
:100E9000FFF701FC002518E06410002201210E4834
:100EA000FFF723FC012211460B48FFF71EFC20210F
:100EB0000848FFF7EDFB08B144F08004002201214F
:100EC0000548FFF712FC681CC5B2082DE4DB20467C
:100ED00070BD0000001006400030064070B50121D2
:100EE000234800F0D9F805462946214800F0CEF8FD
:100EF00038E01F4800F046F8C4B21E4800780128C8
:100F000004D002280AD0032820D10FE0612C04DB92
:100F10007A2C02DCA4F12000C4B218E0412C04DBDE
:100F20005A2C02DC04F12000C4B210E0612C05DB75
:100F30007A2C03DCA4F12000C4B206E0412C04DBCF
:100F40005A2C02DC04F12000C4B200E000BF00BF54
:100F50002146074800F024F80D2C03D10A2104484B
:100F600000F01EF8024800F023F80028C1D170BD3F
:100F700000C0004013000020816911F0100FFBD168
:100F800000687047816911F0100F0CBF00684FF0C6
:100F9000FF307047826912F0200FFBD1016070476B
:100FA000826912F0200F06BF016001200020704707
:100FB0008069012121EA10107047D0F818C01CF098
:100FC000080FFAD1D0F82CC02CF0100CC0F82CC0AF
:100FD000D0F830C02CF0010C2CF4407CC0F830C0AC
:100FE000D0F830C0B1EB021F34BF4CF0200C2CF015
:100FF000200CC0F830C038BF5208C900B1FBF2F174
:10100000491C49088A09426201F03F018162C362BA
:1010100000218161C16A41F01001C162016B40F29F
:10102000013211430163704710B51448FFF70CFDFE
:101030001348FFF709FD00BF1148FFF719FD00280D
:10104000FAD00120FFF702FB40F20140FFF7FEFA61
:1010500003214FF04020FFF73AFB60234FF4E132C9
:10106000084801680848FFF7A8FF1520FFF740FB74
:101070005021054800F00CF810BD0000001800F0E9
:10108000000800F01400002000C0004041647047D8
:10109000826B114381637047002914BF006CC06BE1
:1010A00070470000FFF7E8F92448006840F6B831BF
:1010B000B0FBF1F0C0EB001085002846FFF7F0F818
:1010C000FFF708FE38E01E48FFF756FFC4B21D4880
:1010D0000078012804D002280AD0032820D10FE08C
:1010E000612C04DB7A2C02DCA4F12000C4B218E0ED
:1010F000412C04DB5A2C02DC04F12000C4B210E0C5
:10110000612C05DB7A2C03DCA4F12000C4B206E0DC
:10111000412C04DB5A2C02DC04F12000C4B200E0B4
:1011200000BF00BF21460648FFF734FF0D2C03D156
:101130000A210348FFF72EFFC5E700001400002036
:1011400000C00040130000204FF04070E1EE100A94
:101150007047000000400040100000000080054083
:1011600010000000005000401100000000900540F9
:1011700011000000006000401200000000A00540C7
:1011800012000000007000401300000000B0054095
:1011900013000000004002401400000000C00540A1
:1011A00014000000005002402E00000000D0054056
:1011B0002E000000006002402F00000000E005400B
:1011C0002F000000007002403000000000F00540D9
:1011D0003000000000D00340460000000000064040
:1011E00046000000001006404700000000200640B6
:1011F00048000000003006407F000000004006402C
:10120000800000000050064084000000006006409E
:101210008C000000004000401000000000800540ED
:101220001000000000500040110000000090054038
:1012300011000000006000401200000000A0054006
:1012400012000000007000401300000000B00540D4
:1012500013000000004002401400000000C00540E0
:1012600014000000005002402E00000000D0054095
:101270002E000000006002402F00000000E005404A
:101280002F000000007002403000000000F0054018
:101290003000000000D00340430000000000064082
:1012A00043000000001006404400000000200640FB
:1012B0004500000000300640580000000040064095
:1012C00059000000005006405C000000006006402D
:1012D00064000000007006406C00000000800640C2
:1012E0006D000000009006407F00000000400040BC
:1012F0000080054000500040009005400060004024
:1013000000A005400070004000B0054000400240D1
:1013100000C005400050024000D00540006002407F
:1013200000E005400070024000F0054000D003409E
:101330000000064000100640001006400020064055
:1013400000200640003006400030064000400640C5
:101350000040064000500640005006400060064035
:1013600000600640007006400070064000800640A5
:1013700000800640009006400090064000070000F4
:10138000000600000005000000040000000300004B
:10139000000200000001000000000000000000004A
:1013A00018ED00E01CED00E020ED00E000E400E0BE
:1013B00004E400E008E400E00CE400E010E400E0F5
:1013C00014E400E018E400E01CE400E020E400E0A5
:1013D00024E400E028E400E02CE400E030E400E055
:1013E00034E400E038E400E03CE400E040E400E005
:1013F00044E400E048E400E04CE400E050E400E0B5
:1014000054E400E058E400E05CE400E060E400E064
:1014100064E400E068E400E06CE400E070E400E014
:1014200074E400E078E400E07CE400E080E400E0C4
:1014300084E400E088E400E000E100E004E100E092
:1014400008E100E00CE100E010E100E080E100E0F4
:1014500084E100E088E100E08CE100E090E100E060
:1014600000E200E004E200E008E200E00CE200E05C
:1014700010E200E080E200E084E200E088E200E0C8
:101480008CE200E090E200E000688909001C4E0E4A
:1014900040420F0000201C0080841E0000802500B8
:1014A000999E36000040380000093D0000803E0053
:1014B00000004B00404B4C0000204E00808D5B0034
:1014C00000C05D000080700000127A0000007D0006
:1014D00080969800001BB7000080BB00C0E8CE00DB
:1014E000647ADA000024F4000000FA0080A81201F7
:1014F000002D310100366E0140787D014000000072
:1015000000000000000100003E0008000000000094
:1015100000010000A0000000020000000001000027
:101520003454010000000000000100002B70060090
:101530000000000000010000280000000000000082
:101540000001000027000100000000000001000071
:10155000200000000000000000010000500000001A
:1015600002000000000100001AAC000000000000B2
:1015700000010000179409000000000000010000B5
:101580001698050000000000000100001400000093
:1015900000000000000100001380080000000000AF
:1015A00000010000A0000000080000000001000091
:1015B00010000000000000000001000028000000F2
:1015C00002000000000100004000000004000000D4
:1015D00000010000600000000000000000010000A9
:1015E0005D000C0000000000000100005000000041
:1015F00000000000000100004E000200000000009A
:101600000001000041AC01000000000000010000EA
:101610003C00000000000000000100003A800900CA
:101620000000000000010000300000000000000089
:101630000001000028000000000000000001000080
:1016400027000100000000000001000023600600E8
:101650000000000000010000216008000000000000
:10166000000100001E00000000000000000100005A
:101670001DC0040000000000000100005000000038
:10168000020000000001000018000000000000003F
:101690000001000014000000000000000001000034
:1016A0006000000004000000000100000024F400BD
:1016B00030003000005A62029100910000879303CD
:1016C000D200D20000B4C4041301130100E1F505F7
:1016D00054015401000E270795019501FC160000E6
:1016E000000000201C0000003C0200001817000051
:1016F0001C0000206402000058020000202020206E
:101700005F005F20000000000000000001000000FA
:08171000000000000024F400B9
:0400000500000201F4
:00000001FF
