:020000040000FA
:100000002007002009030000110300001303000073
:100010001503000017030000190300000000000092
:100020000000000000000000000000001B030000B2
:100030001D030000000000001F030000A90C0000C9
:10004000230300002503000027030000290300000C
:100050002B0300002D0300002F03000031030000DC
:1000600033030000350300003703000039030000AC
:100070003B0300003D0300003F030000410300007C
:10008000430300004503000047030000490300004C
:100090004B0300004D0300004F030000510300001C
:1000A00053030000550300005703000059030000EC
:1000B0005B0300005D0300005F03000061030000BC
:1000C000630300006503000067030000690300008C
:1000D0006B0300006D0300006F030000710300005C
:1000E000730300007503000077030000790300002C
:1000F0007B0300007D0300007F03000081030000FC
:1001000083030000850300008703000089030000CB
:100110008B0300008D0300008F030000910300009B
:10012000930300009503000097030000990300006B
:100130009B0300009D0300009F030000A10300003B
:10014000A3030000A5030000A7030000C1030000F3
:100150000000000000000000C3030000C503000011
:10016000C7030000C903000000000000CB0300002B
:10017000CD030000CF030000D1030000D303000033
:10018000D5030000D7030000D9030000DB03000003
:10019000DD030000DF030000E1030000E3030000D3
:1001A000E5030000E7030000E9030000EB030000A3
:1001B000ED030000EF030000F1030000F303000073
:1001C000F5030000F7030000F9030000FB03000043
:1001D000FD030000FF030000010400000304000011
:1001E0000504000007040000090400000B040000DF
:1001F0000D0400000F0400001104000013040000AF
:1002000000F002F800F05CF80AA090E8000C8244CC
:100210008344AAF10107DA4501D100F051F8AFF2A9
:10022000090EBAE80F0013F0010F18BFFB1A43F0D4
:100230000103184764270000842700000A444FF098
:10024000000C10F8013B13F0070408BF10F8014B35
:100250001D1108BF10F8015B641E05D010F8016B7A
:10026000641E01F8016BF9D113F0080F1EBF10F8DE
:10027000014BAD1C0C1B09D16D1E58BF01F801CB01
:10028000FAD505E014F8016B01F8016B6D1EF9D584
:100290009142D6D370470000002300240025002699
:1002A000103A28BF78C1FBD8520728BF30C148BFD9
:1002B0000B6070471FB502F03FFA1FBD10B510BDAF
:1002C00000F0DFF81146FFF7F5FF02F015F900F036
:1002D000FDF803B4FFF7F2FF03BC00F005F90000DE
:1002E000EFF3108072B67047EFF310807047EFF3B2
:1002F000108062B6704730BF704780F31188704736
:10030000EFF311807047000045488047454800479B
:10031000FEE7FEE7FEE7FEE7FEE7FEE7FEE7FEE7B5
:10032000FEE7FEE7FEE7FEE7FEE7FEE7FEE7FEE7A5
:10033000FEE7FEE7FEE7FEE7FEE7FEE7FEE7FEE795
:10034000FEE7FEE7FEE7FEE7FEE7FEE7FEE7FEE785
:10035000FEE7FEE7FEE7FEE7FEE7FEE7FEE7FEE775
:10036000FEE7FEE7FEE7FEE7FEE7FEE7FEE7FEE765
:10037000FEE7FEE7FEE7FEE7FEE7FEE7FEE7FEE755
:10038000FEE7FEE7FEE7FEE7FEE7FEE7FEE7FEE745
:10039000FEE7FEE7FEE7FEE7FEE7FEE7FEE7FEE735
:1003A000FEE7FEE7FEE7FEE7FEE7FEE7FEE7FEE725
:1003B000FEE7FEE7FEE7FEE7FEE7FEE7FEE7FEE715
:1003C000FEE7FEE7FEE7FEE7FEE7FEE7FEE7FEE705
:1003D000FEE7FEE7FEE7FEE7FEE7FEE7FEE7FEE7F5
:1003E000FEE7FEE7FEE7FEE7FEE7FEE7FEE7FEE7E5
:1003F000FEE7FEE7FEE7FEE7FEE7FEE7FEE7FEE7D5
:10040000FEE7FEE7FEE7FEE7FEE7FEE7FEE7FEE7C4
:10041000FEE7FEE704480549034A054B7047000024
:10042000A50D00000102000020050020200700208B
:100430002005002040EA0103024630B59B0710D199
:100440004FF0013400E008C208C91D1B9D4315EAA6
:10045000C41FF8D013F0FF0102F8011B0DD01B0AD6
:10046000F8E711F8013B002B02F8013B05D011F829
:10047000013B002B02F8013BF3D130BD70477047C0
:100480007047754600F02CF8AE46050069465346A5
:1004900020F00700854618B020B5FFF7BBFFBDE888
:1004A00020404FF000064FF000074FF000084FF0DB
:1004B000000B21F00701AC46ACE8C009ACE8C0096C
:1004C000ACE8C009ACE8C0098D46704710B50446D9
:1004D000AFF300802046BDE81040FFF7FABE0000F1
:1004E00000487047C004002001491820ABBEFEE759
:1004F00026000200704700000848007848B108480C
:100500000078012801D107490870002004490870CB
:1005100002E00120024908707047000071040020C9
:10052000770400205904002008480078082809D1E1
:1005300007480078012801D10649087000200449C5
:10054000087002E001200249087070477104002021
:10055000760400205704002010B50649064800F034
:10056000E3F90649086000F037F800F081FB00F07D
:100570002DF910BD002D3101800600F198040020F6
:1005800008480078052809D107480078012801D1DA
:100590000649087000200449087002E00120024961
:1005A0000870704771040020720400205804002075
:1005B000D0F8003412F0010F14BF0B438B43C0F886
:1005C000003412F0020FD0F8202414BF114322EAA5
:1005D0000101C0F82014704710B50E4800F016FB5A
:1005E00000BF0C4800F026FB0028FAD00948801C08
:1005F00000F00CFB00BF0748801C00F01BFB00282C
:10060000F9D03021044800F0B8F80121034800F087
:10061000B4F810BD090800F0001006400030064094
:100620002DE9F00301264FF0000C0325C2F341171A
:1006300006FA0CF40C4211D0D0F8C48F4FEA4C04E7
:1006400005FA04F928EA0908C0F8C48FD0F8C48F65
:1006500007FA04F448EA0404C0F8C44F0CF1010C92
:100660000CF0FF0CBCF1080FE2D3D0F800C512F07B
:10067000010F14BF4CEA010C2CEA010CC0F800C5B4
:10068000D0F804C512F0020F14BF4CEA010C2CEA9A
:10069000010CC0F804C5D0F808C512F0040F14BF4F
:1006A0004CEA010C2CEA010CC0F808C5D0F818C5BA
:1006B00012F0080F14BF4CEA010C2CEA010CC0F830
:1006C00018C512F0100FD0F83C2514BF0A438A4316
:1006D000C0F83C25D0F80C2513F0010F14BF0A43D5
:1006E0008A43C0F80C25D0F8102513F0020F14BF70
:1006F0000A438A43C0F81025D0F8142513F0040FDC
:1007000014BF0A438A43C0F81425D0F81C2513F0FF
:10071000080F14BF0A438A43C0F81C25D0F84425AB
:1007200013F4007F14BF0A438A43C0F84425D0F86D
:10073000402513F4407F14BF0A438A43C0F8402584
:10074000D0F82825002B0CBF114322EA0101C0F884
:100750002815BDE8F003704750F82100704730B508
:100760000C4605460022FFF723FF21462846BDE838
:10077000304008230122FFF753BF30B50C46054631
:1007800008230122FFF74CFF21462846BDE83040F0
:100790000122FFF70DBF40F821207047084800787C
:1007A000022809D107480078012801D106490870BC
:1007B00000200449087002E00120024908707047D7
:1007C00071040020750400205604002010B5FFF7C6
:1007D0008EFD002818BF012010BD000010B527486D
:1007E00000F014FA00BF254800F024FA0028FAD0DF
:1007F0002248C01D00F00AFA00BF2048C01D00F0CA
:1008000019FA0028F9D01D48401E00F0FFF900BF7A
:100810001A48401E00F00EFA0028F9D01748801C34
:1008200000F0F4F900BF1548801C00F003FA00281E
:10083000F9D007211248FFF7A0FF30211148FFF738
:100840009CFF30211048FFF798FF10210F48FFF759
:1008500094FF40210B48FFF782FF0848C01C00F0BE
:10086000D5F900BF0548C01C00F0E4F90028F9D014
:1008700002210748FFF781FF10BD0000020800F0C9
:100880000010064000600040005000400040024060
:100890000050024070B50446002202210948FFF7CB
:1008A0007AFF002505E0002600E0761C6E2EFCDBBA
:1008B0006D1CA542F7DB022211460248FFF76BFFD1
:1008C00070BD00000050024008480078042809D19B
:1008D00007480078012801D1064908700020044922
:1008E000087002E00120024908707047710400207E
:1008F000730400205504002008480078062809D118
:1009000007480078012801D10649087000200449F1
:10091000087002E00120024908707047710400204D
:1009200074040020540400202DE9F003AD4D02466C
:100930002868AD4B1840A0F18053B3F5A02358D0E0
:1009400002F03809DFF8A482C2F38414B9F1100F61
:1009500024D0B9F1300F04BF47F230504FF40013E8
:100960000CD03820904304BF4FF40040C30105D0A1
:1009700012F0380F1CBF0020034613D09C4F12F416
:10098000605F4FF0000618BF00222CD057F83240AD
:1009900044457DD307EBC2025268DFE000234046A6
:1009A0001524EBE7A4F10900122822D29148D5F8CA
:1009B0007CC04FF04C7350F824002CF01C0C072C1A
:1009C000A8BF4CF0100CC5F87CC02E6D4FF4002C65
:1009D00016F4807FD2D1BCF1010C0AD02E6D16F432
:1009E000807FF8D0CAE712F0380F18BFB9F1100FA6
:1009F00003D0BDE8F00300207047C2F30268DFF8BF
:100A0000F8C1002257F83290E14503D307EBC20248
:100A1000526803E0521C062AF4D33246C5F8C020BF
:100A2000D5F8B020DFF8D4C102EA0C0242F000424F
:100A3000C5F8B020DFF8C8C1A4F109024C1E5CF86B
:100A400028C0A444BCFBF1FCD5F8B0101943C5F88C
:100A5000B01008EBC80101EB41046A4902EB420205
:100A600001EBC40101EB82046468C5F86441D5F868
:100A700064416FF0FF0808EB0C2C44EA0C0CC5F83D
:100A800064C151F82210D5F8602102F4000200E0A0
:100A90005FE01143C5F86011D5F86011D5F8602109
:100AA000C1F38921C2F30904D5F86421C2F30422F9
:100AB00002F1010CD5F8642102F01F02521CB0FBB8
:100AC000F2F04A09C2F100084443424301EB4811E5
:100AD00004EB5212484302EB9020B0FBFCF04108BB
:100AE0000846002257F832C0844503D307EBC20002
:100AF000466802E0521C062AF4D3C5F8C060D5F857
:100B0000600110F4000F1DBFD5F8B00040F0804028
:100B1000C5F8B000D5F8600104BF40F40000C5F886
:100B200060014FF40040D5F8682112F0010F02D1A6
:100B3000401E0028F7DC002808BF002148D0D5F867
:100B4000B000184340F0010040F01040C5F8B0007C
:100B50003EE0521C062AFFF419AF3246C5F8C02009
:100B6000D5F8602122F40002C5F86021D5F8B02044
:100B7000DFF894C002EA0C0242F00042C5F8B0204F
:100B8000002908BF4FF0000C0AD0B0FBF1FCBCF10B
:100B9000000F18BFACF1010C0CF10101B0FBF1F139
:100BA0000846002257F83240844203D307EBC200C4
:100BB000466802E0521C062AF4D3C5F8C060D5F896
:100BC000B00043EA8C22104340F00040C5F8B0006A
:100BD000D5F8B00020F47000C5F8B000BDE8F0030F
:100BE0000846704700E00F400000FF700024F4004A
:100BF000682900004C27000040787D0100FC0FE0D0
:100C000044270000B8270000FF0300EFC0F30723CC
:100C10000749C0B2194401F07043C1F3130143EA1C
:100C2000411141EA800040F00070012202607047EB
:100C300000E60F40C0F307220849C0B2114401F09A
:100C40007042C1F3130142EA411141EA800040F0D1
:100C500000700068002818BF0120704700EA0F40AC
:100C60004FF0E020016941F005010161704700008B
:100C700010B5064800683221B0FBF1F4204600F0C0
:100C80000EF8FFF7EDFF00F003F810BD9804002008
:100C90004FF0E020016941F00201016170474FF01F
:100CA000E021401E4861704710B531480078401C73
:100CB000C0B22F490870052805DB01202D490870B6
:100CC00000202B4908702C480078401CC0B22A49EB
:100CD0000870192805DB01202849087000202649E2
:100CE0000870274A27480178274800F04FF900F09C
:100CF000FDF8264908700846007823494871FFF737
:100D00003FFCFFF7E1FDFFF7F7FDFFF747FDFFF7BA
:100D10000BFCFFF7F1FB1D48007878B91C480088F0
:100D2000401C80B21A490880B0F5FA7F09DB012027
:100D30001849087000201649088002E00020144974
:100D400008801548007804280ED114480088401CFB
:100D500080B212490880FA2809DB01201049087086
:100D600000200E49088002E000200C49088010BDD8
:100D7000440400204F0400204504002050040020BB
:100D80006904002068040020600400207104002031
:100D90004A0400205A0400204C040020480400208B
:100DA000520400200448006840F4700002490860C2
:100DB000024803490860704788ED00E00024F40011
:100DC0009C040020014600202D2956D014DC212946
:100DD00076D2DFE801F030323436383A3C3E4042D9
:100DE0004446484A4C4E75757575757575757575BB
:100DF00075757575757554004C294ED00ADCA1F1D6
:100E00004102092A5CD2DFE802F03E5B594E4C44B5
:100E10003C524000592948D006DC4E2937D052298F
:100E20003DD055294CD136E05F2924D0622943D0EA
:100E30006F2945D13EE03F2044E0062042E05B20A0
:100E400040E04F203EE066203CE06D203AE07D200F
:100E500038E0072036E07F2034E06F2032E0772052
:100E600030E07C202EE039202CE05E202AE0792042
:100E700028E0712026E0082024E0402022E0002025
:100E800020E03D201EE077201CE006201AE03720FD
:100E900018E0712016E03E2014E0382012E05020C7
:100EA00010E079200EE05E200CE06E200AE0762053
:100EB00008E005E05C2005E07C2003E0392001E04B
:100EC000002000BF00BF704710B500221021064867
:100ED000FFF761FC8A2000F0A7F8102211460248B3
:100EE000FFF759FC10BD00000010064038B5002582
:100EF000002210212448FFF74EFC422000F094F815
:100F0000002401E0601CC4B2052CFBDB002405E0DA
:100F100000F0B4F80DF80400601CC4B2042CF7DB38
:100F2000102211461848FFF736FC9DF800000428EF
:100F300000D101259DF80000022800D102259DF86E
:100F40000000012800D103259DF80000402800D1B1
:100F500004259DF80000202800D105259DF80000FB
:100F6000102800D106259DF80100042800D107258E
:100F70009DF80100022800D108259DF801000128F4
:100F800000D10925284638BD001006402DE9FF4153
:100F900005460E4617464FF00108002419E0285D6B
:100FA000FFF710FF0DF8140006EA080028B11DF83D
:100FB000140040F080000DF814004FEA48604FEA3A
:100FC0001068385D012101EB44010DF80100601C3F
:100FD000C4B2082CE3DB002210211248FFF7DBFB30
:100FE000402000F021F8102211460E48FFF7D3FBF5
:100FF000002210210B48FFF7CEFBC02000F014F8B0
:10100000002405E01DF8040000F00EF8601CC4B2D6
:10101000102CF7DB102211460248FFF7BCFBBDE89D
:10102000FF8100000010064070B5044620211148E1
:10103000FFF7A3FB00251AE0002201210E48FFF76D
:10104000AAFB04F0010028B1202211460948FFF74D
:10105000A2FB04E0002220210648FFF79CFB64105D
:10106000012211460448FFF796FB681CC5B2082D03
:10107000E2DB70BD001006400030064070B5002471
:1010800020211148FFF76BFB002518E064100022B7
:1010900001210E48FFF77FFB012211460B48FFF7A5
:1010A0007AFB20210848FFF757FB08B144F0800481
:1010B000002201210548FFF76EFB681CC5B2082D10
:1010C000E4DB204670BD0000001006400030064002
:1010D00010B50948007858B100200749087001236D
:1010E00006A21946072000F05FFF0120054908709D
:1010F00000200549087010BD59040020C9E8D6C376
:10110000000000004D0400204E04002010B52348CC
:10111000007820B901202149087000F009FF20481B
:10112000007818B100201E49087024E01D4800789E
:1011300018B100201B4908701DE01B48007818B149
:1011400000201949087016E01848007818B10020EE
:10115000164908700FE01648007860B10020144965
:1011600008701449087001F0B3F8012012490870A2
:101170000020124908701248007801280DD1002083
:101180000F49087000230FA20121072000F00CFF77
:101190000020084908700949087010BD4E0400205D
:1011A0005404002055040020560400205704002059
:1011B00058040020590400204C0400204D04002055
:1011C0005A040020C9E8D6C30000000010B5044648
:1011D00014B1012C06D102E0FFF77AFF04E0FFF71B
:1011E00095FF01E0002400BF00BF10BD10B5094805
:1011F000007858B1002007490870012306A2112188
:10120000032000F0D1FE01200649087000200649A5
:10121000087010BD59040020B9A4D7F7C4A3CABDF3
:10122000000000004D0400204E04002010B5354899
:10123000007820B901203349087000F079FE324867
:10124000007890B100203049087000232FA261215E
:10125000072000F0A9FE01232EA21121032000F097
:10126000A3FE01202E49087038E02E48007890B186
:1012700000202C490870002324A26121072000F0DF
:1012800093FE012328A21121052000F08DFE0220EB
:101290002349087022E02748007830B10020254912
:1012A000087003201E49087018E02348007830B108
:1012B0000020214908700320194908700EE01F48DA
:1012C000007858B100201D4908701D49087000F0D1
:1012D000CBFF00201B490870114908701A4800789C
:1012E00001280DD1002018490870002307A26121B0
:1012F000072000F059FE00201149087008490870C5
:1013000010BD00004E04002054040020B7B5BBD827
:1013100000000000B9A4D7F7C4A3CABD00000000B4
:101320004D04002055040020B9A4D7F7B2CECAFD61
:10133000000000005604002057040020580400203C
:10134000590400204C0400205A04002010B53548F0
:10135000007820B901203349087000F0E9FD3248D7
:10136000007890B100203049087000232FA211218D
:10137000032000F019FE01232FA21121052000F007
:1013800013FE02202F49087039E02F48007890B1F1
:1013900000202D490870002324A21121032000F011
:1013A00003FE012329A26121072000F0FDFD032097
:1013B0002449087023E02748007830B100202549EF
:1013C000087001201F49087019E02348007830B1E7
:1013D00000202149087001201A4908700FE01F48B9
:1013E000007860B100201D4908701D49087000F0A8
:1013F00095FF02201B4908700020124908701A4806
:10140000007801280DD1002017490870002307A299
:101410001121032000F0C8FD00201149087009497E
:10142000087010BD4E04002054040020B9A4D7F762
:10143000C4A3CABD00000000B9A4D7F7B2CECAFD4C
:10144000000000004D04002055040020B7B5BBD8B3
:10145000000000005604002057040020580400201B
:10146000590400204C0400205A04002010B53548CF
:10147000007820B901203349087000F059FD324846
:10148000007890B100203049087000232FA211216C
:10149000052000F089FD01232FA26121072000F023
:1014A00083FD03202E49087039E02E48007890B162
:1014B00000202C490870002324A21121052000F0EF
:1014C00073FD012328A21121032000F06DFD0120EE
:1014D0002349087023E02748007830B100202549CF
:1014E000087002201E49087019E02348007830B1C6
:1014F0000020214908700220194908700FE01F4898
:10150000007860B100201D4908701D49087000F086
:1015100037FF03201B4908700020114908701A4842
:10152000007801280DD1002017490870002307A278
:101530001121052000F038FD0020114908700849EC
:10154000087010BD4E04002054040020B9A4D7F741
:10155000B2CECAFD00000000B7B5BBD80000000045
:101560004D04002055040020B9A4D7F7C4A3CABD78
:1015700000000000560400205704002058040020FA
:10158000590400204C0400205A04002010B50446E1
:1015900034B1012C07D0022C08D0032C0CD108E068
:1015A000FFF724FE0AE0FFF7D1FE07E0FFF75EFF3A
:1015B00004E0FFF73BFE01E0002400BF00BF10BDC8
:1015C00010B50948007858B1002007490870012378
:1015D000064A5121032000F0E7FC0120044908706D
:1015E00000200449087010BD590400207804002030
:1015F0004D0400204E04002010B53748007820B973
:1016000001203549087000F093FC3448007890B10F
:10161000002032490870002331A26121072000F028
:10162000C3FC0123304A5121032000F0BDFC0120FE
:101630002E4908703DE02E48007890B100202C49DA
:101640000870002326A26121072000F0ADFC0123D1
:1016500028A21946072000F0A7FC022023490870A1
:1016600027E02648007830B1002024490870032084
:101670001E4908701DE02248007830B10020204942
:10168000087003201949087013E01E48007880B1E3
:1016900000201C4908701C4908701C491248FEF7BC
:1016A000C9FE00F015FE01201949087000200F49FD
:1016B00008701848007801280DD1002015490870DD
:1016C000002307A26121072000F06EFC00200E49D4
:1016D00008700649087010BD4E0400205404002014
:1016E000C8A1CFFB00000000780400204D040020BA
:1016F00055040020C8B7B6A800000000560400201A
:10170000570400205804002059040020A0040020A1
:101710004C0400205A04002010B53748007820B946
:1017200001203549087000F003FC3448007890B17E
:10173000002032490870002331A20121072000F067
:1017400033FC012330A26121072000F02DFC03208F
:101750002F4908703DE02F48007890B100202D49B6
:101760000870002326A20121072000F01DFC0123A0
:10177000294A5121032000F017FC01202449087058
:1017800027E02648007830B1002024490870022064
:101790001F4908701DE02248007830B10020204920
:1017A000087002201A49087013E01E48007880B1C2
:1017B00000201C4908701C49087017491B48FEF797
:1017C00039FE00F085FD01201949087000201049FC
:1017D00008701848007801280DD1002015490870BC
:1017E000002307A20121072000F0DEFB00200E49A4
:1017F00008700749087010BD4E04002054040020F2
:10180000C8B7B6A800000000C8A1CFFB00000000C8
:101810004D040020550400207804002056040020C8
:10182000570400205804002059040020A004002080
:101830004C0400205A04002010B53A48007820B922
:1018400001203849087000F073FB3748007890B1E8
:101850000020354908700023344A5121032000F04C
:10186000A3FB012332A21946072000F09DFB0220B2
:101870003149087043E03148007890B100202F4989
:1018800008700023294A5121032000F08DFB012319
:101890002BA26121072000F087FB03202649087056
:1018A0002DE02948007880B10020274908701F49A1
:1018B000012000F0ABFC01231C4A5121032000F061
:1018C00073FB01201C49087019E02048007880B1A2
:1018D00000201E4908701549022000F097FC0123E2
:1018E000124A5121032000F05FFB012012490870C9
:1018F00005E01748007810B1002015490870154818
:10190000007801280DD10020124908700023074AF1
:101910005121032000F048FB00200F4908700649C0
:10192000087010BD4E0400205404002078040020EC
:10193000C8B7B6A8000000004D04002055040020E0
:10194000C8A1CFFB0000000056040020570400206F
:10195000580400205A0400205904002010B5044601
:1019600034B1012C07D0022C08D0032C0CD108E094
:10197000FFF726FE0AE0FFF75FFF07E0FFF7CCFE68
:1019800004E0FFF739FE01E0002400BF00BF10BDF6
:1019900010B50948007858B10020074908700123A4
:1019A000064A5121032000F0FFFA01200449087083
:1019B00000200449087010BD590400208204002052
:1019C0004D0400204E04002010B53A48007820B99C
:1019D00001203849087000F0ABFA3748007890B120
:1019E000002035490870002334A26121072000F04F
:1019F000DBFA0123334A5121032000F0D5FA0120FC
:101A00003149087042E03148007890B100202F49F8
:101A10000870002329A26121072000F0C5FA0123E4
:101A20002BA21946072000F0BFFA032026490870B0
:101A30002CE02948007830B10020274908700420A4
:101A40002149087022E02548007830B10020234960
:101A5000087004201C49087018E021480078A8B1DB
:101A600000201F4908701F4908701F491548FEF7DC
:101A7000E1FC1E4913480A30FEF7DCFC00F028FCAC
:101A800001201B49087000200F4908701948007890
:101A900001280DD1002017490870002307A26121F9
:101AA000072000F081FA00200E49087006490870EE
:101AB00010BD00004E04002054040020C8A1CFFB3C
:101AC00000000000820400204D0400205504002086
:101AD000C8B7B6A800000000560400205704002034
:101AE0005804002059040020AA040020B404002057
:101AF0004C0400205A04002010B55148007820B949
:101B000001204F49087000F013FA4E48007890B158
:101B100000204C49087000234BA20121072000F04F
:101B200043FA01234AA26121072000F03DFA042074
:101B30004949087071E04948007890B10020474950
:101B40000870002340A20121072000F02DFA012394
:101B5000434A6121032000F027FA02203E49087021
:101B60005BE04048007830B100203E490870032017
:101B70003949087051E03C48007830B100203A49BA
:101B8000087003203449087047E03848007800287E
:101B900043D033481438007D303831491439897ABC
:101BA000303901EB810100EB4100C4B2072C1ADB94
:101BB0004D2C18DC00202E49C8712C4908702D4985
:101BC000087027490A392C48FEF734FC24492B4871
:101BD000FEF730FC00F07CFB012029490870002052
:101BE0001D49087018E001202149C87100201F49D3
:101BF000087020490870204919480A38FEF71AFC75
:101C00001E491748FEF716FC00F00AFC04201C4988
:101C1000087000201049087000BF1A480078012899
:101C20000DD1002017490870002307A201210720C9
:101C300000F0BAF900200F4908700749087010BD7C
:101C40004E04002054040020C8B7B6A800000000CD
:101C5000C8A1CFFB000000004D0400205504002067
:101C60008C04002056040020570400205804002053
:101C70006904002059040020AA040020B4040020B4
:101C80004C0400205A04002010B53B48007820B9CD
:101C900001203949087000F04BF93848007890B1BC
:101CA0000020364908700023354A6121032000F0E6
:101CB0007BF9012333A21946072000F075F90320B0
:101CC0003249087044E03248007898B10020304929
:101CD000087000232A4A6121032000F065F90123DE
:101CE000274A0A3A5121032000F05EF901202749D2
:101CF00008702DE02748007880B100202549087041
:101D00001F49012000F099FA01231D4A6121032097
:101D100000F04AF902201D49087019E01E480078B9
:101D200080B100201C4908701549022000F085FA96
:101D30000123134A6121032000F036F902201349E0
:101D4000087005E01548007810B1002013490870AC
:101D50001348007801280DD1002011490870002394
:101D6000074A6121032000F01FF900200D49087087
:101D70000649087010BD00004E04002054040020E5
:101D80008C040020C8B7B6A8000000004D04002055
:101D90005504002056040020570400205804002059
:101DA0005A0400205904002010B53B48007820B99F
:101DB00001203949087000F0BBF83848007898B124
:101DC0000020364908700023354A5121032000F0D5
:101DD000EBF80123324A0A326121032000F0E4F8D3
:101DE00002203049087043E02F48007890B100206D
:101DF0002D49087000232A4A5121032000F0D4F80D
:101E000001232AA26121072000F0CEF804202549F1
:101E100008702DE02748007880B10020254908701F
:101E20001F49012000F009FA01231D4A5121032016
:101E300000F0BAF801201B49087019E01E4800782C
:101E400080B100201C4908701549022000F0F5F906
:101E50000123134A5121032000F0A6F80120114963
:101E6000087005E01548007810B10020134908708B
:101E70001348007801280DD1002011490870002373
:101E8000074A5121032000F08FF800200D49087007
:101E90000449087010BD00004E04002054040020C6
:101EA000820400204D04002055040020C8A1CFFB6F
:101EB00000000000560400205704002058040020B1
:101EC0005A0400205904002010B50446052C13D2F2
:101ED000DFE804F00306090C0F00FFF759FD0DE0E1
:101EE000FFF762FF0AE0FFF7CFFE07E0FFF704FE0F
:101EF00004E0FFF769FD01E0002400BF00BF10BD52
:101F000010B504460748007801280AD10020054989
:101F100008700549087000F033FA0320034908707F
:101F2000002410BD52040020590400204C0400205D
:101F300000200549087005490870054908700549E1
:101F400008700549087070475404002055040020AB
:101F500056040020570400205804002070B50024C7
:101F600014E004F1B00000F077FB102000F074FBE7
:101F7000002000F071FB002504E0002000F0A4FB2D
:101F8000681CC5B2842DF8DB601CC4B2092CE8DBE8
:101F900070BD002105E0002200E0521C012AFCDB9C
:101FA000491C8142F7DB70472DE9F04107460E4698
:101FB00015469846002475E0285DB02826DB285D8C
:101FC000F72823DC601C285CA1281FDB285DB038C3
:101FD0005E2110FB01F036490860601C285C00F2AD
:101FE000AD2009680844324908600846006840018D
:101FF00008604346324639462D48006800F05CF8D8
:10200000A01CC4B206F11000C6B24BE0285DA128A6
:1020100025DB285DA32822DC601C285CA1281EDBB0
:10202000285DA1385E2110FB01F021490860601C89
:10203000285CA138096808441D4908600846006802
:10204000400108604346324639461948006800F0AE
:1020500033F8A01CC4B206F11000C6B222E0285D1D
:1020600020281DDB285D7E281ADC285D20381049D9
:1020700008600846006800010860084600680D49CD
:1020800008440B4908604346324639460848006810
:1020900000F056F8601CC4B206F10800C6B201E0B8
:1020A000601CC4B2285D002886DCBDE8F081000019
:1020B0004000002080CF03002DE9F04704460E4683
:1020C00017469846002210211C48FEF764FB0320A7
:1020D00000F094FAC4F3074000F090FAC4F307202C
:1020E00000F08CFAE0B200F089FA00251CE07019CB
:1020F000394600F0EDF94FF0000910E000F064F807
:102100008246B8F1000F03D06FEA0A0000F0FF0A20
:10211000504600F0D9FA09F1010000F0FF09B9F1C9
:10212000100FEBDB681CC5B2022DE0DB102211465C
:102130000248FEF730FBBDE8F08700000060004079
:102140002DE9F04704460E46174698460022102116
:102150001C48FEF720FB032000F050FAC4F30740B0
:1021600000F04CFAC4F3072000F048FAE0B200F0A7
:1021700045FA00251CE07019394600F0A9F94FF026
:10218000000910E000F020F88246B8F1000F03D0FB
:102190006FEA0A0000F0FF0A504600F095FA09F1D4
:1021A000010000F0FF09B9F1080FEBDB681CC5B2B4
:1021B000022DE0DB102211460248FEF7ECFABDE8E2
:1021C000F08700000060004070B50024002516E094
:1021D000002220210C48FEF7DEFA6006040E4021A2
:1021E0000948FEF7B9FA10B1601CC4B200E0E4B2CD
:1021F000202211460448FEF7CEFA681CC5B2082D0D
:10220000E6DB204670BD000000600040091D01288B
:1022100008D10A78521C0A700A78432A0CDD412240
:102220000A7009E0022807D10A78521E0A700A785B
:10223000412A01DA43220A707047012808D10A783E
:10224000521C0A700A78392A0CDD30220A7009E023
:10225000022807D10A78521E0A700A78302A01DA59
:1022600039220A707047000010B5FFF777FE00238F
:10227000124A11210320FFF797FE00230F4A0A326A
:1022800051210320FFF790FE00230DA259210320C6
:10229000FFF78AFE0023094A143261210320FFF769
:1022A00083FE002307A269210320FFF77DFE0023A0
:1022B00005A201210720FFF777FE10BD780400205A
:1022C0002E000000487A0000C9E8D6C300000000D4
:1022D00010B5FFF743FE002308A211210320FFF7EA
:1022E00063FE002308A211210520FFF75DFE0023F5
:1022F00008A261210720FFF757FE10BDB9A4D7F748
:10230000C4A3CABD00000000B9A4D7F7B2CECAFD6D
:1023100000000000B7B5BBD80000000010B5FFF703
:102320001DFE0E490E48FEF785F800230DA201217F
:102330000320FFF739FE0023084A51210320FFF74D
:1023400033FE00230AA201210720FFF72DFE002300
:1023500009A261210720FFF727FE10BD78040020A5
:10236000A0040020B9A4D7F7C4A3CABDA3BA000033
:10237000C8B7B6A800000000C8A1CFFB000000004D
:1023800010B5FFF7EBFD1A491A48FEF753F8184944
:102390000A311948FEF74EF8002318A20121032044
:1023A000FFF702FE0023124A51210320FFF7FCFD34
:1023B000002315A259210320FFF7F6FD00230C4A44
:1023C0000A3261210320FFF7EFFD00230FA26921EC
:1023D0000320FFF7E9FD00230DA201210720FFF7ED
:1023E000E3FD00230CA261210720FFF7DDFD10BDF6
:1023F00082040020AA040020B4040020B9A4D7F766
:10240000B2CECAFDA3BA00002E000000487A000038
:10241000C8B7B6A800000000C8A1CFFB00000000AC
:1024200010B5FFF79BFD002302A201210320FFF757
:10243000BBFD10BDB9A4D7F7B2CECAFDB2BBBACFAF
:10244000B7A8000010B5FEF7C9F9002201211F4806
:10245000FEF7A1F96420FEF71DFA012211461B4880
:10246000FEF799F96420FEF715FAE22000F0F4F87F
:102470000520FEF70FFA2C2000F0EEF83220FEF7D0
:1024800009FA2E2000F0E8F83220FEF703FA2F2098
:1024900000F0E2F80520FEF7FDF9232000F0DCF85B
:1024A000812000F0D9F8282000F0D6F8A22000F012
:1024B000D3F8C82000F0D0F8A02000F0CDF84020DC
:1024C00000F0CAF8AF2000F0C7F810BD00100640B9
:1024D00070B505460C46641E05F1AF0000F0BCF86F
:1024E000C4F3031101F1100000F0B6F804F00F007E
:1024F00000F0B2F870BD0000FEF72EF800BF3848BB
:1025000000780328FBDBFEF7DFFCFFF79BFFFFF7FC
:10251000ABFE64E033480078012839D1002031490E
:1025200008703148007898BB30480068401C2F493B
:10253000086042F21071884202D300202B490860E3
:102540002A4800684FF47A71B0FBF1F0284908700E
:10255000264800686421B0FBF1F00A21B0FBF1F2DB
:1025600001FB120022494870204800680A21B0FB94
:10257000F1F0B0FBF1F201FB12001D4988701B481D
:1025800000680A21B0FBF1F201FB12001849C87083
:102590001848007805281DD2DFE800F003080D1266
:1025A000170015480078FEF711FE17E01248007872
:1025B000FEF7ECFF12E010480078FFF7CFF90DE0CE
:1025C0000D480078FFF780FC08E00B480078FFF723
:1025D00097FC03E000200749087000BF00BF99E79F
:1025E000440400204F040020710400205C040020FB
:1025F000600400204C0400204D04002070B5044607
:10260000002521E0002220211148FEF7C4F80A200D
:10261000FFF7BFFC04F0800028B1042211460D48EA
:10262000FEF7B9F804E0002204210A48FEF7B3F8E7
:102630006006040E202211460548FEF7ACF80A2079
:10264000FFF7A7FC681CC5B2082DDBDB70BD0000DE
:10265000006000400010064070B5044600221021C2
:102660001648FEF798F8002202211548FEF793F865
:1026700000251AE0002220211048FEF78CF804F013
:10268000800028B1102211460E48FEF784F804E0BD
:10269000002210210B48FEF77EF820221146074841
:1026A000FEF779F86400681CC5B2082DE2DB102241
:1026B00011460248FEF76FF870BD00000050004060
:1026C000001006400040024070B504460022102170
:1026D0001648FEF760F8022211461548FEF75BF82F
:1026E00000251AE0002220211048FEF754F804F0DB
:1026F000800028B1102211460E48FEF74CF804E085
:10270000002210210B48FEF746F820221146074808
:10271000FEF741F86400681CC5B2082DE2DB102208
:1027200011460248FEF737F870BD00000050004027
:1027300000100640004002404FF04070E1EE100AE9
:102740007047000000688909001C4E0E40420F00CF
:1027500000201C0080841E0000802500999E360009
:102760000040380000093D0000803E0000004B00A2
:10277000404B4C0000204E00808D5B0000C05D008F
:102780000080700000127A0000007D0080969800A2
:10279000001BB7000080BB00C0E8CE00647ADA00FE
:1027A0000024F4000000FA0080A81201002D31017D
:1027B00000366E0140787D014000000000000000FE
:1027C000000100003E0008000000000000010000C1
:1027D000A0000000020000000001000034540100CD
:1027E00000000000000100002B7006000000000047
:1027F00000010000280000000000000000010000AF
:10280000270001000000000000010000200000007F
:102810000000000000010000500000000200000065
:10282000000100001AAC00000000000000010000E0
:102830001794090000000000000100001698050030
:102840000000000000010000140000000000000073
:1028500000010000138008000000000000010000DB
:10286000A0000000080000000001000010000000AF
:10287000000000000001000028000000020000002D
:102880000001000040000000040000000001000002
:102890006000000000000000000100005D000C006E
:1028A00000000000000100005000000000000000D7
:1028B000000100004E0002000000000000010000C6
:1028C00041AC010000000000000100003C000000DD
:1028D00000000000000100003A8009000000000034
:1028E00000010000300000000000000000010000B6
:1028F0002800000000000000000100002700010087
:10290000000000000001000023600600000000003D
:10291000000100002160080000000000000100002C
:102920001E00000000000000000100001DC00400A7
:102930000000000000010000500000000200000044
:10294000000100001800000000000000000100006D
:102950001400000000000000000100006000000002
:1029600004000000000100000024F40030003000EA
:10297000005A62029100910000879303D200D200B6
:1029800000B4C4041301130100E1F505540154011E
:10299000000E270795019501B829000000000020CE
:1029A000A00400003C020000802B0000A0040020D6
:1029B000800200009802000011300EFE8242A29EAA
:1029C0008A82868AB26202FE1C7F40400319012976
:1029D00009211809808080BFA5A5A53F041ABF0C56
:1029E0001178087F24243F24247F0801171C80804D
:1029F000C0011CE060E0014A6001290B291519455E
:102A00000157181280C0E07038181C0C0E07030321
:102A10000181E0781C09B20118090103070E1C7935
:102A2000E18307F8080C1C183870E0C08B59B8090E
:102A30001F012926A93E280880F0781E0703813E41
:102A400029F00F1370F0FE3F191801280838313FA4
:102A5000FEF06060427808808103071E78F0470826
:102A60000C11C0FCFF7F070F1F3D7971F09BA9A4DB
:102A7000480BE0F071793D1F0FFFFEFC122CFEFFAA
:102A8000F9ED5B0301EF031DFFFF491F780B010107
:102A90000303070E1CF9FFFE177937180901030716
:102AA0000F0E9EFCF889598A19DB2808E0F0F8F827
:102AB000FC9E0F68D9312E3FFFDF38702B59B609C5
:102AC000238019C87008C0E07038DFFF3F5A7F3795
:102AD00029E01C783C1E692A01A52E070F1E1E0E38
:102AE0000D690E1B3C7897296A99B11809070F3CAC
:102AF00070E0C18103D3080A130606060E0F7FFC9F
:102B000098180118080C8CFC7F0F0606C5A0090355
:102B100081C1E0703C0F07080C1D0F1F3F7CFCFEBD
:102B2000EFE7E3E1E001D00AE1E3E7EFFE7C3F1FDE
:102B30000F199E580E0E0C1C18387060E0C0C1872B
:102B40009EB8A78129D8280CB8DEC7E16070381874
:102B50001C0C0EDF015A1A010119E46C0303070172
:102B6000190C2915016E1A20011A5F02BA04995036
:102B7000080101C4A3CABD419231890A711324F42A
:0400000500000201F4
:00000001FF
