:020000040000FA
:1000000080020020D1020000D9020000DB020000C3
:10001000DD020000DF020000E1020000000000003D
:10002000000000000000000000000000E3020000EB
:10003000E502000000000000E7020000CD0B000018
:10004000EB020000ED020000EF020000F1020000F0
:10005000F3020000F5020000F7020000F9020000C0
:10006000FB020000FD020000FF020000010300008F
:10007000030300000503000007030000090300005C
:100080000B0300000D0300000F030000110300002C
:1000900013030000150300001703000019030000FC
:1000A0001B0300001D0300001F03000021030000CC
:1000B000230300002503000027030000290300009C
:1000C0002B0300002D0300002F030000310300006C
:1000D000330300003503000037030000390300003C
:1000E0003B0300003D0300003F030000410300000C
:1000F00043030000450300004703000049030000DC
:100100004B0300004D0300004F03000051030000AB
:10011000530300005503000057030000590300007B
:100120005B0300005D0300005F030000610300004B
:10013000630300006503000067030000690300001B
:100140006B0300006D0300006F03000089030000D3
:1001500000000000000000008B0300008D03000081
:100160008F030000910300000000000093030000D3
:100170009503000097030000990300009B03000013
:100180009D0300009F030000A1030000A3030000E3
:10019000A5030000A7030000A9030000AB030000B3
:1001A000AD030000AF030000B1030000B303000083
:1001B000B5030000B7030000B9030000BB03000053
:1001C000BD030000BF030000C1030000C303000023
:1001D000C5030000C7030000C9030000CB030000F3
:1001E000CD030000CF030000D1030000D3030000C3
:1001F000D5030000D7030000D9030000DB03000093
:1002000000F002F800F03CF80AA090E8000C8244EC
:100210008344AAF10107DA4501D100F031F8AFF2C9
:10022000090EBAE80F0013F0010F18BFFB1A43F0D4
:10023000010318471812000038120000103A24BFBA
:1002400078C878C1FAD8520724BF30C830C144BF3B
:1002500004680C607047000000230024002500267D
:10026000103A28BF78C1FBD8520728BF30C148BF19
:100270000B6070471FB500F0A5FE1FBD10B510BD87
:1002800000F0BFF81146FFF7F5FF00F069FE00F03F
:10029000DDF803B4FFF7F2FF03BC00F0E5F800005F
:1002A0000138FDD170470000EFF3108072B670473F
:1002B000EFF310807047EFF3108062B6704730BFE5
:1002C000704780F311887047EFF31180704700008A
:1002D0004548804745480047FEE7FEE7FEE7FEE762
:1002E000FEE7FEE7FEE7FEE7FEE7FEE7FEE7FEE7E6
:1002F000FEE7FEE7FEE7FEE7FEE7FEE7FEE7FEE7D6
:10030000FEE7FEE7FEE7FEE7FEE7FEE7FEE7FEE7C5
:10031000FEE7FEE7FEE7FEE7FEE7FEE7FEE7FEE7B5
:10032000FEE7FEE7FEE7FEE7FEE7FEE7FEE7FEE7A5
:10033000FEE7FEE7FEE7FEE7FEE7FEE7FEE7FEE795
:10034000FEE7FEE7FEE7FEE7FEE7FEE7FEE7FEE785
:10035000FEE7FEE7FEE7FEE7FEE7FEE7FEE7FEE775
:10036000FEE7FEE7FEE7FEE7FEE7FEE7FEE7FEE765
:10037000FEE7FEE7FEE7FEE7FEE7FEE7FEE7FEE755
:10038000FEE7FEE7FEE7FEE7FEE7FEE7FEE7FEE745
:10039000FEE7FEE7FEE7FEE7FEE7FEE7FEE7FEE735
:1003A000FEE7FEE7FEE7FEE7FEE7FEE7FEE7FEE725
:1003B000FEE7FEE7FEE7FEE7FEE7FEE7FEE7FEE715
:1003C000FEE7FEE7FEE7FEE7FEE7FEE7FEE7FEE705
:1003D000FEE7FEE7FEE7FEE7FEE7FEE70448054925
:1003E000034A054B70470000350C00000102000075
:1003F00080000020800200208000002070477047AD
:100400007047754600F02CF8AE4605006946534625
:1004100020F00700854618B020B5FFF7DFFFBDE8E4
:1004200020404FF000064FF000074FF000084FF05B
:10043000000B21F00701AC46ACE8C009ACE8C009EC
:10044000ACE8C009ACE8C0098D46704710B5044659
:10045000AFF300802046BDE81040FFF71ABF000050
:10046000004870471C00002001491820ABBEFEE781
:10047000260002007047000010B50949094800F045
:10048000E5F90949086000F019F800F00FF800F0EC
:1004900031F800F077F900F07DFB00F03DF910BD78
:1004A0000024F400800600F11400002002480168D6
:1004B00041F470010160704788ED00E00248016876
:1004C00041F040410160704734EF00E0D0F8003463
:1004D00012F0010F14BF0B438B43C0F8003412F02D
:1004E000020FD0F8202414BF114322EA0101C0F802
:1004F0002014704710B50E4800F01AFB00BF0C48DE
:1005000000F02AFB0028FAD00948801C00F010FBFC
:1005100000BF0748801C00F01FFB0028F9D03021E5
:10052000044800F0DAF80121034800F0D6F810BDC5
:10053000090800F000100640003006402DE9F003E5
:1005400001264FF0000C0325C2F3411706FA0CF404
:100550000C4211D0D0F8C48F4FEA4C0405FA04F9CC
:1005600028EA0908C0F8C48FD0F8C48F07FA04F449
:1005700048EA0404C0F8C44F0CF1010C0CF0FF0C65
:10058000BCF1080FE2D3D0F800C512F0010F14BF80
:100590004CEA010C2CEA010CC0F800C5D0F804C5E7
:1005A00012F0020F14BF4CEA010C2CEA010CC0F847
:1005B00004C5D0F808C512F0040F14BF4CEA010CB2
:1005C0002CEA010CC0F808C5D0F818C512F0080FC5
:1005D00014BF4CEA010C2CEA010CC0F818C512F04B
:1005E000100FD0F83C2514BF0A438A43C0F83C25BD
:1005F000D0F80C2513F0010F14BF0A438A43C0F84A
:100600000C25D0F8102513F0020F14BF0A438A43BB
:10061000C0F81025D0F8142513F0040F14BF0A43B6
:100620008A43C0F81425D0F81C2513F0080F14BF16
:100630000A438A43C0F81C25D0F8442513F4007FF0
:1006400014BF0A438A43C0F84425D0F8402513F468
:10065000407F14BF0A438A43C0F84025D0F82825BC
:10066000002B0CBF114322EA0101C0F82815BDE898
:10067000F00370470E4AC0F30741D26E01238B404E
:100680001A420C4A1ABF02EBC101496852F83110F4
:10069000020AD1F82C354FF00F0C0CFA02FC00F0D6
:1006A0000F0023EA0C0390401843C1F82C05704753
:1006B00000E00F406811000050F82100704730B58D
:1006C0000C4605460022FFF701FF21462846BDE8FB
:1006D000304008230122FFF731BF30B50C460546F4
:1006E00008230122FFF72AFF21462846BDE83040B3
:1006F0000122FFF7EBBE30B50C4605460222FFF79C
:10070000E5FE21462846BDE8304008230122FFF7D8
:1007100015BF40F82120704710B5FFF7CCFD002829
:1007200018BF012010BD084401686FF35201114346
:10073000016012F0020F14BFB0218C21016214BFBE
:100740004FF4306140F60C0141627047425822F08C
:10075000010242507047425842F001024250704735
:1007600008440168006911F0020F14BF4000401CEA
:1007700070470844016811F0020F14BF5108511E60
:100780000161704710B50C4800F0D2F90122102128
:100790000A4800F019F80A4800F0CAF94FF00610AC
:1007A000FFF768FF01210748FFF7A5FF0022C021DE
:1007B0000248FFF7B8FF10BD004000F00080024083
:1007C000060800F000600240002A826814BF11434E
:1007D00022EA01018160704721F03F031844036859
:1007E00013F0020F18BF520803699A1A11F0010F93
:1007F00014BFC2618261704770B50446C0210D48C4
:10080000FFF7A4FF0C480068B0FBF4F52A46C021AE
:100810000848FFF7AEFFC0210648FFF7A1FF4508D3
:100820002A46C4210348FFF7D7FFC0210148FFF73C
:1008300092FF70BD008002401400002010B5C0215E
:100840000148FFF783FF10BD008002402DE9F0034F
:10085000AD4D02462868AD4B1840A0F18053B3F56A
:10086000A02358D002F03809DFF8A482C2F3841420
:10087000B9F1100F24D0B9F1300F04BF47F2305056
:100880004FF400130CD03820904304BF4FF40040C5
:10089000C30105D012F0380F1CBF0020034613D04F
:1008A0009C4F12F4605F4FF0000618BF00222CD05E
:1008B00057F8324044457DD307EBC2025268DFE06F
:1008C000002340461524EBE7A4F10900122822D2A8
:1008D0009148D5F87CC04FF04C7350F824002CF0B0
:1008E0001C0C072CA8BF4CF0100CC5F87CC02E6D5A
:1008F0004FF4002C16F4807FD2D1BCF1010C0AD049
:100900002E6D16F4807FF8D0CAE712F0380F18BFAA
:10091000B9F1100F03D0BDE8F00300207047C2F317
:100920000268DFF8F8C1002257F83290E14503D39E
:1009300007EBC202526803E0521C062AF4D3324687
:10094000C5F8C020D5F8B020DFF8D4C102EA0C0207
:1009500042F00042C5F8B020DFF8C8C1A4F1090296
:100960004C1E5CF828C0A444BCFBF1FCD5F8B010C8
:100970001943C5F8B01008EBC80101EB41046A49FE
:1009800002EB420201EBC40101EB82046468C5F88A
:100990006441D5F864416FF0FF0808EB0C2C44EA81
:1009A0000C0CC5F864C151F82210D5F8602102F48E
:1009B000000200E05FE01143C5F86011D5F8601156
:1009C000D5F86021C1F38921C2F30904D5F8642167
:1009D000C2F3042202F1010CD5F8642102F01F02D7
:1009E000521CB0FBF2F04A09C2F1000844434243F2
:1009F00001EB481104EB5212484302EB9020B0FB8C
:100A0000FCF041080846002257F832C0844503D361
:100A100007EBC200466802E0521C062AF4D3C5F870
:100A2000C060D5F8600110F4000F1DBFD5F8B0000C
:100A300040F08040C5F8B000D5F8600104BF40F434
:100A40000000C5F860014FF40040D5F8682112F0AD
:100A5000010F02D1401E0028F7DC002808BF00214A
:100A600048D0D5F8B000184340F0010040F01040E5
:100A7000C5F8B0003EE0521C062AFFF419AF32461A
:100A8000C5F8C020D5F8602122F40002C5F8602125
:100A9000D5F8B020DFF894C002EA0C0242F0004220
:100AA000C5F8B020002908BF4FF0000C0AD0B0FBF9
:100AB000F1FCBCF1000F18BFACF1010C0CF101010D
:100AC000B0FBF1F10846002257F83240844203D3CC
:100AD00007EBC200466802E0521C062AF4D3C5F8B0
:100AE000C060D5F8B00043EA8C22104340F00040CB
:100AF000C5F8B000D5F8B00020F47000C5F8B0001B
:100B0000BDE8F0030846704700E00F400000FF70AA
:100B10000024F4001C1400000012000040787D0145
:100B200000FC0FE0F81100006C120000FF0300EF62
:100B3000C0F307230749C0B2194401F07043C1F361
:100B4000130143EA411141EA800040F000700122A4
:100B50000260704700E60F40C0F307220849C0B2A8
:100B6000114401F07042C1F3130142EA411141EA1C
:100B7000800040F000700068002818BF0120704716
:100B800000EA0F404FF0E020016941F005010161EA
:100B90007047000010B5064800683221B0FBF1F440
:100BA000204600F00EF8FFF7EDFF00F003F810BD4F
:100BB000140000204FF0E020016941F002010161C2
:100BC00070474FF0E021401E4861704710B5134A4E
:100BD00013480178134800F021F900F0CFF81249CA
:100BE00008701248007810B1012811D109E00E48B0
:100BF0000078002804DD01200C4908700C490870B9
:100C00000AE00948007810B900200849087003E09C
:100C100000200649087000BF00BF10BD0900002079
:100C20000800002000000020110000201200002019
:100C3000130000200448006840F470000249086076
:100C4000024803490860704788ED00E00024F40082
:100C500018000020014600202D2956D014DC21293F
:100C600076D2DFE801F030323436383A3C3E40424A
:100C70004446484A4C4E757575757575757575752C
:100C800075757575757554004C294ED00ADCA1F147
:100C90004102092A5CD2DFE802F03E5B594E4C4427
:100CA0003C524000592948D006DC4E2937D0522901
:100CB0003DD055294CD136E05F2924D0622943D05C
:100CC0006F2945D13EE03F2044E0062042E05B2012
:100CD00040E04F203EE066203CE06D203AE07D2081
:100CE00038E0072036E07F2034E06F2032E07720C4
:100CF00030E07C202EE039202CE05E202AE07920B4
:100D000028E0712026E0082024E0402022E0002096
:100D100020E03D201EE077201CE006201AE037206E
:100D200018E0712016E03E2014E0382012E0502038
:100D300010E079200EE05E200CE06E200AE07620C4
:100D400008E005E05C2005E07C2003E0392001E0BC
:100D5000002000BF00BF704710B5002210210648D8
:100D6000FFF7D7FC8A2000F0A7F8102211460248AE
:100D7000FFF7CFFC10BD00000010064038B500257D
:100D8000002210212448FFF7C4FC422000F094F810
:100D9000002401E0601CC4B2052CFBDB002405E04C
:100DA00000F0B4F80DF80400601CC4B2042CF7DBAA
:100DB000102211461848FFF7ACFC9DF800000428EB
:100DC00000D101259DF80000022800D102259DF8E0
:100DD0000000012800D103259DF80000402800D123
:100DE00004259DF80000202800D105259DF800006D
:100DF000102800D106259DF80100042800D1072500
:100E00009DF80100022800D108259DF80100012865
:100E100000D10925284638BD001006402DE9FF41C4
:100E200005460E4617464FF00108002419E0285DDC
:100E3000FFF710FF0DF8140006EA080028B11DF8AE
:100E4000140040F080000DF814004FEA48604FEAAB
:100E50001068385D012101EB44010DF80100601CB0
:100E6000C4B2082CE3DB002210211248FFF751FC2A
:100E7000402000F021F8102211460E48FFF749FCEF
:100E8000002210210B48FFF744FCC02000F014F8AA
:100E9000002405E01DF8040000F00EF8601CC4B248
:100EA000102CF7DB102211460248FFF732FCBDE898
:100EB000FF8100000010064070B504462021114853
:100EC000FFF70BFC00251AE0002201210E48FFF776
:100ED00020FC04F0010028B1202211460948FFF748
:100EE00018FC04E0002220210648FFF712FC6410E1
:100EF000012211460448FFF70CFC681CC5B2082DFE
:100F0000E2DB70BD001006400030064070B50024E2
:100F100020211148FFF7D3FB002518E064100022C0
:100F200001210E48FFF7F5FB012211460B48FFF7A0
:100F3000F0FB20210848FFF7BFFB08B144F0800414
:100F4000002201210548FFF7E4FB681CC5B2082D0B
:100F5000E4DB204670BD0000001006400030064073
:100F60004FF47A74FFF788FA1348006840F6B831F6
:100F7000B0FBF1F0C0EB001085002846FFF790F9B8
:100F8000FFF7EAFE16E00D480078012812D1002094
:100F90000A4908700A480078012802D0022807D1BF
:100FA00003E02046FFF728FC03E0FFF747FC00E0E2
:100FB00000BF00BFE7E7000014000020130000207E
:100FC000110000204FF04070E1EE100A7047000061
:100FD00000400040100000000080054010000000AC
:100FE000005000401100000000900540110000007A
:100FF000006000401200000000A005401200000048
:10100000007000401300000000B005401300000015
:10101000004002401400000000C005401400000021
:10102000005002402E00000000D005402E000000BD
:10103000006002402F00000000E005402F0000008B
:10104000007002403000000000F005403000000059
:1010500000D00340460000000000064046000000AB
:101060000010064047000000002006404800000035
:10107000003006407F000000004006408000000075
:101080000050064084000000006006408C00000014
:1010900000400040100000000080054010000000EB
:1010A00000500040110000000090054011000000B9
:1010B000006000401200000000A005401200000087
:1010C000007000401300000000B005401300000055
:1010D000004002401400000000C005401400000061
:1010E000005002402E00000000D005402E000000FD
:1010F000006002402F00000000E005402F000000CB
:10110000007002403000000000F005403000000098
:1011100000D00340430000000000064043000000F0
:10112000001006404400000000200640450000007A
:101130000030064058000000004006405900000002
:10114000005006405C0000000060064064000000A3
:10115000007006406C000000008006406D0000003A
:10116000009006407F0000000040004000800540E5
:1011700000500040009005400060004000A0054085
:101180000070004000B005400040024000C0054033
:101190000050024000D005400060024000E00540E1
:1011A0000070024000F0054000D0034000000640FF
:1011B00000100640001006400020064000200640B7
:1011C0000030064000300640004006400040064027
:1011D0000050064000500640006006400060064097
:1011E0000070064000700640008006400080064007
:1011F000009006400090064000688909001C4E0ED1
:1012000040420F0000201C0080841E00008025004A
:10121000999E36000040380000093D0000803E00E5
:1012200000004B00404B4C0000204E00808D5B00C6
:1012300000C05D000080700000127A0000007D0098
:1012400080969800001BB7000080BB00C0E8CE006D
:10125000647ADA000024F4000000FA0080A8120189
:10126000002D310100366E0140787D014000000004
:1012700000000000000100003E0008000000000027
:1012800000010000A00000000200000000010000BA
:101290003454010000000000000100002B70060023
:1012A0000000000000010000280000000000000015
:1012B0000001000027000100000000000001000004
:1012C00020000000000000000001000050000000AD
:1012D00002000000000100001AAC00000000000045
:1012E0000001000017940900000000000001000048
:1012F0001698050000000000000100001400000026
:101300000000000000010000138008000000000041
:1013100000010000A0000000080000000001000023
:101320001000000000000000000100002800000084
:101330000200000000010000400000000400000066
:10134000000100006000000000000000000100003B
:101350005D000C00000000000001000050000000D3
:1013600000000000000100004E000200000000002C
:101370000001000041AC010000000000000100007D
:101380003C00000000000000000100003A8009005D
:10139000000000000001000030000000000000001C
:1013A0000001000028000000000000000001000013
:1013B000270001000000000000010000236006007B
:1013C0000000000000010000216008000000000093
:1013D000000100001E0000000000000000010000ED
:1013E0001DC00400000000000001000050000000CB
:1013F00002000000000100001800000000000000D2
:1014000000010000140000000000000000010000C6
:101410006000000004000000000100000024F4004F
:1014200030003000005A620291009100008793035F
:10143000D200D20000B4C4041301130100E1F50589
:1014400054015401000E2707950195016C1400000A
:10145000000000201C0000003C0200008814000076
:101460001C00002064020000580200002020202000
:1014700020202020000000000000000000000000EC
:08148000000000000024F4004C
:0400000500000201F4
:00000001FF
