:020000040000FA
:10000000A0030020C9020000D1020000D3020000BA
:10001000D5020000D7020000D90200000000000055
:10002000000000000000000000000000DB020000F3
:10003000DD02000000000000DF020000010D0000F2
:10004000E3020000E5020000E7020000E902000010
:10005000EB020000ED020000EF020000F1020000E0
:10006000F3020000F5020000F7020000F9020000B0
:10007000FB020000FD020000FF020000010300007F
:10008000030300000503000007030000090300004C
:100090000B0300000D0300000F030000110300001C
:1000A00013030000150300001703000019030000EC
:1000B0001B0300001D0300001F03000021030000BC
:1000C000230300002503000027030000290300008C
:1000D0002B0300002D0300002F030000310300005C
:1000E000330300003503000037030000390300002C
:1000F0003B0300003D0300003F03000041030000FC
:1001000043030000450300004703000049030000CB
:100110004B0300004D0300004F030000510300009B
:10012000530300005503000057030000590300006B
:100130005B0300005D0300005F030000610300003B
:1001400063030000650300006703000081030000F3
:100150000000000000000000830300008503000091
:100160008703000089030000000000008B030000EB
:100170008D0300008F030000910300009303000033
:100180009503000097030000990300009B03000003
:100190009D0300009F030000A1030000A3030000D3
:1001A000A5030000A7030000A9030000AB030000A3
:1001B000AD030000AF030000B1030000B303000073
:1001C000B5030000B7030000B9030000BB03000043
:1001D000BD030000BF030000C1030000C303000013
:1001E000C5030000C7030000C9030000CB030000E3
:1001F000CD030000CF030000D1030000D3030000B3
:1002000000F002F800F03CF80AA090E8000C8244EC
:100210008344AAF10107DA4501D100F031F8AFF2C9
:10022000090EBAE80F0013F0010F18BFFB1A43F0D4
:100230000103184780190000A0190000103A24BFDC
:1002400078C878C1FAD8520724BF30C830C144BF3B
:1002500004680C607047000000230024002500267D
:10026000103A28BF78C1FBD8520728BF30C148BF19
:100270000B6070471FB501F06EFB1FBD10B510BDC0
:1002800000F0BBF81146FFF7F5FF01F057F900F059
:10029000D9F803B4FFF7F2FF03BC00F0E1F8000067
:1002A000EFF3108072B67047EFF310807047EFF3F2
:1002B000108062B6704730BF704780F31188704776
:1002C000EFF31180704700004548804745480047DC
:1002D000FEE7FEE7FEE7FEE7FEE7FEE7FEE7FEE7F6
:1002E000FEE7FEE7FEE7FEE7FEE7FEE7FEE7FEE7E6
:1002F000FEE7FEE7FEE7FEE7FEE7FEE7FEE7FEE7D6
:10030000FEE7FEE7FEE7FEE7FEE7FEE7FEE7FEE7C5
:10031000FEE7FEE7FEE7FEE7FEE7FEE7FEE7FEE7B5
:10032000FEE7FEE7FEE7FEE7FEE7FEE7FEE7FEE7A5
:10033000FEE7FEE7FEE7FEE7FEE7FEE7FEE7FEE795
:10034000FEE7FEE7FEE7FEE7FEE7FEE7FEE7FEE785
:10035000FEE7FEE7FEE7FEE7FEE7FEE7FEE7FEE775
:10036000FEE7FEE7FEE7FEE7FEE7FEE7FEE7FEE765
:10037000FEE7FEE7FEE7FEE7FEE7FEE7FEE7FEE755
:10038000FEE7FEE7FEE7FEE7FEE7FEE7FEE7FEE745
:10039000FEE7FEE7FEE7FEE7FEE7FEE7FEE7FEE735
:1003A000FEE7FEE7FEE7FEE7FEE7FEE7FEE7FEE725
:1003B000FEE7FEE7FEE7FEE7FEE7FEE7FEE7FEE715
:1003C000FEE7FEE7FEE7FEE7FEE7FEE7FEE7FEE705
:1003D000FEE7FEE704480549034A054B7047000065
:1003E000C10D000001020000A0010020A0030020B8
:1003F000A0010020704770477047754600F02CF848
:10040000AE4605006946534620F00700854618B001
:1004100020B5FFF7DFFFBDE820404FF000064FF0AA
:1004200000074FF000084FF0000B21F00701AC4629
:10043000ACE8C009ACE8C009ACE8C009ACE8C00948
:100440008D46704710B50446AFF300802046BDE8E6
:100450001040FFF71EBF0000004870474001002019
:1004600001491820ABBEFEE72600020070470000DD
:1004700018480078082821D11748006817490860F3
:1004800000201549086015480068012805D1144965
:1004900008600020134908601AE010480068B8B9E5
:1004A00010480068401C0F4908600A2810D301203A
:1004B0000B49086000200B49086009E00648006805
:1004C00006490860012004490860002005490860C9
:1004D00070470000A1000020740000207800002078
:1004E000800000207C0000200C48007806280DD1F8
:1004F0000B4800680B49086000200949086009485A
:100500000068012809D10849086006E0044800682D
:10051000044908600120024908607047A1000020DA
:1005200044000020480000205000002010B506497B
:10053000064800F025FA0649086000F043F800F08C
:10054000C3FB00F05FF910BD002D3101800600F102
:10055000A40000200E48006810B1012812D109E063
:100560000C480078052804D10120094908600A498F
:1005700008600BE007480078052802D000200449F5
:10058000086003E000200249086000BF00BF704718
:1005900034000020A100002040000020D0F80034EA
:1005A00012F0010F14BF0B438B43C0F8003412F05C
:1005B000020FD0F8202414BF114322EA0101C0F831
:1005C0002014704710B50F4800F04CFB00BF0D48D9
:1005D00000F05CFB0028FAD00A48801C00F042FBC7
:1005E00000BF0848801C00F051FB0028F9D03021E2
:1005F000054800F0BAF80121044800F0B6F800F010
:100600004DF910BD090800F000100640003006400A
:100610002DE9F00301264FF0000C0325C2F341172A
:1006200006FA0CF40C4211D0D0F8C48F4FEA4C04F7
:1006300005FA04F928EA0908C0F8C48FD0F8C48F75
:1006400007FA04F448EA0404C0F8C44F0CF1010CA2
:100650000CF0FF0CBCF1080FE2D3D0F800C512F08B
:10066000010F14BF4CEA010C2CEA010CC0F800C5C4
:10067000D0F804C512F0020F14BF4CEA010C2CEAAA
:10068000010CC0F804C5D0F808C512F0040F14BF5F
:100690004CEA010C2CEA010CC0F808C5D0F818C5CA
:1006A00012F0080F14BF4CEA010C2CEA010CC0F840
:1006B00018C512F0100FD0F83C2514BF0A438A4326
:1006C000C0F83C25D0F80C2513F0010F14BF0A43E5
:1006D0008A43C0F80C25D0F8102513F0020F14BF80
:1006E0000A438A43C0F81025D0F8142513F0040FEC
:1006F00014BF0A438A43C0F81425D0F81C2513F010
:10070000080F14BF0A438A43C0F81C25D0F84425BB
:1007100013F4007F14BF0A438A43C0F84425D0F87D
:10072000402513F4407F14BF0A438A43C0F8402594
:10073000D0F82825002B0CBF114322EA0101C0F894
:100740002815BDE8F003704750F82100704730B518
:100750000C4605460022FFF721FF21462846BDE84A
:10076000304008230122FFF753BF30B50C46054641
:1007700008230122FFF74CFF21462846BDE8304000
:100780000122FFF70BBF40F821207047184800787E
:10079000022821D117480068174908600020154930
:1007A000086015480068012805D114490860002038
:1007B000134908601AE010480068B8B9104800688A
:1007C000401C0F4908600A2810D301200B4908601B
:1007D00000200B49086009E00648006806490860E7
:1007E00001200449086000200549086070470000A6
:1007F000A10000206400002068000020700000209C
:100800006C00002010B5FFF752FD002818BF012032
:1008100010BD000010B5002201211F48FFF7B3FFF3
:10082000642000F097F8012211461B48FFF7ABFF48
:10083000642000F08FF8E22000F024FF052000F093
:1008400089F82C2000F01EFF322000F083F82E20C3
:1008500000F018FF322000F07DF82F2000F012FF8A
:10086000052000F077F8232000F00CFF812000F035
:1008700009FF282000F006FFA22000F003FFC82097
:1008800000F000FFA02000F0FDFE402000F0FAFE86
:10089000AF2000F0F7FE10BD0010064010B527484D
:1008A00000F0E0F900BF254800F0F0F90028FAD088
:1008B0002248C01D00F0D6F900BF2048C01D00F03E
:1008C000E5F90028F9D01D48401E00F0CBF900BF23
:1008D0001A48401E00F0DAF90028F9D01748801CA9
:1008E00000F0C0F900BF1548801C00F0CFF90028C7
:1008F000F9D007211248FFF738FF30211148FFF7E0
:1009000034FF30211048FFF730FF10210F48FFF768
:100910002CFF40210B48FFF71AFF0848C01C00F0CD
:10092000A1F900BF0548C01C00F0B0F90028F9D0BB
:1009300002210748FFF719FF10BD0000020800F070
:10094000001006400060004000500040004002409F
:1009500000500240002105E0002200E0521C6E2AF7
:10096000FCDB491C8142F7DB7047002105E00022D7
:1009700000E0521C012AFCDB491C8142F7DB704776
:100980002DE9F003AD4D02462868AD4B1840A0F1AB
:100990008053B3F5A02358D002F03809DFF8A482C1
:1009A000C2F38414B9F1100F24D0B9F1300F04BF91
:1009B00047F230504FF400130CD03820904304BF5E
:1009C0004FF40040C30105D012F0380F1CBF0020C7
:1009D000034613D09C4F12F4605F4FF0000618BF1F
:1009E00000222CD057F8324044457DD307EBC20299
:1009F0005268DFE0002340461524EBE7A4F109002C
:100A0000122822D29148D5F87CC04FF04C7350F890
:100A100024002CF01C0C072CA8BF4CF0100CC5F8BF
:100A20007CC02E6D4FF4002C16F4807FD2D1BCF127
:100A3000010C0AD02E6D16F4807FF8D0CAE712F0B0
:100A4000380F18BFB9F1100F03D0BDE8F003002034
:100A50007047C2F30268DFF8F8C1002257F83290FD
:100A6000E14503D307EBC202526803E0521C062A99
:100A7000F4D33246C5F8C020D5F8B020DFF8D4C191
:100A800002EA0C0242F00042C5F8B020DFF8C8C10B
:100A9000A4F109024C1E5CF828C0A444BCFBF1FC84
:100AA000D5F8B0101943C5F8B01008EBC80101EB38
:100AB00041046A4902EB420201EBC40101EB8204EA
:100AC0006468C5F86441D5F864416FF0FF0808EB2D
:100AD0000C2C44EA0C0CC5F864C151F82210D5F86E
:100AE000602102F4000200E05FE01143C5F86011EC
:100AF000D5F86011D5F86021C1F38921C2F309044A
:100B0000D5F86421C2F3042202F1010CD5F8642166
:100B100002F01F02521CB0FBF2F04A09C2F10008B9
:100B20004443424301EB481104EB5212484302EBA9
:100B30009020B0FBFCF041080846002257F832C074
:100B4000844503D307EBC200466802E0521C062A24
:100B5000F4D3C5F8C060D5F8600110F4000F1DBFD4
:100B6000D5F8B00040F08040C5F8B000D5F860017D
:100B700004BF40F40000C5F860014FF40040D5F810
:100B8000682112F0010F02D1401E0028F7DC002876
:100B900008BF002148D0D5F8B000184340F001004C
:100BA00040F01040C5F8B0003EE0521C062AFFF4A9
:100BB00019AF3246C5F8C020D5F8602122F40002F2
:100BC000C5F86021D5F8B020DFF894C002EA0C0225
:100BD00042F00042C5F8B020002908BF4FF0000CD9
:100BE0000AD0B0FBF1FCBCF1000F18BFACF1010C56
:100BF0000CF10101B0FBF1F10846002257F8324038
:100C0000844203D307EBC200466802E0521C062A66
:100C1000F4D3C5F8C060D5F8B00043EA8C22104385
:100C200040F00040C5F8B000D5F8B00020F47000E6
:100C3000C5F8B000BDE8F0030846704700E00F407B
:100C40000000FF700024F400841B000068190000FD
:100C500040787D0100FC0FE060190000D41900000D
:100C6000FF0300EFC0F307230749C0B2194401F0A6
:100C70007043C1F3130143EA411141EA800040F09F
:100C8000007001220260704700E60F40C0F30722A7
:100C90000849C0B2114401F07042C1F3130142EAA5
:100CA000411141EA800040F000700068002818BF40
:100CB0000120704700EA0F404FF0E020016941F049
:100CC000050101617047000010B506480068322137
:100CD000B0FBF1F4204600F00EF8FFF7EDFF00F056
:100CE00003F810BDA40000204FF0E020016941F09E
:100CF0000201016170474FF0E021401E48617047DA
:100D000010B525480078401CC0B22349087005285A
:100D100005DB01202149087000201F490870204888
:100D20000078401CC0B21E490870192805DB01205C
:100D30001C49087000201A4908701B4A1B4801789A
:100D40001B4800F031F900F0DFF81A490870084636
:100D5000007817494871FFF7FDFBFFF7C5FB00F06E
:100D6000C5F9FFF713FDFFF783FB1248007878B948
:100D700011480088401C80B20F490880B0F5FA7F06
:100D800009DB01200D49087000200B49088002E0B2
:100D900000200949088010BD840000208800002040
:100DA0008500002089000020990000209800002084
:100DB00090000020A1000020860000208A00002072
:100DC0000448006840F47000024908600248034982
:100DD0000860704788ED00E00024F400AC000020BB
:100DE000014600202D2956D014DC212976D2DFE8D7
:100DF00001F030323436383A3C3E40424446484AAC
:100E00004C4E7575757575757575757575757575E2
:100E1000757554004C294ED00ADCA1F14102092A13
:100E20005CD2DFE802F03E5B594E4C443C5240003D
:100E3000592948D006DC4E2937D052293DD05529B2
:100E40004CD136E05F2924D0622943D06F2945D1A7
:100E50003EE03F2044E0062042E05B2040E04F209F
:100E60003EE066203CE06D203AE07D2038E007203F
:100E700036E07F2034E06F2032E0772030E07C20C5
:100E80002EE039202CE05E202AE0792028E0712035
:100E900026E0082024E0402022E0002020E03D2041
:100EA0001EE077201CE006201AE0372018E07120B1
:100EB00016E03E2014E0382012E0502010E07920A7
:100EC0000EE05E200CE06E200AE0762008E005E0EF
:100ED0005C2005E07C2003E0392001E0002000BF19
:100EE00000BF704710B5002210210648FFF74BFCE9
:100EF0008A2000F0A7F8102211460248FFF743FCB1
:100F000010BD00000010064038B500250022102159
:100F10002448FFF738FC422000F094F8002401E058
:100F2000601CC4B2052CFBDB002405E000F0B4F823
:100F30000DF80400601CC4B2042CF7DB102211462B
:100F40001848FFF720FC9DF80000042800D1012577
:100F50009DF80000022800D102259DF8000001281C
:100F600000D103259DF80000402800D104259DF8FC
:100F70000000202800D105259DF80000102800D190
:100F800006259DF80100042800D107259DF80100E1
:100F9000022800D108259DF80100012800D109256B
:100FA000284638BD001006402DE9FF4105460E4693
:100FB00017464FF00108002419E0285DFFF710FFE5
:100FC0000DF8140006EA080028B11DF8140040F0DE
:100FD00080000DF814004FEA48604FEA1068385D51
:100FE000012101EB44010DF80100601CC4B2082C82
:100FF000E3DB002210211248FFF7C5FB402000F080
:1010000021F8102211460E48FFF7BDFB00221021E7
:101010000B48FFF7B8FBC02000F014F8002405E0EF
:101020001DF8040000F00EF8601CC4B2102CF7DBB1
:10103000102211460248FFF7A6FBBDE8FF81000021
:101040000010064070B5044620211148FFF78DFBC3
:1010500000251AE0002201210E48FFF794FB04F05E
:10106000010028B1202211460948FFF78CFB04E05B
:10107000002220210648FFF786FB6410012211465A
:101080000448FFF780FB681CC5B2082DE2DB70BD89
:10109000001006400030064070B5002420211148A1
:1010A000FFF755FB002518E06410002201210E48CF
:1010B000FFF769FB012211460B48FFF764FB202173
:1010C0000848FFF741FB08B144F0800400220121E9
:1010D0000548FFF758FB681CC5B2082DE4DB204625
:1010E00070BD000000100640003006400E48006849
:1010F00010B1012812D109E00C480078042804D16D
:101100000120094908600A4908600BE00748007897
:10111000042802D000200449086003E000200249AE
:10112000086000BF00BF704754000020A1000020ED
:101130006000002070B5002414E004F1B00000F05D
:10114000A1FA102000F09EFA002000F09BFA002582
:1011500004E0002000F0CEFA681CC5B2842DF8DB54
:10116000601CC4B2092CE8DB70BD00002DE9F04121
:1011700007460E4615469846002475E0285DB028BF
:1011800026DB285DF72823DC601C285CA1281FDBF8
:10119000285DB0385E2110FB01F036490860601C04
:1011A000285C00F2AD20096808443249086008460E
:1011B0000068400108604346324639462D480068C1
:1011C00000F08CF8A01CC4B206F11000C6B24BE0CF
:1011D000285DA12825DB285DA32822DC601C285C73
:1011E000A1281EDB285DA1385E2110FB01F02149FA
:1011F0000860601C285CA138096808441D49086023
:10120000084600684001086043463246394619489E
:10121000006800F063F8A01CC4B206F11000C6B26A
:1012200022E0285D20281DDB285D7E281ADC285D51
:101230002038104908600846006800010860084628
:1012400000680D4908440B49086043463246394658
:101250000848006800F086F8601CC4B206F1080077
:10126000C6B201E0601CC4B2285D002886DCBDE87F
:10127000F0810000A800002080CF03002DE9F0419C
:1012800004460025FFF756FF00BF1CE0124E56F83B
:101290002460361D56F825200F4E56F824607C3603
:1012A000735D0D4E56F824606836765D761E012714
:1012B00007EBC606F1B2084E56F824605436705D4E
:1012C000FFF754FF6D1C044850F824000078A84232
:1012D000DCD8BDE8F08100001C0000202DE9F047BB
:1012E00004460F4690469946002210211C48FFF7FD
:1012F0004AFA032000F098F9C4F3074000F094F98B
:10130000C4F3072000F090F9E0B200F08DF9002559
:101310001CE07819414600F0FDF84FF0000A10E09B
:1013200000F064F80646B9F1000F03D1304600F032
:10133000E1F902E0F04300F0DDF90AF1010000F00C
:10134000FF0ABAF1100FEBDB681CC5B2022DE0DB1F
:10135000102211460248FFF716FABDE8F087000098
:10136000006000402DE9F04704460F46904699463C
:10137000002210211C48FFF706FA032000F054F960
:10138000C4F3074000F050F9C4F3072000F04CF913
:10139000E0B200F049F900251CE07819414600F060
:1013A000B9F84FF0000A10E000F020F80646B9F155
:1013B000000F03D1304600F09DF902E0F04300F049
:1013C00099F90AF1010000F0FF0ABAF1080FEBDB0E
:1013D000681CC5B2022DE0DB102211460248FFF75F
:1013E000D2F9BDE8F08700000060004070B500242D
:1013F00000251BE0402211460E48FFF7C4F90022E9
:1014000020210C48FFF7BFF96006040E402109486F
:10141000FFF79AF910B1601CC4B200E0E4B22022D8
:1014200011460448FFF7AFF9681CC5B2082DE1DB8F
:10143000204670BD006000400C49096821B10129B7
:1014400007D002290FD109E0094A0A4909688A60D0
:101450000AE0094A074909688A6005E0074A054920
:1014600009688A6000E000BF00BF704704000020E8
:10147000080000201C0000200E00002014000020A6
:1014800010B513491348006800F02CF802201249E7
:10149000087012484860032081F85400012081F848
:1014A0006800002081F87C00094801680A488160D2
:1014B000032180F855100B2180F86910002180F875
:1014C0007D10074908600020FFF7D8FE10BD00001E
:1014D0002C00002004000020B0000020200000208C
:1014E0001C00002020B1012805D0022809D105E008
:1014F000054A0A6006E0054A0A6003E0044A0A60F9
:1015000000E000BF00BF7047080000200E00002070
:101510001400002070B505460C46641E05F1AF00AE
:1015200000F0B0F8C4F3031101F1100000F0AAF8C4
:1015300004F00F0000F0A6F870BD0000FEF7F6FF03
:1015400000BF314800780328FBDBFFF7CBFCFFF737
:1015500061F9FFF795FF56E02C480078012839D152
:1015600000202A4908702A48007898BB294800685A
:10157000401C2849086042F21071884202D30020C2
:1015800024490860234800684FF47A71B0FBF1F0F9
:10159000214908701F4800686421B0FBF1F00A215E
:1015A000B0FBF1F201FB12001B49487019480068BA
:1015B0000A21B0FBF1F0B0FBF1F201FB1200164979
:1015C0008870144800680A21B0FBF1F201FB120098
:1015D0001149C87011480078012810D100200F4926
:1015E00008700F480578002405E00D49601C085C70
:1015F0000855601CC4B2072CF7DB0948C5710948BF
:10160000006800F099F9A7E7840000208800002016
:10161000A10000208C000020900000208900002004
:10162000990000203000002070B50446002521E01C
:10163000002220211148FFF7A6F80A20FFF795F9AC
:1016400004F0800028B1042211460D48FFF79BF8F2
:1016500004E0002204210A48FFF795F86006040E12
:10166000202211460548FFF78EF80A20FFF77DF982
:10167000681CC5B2082DDBDB70BD000000600040B7
:101680000010064070B50446002210211648FFF7EE
:101690007AF8002202211548FFF775F800251BE0B3
:1016A000002220211048FFF76EF804F0800028B1D6
:1016B000102211460E48FFF766F804E000221021C0
:1016C0000B48FFF760F860000446202211460648E8
:1016D000FFF759F8681CC5B2082DE1DB102211464E
:1016E0000148FFF750F870BD005000400010064060
:1016F0000040024070B50446002210211648FFF752
:1017000042F8022211461548FFF73DF800251BE07C
:10171000002220211048FFF736F804F0800028B19D
:10172000102211460E48FFF72EF804E00022102187
:101730000B48FFF728F8202211460748FFF723F847
:1017400060000446681CC5B2082DE1DB102211467A
:101750000148FFF718F870BD005000400010064027
:101760000040024070B51648007840B3002015498B
:101770000860154908601549086015490860154951
:10178000086001211448006880F87D10124C24681C
:1017900094F87D30104C2468A2680F4C246894F8AB
:1017A0006940641E012505EBC404E1B20A4C2468BB
:1017B00094F85500FFF7DAFC01200849086070BD75
:1017C000A1000020600000205000002070000020D8
:1017D00080000020400000201C000020300000207D
:1017E00070B54C48006818B100204A4908606AE0AA
:1017F0004948006818B100204749086063E047483D
:10180000006858B300204549086045480068401CFE
:101810004349086008460068022801DD002008608E
:101820003F480068FFF708FE3E4C246894F87D307E
:101830003C4C2468A2683B4C246894F86940641EC0
:10184000012505EBC404E1B2364C246894F8550038
:10185000FFF78CFC01203449086034E0334800680D
:1018600058B30020314908602D480068401E2C49BB
:10187000086008460068002801DA0220086028484D
:101880000068FFF7D9FD274C246894F87D30254C7B
:101890002468A268234C246894F86940641E0125DA
:1018A00005EBC404E1B21F4C246894F85500FFF71F
:1018B0005DFC01201C49086005E01D48006810B16E
:1018C00000201B4908601B480078012820D1002017
:1018D0001849087000211348006880F87D10114CE9
:1018E000246894F87D300F4C2468A2680D4C24685D
:1018F00094F86940641E012505EBC404E1B2094C6B
:10190000246894F85500FFF731FC00200649086070
:1019100070BD00006000002050000020700000201A
:10192000040000201C000020300000208000002067
:10193000400000208A00002010B5044614B1012C9C
:1019400006D102E0FFF70EFF03E0FFF749FF00E0DA
:1019500000BF00BF10BD4FF04070E1EE100A7047AD
:1019600000688909001C4E0E40420F0000201C0038
:1019700080841E0000802500999E360000403800BB
:1019800000093D0000803E0000004B00404B4C0031
:1019900000204E00808D5B0000C05D000080700064
:1019A00000127A0000007D0080969800001BB700AE
:1019B0000080BB00C0E8CE00647ADA000024F400A6
:1019C0000000FA0080A81201002D310100366E01DE
:1019D00040787D0140000000000000000001000090
:1019E0003E0008000000000000010000A000000010
:1019F000020000000001000034540100000000005B
:101A0000000100002B700600000000000001000033
:101A10002800000000000000000100002700010075
:101A20000000000000010000200000000000000095
:101A30000001000050000000020000000001000052
:101A40001AAC00000000000000010000179409001B
:101A500000000000000100001698050000000000D2
:101A60000001000014000000000000000001000060
:101A7000138008000000000000010000A00000002A
:101A8000080000000001000010000000000000003D
:101A9000000100002800000002000000000100001A
:101AA0004000000004000000000100006000000091
:101AB00000000000000100005D000C0000000000BC
:101AC00000010000500000000000000000010000C4
:101AD0004E000200000000000001000041AC0100C7
:101AE00000000000000100003C00000000000000B9
:101AF000000100003A800900000000000001000021
:101B0000300000000000000000010000280000007C
:101B1000000000000001000027000100000000009C
:101B2000000100002360060000000000000100002A
:101B30002160080000000000000100001E000000FD
:101B400000000000000100001DC0040000000000B3
:101B50000001000050000000020000000001000031
:101B60001800000000000000000100001400000048
:101B70000000000000010000600000000400000000
:101B8000000100000024F40030003000005A62021E
:101B90009100910000879303D200D20000B4C404E6
:101BA0001301130100E1F50554015401000E27074C
:101BB00095019501D41B000000000020B00000003A
:101BC0003C020000841C0000B0000020F002000075
:101BD000580200000000000000000000C4A3CABDBD
:101BE0004100C4A3CABD4200C4A3CABD4300000053
:101BF00000000000B9A4D7F7C4A3CABD3A00000092
:101C000000000000000000000000000000000000D4
:101C100000000000000000000000000000000000C4
:101C200000000000000000000000000000000000B4
:101C300000000000000000000000000000000000A4
:101C40000000000000000000000000000000000094
:101C50000000000000000000000000000000000084
:101C600000000000202020205F205F2004010101EF
:101C70000101010100000000000000000000000060
:041C80000024F40048
:0400000500000201F4
:00000001FF
