:020000040000FA
:1000000088020020C9020000D1020000D3020000D3
:10001000D5020000D7020000D90200000000000055
:10002000000000000000000000000000DB020000F3
:10003000DD02000000000000DF020000450A0000B1
:10004000E3020000E5020000E7020000E902000010
:10005000EB020000ED020000EF020000F1020000E0
:10006000F3020000F5020000F7020000F9020000B0
:10007000FB020000FD020000FF020000010300007F
:10008000030300000503000007030000090300004C
:100090000B0300000D0300000F030000110300001C
:1000A00013030000150300001703000019030000EC
:1000B0001B0300001D0300001F03000021030000BC
:1000C000230300002503000027030000290300008C
:1000D0002B0300002D0300002F030000310300005C
:1000E000330300003503000037030000390300002C
:1000F0003B0300003D0300003F03000041030000FC
:1001000043030000450300004703000049030000CB
:100110004B0300004D0300004F030000510300009B
:10012000530300005503000057030000590300006B
:100130005B0300005D0300005F030000610300003B
:1001400063030000650300006703000081030000F3
:100150000000000000000000830300008503000091
:100160008703000089030000000000008B030000EB
:100170008D0300008F030000910300009303000033
:100180009503000097030000990300009B03000003
:100190009D0300009F030000A1030000A3030000D3
:1001A000A5030000A7030000A9030000AB030000A3
:1001B000AD030000AF030000B1030000B303000073
:1001C000B5030000B7030000B9030000BB03000043
:1001D000BD030000BF030000C1030000C303000013
:1001E000C5030000C7030000C9030000CB030000E3
:1001F000CD030000CF030000D1030000D3030000B3
:1002000000F002F800F03CF80AA090E8000C8244EC
:100210008344AAF10107DA4501D100F031F8AFF2C9
:10022000090EBAE80F0013F0010F18BFFB1A43F0D4
:1002300001031847B80F0000D80F0000103A24BF80
:1002400078C878C1FAD8520724BF30C830C144BF3B
:1002500004680C607047000000230024002500267D
:10026000103A28BF78C1FBD8520728BF30C148BF19
:100270000B6070471FB500F089FE1FBD10B510BDA3
:1002800000F0BBF81146FFF7F5FF00F021FE00F08B
:10029000D9F803B4FFF7F2FF03BC00F0E1F8000067
:1002A000EFF3108072B67047EFF310807047EFF3F2
:1002B000108062B6704730BF704780F31188704776
:1002C000EFF31180704700004548804745480047DC
:1002D000FEE7FEE7FEE7FEE7FEE7FEE7FEE7FEE7F6
:1002E000FEE7FEE7FEE7FEE7FEE7FEE7FEE7FEE7E6
:1002F000FEE7FEE7FEE7FEE7FEE7FEE7FEE7FEE7D6
:10030000FEE7FEE7FEE7FEE7FEE7FEE7FEE7FEE7C5
:10031000FEE7FEE7FEE7FEE7FEE7FEE7FEE7FEE7B5
:10032000FEE7FEE7FEE7FEE7FEE7FEE7FEE7FEE7A5
:10033000FEE7FEE7FEE7FEE7FEE7FEE7FEE7FEE795
:10034000FEE7FEE7FEE7FEE7FEE7FEE7FEE7FEE785
:10035000FEE7FEE7FEE7FEE7FEE7FEE7FEE7FEE775
:10036000FEE7FEE7FEE7FEE7FEE7FEE7FEE7FEE765
:10037000FEE7FEE7FEE7FEE7FEE7FEE7FEE7FEE755
:10038000FEE7FEE7FEE7FEE7FEE7FEE7FEE7FEE745
:10039000FEE7FEE7FEE7FEE7FEE7FEE7FEE7FEE735
:1003A000FEE7FEE7FEE7FEE7FEE7FEE7FEE7FEE725
:1003B000FEE7FEE7FEE7FEE7FEE7FEE7FEE7FEE715
:1003C000FEE7FEE7FEE7FEE7FEE7FEE7FEE7FEE705
:1003D000FEE7FEE704480549034A054B7047000065
:1003E000AD0A000001020000880000208802002001
:1003F00088000020704770477047754600F02CF861
:10040000AE4605006946534620F00700854618B001
:1004100020B5FFF7DFFFBDE820404FF000064FF0AA
:1004200000074FF000084FF0000B21F00701AC4629
:10043000ACE8C009ACE8C009ACE8C009ACE8C00948
:100440008D46704710B50446AFF300802046BDE8E6
:100450001040FFF71EBF0000004870472800002032
:1004600001491820ABBEFEE72600020070470000DD
:1004700010B50649064800F025F90649086000F065
:100480001FF800F0C3FA00F015F910BD002D31017E
:10049000800600F11C000020D0F8003412F0010F9B
:1004A00014BF0B438B43C0F8003412F0020FD0F896
:1004B000202414BF114322EA0101C0F82014704720
:1004C00010B5194800F070FA00BF174800F080FA24
:1004D0000028FAD01448801C00F066FA00BF1248C9
:1004E000801C00F075FA0028F9D00F48401E00F07B
:1004F0005BFA00BF0C48401E00F06AFA0028F9D0F1
:1005000030210A4800F0C5F80121094800F0C1F87F
:100510000121084800F0AFF80A2301220221054812
:1005200000F00AF810BD0000090800F000100640B5
:100530000030064000D003402DE9F00301264FF0C3
:10054000000C0325C2F3411706FA0CF40C4211D03B
:10055000D0F8C48F4FEA4C0405FA04F928EA0908D8
:10056000C0F8C48FD0F8C48F07FA04F448EA040432
:10057000C0F8C44F0CF1010C0CF0FF0CBCF1080FDB
:10058000E2D3D0F800C512F0010F14BF4CEA010C01
:100590002CEA010CC0F800C5D0F804C512F0020F17
:1005A00014BF4CEA010C2CEA010CC0F804C5D0F8C9
:1005B00008C512F0040F14BF4CEA010C2CEA010C20
:1005C000C0F808C5D0F818C512F0080F14BF4CEADF
:1005D000010C2CEA010CC0F818C512F0100FD0F86D
:1005E0003C2514BF0A438A43C0F83C25D0F80C25AB
:1005F00013F0010F14BF0A438A43C0F80C25D0F84A
:10060000102513F0020F14BF0A438A43C0F81025C7
:10061000D0F8142513F0040F14BF0A438A43C0F81E
:100620001425D0F81C2513F0080F14BF0A438A4381
:10063000C0F81C25D0F8442513F4007F14BF0A43EA
:100640008A43C0F84425D0F8402513F4407F14BFF6
:100650000A438A43C0F84025D0F82825002B0CBF58
:10066000114322EA0101C0F82815BDE8F0037047E4
:1006700050F82100704730B50C4605460022FFF7C0
:100680000BFF21462846BDE8304008230122FFF732
:1006900053BF30B50C46054608230122FFF74CFF37
:1006A00021462846BDE830400122FFF7F5BE40F85C
:1006B0002120704710B5FFF7FAFD002818BF012070
:1006C00010BD00002DE9F003AD4D02462868AD4B8A
:1006D0001840A0F18053B3F5A02358D002F0380998
:1006E000DFF8A482C2F38414B9F1100F24D0B9F159
:1006F000300F04BF47F230504FF400130CD03820B5
:10070000904304BF4FF40040C30105D012F0380FEE
:100710001CBF0020034613D09C4F12F4605F4FF0C3
:10072000000618BF00222CD057F8324044457DD334
:1007300007EBC2025268DFE0002340461524EBE7D6
:10074000A4F10900122822D29148D5F87CC04FF0BC
:100750004C7350F824002CF01C0C072CA8BF4CF054
:10076000100CC5F87CC02E6D4FF4002C16F4807F61
:10077000D2D1BCF1010C0AD02E6D16F4807FF8D0D6
:10078000CAE712F0380F18BFB9F1100F03D0BDE857
:10079000F00300207047C2F30268DFF8F8C10022BE
:1007A00057F83290E14503D307EBC202526803E0E9
:1007B000521C062AF4D33246C5F8C020D5F8B02022
:1007C000DFF8D4C102EA0C0242F00042C5F8B020C2
:1007D000DFF8C8C1A4F109024C1E5CF828C0A4448B
:1007E000BCFBF1FCD5F8B0101943C5F8B01008EB0C
:1007F000C80101EB41046A4902EB420201EBC4016A
:1008000001EB82046468C5F86441D5F864416FF077
:10081000FF0808EB0C2C44EA0C0CC5F864C151F835
:100820002210D5F8602102F4000200E05FE01143DD
:10083000C5F86011D5F86011D5F86021C1F38921A0
:10084000C2F30904D5F86421C2F3042202F1010CB9
:10085000D5F8642102F01F02521CB0FBF2F04A09E5
:10086000C2F100084443424301EB481104EB521229
:10087000484302EB9020B0FBFCF041080846002200
:1008800057F832C0844503D307EBC200466802E044
:10089000521C062AF4D3C5F8C060D5F8600110F4E4
:1008A000000F1DBFD5F8B00040F08040C5F8B00083
:1008B000D5F8600104BF40F40000C5F860014FF4B2
:1008C0000040D5F8682112F0010F02D1401E002827
:1008D000F7DC002808BF002148D0D5F8B000184345
:1008E00040F0010040F01040C5F8B0003EE0521C5E
:1008F000062AFFF419AF3246C5F8C020D5F86021AA
:1009000022F40002C5F86021D5F8B020DFF894C0C9
:1009100002EA0C0242F00042C5F8B020002908BFEC
:100920004FF0000C0AD0B0FBF1FCBCF1000F18BF77
:10093000ACF1010C0CF10101B0FBF1F10846002211
:1009400057F83240844203D307EBC200466802E006
:10095000521C062AF4D3C5F8C060D5F8B00043EAAB
:100960008C22104340F00040C5F8B000D5F8B0002C
:1009700020F47000C5F8B000BDE8F00308467047E9
:1009800000E00F400000FF700024F400BC110000E4
:10099000A00F000040787D0100FC0FE0980F0000E0
:1009A0000C100000FF0300EFC0F307230749C0B29B
:1009B000194401F07043C1F3130143EA411141EAC4
:1009C000800040F0007001220260704700E60F4096
:1009D000C0F307220849C0B2114401F07042C1F3CC
:1009E000130142EA411141EA800040F000700068C2
:1009F000002818BF0120704700EA0F404FF0E020A8
:100A0000016941F0050101617047000010B5064819
:100A100000683221B0FBF1F4204600F00EF8FFF739
:100A2000EDFF00F003F810BD1C0000204FF0E020A7
:100A3000016941F00201016170474FF0E021401E61
:100A40004861704710B512480078401CC0B2104988
:100A50000870052805DB01200E49087000200C49AC
:100A600008700D480078401CC0B20B490870192866
:100A700005DB012009490870002007490870084A71
:100A800008480178084800F005F900F05BFA10BD4D
:100A900000000020020000200100002003000020D0
:100AA0001100002010000020080000200448006809
:100AB00040F470000249086002480349086070472A
:100AC00088ED00E00024F40024000020014600200E
:100AD0002D2956D014DC212976D2DFE801F03032FE
:100AE0003436383A3C3E40424446484A4C4E75758E
:100AF000757575757575757575757575757554003C
:100B00004C294ED00ADCA1F14102092A5CD2DFE86F
:100B100002F03E5B594E4C443C524000592948D0AB
:100B200006DC4E2937D052293DD055294CD136E02C
:100B30005F2924D0622943D06F2945D13EE03F2070
:100B400044E0062042E05B2040E04F203EE066208B
:100B50003CE06D203AE07D2038E0072036E07F2041
:100B600034E06F2032E0772030E07C202EE0392026
:100B70002CE05E202AE0792028E0712026E0082081
:100B800024E0402022E0002020E03D201EE07720ED
:100B90001CE006201AE0372018E0712016E03E2005
:100BA00014E0382012E0502010E079200EE05E20A2
:100BB0000CE06E200AE0762008E005E05C2005E00D
:100BC0007C2003E0392001E0002000BF00BF704717
:100BD00010B5002210210648FFF769FD8A2000F0B9
:100BE000A7F8102211460248FFF761FD10BD000072
:100BF0000010064038B50025002210212448FFF7D8
:100C000056FD422000F094F8002401E0601CC4B2BC
:100C1000052CFBDB002405E000F0B4F80DF804001F
:100C2000601CC4B2042CF7DB102211461848FFF7F1
:100C30003EFD9DF80000042800D101259DF800002C
:100C4000022800D102259DF80000012800D10325CB
:100C50009DF80000402800D104259DF800002028C0
:100C600000D105259DF80000102800D106259DF82B
:100C70000100042800D107259DF80100022800D1B9
:100C800008259DF80100012800D10925284638BD16
:100C9000001006402DE9FF4105460E4617464FF06D
:100CA0000108002419E0285DFFF710FF0DF814007B
:100CB00006EA080028B11DF8140040F080000DF885
:100CC00014004FEA48604FEA1068385D012101EBDB
:100CD00044010DF80100601CC4B2082CE3DB0022C3
:100CE00010211248FFF7E3FC402000F021F8102209
:100CF00011460E48FFF7DBFC002210210B48FFF7DE
:100D0000D6FCC02000F014F8002405E01DF8040013
:100D100000F00EF8601CC4B2102CF7DB1022114654
:100D20000248FFF7C4FCBDE8FF8100000010064048
:100D300070B5044620211148FFF7ABFC00251AE0EE
:100D4000002201210E48FFF7B2FC04F0010028B197
:100D5000202211460948FFF7AAFC04E000222021C6
:100D60000648FFF7A4FC6410012211460448FFF76F
:100D70009EFC681CC5B2082DE2DB70BD0010064069
:100D80000030064070B5002420211148FFF773FCA5
:100D9000002518E06410002201210E48FFF787FCAF
:100DA000012211460B48FFF782FC20210848FFF77B
:100DB0005FFC08B144F08004002201210548FFF7E0
:100DC00076FC681CC5B2082DE4DB204670BD00002F
:100DD00000100640003006401F480078012839D135
:100DE00000201D4908701D48007898BB1C48006809
:100DF000401C1B49086042F21071884202D3002057
:100E000017490860164800684FF47A71B0FBF1F09A
:100E100014490870124800686421B0FBF1F00A21FF
:100E2000B0FBF1F201FB12000E4948700C4800685B
:100E30000A21B0FBF1F0B0FBF1F201FB120009490D
:100E40008870074800680A21B0FBF1F201FB12002C
:100E50000449C870704700000200002019000020FB
:100E600004000020080000200A4A1278012A10D14C
:100E70000022084B1A70084AD179072005E0421E6B
:100E8000054B9A5C1A54421ED0B20028F7DC024A85
:100E90001170704703000020110000200A4A1278E8
:100EA000012A10D10022084B1A70084A117800203C
:100EB00005E0064B421C9A5C1A54421CD0B207282B
:100EC000F7DB024AD17170470300002011000020B7
:100ED00002240225FFF7CCFA00BF0C480078032853
:100EE000FBDBFFF775FE0020094908700CE00121CB
:100EF0000848FFF7BDFBC4B2012D02D10CB900F0C8
:100F00002FF8254600F008F8F1E700000000002067
:100F10002000002000D0034000B50948007808B93F
:100F2000FFF75AFF06480078012801D1FFF7B6FF06
:100F300003480078022801D1FFF796FF00BD0000AA
:100F40002000002010B5FFF755FE03490870084641
:100F500000780249487110BD1900002008000020E7
:100F60000948007818B90120074908700AE00648C6
:100F70000078012803D102200349087002E0002014
:100F80000149087070470000200000204FF04070B9
:100F9000E1EE100A7047000000688909001C4E0E3F
:100FA00040420F0000201C0080841E0000802500AD
:100FB000999E36000040380000093D0000803E0048
:100FC00000004B00404B4C0000204E00808D5B0029
:100FD00000C05D000080700000127A0000007D00FB
:100FE00080969800001BB7000080BB00C0E8CE00D0
:100FF000647ADA000024F4000000FA0080A81201EC
:10100000002D310100366E0140787D014000000066
:1010100000000000000100003E0008000000000089
:1010200000010000A000000002000000000100001C
:101030003454010000000000000100002B70060085
:101040000000000000010000280000000000000077
:101050000001000027000100000000000001000066
:10106000200000000000000000010000500000000F
:1010700002000000000100001AAC000000000000A7
:1010800000010000179409000000000000010000AA
:101090001698050000000000000100001400000088
:1010A00000000000000100001380080000000000A4
:1010B00000010000A0000000080000000001000086
:1010C00010000000000000000001000028000000E7
:1010D00002000000000100004000000004000000C9
:1010E000000100006000000000000000000100009E
:1010F0005D000C0000000000000100005000000036
:1011000000000000000100004E000200000000008E
:101110000001000041AC01000000000000010000DF
:101120003C00000000000000000100003A800900BF
:10113000000000000001000030000000000000007E
:101140000001000028000000000000000001000075
:1011500027000100000000000001000023600600DD
:1011600000000000000100002160080000000000F5
:10117000000100001E00000000000000000100004F
:101180001DC004000000000000010000500000002D
:101190000200000000010000180000000000000034
:1011A0000001000014000000000000000001000029
:1011B0006000000004000000000100000024F400B2
:1011C00030003000005A62029100910000879303C2
:1011D000D200D20000B4C4041301130100E1F505EC
:1011E00054015401000E2707950195010C120000CF
:1011F00000000020280000003C0200003412000023
:1012000028000020600200005802000000000000DA
:1012100000000000202020205F205F200401010149
:1012200001010101000000000000000000000000BA
:041230000024F400A2
:0400000500000201F4
:00000001FF
