:020000040000FA
:1000000088020020D1020000D9020000DB020000BB
:10001000DD020000DF020000E1020000000000003D
:10002000000000000000000000000000E3020000EB
:10003000E502000000000000E7020000510B000094
:10004000EB020000ED020000EF020000F1020000F0
:10005000F3020000F5020000F7020000F9020000C0
:10006000FB020000FD020000FF020000010300008F
:10007000030300000503000007030000090300005C
:100080000B0300000D0300000F030000110300002C
:1000900013030000D90B0000170300001903000030
:1000A0001B0300001D0300001F03000021030000CC
:1000B000230300002503000027030000290300009C
:1000C0002B0300002D0300002F030000310300006C
:1000D000330300003503000037030000390300003C
:1000E0003B0300003D0300003F030000410300000C
:1000F00043030000450300004703000049030000DC
:100100004B0300004D0300004F03000051030000AB
:10011000530300005503000057030000590300007B
:100120005B0300005D0300005F030000610300004B
:10013000630300006503000067030000690300001B
:100140006B0300006D0300006F03000089030000D3
:1001500000000000000000008B0300008D03000081
:100160008F030000910300000000000093030000D3
:100170009503000097030000990300009B03000013
:100180009D0300009F030000A1030000A3030000E3
:10019000A5030000A7030000A9030000AB030000B3
:1001A000AD030000AF030000B1030000B303000083
:1001B000B5030000B7030000B9030000BB03000053
:1001C000BD030000BF030000C1030000C303000023
:1001D000C5030000C7030000C9030000CB030000F3
:1001E000CD030000CF030000D1030000D3030000C3
:1001F000D5030000D7030000D9030000DB03000093
:1002000000F002F800F03CF80AA090E8000C8244EC
:100210008344AAF10107DA4501D100F031F8AFF2C9
:10022000090EBAE80F0013F0010F18BFFB1A43F0D4
:1002300001031847E014000000150000103A24BF25
:1002400078C878C1FAD8520724BF30C830C144BF3B
:1002500004680C607047000000230024002500267D
:10026000103A28BF78C1FBD8520728BF30C148BF19
:100270000B6070471FB500F083FF1FBD10B510BDA8
:1002800000F0BFF81146FFF7F5FF00F0E9FE00F0BF
:10029000DDF803B4FFF7F2FF03BC00F0E5F800005F
:1002A0000138FDD170470000EFF3108072B670473F
:1002B000EFF310807047EFF3108062B6704730BFE5
:1002C000704780F311887047EFF31180704700008A
:1002D0004548804745480047FEE7FEE7FEE7FEE762
:1002E000FEE7FEE7FEE7FEE7FEE7FEE7FEE7FEE7E6
:1002F000FEE7FEE7FEE7FEE7FEE7FEE7FEE7FEE7D6
:10030000FEE7FEE7FEE7FEE7FEE7FEE7FEE7FEE7C5
:10031000FEE7FEE7FEE7FEE7FEE7FEE7FEE7FEE7B5
:10032000FEE7FEE7FEE7FEE7FEE7FEE7FEE7FEE7A5
:10033000FEE7FEE7FEE7FEE7FEE7FEE7FEE7FEE795
:10034000FEE7FEE7FEE7FEE7FEE7FEE7FEE7FEE785
:10035000FEE7FEE7FEE7FEE7FEE7FEE7FEE7FEE775
:10036000FEE7FEE7FEE7FEE7FEE7FEE7FEE7FEE765
:10037000FEE7FEE7FEE7FEE7FEE7FEE7FEE7FEE755
:10038000FEE7FEE7FEE7FEE7FEE7FEE7FEE7FEE745
:10039000FEE7FEE7FEE7FEE7FEE7FEE7FEE7FEE735
:1003A000FEE7FEE7FEE7FEE7FEE7FEE7FEE7FEE725
:1003B000FEE7FEE7FEE7FEE7FEE7FEE7FEE7FEE715
:1003C000FEE7FEE7FEE7FEE7FEE7FEE7FEE7FEE705
:1003D000FEE7FEE7FEE7FEE7FEE7FEE70448054925
:1003E000034A054B70470000B90B000001020000F2
:1003F0008800002088020020880000207047704795
:100400007047754600F02CF8AE4605006946534625
:1004100020F00700854618B020B5FFF7DFFFBDE8E4
:1004200020404FF000064FF000074FF000084FF05B
:10043000000B21F00701AC46ACE8C009ACE8C009EC
:10044000ACE8C009ACE8C0098D46704710B5044659
:10045000AFF300802046BDE81040FFF71ABF000050
:10046000004870472800002001491820ABBEFEE775
:10047000260002007047000010B51049104800F037
:10048000A7F91049086000F043F800F04DFD00F0B6
:1004900075FD00F041FB00F07FF900F01DF800F061
:1004A00013F80021252000F07FF90121232000F01E
:1004B0007BF9E0210F2000F077F910BD0024F40053
:1004C000800600F1140000200248016841F4700128
:1004D0000160704788ED00E00248016841F040414A
:1004E0000160704734EF00E0D0F8003412F0010FE3
:1004F00014BF0B438B43C0F8003412F0020FD0F846
:10050000202414BF114322EA0101C0F820147047CF
:1005100010B50E4800F0CEFA00BF0C4800F0DEFA2D
:100520000028FAD00948801C00F0C4FA00BF074830
:10053000801C00F0D3FA0028F9D03021044800F0E4
:10054000DAF80121034800F0D6F810BD090800F0E0
:1005500000100640003006402DE9F00301264FF060
:10056000000C0325C2F3411706FA0CF40C4211D01B
:10057000D0F8C48F4FEA4C0405FA04F928EA0908B8
:10058000C0F8C48FD0F8C48F07FA04F448EA040412
:10059000C0F8C44F0CF1010C0CF0FF0CBCF1080FBB
:1005A000E2D3D0F800C512F0010F14BF4CEA010CE1
:1005B0002CEA010CC0F800C5D0F804C512F0020FF7
:1005C00014BF4CEA010C2CEA010CC0F804C5D0F8A9
:1005D00008C512F0040F14BF4CEA010C2CEA010C00
:1005E000C0F808C5D0F818C512F0080F14BF4CEABF
:1005F000010C2CEA010CC0F818C512F0100FD0F84D
:100600003C2514BF0A438A43C0F83C25D0F80C258A
:1006100013F0010F14BF0A438A43C0F80C25D0F829
:10062000102513F0020F14BF0A438A43C0F81025A7
:10063000D0F8142513F0040F14BF0A438A43C0F8FE
:100640001425D0F81C2513F0080F14BF0A438A4361
:10065000C0F81C25D0F8442513F4007F14BF0A43CA
:100660008A43C0F84425D0F8402513F4407F14BFD6
:100670000A438A43C0F84025D0F82825002B0CBF38
:10068000114322EA0101C0F82815BDE8F0037047C4
:100690000E4AC0F30741D26E01238B401A420C4A26
:1006A0001ABF02EBC101496852F83110020AD1F8B1
:1006B0002C354FF00F0C0CFA02FC00F00F0023EA6F
:1006C0000C0390401843C1F82C05704700E00F4020
:1006D0002413000050F82100704730B50C46054641
:1006E0000022FFF701FF21462846BDE830400823DD
:1006F0000122FFF731BF30B50C4605460823012221
:10070000FFF72AFF21462846BDE830400122FFF7C7
:10071000EBBE30B50C4605460222FFF7E5FE21464A
:100720002846BDE8304008230122FFF715BF40F8F6
:10073000212070471649042804BF086840F480301F
:1007400018D0052804BF086840F4003012D00628ED
:1007500012D00F2815D0102838BF7047103800F07D
:100760001F01012202FA01F142090A4850F8220051
:100770000160704708607047086840F48020086096
:1007800070474FF0E020016941F0020101617047BC
:1007900024ED00E07014000010B5FFF78CFD002878
:1007A00018BF012010BD0000084A20F00303D258F2
:1007B00013688007C00E4FF0FF0C0CFA00FC23EA10
:1007C0000C0301FA00F0184310607047D4130000C6
:1007D0002DE9F003AD4D02462868AD4B1840A0F15D
:1007E0008053B3F5A02358D002F03809DFF8A48273
:1007F000C2F38414B9F1100F24D0B9F1300F04BF43
:1008000047F230504FF400130CD03820904304BF0F
:100810004FF40040C30105D012F0380F1CBF002078
:10082000034613D09C4F12F4605F4FF0000618BFD0
:1008300000222CD057F8324044457DD307EBC2024A
:100840005268DFE0002340461524EBE7A4F10900DD
:10085000122822D29148D5F87CC04FF04C7350F842
:1008600024002CF01C0C072CA8BF4CF0100CC5F871
:100870007CC02E6D4FF4002C16F4807FD2D1BCF1D9
:10088000010C0AD02E6D16F4807FF8D0CAE712F062
:10089000380F18BFB9F1100F03D0BDE8F0030020E6
:1008A0007047C2F30268DFF8F8C1002257F83290AF
:1008B000E14503D307EBC202526803E0521C062A4B
:1008C000F4D33246C5F8C020D5F8B020DFF8D4C143
:1008D00002EA0C0242F00042C5F8B020DFF8C8C1BD
:1008E000A4F109024C1E5CF828C0A444BCFBF1FC36
:1008F000D5F8B0101943C5F8B01008EBC80101EBEA
:1009000041046A4902EB420201EBC40101EB82049B
:100910006468C5F86441D5F864416FF0FF0808EBDE
:100920000C2C44EA0C0CC5F864C151F82210D5F81F
:10093000602102F4000200E05FE01143C5F860119D
:10094000D5F86011D5F86021C1F38921C2F30904FB
:10095000D5F86421C2F3042202F1010CD5F8642118
:1009600002F01F02521CB0FBF2F04A09C2F100086B
:100970004443424301EB481104EB5212484302EB5B
:100980009020B0FBFCF041080846002257F832C026
:10099000844503D307EBC200466802E0521C062AD6
:1009A000F4D3C5F8C060D5F8600110F4000F1DBF86
:1009B000D5F8B00040F08040C5F8B000D5F860012F
:1009C00004BF40F40000C5F860014FF40040D5F8C2
:1009D000682112F0010F02D1401E0028F7DC002828
:1009E00008BF002148D0D5F8B000184340F00100FE
:1009F00040F01040C5F8B0003EE0521C062AFFF45B
:100A000019AF3246C5F8C020D5F8602122F40002A3
:100A1000C5F86021D5F8B020DFF894C002EA0C02D6
:100A200042F00042C5F8B020002908BF4FF0000C8A
:100A30000AD0B0FBF1FCBCF1000F18BFACF1010C07
:100A40000CF10101B0FBF1F10846002257F83240E9
:100A5000844203D307EBC200466802E0521C062A18
:100A6000F4D3C5F8C060D5F8B00043EA8C22104337
:100A700040F00040C5F8B000D5F8B00020F4700098
:100A8000C5F8B000BDE8F0030846704700E00F402D
:100A90000000FF700024F400E4160000C8140000F9
:100AA00040787D0100FC0FE0C01400003415000008
:100AB000FF0300EFC0F307230749C0B2194401F058
:100AC0007043C1F3130143EA411141EA800040F051
:100AD000007001220260704700E60F40C0F3072259
:100AE0000849C0B2114401F07042C1F3130142EA57
:100AF000411141EA800040F000700068002818BFF2
:100B00000120704700EA0F404FF0E020016941F0FA
:100B1000050101617047000010B5064800683221E8
:100B2000B0FBF1F4204600F00EF8FFF7EDFF00F007
:100B300003F810BD140000204FF0E020016941F0DF
:100B40000201016170474FF0E021401E486170478B
:100B500010B5134A13480178134800F043F900F028
:100B6000F1F8124908701248007810B1012811D12B
:100B700009E00E480078002804DD01200C490870C7
:100B80000C4908700AE00948007810B900200849AB
:100B9000087003E000200649087000BF00BF10BDC8
:100BA00009000020080000200000002011000020A3
:100BB00012000020130000200448006840F4700078
:100BC00002490860024803490860704788ED00E068
:100BD0000024F4002400002010B501210A4800F090
:100BE0002BFA0A4800680A490860FF21094800F00A
:100BF00032FA06490860FF21064800F00EFA01208B
:100C00000549087010BD00000010034020000020BE
:100C10001C000020000003401800002001460020B6
:100C20002D2956D014DC212976D2DFE801F03032AC
:100C30003436383A3C3E40424446484A4C4E75753C
:100C400075757575757575757575757575755400EA
:100C50004C294ED00ADCA1F14102092A5CD2DFE81E
:100C600002F03E5B594E4C443C524000592948D05A
:100C700006DC4E2937D052293DD055294CD136E0DB
:100C80005F2924D0622943D06F2945D13EE03F201F
:100C900044E0062042E05B2040E04F203EE066203A
:100CA0003CE06D203AE07D2038E0072036E07F20F0
:100CB00034E06F2032E0772030E07C202EE03920D5
:100CC0002CE05E202AE0792028E0712026E0082030
:100CD00024E0402022E0002020E03D201EE077209C
:100CE0001CE006201AE0372018E0712016E03E20B4
:100CF00014E0382012E0502010E079200EE05E2051
:100D00000CE06E200AE0762008E005E05C2005E0BB
:100D10007C2003E0392001E0002000BF00BF7047C5
:100D200010B5002210210648FFF701FD8A2000F0CF
:100D3000A7F8102211460248FFF7F9FC10BD000089
:100D40000010064038B50025002210212448FFF786
:100D5000EEFC422000F094F8002401E0601CC4B2D4
:100D6000052CFBDB002405E000F0B4F80DF80400CE
:100D7000601CC4B2042CF7DB102211461848FFF7A0
:100D8000D6FC9DF80000042800D101259DF8000044
:100D9000022800D102259DF80000012800D103257A
:100DA0009DF80000402800D104259DF8000020286F
:100DB00000D105259DF80000102800D106259DF8DA
:100DC0000100042800D107259DF80100022800D168
:100DD00008259DF80100012800D10925284638BDC5
:100DE000001006402DE9FF4105460E4617464FF01C
:100DF0000108002419E0285DFFF710FF0DF814002A
:100E000006EA080028B11DF8140040F080000DF833
:100E100014004FEA48604FEA1068385D012101EB89
:100E200044010DF80100601CC4B2082CE3DB002271
:100E300010211248FFF77BFC402000F021F810221F
:100E400011460E48FFF773FC002210210B48FFF7F4
:100E50006EFCC02000F014F8002405E01DF804002A
:100E600000F00EF8601CC4B2102CF7DB1022114603
:100E70000248FFF75CFCBDE8FF810000001006405F
:100E800070B5044620211148FFF735FC00251AE013
:100E9000002201210E48FFF74AFC04F0010028B1AE
:100EA000202211460948FFF742FC04E000222021DD
:100EB0000648FFF73CFC6410012211460448FFF786
:100EC00036FC681CC5B2082DE2DB70BD0010064080
:100ED0000030064070B5002420211148FFF7FDFBCB
:100EE000002518E06410002201210E48FFF71FFCC6
:100EF000012211460B48FFF71AFC20210848FFF792
:100F0000E9FB08B144F08004002201210548FFF705
:100F10000EFC681CC5B2082DE4DB204670BD000045
:100F2000001006400030064010B50E48FFF7C2FD25
:100F30000D48FFF7BFFD0D48FFF7AAFB10210C4835
:100F4000FFF7E7FB0A23012210210948FFF704FB02
:100F50000849094800F028F80022FF21064800F05F
:100F600053F810BD000400F00A0800F003100A0056
:100F700000200640130000040000034010B507489D
:100F8000FFF798FD2121064800F00EF80548FF21E3
:100F90000268034800F056F810BD0000010400F09C
:100FA000001003401400002010B4C26822F00102B7
:100FB00022F48072C2600A0E0260114A1268114B5C
:100FC00002EA030CACF18054CBB2C1F30722B4F5B2
:100FD000202407D043F40071416042F40071816025
:100FE00010BC70474FF4704C0CEA1114234343F4C7
:100FF000007343600CEA1121114341F40071EEE7E4
:1010000000E00F400000FF7040F60C431940C36839
:101010008B4311401943C1607047C26840F201130D
:10102000194022EA0101C1607047C26840F2011311
:1010300019401143C1607047416270478269114392
:101040008161704711F0FF0F18BF826211F47F4F6A
:1010500018BFC2627047FF290CBF806CC06C70471C
:10106000FFF70AFA3D48006840F6B831B0FBF1F0EE
:10107000C0EB001085002846FFF712F9FFF750FE7D
:101080006AE037480078012815D1002034490870FB
:101090003448007801280ED101213348FFF7CEFFF4
:1010A0002520FFF747FBFF212F48FFF7BEFFFF2159
:1010B0002E48FFF7BAFF2E48007801284CD10020B7
:1010C0002B4908702B4800682B490968884205D3D2
:1010D0002848006828490968401A07E02548006840
:1010E00025490968401A4FF6FF71084404460A2C46
:1010F0002AD342F20F70844226D84FF47A70B4FBA0
:10110000F0F00A21B0FBF1F201FB12001B4908715B
:101110006420B4FBF0F00A21B0FBF1F201FB1200F5
:10112000164948710A20B4FBF0F00A21B0FBF1F235
:1011300001FB1200114988710A20B4FBF0F100FB99
:1011400011400E49C87107E045200C490871522032
:10115000487188712020C87193E7000014000020B6
:101160001300002011000020001003400000034085
:1011700018000020200000201C000020000000209B
:101180004FF04070E1EE100A704700000040004050
:1011900010000000008005401000000000500040DA
:1011A00011000000009005401100000000600040A8
:1011B0001200000000A00540120000000070004076
:1011C0001300000000B00540130000000040024082
:1011D0001400000000C00540140000000050024050
:1011E0002E00000000D005402E00000000600240EC
:1011F0002F00000000E005402F00000000700240BA
:101200003000000000F005403000000000D0034036
:1012100046000000000006404600000000100640A6
:101220004700000000200640480000000030064053
:101230007F00000000400640800000000050064093
:1012400084000000006006408C0000000040004068
:101250001000000000800540100000000050004019
:1012600011000000009005401100000000600040E7
:101270001200000000A005401200000000700040B5
:101280001300000000B005401300000000400240C1
:101290001400000000C0054014000000005002408F
:1012A0002E00000000D005402E000000006002402B
:1012B0002F00000000E005402F00000000700240F9
:1012C0003000000000F005403000000000D0034076
:1012D00043000000000006404300000000100640EC
:1012E0004400000000200640450000000030064099
:1012F0005800000000400640590000000050064021
:101300005C000000006006406400000000700640C1
:101310006C000000008006406D0000000090064058
:101320007F00000000400040008005400050004069
:10133000009005400060004000A0054000700040A3
:1013400000B005400040024000C00540005002408F
:1013500000D005400060024000E0054000700240FF
:1013600000F0054000D00340000006400010064099
:1013700000100640002006400020064000300640D5
:101380000030064000400640004006400050064045
:1013900000500640006006400060064000700640B5
:1013A0000070064000800640008006400090064025
:1013B0000090064000070000000600000005000045
:1013C0000004000000030000000200000001000013
:1013D000000000000000000018ED00E01CED00E03F
:1013E00020ED00E000E400E004E400E008E400E0B8
:1013F0000CE400E010E400E014E400E018E400E095
:101400001CE400E020E400E024E400E028E400E044
:101410002CE400E030E400E034E400E038E400E0F4
:101420003CE400E040E400E044E400E048E400E0A4
:101430004CE400E050E400E054E400E058E400E054
:101440005CE400E060E400E064E400E068E400E004
:101450006CE400E070E400E074E400E078E400E0B4
:101460007CE400E080E400E084E400E088E400E064
:1014700000E100E004E100E008E100E00CE100E050
:1014800010E100E080E100E084E100E088E100E0BC
:101490008CE100E090E100E000E200E004E200E026
:1014A00008E200E00CE200E010E200E080E200E090
:1014B00084E200E088E200E08CE200E090E200E0FC
:1014C00000688909001C4E0E40420F0000201C00DD
:1014D00080841E0000802500999E36000040380060
:1014E00000093D0000803E0000004B00404B4C00D6
:1014F00000204E00808D5B0000C05D000080700009
:1015000000127A0000007D0080969800001BB70052
:101510000080BB00C0E8CE00647ADA000024F4004A
:101520000000FA0080A81201002D310100366E0182
:1015300040787D0140000000000000000001000034
:101540003E0008000000000000010000A0000000B4
:1015500002000000000100003454010000000000FF
:10156000000100002B7006000000000000010000D8
:10157000280000000000000000010000270001001A
:10158000000000000001000020000000000000003A
:1015900000010000500000000200000000010000F7
:1015A0001AAC0000000000000001000017940900C0
:1015B0000000000000010000169805000000000077
:1015C0000001000014000000000000000001000005
:1015D000138008000000000000010000A0000000CF
:1015E00008000000000100001000000000000000E2
:1015F00000010000280000000200000000010000BF
:101600004000000004000000000100006000000035
:1016100000000000000100005D000C000000000060
:101620000001000050000000000000000001000068
:101630004E000200000000000001000041AC01006B
:1016400000000000000100003C000000000000005D
:10165000000100003A8009000000000000010000C5
:101660003000000000000000000100002800000021
:101670000000000000010000270001000000000041
:1016800000010000236006000000000000010000CF
:101690002160080000000000000100001E000000A2
:1016A00000000000000100001DC004000000000058
:1016B00000010000500000000200000000010000D6
:1016C00018000000000000000001000014000000ED
:1016D00000000000000100006000000004000000A5
:1016E000000100000024F40030003000005A6202C3
:1016F0009100910000879303D200D20000B4C4048B
:101700001301130100E1F50554015401000E2707F0
:10171000950195013417000000000020280000000A
:101720003C0200005C17000028000020600200005E
:101730005802000020202048202020200000000027
:101740000000000000000000000000000000000099
:0C17500000000000000000000024F40075
:0400000500000201F4
:00000001FF
