:020000040000FA
:10000000B0020020C9020000D1020000D3020000AB
:10001000D5020000D7020000D90200000000000055
:10002000000000000000000000000000DB020000F3
:10003000DD02000000000000DF020000C10D000032
:10004000E3020000E5020000E7020000E902000010
:10005000EB020000ED020000EF020000F1020000E0
:10006000F3020000F5020000F7020000F9020000B0
:10007000FB020000FD020000FF020000010300007F
:10008000030300000503000007030000090300004C
:100090000B0300000D0300000F030000110300001C
:1000A00013030000150300001703000019030000EC
:1000B0001B0300001D0300001F03000021030000BC
:1000C000230300002503000027030000290300008C
:1000D0002B0300002D0300002F030000310300005C
:1000E000330300003503000037030000390300002C
:1000F0003B0300003D0300003F03000041030000FC
:1001000043030000450300004703000049030000CB
:100110004B0300004D0300004F030000510300009B
:10012000530300005503000057030000590300006B
:100130005B0300005D0300005F030000610300003B
:1001400063030000650300006703000081030000F3
:100150000000000000000000830300008503000091
:100160008703000089030000000000008B030000EB
:100170008D0300008F030000910300009303000033
:100180009503000097030000990300009B03000003
:100190009D0300009F030000A1030000A3030000D3
:1001A000A5030000A7030000A9030000AB030000A3
:1001B000AD030000AF030000B1030000B303000073
:1001C000B5030000B7030000B9030000BB03000043
:1001D000BD030000BF030000C1030000C303000013
:1001E000C5030000C7030000C9030000CB030000E3
:1001F000CD030000CF030000D1030000D3030000B3
:1002000000F002F800F03CF80AA090E8000C8244EC
:100210008344AAF10107DA4501D100F031F8AFF2C9
:10022000090EBAE80F0013F0010F18BFFB1A43F0D4
:1002300001031847001E0000201E0000103A24BFD2
:1002400078C878C1FAD8520724BF30C830C144BF3B
:1002500004680C607047000000230024002500267D
:10026000103A28BF78C1FBD8520728BF30C148BF19
:100270000B6070471FB501F0ADFD1FBD10B510BD7F
:1002800000F0E2F81146FFF7F5FF01F01BF800F06F
:1002900000F903B4FFF7F2FF03BC00F007F9000018
:1002A000EFF3108072B67047EFF310807047EFF3F2
:1002B000108062B6704730BF704780F31188704776
:1002C000EFF31180704700004548804745480047DC
:1002D000FEE7FEE7FEE7FEE7FEE7FEE7FEE7FEE7F6
:1002E000FEE7FEE7FEE7FEE7FEE7FEE7FEE7FEE7E6
:1002F000FEE7FEE7FEE7FEE7FEE7FEE7FEE7FEE7D6
:10030000FEE7FEE7FEE7FEE7FEE7FEE7FEE7FEE7C5
:10031000FEE7FEE7FEE7FEE7FEE7FEE7FEE7FEE7B5
:10032000FEE7FEE7FEE7FEE7FEE7FEE7FEE7FEE7A5
:10033000FEE7FEE7FEE7FEE7FEE7FEE7FEE7FEE795
:10034000FEE7FEE7FEE7FEE7FEE7FEE7FEE7FEE785
:10035000FEE7FEE7FEE7FEE7FEE7FEE7FEE7FEE775
:10036000FEE7FEE7FEE7FEE7FEE7FEE7FEE7FEE765
:10037000FEE7FEE7FEE7FEE7FEE7FEE7FEE7FEE755
:10038000FEE7FEE7FEE7FEE7FEE7FEE7FEE7FEE745
:10039000FEE7FEE7FEE7FEE7FEE7FEE7FEE7FEE735
:1003A000FEE7FEE7FEE7FEE7FEE7FEE7FEE7FEE725
:1003B000FEE7FEE7FEE7FEE7FEE7FEE7FEE7FEE715
:1003C000FEE7FEE7FEE7FEE7FEE7FEE7FEE7FEE705
:1003D000FEE7FEE704480549034A054B7047000065
:1003E000990F000001020000B0000020B0020020C0
:1003F000B00000204FF0000200B513469446964628
:10040000203922BFA0E80C50A0E80C50B1F1200127
:10041000BFF4F7AF090728BFA0E80C5048BF0CC0D5
:100420005DF804EB890028BF40F8042B08BF704733
:1004300048BF20F8022B11F0804F18BF00F8012BA5
:100440007047704770477047754600F02BF8AE460E
:1004500005006946534620F00700854618B020B5D0
:10046000FFF7B8FFBDE820404FF000064FF000074F
:100470004FF000084FF0000B21F00701AC46ACE84C
:10048000C009ACE8C009ACE8C009ACE8C0098D46B9
:10049000704710B50446AFF300802046BDE8104019
:1004A000FFF7F7BE004870475000002001491820B0
:1004B000ABBEFEE7260002007047000010B51248F0
:1004C00000F030FC114800F02DFC0C21104800F029
:1004D00082FA00231A4601210E4800F049F8002351
:1004E0001A4601210B4800F08CF8612301221146C5
:1004F000084800F086F80121064800F07BF8012149
:10050000044800F009F810BD003800F0040800F0BD
:100510000040024000800340012202FA01F1C16064
:10052000704732B1C0684FF0011202FA01F1084081
:100530007047406801228A4042F48032104010F433
:10054000803F08BF704740F470204FF4803202FAB9
:1005500001F1884370470A4601F00F0101236FF350
:100560000F0203FA01F11143826A1143816270475D
:1005700030B4446989004FF00F0C0CFA01FC02F012
:100580000F0524EA0C048D402C434461046A03F0F7
:10059000030324EA0C0C03FA01F14CEA01010162A5
:1005A00002F00F018B1F032B84BF30BC7047C900C2
:1005B000C3694FF0300C30390CFA01FC02F0300204
:1005C00023EA0C0302FA01F11943C16130BC704700
:1005D00000EB411000F14001002003E08B6842F87D
:1005E000043B401CCB6813F4807F18BF7047082879
:1005F000F4D370470268012303FA01F1114301604B
:10060000704710B400EB4110910050F840CF0F221A
:100610008A4003F00F042CEA020C8C404CEA040CD4
:10062000C0F800C0D0F818C0C3F303242CEA020CB1
:100630008C404CEA040CC0F818C0D0F804C0C3F3D6
:1006400003142CEA020C8C404CEA040CC0F804C0E1
:10065000D0F81CC0C3F303542CEA020C8C404CEAC3
:10066000040CC0F81CC013F4702F4FF001040DD01F
:10067000D0F814C0C3F302432CEA02028B401A43A1
:100680004261026904FA01F1114304E0026904FACB
:1006900001F122EA0101016110BC704710B501218E
:1006A0000A48FFF758FF00BF002201210748FFF763
:1006B00038FF0028F8D001210448FFF72DFF044A35
:1006C00001210248FFF784FF10BD000000800340B5
:1006D0004000002070B50646802501241AE006EA95
:1006E000050028B900220121154800F09EF904E018
:1006F00001221146124800F098F9022211461048D2
:1007000000F093F9002202210D4800F08EF96D10DF
:10071000601CC4B2082CE2DD0121094800F069F92F
:1007200002221146064800F080F900220221044806
:1007300000F07BF90121024800F069F970BD00006A
:10074000002006402DE9F0410546AE000222114688
:10075000184800F06AF901221146164800F065F9C0
:1007600000220121134800F060F900220221114803
:1007700000F05BF99820FFF7ADFFC6F30724A6EB66
:100780000420C7B22046FFF7A5FF3846FFF7A2FFB7
:1007900000220121074800F048F9022211460548CD
:1007A00000F043F901221146024800F03EF9BDE88D
:1007B000F08100000020064010B50749074800F00E
:1007C0003FF90749086000F021F8FFF777FE00F0D5
:1007D000DBFA00F02DF910BD002D3101800600F18B
:1007E0001C000020D0F8003412F0010F14BF0B439E
:1007F0008B43C0F8003412F0020FD0F8202414BF4D
:10080000114322EA0101C0F82014704710B51D48B9
:1008100000F088FA00BF1B4800F098FA0028FAD0D0
:100820001848801C00F07EFA00BF1648801C00F0BB
:100830008DFA0028F9D01348C01F00F073FA00BFEA
:100840001048C01F00F082FA0028F9D00D48401C63
:1008500000F068FA00BF0B48401C00F077FA00284F
:10086000F9D03021084800F0D2F80121074800F003
:10087000CEF88021064800F0CAF80321054800F0B0
:10088000C6F810BD090800F0001006400030064010
:1008900000600040002006402DE9F00301264FF0E3
:1008A000000C0325C2F3411706FA0CF40C4211D0D8
:1008B000D0F8C48F4FEA4C0405FA04F928EA090875
:1008C000C0F8C48FD0F8C48F07FA04F448EA0404CF
:1008D000C0F8C44F0CF1010C0CF0FF0CBCF1080F78
:1008E000E2D3D0F800C512F0010F14BF4CEA010C9E
:1008F0002CEA010CC0F800C5D0F804C512F0020FB4
:1009000014BF4CEA010C2CEA010CC0F804C5D0F865
:1009100008C512F0040F14BF4CEA010C2CEA010CBC
:10092000C0F808C5D0F818C512F0080F14BF4CEA7B
:10093000010C2CEA010CC0F818C512F0100FD0F809
:100940003C2514BF0A438A43C0F83C25D0F80C2547
:1009500013F0010F14BF0A438A43C0F80C25D0F8E6
:10096000102513F0020F14BF0A438A43C0F8102564
:10097000D0F8142513F0040F14BF0A438A43C0F8BB
:100980001425D0F81C2513F0080F14BF0A438A431E
:10099000C0F81C25D0F8442513F4007F14BF0A4387
:1009A0008A43C0F84425D0F8402513F4407F14BF93
:1009B0000A438A43C0F84025D0F82825002B0CBFF5
:1009C000114322EA0101C0F82815BDE8F003704781
:1009D00050F82100704730B50C4605460022FFF75D
:1009E00001FF21462846BDE8304000230122FFF7E1
:1009F00053BF30B50C4605460022FFF7F3FE2146F3
:100A00002846BDE8304008230122FFF745BF30B536
:100A10000C46054608230122FFF73EFF21462846E3
:100A2000BDE830400122FFF7DDBE40F821207047CD
:100A300010B5FFF73CFC002818BF012010BD0000D6
:100A40002DE9F003AD4D02462868AD4B1840A0F1EA
:100A50008053B3F5A02358D002F03809DFF8A48200
:100A6000C2F38414B9F1100F24D0B9F1300F04BFD0
:100A700047F230504FF400130CD03820904304BF9D
:100A80004FF40040C30105D012F0380F1CBF002006
:100A9000034613D09C4F12F4605F4FF0000618BF5E
:100AA00000222CD057F8324044457DD307EBC202D8
:100AB0005268DFE0002340461524EBE7A4F109006B
:100AC000122822D29148D5F87CC04FF04C7350F8D0
:100AD00024002CF01C0C072CA8BF4CF0100CC5F8FF
:100AE0007CC02E6D4FF4002C16F4807FD2D1BCF167
:100AF000010C0AD02E6D16F4807FF8D0CAE712F0F0
:100B0000380F18BFB9F1100F03D0BDE8F003002073
:100B10007047C2F30268DFF8F8C1002257F832903C
:100B2000E14503D307EBC202526803E0521C062AD8
:100B3000F4D33246C5F8C020D5F8B020DFF8D4C1D0
:100B400002EA0C0242F00042C5F8B020DFF8C8C14A
:100B5000A4F109024C1E5CF828C0A444BCFBF1FCC3
:100B6000D5F8B0101943C5F8B01008EBC80101EB77
:100B700041046A4902EB420201EBC40101EB820429
:100B80006468C5F86441D5F864416FF0FF0808EB6C
:100B90000C2C44EA0C0CC5F864C151F82210D5F8AD
:100BA000602102F4000200E05FE01143C5F860112B
:100BB000D5F86011D5F86021C1F38921C2F3090489
:100BC000D5F86421C2F3042202F1010CD5F86421A6
:100BD00002F01F02521CB0FBF2F04A09C2F10008F9
:100BE0004443424301EB481104EB5212484302EBE9
:100BF0009020B0FBFCF041080846002257F832C0B4
:100C0000844503D307EBC200466802E0521C062A63
:100C1000F4D3C5F8C060D5F8600110F4000F1DBF13
:100C2000D5F8B00040F08040C5F8B000D5F86001BC
:100C300004BF40F40000C5F860014FF40040D5F84F
:100C4000682112F0010F02D1401E0028F7DC0028B5
:100C500008BF002148D0D5F8B000184340F001008B
:100C600040F01040C5F8B0003EE0521C062AFFF4E8
:100C700019AF3246C5F8C020D5F8602122F4000231
:100C8000C5F86021D5F8B020DFF894C002EA0C0264
:100C900042F00042C5F8B020002908BF4FF0000C18
:100CA0000AD0B0FBF1FCBCF1000F18BFACF1010C95
:100CB0000CF10101B0FBF1F10846002257F8324077
:100CC000844203D307EBC200466802E0521C062AA6
:100CD000F4D3C5F8C060D5F8B00043EA8C221043C5
:100CE00040F00040C5F8B000D5F8B00020F4700026
:100CF000C5F8B000BDE8F0030846704700E00F40BB
:100D00000000FF700024F40004200000E81D000033
:100D100040787D0100FC0FE0E01D0000541E000043
:100D2000FF0300EFC0F307230749C0B2194401F0E5
:100D30007043C1F3130143EA411141EA800040F0DE
:100D4000007001220260704700E60F40C0F30722E6
:100D50000849C0B2114401F07042C1F3130142EAE4
:100D6000411141EA800040F000700068002818BF7F
:100D70000120704700EA0F404FF0E020016941F088
:100D8000050101617047000010B506480068322176
:100D9000B0FBF1F4204600F00EF8FFF7EDFF00F095
:100DA00003F810BD1C0000204FF0E020016941F065
:100DB0000201016170474FF0E021401E4861704719
:100DC00010B564480078401CC0B26249087002281F
:100DD00005DB01206049087000205E4908705F480B
:100DE0000078401CC0B25D490870052805DB012071
:100DF0005B4908700020594908705A480078401C27
:100E0000C0B258490870192805DB012056490870FE
:100E100000205449087055480078401CC0B253491E
:100E200008700A2805DB01205149087000204F494D
:100E30000870504A50480178504800F0A1F900F07D
:100E40004FF94F4908700846007800287DD04D487A
:100E50000078042805DA4B480078401C494908709E
:100E600076E048480078042872D1454800780A287E
:100E700065D2DFE800F06405223F15324F64645B01
:100E800041480068643841490968884207D93F48A9
:100E9000006864303D49086001203D4908704FE01A
:100EA0003A480068642807D93848006864383749E8
:100EB000086001203649087042E0334800680A386B
:100EC00032490968884207D9304800680A302F49FA
:100ED000086001202E49087032E02C4800680A287A
:100EE00007D32A4800680A382849086001202849A1
:100EF000087025E024480068401E2449096888429B
:100F000007D922480068401C204908600120204978
:100F1000087015E01D48006838B11C480068401E84
:100F20001A49086001201A49087009E01948007838
:100F300080F001001749087002E006E008E000BFF9
:100F400000BF05200F49087002E000200D4908701D
:100F500010BD00000200002005000020030000205A
:100F600006000020000000200100002004000020F6
:100F700007000020110000201000002008000020C1
:100F80002000002021000020340000202800002044
:100F900030000020380000200448006840F4700051
:100FA00002490860024803490860704788ED00E084
:100FB0000024F4003C000020014600202D2956D0DA
:100FC00014DC212976D2DFE801F030323436383AA9
:100FD0003C3E40424446484A4C4E757575757575A1
:100FE0007575757575757575757554004C294ED088
:100FF0000ADCA1F14102092A5CD2DFE802F03E5B83
:10100000594E4C443C524000592948D006DC4E29E8
:1010100037D052293DD055294CD136E05F2924D014
:10102000622943D06F2945D13EE03F2044E00620AD
:1010300042E05B2040E04F203EE066203CE06D2037
:101040003AE07D2038E0072036E07F2034E06F2052
:1010500032E0772030E07C202EE039202CE05E204A
:101060002AE0792028E0712026E0082024E04020B2
:1010700022E0002020E03D201EE077201CE006203A
:101080001AE0372018E0712016E03E2014E03820E6
:1010900012E0502010E079200EE05E200CE06E207F
:1010A0000AE0762008E005E05C2005E07C2003E013
:1010B000392001E0002000BF00BF704710B50022BA
:1010C00010210648FFF7B1FC8A2000F0A7F8102293
:1010D00011460248FFF7A9FC10BD000000100640B1
:1010E00038B50025002210212448FFF79EFC42203D
:1010F00000F094F8002401E0601CC4B2052CFBDB76
:10110000002405E000F0B4F80DF80400601CC4B23F
:10111000042CF7DB102211461848FFF786FC9DF8D7
:101120000000042800D101259DF80000022800D10C
:1011300002259DF80000012800D103259DF800003C
:10114000402800D104259DF80000202800D1052565
:101150009DF80000102800D106259DF80100042804
:1011600000D107259DF80100022800D108259DF82F
:101170000100012800D10925284638BD001006408D
:101180002DE9FF4105460E4617464FF001080024A1
:1011900019E0285DFFF710FF0DF8140006EA0800BB
:1011A00028B11DF8140040F080000DF814004FEA3B
:1011B00048604FEA1068385D012101EB44010DF8E9
:1011C0000100601CC4B2082CE3DB0022102112488D
:1011D000FFF72BFC402000F021F8102211460E48AA
:1011E000FFF723FC002210210B48FFF71EFCC02054
:1011F00000F014F8002405E01DF8040000F00EF8DB
:10120000601CC4B2102CF7DB102211460248FFF715
:101210000CFCBDE8FF8100000010064070B50446DC
:1012200020211148FFF7F3FB00251AE000220121DD
:101230000E48FFF7FAFB04F0010028B12022114606
:101240000948FFF7F2FB04E0002220210648FFF7DF
:10125000ECFB6410012211460448FFF7E6FB681C12
:10126000C5B2082DE2DB70BD00100640003006401C
:1012700070B5002420211148FFF7BBFB002518E0C2
:101280006410002201210E48FFF7CFFB0122114616
:101290000B48FFF7CAFB20210848FFF799FB08B16C
:1012A00044F08004002201210548FFF7BEFB681CC2
:1012B000C5B2082DE4DB204670BD000000100640DA
:1012C000003006402DED088BBCB0FFF775FA00BF6B
:1012D000904800780328FBDBFFF7F0FE78211EA87A
:1012E000FFF788F878216846FFF784F80025002684
:1012F000A846A946002401208749087008E18648CD
:10130000007801287DD10020834908708348006857
:101310004FF47A71B0FBF1F0814908707F480068A2
:101320006421B0FBF1F00A21B0FBF1F201FB1200E5
:101330007B494870794800680A21B0FBF1F0B0FBA6
:10134000F1F201FB120076498870744800680A21A6
:10135000B0FBF1F201FB12007149C8706F480068E0
:1013600000F03DFB41EC1B0B9FED6E0B53EC102B83
:1013700000F048FB41EC1A0B9FED6C0B53EC102B6B
:1013800000F0A8F941EC190B9FED6A0B53EC102B00
:1013900000F036FC41EC180B00F0F4FA67490860E5
:1013A0000846006800F01BFB41EC1B0B9FED640B33
:1013B00053EC102B00F026FB41EC1A0B9FED620B57
:1013C00053EC102B00F0DEF841EC190B9FED600B95
:1013D00053EC102B00F0D6F841EC180B00F0D2FAC9
:1013E000564908600846006800F0F9FA41EC1A0B0B
:1013F0009FED590B53EC102B00F004FB41EC190B43
:1014000000E00FE09FED560B53EC102B00F0F8FBC3
:1014100041EC180B00F0B6FA48490860084600682D
:10142000FFF790F950480078012870D100204E490C
:101430000870FFF733F94D49086800F0D0FA41EC25
:101440001A0B9FED4B0B53EC102B00F0DBFA41EC29
:10145000190B9FED490B53EC102B00F0D1FB41EC25
:10146000180B00F08FFA4149086008464068C00038
:101470000A21B0FBF1F03D49486008460068054488
:101480001EA850F824002D1A0846406806445DF84E
:101490002400361A084600681EA941F82400334883
:1014A00040684DF82400601C1E21B0FBF1F201FBE6
:1014B00012041E2095FBF0F896FBF0F90027304847
:1014C000007808B1474600E04F464FF47A7097FB2A
:1014D000F0F013490871642097FBF0F00A2190FBAB
:1014E000F1F201FB12000E4948710A2097FBF0F05F
:1014F0000A2190FBF1F201FB1200094988710A20D0
:1015000097FBF0F100FB11700549C87100BF00BFE7
:10151000F5E6000003000020300000202800002035
:10152000080000205B423EE8D96C1140000000003A
:10153000000024403D0AD7A370354240240000201B
:101540003F575BB1BFECE83F5DFE43FAED6B0640F1
:101550000000000000000040E02D90A0F831EE3FB8
:10156000151DC9E53FA4AF3F050000204000002045
:101570009871902F9ACDF93F5545BDAFF0B82040F6
:101580003800002010B591EA030F48BF83F00043F4
:1015900000F13E83841A71EB030C05D2121943EB60
:1015A0000C03001B61EB0C01DFF824E14FEA11543E
:1015B000A4EB135C1EEA430F18BF9EEA445F73D08E
:1015C00023EA0E03DCF1200E21EA045143F48013D8
:1015D00032D322FA0CFE10EB0E0023FA0CFE41EB84
:1015E0000E01CCF1200E03FA0EFE10EB0E0051F1AD
:1015F0000001B1F5801FCCF1200E32D201EB045175
:1016000012FA0EF2BDE8104058BF7047401C38BFB8
:101610005FEA420218BF7047002814BF20F00100A3
:1016200041F100014FEA410313F5001F38BF704735
:10163000A1F1C04100F0DEBA012A43EB0302ACF194
:10164000200CDCF11F0E32BF4FF0000E23FA0CF31A
:1016500010EB030041EB0451B4EB115FD0D0A1EBD0
:10166000045101F5801149085FEA300001EB045193
:101670000ED350F1000038BF12FA0EFE08D1BDE8BB
:101680001040C9E7401C38BF5FEA4202CAD1C3E735
:10169000BDE810404FEA410313F5001F38BF704703
:1016A000A1F1C04100F0A6BA9EEA445F08D011EA59
:1016B0005E0FBDE8104004BF01F0004100207047FC
:1016C000BDE8104070B500F047FA00BF64FBBE3EB5
:1016D0000000E0FF2DE9C04130B4DFF8A0C23CEAD1
:1016E000111418BF3CEA131400F0EC8081EA0305E2
:1016F0001CEA111444EAD57418BF1CEA131500F053
:10170000C780A4EB05044FF0004545EAC12145EA36
:10171000C32341EA505143EA525304F17F74994282
:1017200004F500344FEAC0204FEAC22208BF9042BD
:1017300000F09C804FEA13650FF24016765D4FEA89
:10174000134506FB05F7C7F1807706FB07F74FEA5D
:10175000D737A7FB03687642C8F58038A7FB06CECB
:1017600038BFA8F1010807FB08E64FF0000EA6FB02
:10177000028CE6FB03CEDCF1000CCEF1004E38BF4C
:10178000AEF1010EA6FB0C584FF000074FF000051C
:10179000E6FB0E87A1FB08C6A0FB07CE16EB0E06E4
:1017A00045F10005E1FB076515F1E04E7EBFA4F5AC
:1017B00080345FEA46066D4116F1800745F1000569
:1017C0004FEA17274FEA066647EA0567A6F1DE46A5
:1017D000B6F1805F4FEA15251FD9384624F0010C79
:1017E00005EBC471BCF1FE6F01EB0C1102D8F0BC2B
:1017F000BDE8008124425CBF01F5801E9EEAC47FE3
:1018000002D4F0BCBDE80081244238D4F0BCA1F180
:10181000C041BDE8004100F0EDB94FEAD22242EAF2
:1018200043524FEAD323A7FB02864FEAD02040EA77
:10183000415007FB03661EEA0E0F4FEAD12105FB5C
:10184000026658BFA6EB0056B6EB00564FEA520EA2
:101850004EEAC37E18EB0E0E56EB530EBDD518EBB9
:1018600002085E417F1C55F10005B6E74FF4801574
:101870004FF000074FF000064FF00008ADE7F0BC56
:101880004FF0000001F1C04101F00041BDE80081CE
:1018900011EA0C1F0CEA131500D00CE013EA0C1F20
:1018A00000F025804FF00000F0BC81EA030101F058
:1018B0000041BDE80081F0BCBDE8004181EA0301C0
:1018C00000F098B9F0BCBDE8004170B500F044F9F3
:1018D000097EFC3E00F007B881EA03014FF00000EA
:1018E00001F00041704781EA030100F083B9F0BCC8
:1018F000BDE800414FF0000021497047FFFDFBF9B2
:10190000F7F5F4F2F0EEEDEBE9E8E6E4E3E1E0DE32
:10191000DDDBDAD8D7D5D4D3D1D0CFCDCCCBCAC8A4
:10192000C7C6C5C4C2C1C0BFBEBDBCBBBAB9B8B7CB
:10193000B6B5B4B3B2B1B0AFAEADACABAAA9A8A8BE
:10194000A7A6A5A4A3A3A2A1A09F9F9E9D9C9C9B8C
:101950009A99999897979695959493939291919037
:101960008F8F8E8E8D8C8C8B8B8A898988888787C8
:101970008685858484838382828181800000FF073D
:101980000000F87F4FEA1153A3F58063D3F11E03E3
:10199000A8BFD3F1200C08DB4FF0004242EAC1227D
:1019A00052EA505232FA03F0704709420BD4102B1E
:1019B000C4BF0020704703F5787CBCF1FF3F05D021
:1019C0004FF0FF3070474FF00000704770B500F0E7
:1019D000C3F800BF4992248000207047F0E7B0FAB6
:1019E00080F310FA03F10AD0C3F11D0303F58063FD
:1019F0004FEA41504FEA035202EBD12170474FF0BA
:101A000000007047DFF848C170B51CEA111E1EBF08
:101A10001CEA13159EEA0C0F95EA0C0F00F06F807C
:101A200081EA030423EA4C134EEAD47E21EA4C11E6
:101A300041F4801143F48013AE44A1FB024CA0FB9F
:101A40000365AEF17F7E361955EB0C05A1FB034C07
:101A50004CF10003A0FB021C16EB0C06654153F190
:101A60000003094218BF46F0010613F4007F0BD1B2
:101A70004FEA03314FEA0530340341EA155140EA99
:101A800016506FF003020AE04FEAC3214FEAC52067
:101A9000F40241EA555140EA56506FF0020202EB5F
:101AA0002E4201EB025585EACE710AD05FEA440C62
:101AB00018BF24F0004450F1000041F1000120EA79
:101AC000D47040F2FE7C624500D270BDA84214BFC3
:101AD0004FF080444FF04044002E08BF0024BEF178
:101AE000806FA8BFA1F1C041BDE8704080F2828044
:101AF0004FF0000001F1C04101F0004170479EEA43
:101B00000C0F0CEA131518BF95EA0C0F06D04FF016
:101B1000000081EA030E0EF0004170BD00F01CF8D9
:101B20008900013E00F007B800F009B84FEA430C05
:101B30005FEA5C5C08D081EA030100F05BB84FEA21
:101B4000410C5FEA5C5CF6D14FF000000149704740
:101B50000000FF070000F87F0EF1020E2EF0030ECA
:101B60005EF8046B364205D4012A43EB030515F5F4
:101B7000001F12D8012841EB010C1CF5001F0CD8E6
:101B80000ED14FEAD17C15F5001F0CEB4C0C0CF17B
:101B9000020C08BF4CEBD37C04E04FF0080C01E0D2
:101BA0004FEAD37C0CEB4C0526FA05F606F0070647
:101BB000B6F1040C06D20EEB860CBDE870404CF07A
:101BC000010C6047DFE80CF0090B02024FF0004106
:101BD0004FF00000A1F5002170BD19461046012804
:101BE00051EB010418BFD4F5001484BF002001F0AC
:101BF000004170BD0808A0F500114FEA310170479F
:101C000010B591EA030F48BF83F000433FF5C2AC23
:101C1000841A71EB030C07D212198CF0004C43EBC1
:101C20000C03001B61EB0C01DFF8A4E14FEA115437
:101C3000A4EB135C1EEA430F18BF9EEA445F00F05A
:101C4000B08023EA6E03524221EA0451C3EB6E03D3
:101C500038BF5B1EDCF1200E25D322FA0CFE10EB00
:101C60000E0043FA0CFE41EB0E01CCF1200E03FAFC
:101C70000EFE10EB0E0051F10001CCF1200E29D424
:101C800012FA0EF201EB0451BDE8104058BF704744
:101C9000401C1CBFB2F1004F704700280CBF491C0C
:101CA00020F00100704712EB020E43EB030218BF55
:101CB0004FF0010E4EEA4202ACF1200CDCF11E0E98
:101CC00054D943FA0CFE10EB0E0051F1FF31CCF168
:101CD0001E0ED5D50EF1010E12FA0EFE404141EB5B
:101CE000010101EB445C5FEA5C5C10D910EBDE7033
:101CF00001EB045138BFBEF1004FBDE8104018BFE2
:101D0000704700280CBF491C20F00100704730D2FA
:101D10004FEAD42C11F5001124F400641BD0B1FA61
:101D200081F20B3AA41AA41ED2F12003914030FA9A
:101D300003F31943904001EBCC71002C01EB0451EB
:101D4000BDE81040A8BF704701F1C0414FF000004E
:101D500001F000417047B0FA80F310FA03F100D1AE
:101D600010BDE41A173C4805C90AE4E701EB045129
:101D700010BD491001EB0451BDE810404FEA30009E
:101D800002E04FF0000170474A0008BF0042F8D05F
:101D9000B2F5001F28BF704701F000414FF000006E
:101DA00070479EEA445F07D011EA5E0FBDE810401D
:101DB00004BF002100207047BDE8104070B5FFF758
:101DC000CBFE00BF40DFF63E83F000411046704777
:101DD0000000E0FF4FF04070E1EE100A7047000095
:101DE00000688909001C4E0E40420F0000201C00B4
:101DF00080841E0000802500999E36000040380037
:101E000000093D0000803E0000004B00404B4C00AC
:101E100000204E00808D5B0000C05D0000807000DF
:101E200000127A0000007D0080969800001BB70029
:101E30000080BB00C0E8CE00647ADA000024F40021
:101E40000000FA0080A81201002D310100366E0159
:101E500040787D014000000000000000000100000B
:101E60003E0008000000000000010000A00000008B
:101E700002000000000100003454010000000000D6
:101E8000000100002B7006000000000000010000AF
:101E900028000000000000000001000027000100F1
:101EA0000000000000010000200000000000000011
:101EB00000010000500000000200000000010000CE
:101EC0001AAC000000000000000100001794090097
:101ED000000000000001000016980500000000004E
:101EE00000010000140000000000000000010000DC
:101EF000138008000000000000010000A0000000A6
:101F000008000000000100001000000000000000B8
:101F10000001000028000000020000000001000095
:101F2000400000000400000000010000600000000C
:101F300000000000000100005D000C000000000037
:101F4000000100005000000000000000000100003F
:101F50004E000200000000000001000041AC010042
:101F600000000000000100003C0000000000000034
:101F7000000100003A80090000000000000100009C
:101F800030000000000000000001000028000000F8
:101F90000000000000010000270001000000000018
:101FA00000010000236006000000000000010000A6
:101FB0002160080000000000000100001E00000079
:101FC00000000000000100001DC00400000000002F
:101FD00000010000500000000200000000010000AD
:101FE00018000000000000000001000014000000C4
:101FF000000000000001000060000000040000007C
:10200000000100000024F40030003000005A620299
:102010009100910000879303D200D20000B4C40461
:102020001301130100E1F50554015401000E2707C7
:1020300095019501542000000000002040000000A0
:102040003C020000942000004000002070020000CC
:102050005802000000000000000000002E20202E8A
:1020600020202020110000000000000000000000DF
:1020700000000000000000002C010000E803000048
:10208000FA00000000000000E9030000000000006A
:042090000024F40034
:0400000500000201F4
:00000001FF
