:020000040000FA
:1000000088020020D1020000D9020000DB020000BB
:10001000DD020000DF020000E1020000000000003D
:10002000000000000000000000000000E3020000EB
:10003000E502000000000000E7020000210C0000C3
:10004000EB020000ED020000EF020000F1020000F0
:10005000F3020000F5020000F7020000F9020000C0
:10006000FB020000FD020000FF020000010300008F
:10007000030300000503000007030000090300005C
:100080000B0300000D0300000F030000110300002C
:1000900013030000150300001703000019030000FC
:1000A0001B0300001D0300001F03000021030000CC
:1000B000230300002503000027030000290300009C
:1000C0002B0300002D0300002F030000310300006C
:1000D000330300003503000037030000390300003C
:1000E0003B0300003D0300003F030000410300000C
:1000F00043030000450300004703000049030000DC
:100100004B0300004D0300004F03000051030000AB
:10011000530300005503000057030000590300007B
:100120005B0300005D0300005F030000610300004B
:10013000630300006503000067030000690300001B
:100140006B0300006D0300006F03000089030000D3
:1001500000000000000000008B0300008D03000081
:100160008F030000910300000000000093030000D3
:100170009503000097030000990300009B03000013
:100180009D0300009F030000A1030000A3030000E3
:10019000A5030000A7030000A9030000AB030000B3
:1001A000AD030000AF030000B1030000B303000083
:1001B000B5030000B7030000B9030000BB03000053
:1001C000BD030000BF030000C1030000C303000023
:1001D000C5030000C7030000C9030000CB030000F3
:1001E000CD030000CF030000D1030000D3030000C3
:1001F000D5030000D7030000D9030000DB03000093
:1002000000F002F800F03CF80AA090E8000C8244EC
:100210008344AAF10107DA4501D100F031F8AFF2C9
:10022000090EBAE80F0013F0010F18BFFB1A43F0D4
:1002300001031847DC0F0000FC0F0000103A24BF38
:1002400078C878C1FAD8520724BF30C830C144BF3B
:1002500004680C607047000000230024002500267D
:10026000103A28BF78C1FBD8520728BF30C148BF19
:100270000B6070471FB500F09BFE1FBD10B510BD91
:1002800000F0BFF81146FFF7F5FF00F017FE00F091
:10029000DDF803B4FFF7F2FF03BC00F0E5F800005F
:1002A0000138FDD170470000EFF3108072B670473F
:1002B000EFF310807047EFF3108062B6704730BFE5
:1002C000704780F311887047EFF31180704700008A
:1002D0004548804745480047FEE7FEE7FEE7FEE762
:1002E000FEE7FEE7FEE7FEE7FEE7FEE7FEE7FEE7E6
:1002F000FEE7FEE7FEE7FEE7FEE7FEE7FEE7FEE7D6
:10030000FEE7FEE7FEE7FEE7FEE7FEE7FEE7FEE7C5
:10031000FEE7FEE7FEE7FEE7FEE7FEE7FEE7FEE7B5
:10032000FEE7FEE7FEE7FEE7FEE7FEE7FEE7FEE7A5
:10033000FEE7FEE7FEE7FEE7FEE7FEE7FEE7FEE795
:10034000FEE7FEE7FEE7FEE7FEE7FEE7FEE7FEE785
:10035000FEE7FEE7FEE7FEE7FEE7FEE7FEE7FEE775
:10036000FEE7FEE7FEE7FEE7FEE7FEE7FEE7FEE765
:10037000FEE7FEE7FEE7FEE7FEE7FEE7FEE7FEE755
:10038000FEE7FEE7FEE7FEE7FEE7FEE7FEE7FEE745
:10039000FEE7FEE7FEE7FEE7FEE7FEE7FEE7FEE735
:1003A000FEE7FEE7FEE7FEE7FEE7FEE7FEE7FEE725
:1003B000FEE7FEE7FEE7FEE7FEE7FEE7FEE7FEE715
:1003C000FEE7FEE7FEE7FEE7FEE7FEE7FEE7FEE705
:1003D000FEE7FEE7FEE7FEE7FEE7FEE70448054925
:1003E000034A054B70470000850C00000102000025
:1003F0008800002088020020880000207047704795
:100400007047754600F02CF8AE4605006946534625
:1004100020F00700854618B020B5FFF7DFFFBDE8E4
:1004200020404FF000064FF000074FF000084FF05B
:10043000000B21F00701AC46ACE8C009ACE8C009EC
:10044000ACE8C009ACE8C0098D46704710B5044659
:10045000AFF300802046BDE81040FFF71ABF000050
:10046000004870472800002001491820ABBEFEE775
:10047000260002007047000010B50F4800F082FB14
:100480000E4800F07FFB02210D4800F0E3F9002345
:100490001A4603210B4800F043F86223002203218F
:1004A000084800F086F80321064800F07BF8032195
:1004B000044800F009F810BD003800F0040800F00E
:1004C0000040024000800340012202FA01F1C160B5
:1004D000704732B1C0684FF0011202FA01F10840D2
:1004E0007047406801228A4042F48032104010F484
:1004F000803F08BF704740F470204FF4803202FA0A
:1005000001F1884370470A4601F00F0101236FF3A0
:100510000F0203FA01F11143826A114381627047AD
:1005200030B4446989004FF00F0C0CFA01FC02F062
:100530000F0524EA0C048D402C434461046A03F047
:10054000030324EA0C0C03FA01F14CEA01010162F5
:1005500002F00F018B1F032B84BF30BC7047C90012
:10056000C3694FF0300C30390CFA01FC02F0300254
:1005700023EA0C0302FA01F11943C16130BC704750
:1005800000EB411000F14001002003E08B6842F8CD
:10059000043B401CCB6813F4807F18BF70470828C9
:1005A000F4D370470268012303FA01F1114301609B
:1005B000704710B400EB4110910050F840CF0F226B
:1005C0008A4003F00F042CEA020C8C404CEA040C25
:1005D000C0F800C0D0F818C0C3F303242CEA020C02
:1005E0008C404CEA040CC0F818C0D0F804C0C3F327
:1005F00003142CEA020C8C404CEA040CC0F804C032
:10060000D0F81CC0C3F303542CEA020C8C404CEA13
:10061000040CC0F81CC013F4702F4FF001040DD06F
:10062000D0F814C0C3F302432CEA02028B401A43F1
:100630004261026904FA01F1114304E0026904FA1B
:1006400001F122EA0101016110BC704708B50321E4
:100650000A48FFF758FF00BF002203210748FFF7B1
:1006600038FF0028F8D003210448FFF72DFF6A4621
:1006700003210248FFF784FF009808BD0080034073
:1006800010B50749074800F00BF90749086000F06A
:1006900021F8FFF7F1FE00F0A7FA00F0FAF810BD1C
:1006A000002D3101800600F118000020D0F8003440
:1006B00012F0010F14BF0B438B43C0F8003412F04B
:1006C000020FD0F8202414BF114322EA0101C0F820
:1006D0002014704710B50E4800F054FA00BF0C48C3
:1006E00000F064FA0028FAD00948801C00F04AFAA9
:1006F00000BF0748801C00F059FA0028F9D03021CB
:10070000044800F0B5F80121034800F0B1F810BD2D
:10071000090800F000100640003006402DE9F00303
:1007200001264FF0000C0325C2F3411706FA0CF422
:100730000C4211D0D0F8C48F4FEA4C0405FA04F9EA
:1007400028EA0908C0F8C48FD0F8C48F07FA04F467
:1007500048EA0404C0F8C44F0CF1010C0CF0FF0C83
:10076000BCF1080FE2D3D0F800C512F0010F14BF9E
:100770004CEA010C2CEA010CC0F800C5D0F804C505
:1007800012F0020F14BF4CEA010C2CEA010CC0F865
:1007900004C5D0F808C512F0040F14BF4CEA010CD0
:1007A0002CEA010CC0F808C5D0F818C512F0080FE3
:1007B00014BF4CEA010C2CEA010CC0F818C512F069
:1007C000100FD0F83C2514BF0A438A43C0F83C25DB
:1007D000D0F80C2513F0010F14BF0A438A43C0F868
:1007E0000C25D0F8102513F0020F14BF0A438A43DA
:1007F000C0F81025D0F8142513F0040F14BF0A43D5
:100800008A43C0F81425D0F81C2513F0080F14BF34
:100810000A438A43C0F81C25D0F8442513F4007F0E
:1008200014BF0A438A43C0F84425D0F8402513F486
:10083000407F14BF0A438A43C0F84025D0F82825DA
:10084000002B0CBF114322EA0101C0F82815BDE8B6
:10085000F003704730B50C4605460022FFF726FF2F
:1008600021462846BDE8304000230122FFF756BF4D
:1008700030B50C46054608230122FFF74FFF2146FD
:100880002846BDE830400122FFF710BF40F8212084
:10089000704710B5FFF70FFD002818BF012010BDED
:1008A0002DE9F003AD4D02462868AD4B1840A0F18C
:1008B0008053B3F5A02358D002F03809DFF8A482A2
:1008C000C2F38414B9F1100F24D0B9F1300F04BF72
:1008D00047F230504FF400130CD03820904304BF3F
:1008E0004FF40040C30105D012F0380F1CBF0020A8
:1008F000034613D09C4F12F4605F4FF0000618BF00
:1009000000222CD057F8324044457DD307EBC20279
:100910005268DFE0002340461524EBE7A4F109000C
:10092000122822D29148D5F87CC04FF04C7350F871
:1009300024002CF01C0C072CA8BF4CF0100CC5F8A0
:100940007CC02E6D4FF4002C16F4807FD2D1BCF108
:10095000010C0AD02E6D16F4807FF8D0CAE712F091
:10096000380F18BFB9F1100F03D0BDE8F003002015
:100970007047C2F30268DFF8F8C1002257F83290DE
:10098000E14503D307EBC202526803E0521C062A7A
:10099000F4D33246C5F8C020D5F8B020DFF8D4C172
:1009A00002EA0C0242F00042C5F8B020DFF8C8C1EC
:1009B000A4F109024C1E5CF828C0A444BCFBF1FC65
:1009C000D5F8B0101943C5F8B01008EBC80101EB19
:1009D00041046A4902EB420201EBC40101EB8204CB
:1009E0006468C5F86441D5F864416FF0FF0808EB0E
:1009F0000C2C44EA0C0CC5F864C151F82210D5F84F
:100A0000602102F4000200E05FE01143C5F86011CC
:100A1000D5F86011D5F86021C1F38921C2F309042A
:100A2000D5F86421C2F3042202F1010CD5F8642147
:100A300002F01F02521CB0FBF2F04A09C2F100089A
:100A40004443424301EB481104EB5212484302EB8A
:100A50009020B0FBFCF041080846002257F832C055
:100A6000844503D307EBC200466802E0521C062A05
:100A7000F4D3C5F8C060D5F8600110F4000F1DBFB5
:100A8000D5F8B00040F08040C5F8B000D5F860015E
:100A900004BF40F40000C5F860014FF40040D5F8F1
:100AA000682112F0010F02D1401E0028F7DC002857
:100AB00008BF002148D0D5F8B000184340F001002D
:100AC00040F01040C5F8B0003EE0521C062AFFF48A
:100AD00019AF3246C5F8C020D5F8602122F40002D3
:100AE000C5F86021D5F8B020DFF894C002EA0C0206
:100AF00042F00042C5F8B020002908BF4FF0000CBA
:100B00000AD0B0FBF1FCBCF1000F18BFACF1010C36
:100B10000CF10101B0FBF1F10846002257F8324018
:100B2000844203D307EBC200466802E0521C062A47
:100B3000F4D3C5F8C060D5F8B00043EA8C22104366
:100B400040F00040C5F8B000D5F8B00020F47000C7
:100B5000C5F8B000BDE8F0030846704700E00F405C
:100B60000000FF700024F400E0110000C40F00003A
:100B700040787D0100FC0FE0BC0F00003010000049
:100B8000FF0300EFC0F307230749C0B2194401F087
:100B90007043C1F3130143EA411141EA800040F080
:100BA000007001220260704700E60F40C0F3072288
:100BB0000849C0B2114401F07042C1F3130142EA86
:100BC000411141EA800040F000700068002818BF21
:100BD0000120704700EA0F404FF0E020016941F02A
:100BE000050101617047000010B506480068322118
:100BF000B0FBF1F4204600F00EF8FFF7EDFF00F037
:100C000003F810BD180000204FF0E020016941F00A
:100C10000201016170474FF0E021401E48617047BA
:100C200010B511480078401CC0B20F490870022866
:100C300005DB01200D49087000200B4908700C48A5
:100C40000078401CC0B20A490870052805DB012065
:100C500008490870002006490870074A07480178CB
:100C6000074800F0B3F810BD00000020020000208B
:100C700001000020030000200D0000200C000020D7
:100C8000040000200448006840F470000249086035
:100C9000024803490860704788ED00E00024F40032
:100CA00024000020014600202D2956D014DC2129E3
:100CB00076D2DFE801F030323436383A3C3E4042FA
:100CC0004446484A4C4E75757575757575757575DC
:100CD00075757575757554004C294ED00ADCA1F1F7
:100CE0004102092A5CD2DFE802F03E5B594E4C44D7
:100CF0003C524000592948D006DC4E2937D05229B1
:100D00003DD055294CD136E05F2924D0622943D00B
:100D10006F2945D13EE03F2044E0062042E05B20C1
:100D200040E04F203EE066203CE06D203AE07D2030
:100D300038E0072036E07F2034E06F2032E0772073
:100D400030E07C202EE039202CE05E202AE0792063
:100D500028E0712026E0082024E0402022E0002046
:100D600020E03D201EE077201CE006201AE037201E
:100D700018E0712016E03E2014E0382012E05020E8
:100D800010E079200EE05E200CE06E200AE0762074
:100D900008E005E05C2005E07C2003E0392001E06C
:100DA000002000BF00BF704710B500221021064888
:100DB000FFF76CFD8A2000F057F810221146024818
:100DC000FFF764FD10BD0000001006402DE9FF4153
:100DD00005460E4617464FF00108002419E0285D2D
:100DE000FFF760FF0DF8140006EA080028B11DF8AF
:100DF000140040F080000DF814004FEA48604FEAFC
:100E00001068385D012101EB44010DF80100601C00
:100E1000C4B2082CE3DB002210211248FFF736FD94
:100E2000402000F021F8102211460E48FFF72EFD59
:100E3000002210210B48FFF729FDC02000F014F814
:100E4000002405E01DF8040000F00EF8601CC4B298
:100E5000102CF7DB102211460248FFF717FDBDE802
:100E6000FF8100000010064070B5044620211148A3
:100E7000FFF7FEFC00251AE0002201210E48FFF7D3
:100E800005FD04F0010028B1202211460948FFF7B2
:100E9000FDFC04E0002220210648FFF7F7FC641067
:100EA000012211460448FFF7F1FC681CC5B2082D69
:100EB000E2DB70BD0010064000300640FFF7E0FBAB
:100EC0003648006840F6B831B0FBF1F0C0EB0010D6
:100ED00084002046FFF7E4F9FFF766FF5DE0304845
:100EE0000078012859D100202D490870FFF7AEFB8A
:100EF0002C490860084600684FF47A71B0FBF1F0A5
:100F000029490871274800686421B0FBF1F00A21E3
:100F1000B0FBF1F201FB120023494871214800683F
:100F20000A21B0FBF1F0B0FBF1F201FB12001E4907
:100F300088711C4800680A21B0FBF1F201FB120025
:100F40001949C871174800684FF4A571484340F625
:100F5000FF71B0FBF1F01549086008460068642194
:100F6000B0FBF1F00A21B0FBF1F201FB12000E49D7
:100F700048700E4800680A21B0FBF1F0B0FBF1F2B6
:100F800001FB120008498870084800680A21B0FB7C
:100F9000F1F201FB12000449C870A0E7180000201C
:100FA000020000201C00002004000020200000207F
:100FB0004FF04070E1EE100A7047000000688909A8
:100FC000001C4E0E40420F0000201C0080841E00BA
:100FD00000802500999E36000040380000093D0041
:100FE00000803E0000004B00404B4C0000204E00B3
:100FF000808D5B0000C05D000080700000127A00F0
:1010000000007D0080969800001BB7000080BB00A8
:10101000C0E8CE00647ADA000024F4000000FA0090
:1010200080A81201002D310100366E0140787D014B
:101030004000000000000000000100003E00080029
:101040000000000000010000A000000002000000FD
:101050000001000034540100000000000001000005
:101060002B700600000000000001000028000000B6
:101070000000000000010000270001000000000047
:10108000000100002000000000000000000100003E
:101090005000000002000000000100001AAC000037
:1010A000000000000001000017940900000000008B
:1010B000000100001698050000000000000100007B
:1010C0001400000000000000000100001380080070
:1010D0000000000000010000A00000000800000067
:1010E00000010000100000000000000000010000EE
:1010F0002800000002000000000100004000000085
:10110000040000000001000060000000000000007A
:10111000000100005D000C00000000000001000064
:101120005000000000000000000100004E0002001E
:10113000000000000001000041AC010000000000C0
:10114000000100003C000000000000000001000061
:101150003A8009000000000000010000300000009B
:101160000000000000010000280000000000000056
:101170000001000027000100000000000001000045
:10118000236006000000000000010000216008004C
:1011900000000000000100001E0000000000000030
:1011A000000100001DC0040000000000000100005C
:1011B00050000000020000000001000018000000C4
:1011C000000000000001000014000000000000000A
:1011D00000010000600000000400000000010000A9
:1011E0000024F40030003000005A620291009100A7
:1011F00000879303D200D20000B4C404130113018A
:1012000000E1F50554015401000E270795019501F1
:101210003012000000000020280000003C02000006
:101220005812000028000020600200005802000050
:1012300000000000202020202020202002010000AB
:10124000000000000000000000000000000000009E
:08125000000000000024F4007E
:0400000500000201F4
:00000001FF
