:020000040000FA
:10000000C8020020C9020000D1020000D302000093
:10001000D5020000D7020000D90200000000000055
:10002000000000000000000000000000DB020000F3
:10003000DD02000000000000DF020000C50C00002F
:10004000E3020000E5020000E7020000E902000010
:10005000EB020000ED020000EF020000F1020000E0
:10006000F3020000F5020000F7020000F9020000B0
:10007000FB020000FD020000FF020000010300007F
:10008000030300000503000007030000090300004C
:100090000B0300000D0300000F030000110300001C
:1000A00013030000150300001703000019030000EC
:1000B0001B0300001D0300001F03000021030000BC
:1000C000230300002503000027030000290300008C
:1000D0002B0300002D0300002F030000310300005C
:1000E000330300003503000037030000390300002C
:1000F0003B0300003D0300003F03000041030000FC
:1001000043030000450300004703000049030000CB
:100110004B0300004D0300004F030000510300009B
:10012000530300005503000057030000590300006B
:100130005B0300005D0300005F030000610300003B
:1001400063030000650300006703000081030000F3
:100150000000000000000000830300008503000091
:100160008703000089030000000000008B030000EB
:100170008D0300008F030000910300009303000033
:100180009503000097030000990300009B03000003
:100190009D0300009F030000A1030000A3030000D3
:1001A000A5030000A7030000A9030000AB030000A3
:1001B000AD030000AF030000B1030000B303000073
:1001C000B5030000B7030000B9030000BB03000043
:1001D000BD030000BF030000C1030000C303000013
:1001E000C5030000C7030000C9030000CB030000E3
:1001F000CD030000CF030000D1030000D3030000B3
:1002000000F002F800F03CF80AA090E8000C8244EC
:100210008344AAF10107DA4501D100F031F8AFF2C9
:10022000090EBAE80F0013F0010F18BFFB1A43F0D4
:1002300001031847E818000008190000103A24BF0D
:1002400078C878C1FAD8520724BF30C830C144BF3B
:1002500004680C607047000000230024002500267D
:10026000103A28BF78C1FBD8520728BF30C148BF19
:100270000B6070471FB501F021FB1FBD10B510BD0D
:1002800000F0BBF81146FFF7F5FF00F031FF00F07A
:10029000D9F803B4FFF7F2FF03BC00F0E1F8000067
:1002A000EFF3108072B67047EFF310807047EFF3F2
:1002B000108062B6704730BF704780F31188704776
:1002C000EFF31180704700004548804745480047DC
:1002D000FEE7FEE7FEE7FEE7FEE7FEE7FEE7FEE7F6
:1002E000FEE7FEE7FEE7FEE7FEE7FEE7FEE7FEE7E6
:1002F000FEE7FEE7FEE7FEE7FEE7FEE7FEE7FEE7D6
:10030000FEE7FEE7FEE7FEE7FEE7FEE7FEE7FEE7C5
:10031000FEE7FEE7FEE7FEE7FEE7FEE7FEE7FEE7B5
:10032000FEE7FEE7FEE7FEE7FEE7FEE7FEE7FEE7A5
:10033000FEE7FEE7FEE7FEE7FEE7FEE7FEE7FEE795
:10034000FEE7FEE7FEE7FEE7FEE7FEE7FEE7FEE785
:10035000FEE7FEE7FEE7FEE7FEE7FEE7FEE7FEE775
:10036000FEE7FEE7FEE7FEE7FEE7FEE7FEE7FEE765
:10037000FEE7FEE7FEE7FEE7FEE7FEE7FEE7FEE755
:10038000FEE7FEE7FEE7FEE7FEE7FEE7FEE7FEE745
:10039000FEE7FEE7FEE7FEE7FEE7FEE7FEE7FEE735
:1003A000FEE7FEE7FEE7FEE7FEE7FEE7FEE7FEE725
:1003B000FEE7FEE7FEE7FEE7FEE7FEE7FEE7FEE715
:1003C000FEE7FEE7FEE7FEE7FEE7FEE7FEE7FEE705
:1003D000FEE7FEE704480549034A054B7047000065
:1003E000C50D000001020000C8000020C802002066
:1003F000C8000020704770477047754600F02CF821
:10040000AE4605006946534620F00700854618B001
:1004100020B5FFF7DFFFBDE820404FF000064FF0AA
:1004200000074FF000084FF0000B21F00701AC4629
:10043000ACE8C009ACE8C009ACE8C009ACE8C00948
:100440008D46704710B50446AFF300802046BDE8E6
:100450001040FFF71EBF00000048704768000020F2
:1004600001491820ABBEFEE72600020070470000DD
:1004700010B5154800F0D8FB144800F0D5FB0E214C
:10048000134800F02AFA00231A460121114800F00F
:100490004FF800231A4601210E4800F092F800237D
:1004A000012211460B4800F08CF861230222012141
:1004B000084800F086F80121064800F07BF8012189
:1004C000044800F009F810BD003800F0040800F0FE
:1004D0000040024000800340012202FA01F1C160A5
:1004E000704732B1C0684FF0011202FA01F10840C2
:1004F0007047406801228A4042F48032104010F474
:10050000803F08BF704740F470204FF4803202FAF9
:1005100001F1884370470A4601F00F0101236FF390
:100520000F0203FA01F11143826A1143816270479D
:1005300030B4446989004FF00F0C0CFA01FC02F052
:100540000F0524EA0C048D402C434461046A03F037
:10055000030324EA0C0C03FA01F14CEA01010162E5
:1005600002F00F018B1F032B84BF30BC7047C90002
:10057000C3694FF0300C30390CFA01FC02F0300244
:1005800023EA0C0302FA01F11943C16130BC704740
:1005900000EB411000F14001002003E08B6842F8BD
:1005A000043B401CCB6813F4807F18BF70470828B9
:1005B000F4D370470268012303FA01F1114301608B
:1005C000704710B400EB4110910050F840CF0F225B
:1005D0008A4003F00F042CEA020C8C404CEA040C15
:1005E000C0F800C0D0F818C0C3F303242CEA020CF2
:1005F0008C404CEA040CC0F818C0D0F804C0C3F317
:1006000003142CEA020C8C404CEA040CC0F804C021
:10061000D0F81CC0C3F303542CEA020C8C404CEA03
:10062000040CC0F81CC013F4702F4FF001040DD05F
:10063000D0F814C0C3F302432CEA02028B401A43E1
:100640004261026904FA01F1114304E0026904FA0B
:1006500001F122EA0101016110BC704710B50121CE
:100660001948FFF758FF00BF002201211648FFF785
:1006700038FF0028F8D001211348FFF72DFF134A57
:1006800001211148FFF784FF104800680521B0FBE5
:10069000F1F00F49096808440D4908600B484068AB
:1006A0000521B0FBF1F00B490968084409490860CD
:1006B000064880680521B0FBF1F007490968084445
:1006C0000549086010BD000000800340580000206C
:1006D00020000020240000202800002010B5074939
:1006E000074800F02FF90749086000F021F8FFF7EC
:1006F000BFFE00F0CBFA00F01DF910BD002D310156
:10070000800600F11C000020D0F8003412F0010F28
:1007100014BF0B438B43C0F8003412F0020FD0F823
:10072000202414BF114322EA0101C0F820147047AD
:1007300010B5164800F078FA00BF144800F088FAA7
:100740000028FAD01148801C00F06EFA00BF0F4854
:10075000801C00F07DFA0028F9D00C48C01F00F082
:1007600063FA00BF0948C01F00F072FA0028F9D0F0
:100770003021074800F0CDF80121064800F0C9F803
:100780008021054800F0C5F810BD0000090800F000
:100790000010064000300640006000402DE9F003E4
:1007A00001264FF0000C0325C2F3411706FA0CF4A2
:1007B0000C4211D0D0F8C48F4FEA4C0405FA04F96A
:1007C00028EA0908C0F8C48FD0F8C48F07FA04F4E7
:1007D00048EA0404C0F8C44F0CF1010C0CF0FF0C03
:1007E000BCF1080FE2D3D0F800C512F0010F14BF1E
:1007F0004CEA010C2CEA010CC0F800C5D0F804C585
:1008000012F0020F14BF4CEA010C2CEA010CC0F8E4
:1008100004C5D0F808C512F0040F14BF4CEA010C4F
:100820002CEA010CC0F808C5D0F818C512F0080F62
:1008300014BF4CEA010C2CEA010CC0F818C512F0E8
:10084000100FD0F83C2514BF0A438A43C0F83C255A
:10085000D0F80C2513F0010F14BF0A438A43C0F8E7
:100860000C25D0F8102513F0020F14BF0A438A4359
:10087000C0F81025D0F8142513F0040F14BF0A4354
:100880008A43C0F81425D0F81C2513F0080F14BFB4
:100890000A438A43C0F81C25D0F8442513F4007F8E
:1008A00014BF0A438A43C0F84425D0F8402513F406
:1008B000407F14BF0A438A43C0F84025D0F828255A
:1008C000002B0CBF114322EA0101C0F82815BDE836
:1008D000F003704750F82100704730B50C460546CC
:1008E0000022FFF711FF21462846BDE830400023D3
:1008F0000122FFF753BF30B50C4605460022FFF733
:1009000003FF21462846BDE8304008230122FFF7B7
:1009100045BF30B50C46054608230122FFF73EFFD0
:1009200021462846BDE830400122FFF7EDBE40F8E1
:100930002120704710B5FFF7BAFC002818BF01202E
:1009400010BD00002DE9F003AD4D02462868AD4B07
:100950001840A0F18053B3F5A02358D002F0380915
:10096000DFF8A482C2F38414B9F1100F24D0B9F1D6
:10097000300F04BF47F230504FF400130CD0382032
:10098000904304BF4FF40040C30105D012F0380F6C
:100990001CBF0020034613D09C4F12F4605F4FF041
:1009A000000618BF00222CD057F8324044457DD3B2
:1009B00007EBC2025268DFE0002340461524EBE754
:1009C000A4F10900122822D29148D5F87CC04FF03A
:1009D0004C7350F824002CF01C0C072CA8BF4CF0D2
:1009E000100CC5F87CC02E6D4FF4002C16F4807FDF
:1009F000D2D1BCF1010C0AD02E6D16F4807FF8D054
:100A0000CAE712F0380F18BFB9F1100F03D0BDE8D4
:100A1000F00300207047C2F30268DFF8F8C100223B
:100A200057F83290E14503D307EBC202526803E066
:100A3000521C062AF4D33246C5F8C020D5F8B0209F
:100A4000DFF8D4C102EA0C0242F00042C5F8B0203F
:100A5000DFF8C8C1A4F109024C1E5CF828C0A44408
:100A6000BCFBF1FCD5F8B0101943C5F8B01008EB89
:100A7000C80101EB41046A4902EB420201EBC401E7
:100A800001EB82046468C5F86441D5F864416FF0F5
:100A9000FF0808EB0C2C44EA0C0CC5F864C151F8B3
:100AA0002210D5F8602102F4000200E05FE011435B
:100AB000C5F86011D5F86011D5F86021C1F389211E
:100AC000C2F30904D5F86421C2F3042202F1010C37
:100AD000D5F8642102F01F02521CB0FBF2F04A0963
:100AE000C2F100084443424301EB481104EB5212A7
:100AF000484302EB9020B0FBFCF04108084600227E
:100B000057F832C0844503D307EBC200466802E0C1
:100B1000521C062AF4D3C5F8C060D5F8600110F461
:100B2000000F1DBFD5F8B00040F08040C5F8B00000
:100B3000D5F8600104BF40F40000C5F860014FF42F
:100B40000040D5F8682112F0010F02D1401E0028A4
:100B5000F7DC002808BF002148D0D5F8B0001843C2
:100B600040F0010040F01040C5F8B0003EE0521CDB
:100B7000062AFFF419AF3246C5F8C020D5F8602127
:100B800022F40002C5F86021D5F8B020DFF894C047
:100B900002EA0C0242F00042C5F8B020002908BF6A
:100BA0004FF0000C0AD0B0FBF1FCBCF1000F18BFF5
:100BB000ACF1010C0CF10101B0FBF1F1084600228F
:100BC00057F83240844203D307EBC200466802E084
:100BD000521C062AF4D3C5F8C060D5F8B00043EA29
:100BE0008C22104340F00040C5F8B000D5F8B000AA
:100BF00020F47000C5F8B000BDE8F0030846704767
:100C000000E00F400000FF700024F400EC1A000028
:100C1000D018000040787D0100FC0FE0C8180000EB
:100C20003C190000FF0300EFC0F307230749C0B2DF
:100C3000194401F07043C1F3130143EA411141EA41
:100C4000800040F0007001220260704700E60F4013
:100C5000C0F307220849C0B2114401F07042C1F349
:100C6000130142EA411141EA800040F0007000683F
:100C7000002818BF0120704700EA0F404FF0E02025
:100C8000016941F0050101617047000010B5064897
:100C900000683221B0FBF1F4204600F00EF8FFF7B7
:100CA000EDFF00F003F810BD1C0000204FF0E02025
:100CB000016941F00201016170474FF0E021401EDF
:100CC0004861704710B532480078401CC0B23049C6
:100CD0000870012805DB01202E49087000202C49EE
:100CE00008702D480078401CC0B22B4908700428B9
:100CF00006DB01202949087000202749087000BF41
:100D000027480078401CC0B225490870052805DB3B
:100D1000012024490870002021490870224A2348F4
:100D20000178234800F042F900F0F0F821490870FA
:100D30000846007840B320480078042805DA1E48A9
:100D40000078401C1C49087021E01B4800780428EA
:100D50001DD118480078082802D009280ED106E0D5
:100D60001648007880F001001449087007E0144824
:100D7000007880F001001249087000E000BF00BF59
:100D800005200D49087002E000200B49087010BDD5
:100D900000000020030000200200002005000020C9
:100DA00001000020040000200F0000200E000020A1
:100DB000060000201700002018000020500000202E
:100DC000510000200448006840F4700002490860A7
:100DD000024803490860704788ED00E00024F400F1
:100DE00054000020014600202D2956D014DC212972
:100DF00076D2DFE801F030323436383A3C3E4042B9
:100E00004446484A4C4E757575757575757575759A
:100E100075757575757554004C294ED00ADCA1F1B5
:100E20004102092A5CD2DFE802F03E5B594E4C4495
:100E30003C524000592948D006DC4E2937D052296F
:100E40003DD055294CD136E05F2924D0622943D0CA
:100E50006F2945D13EE03F2044E0062042E05B2080
:100E600040E04F203EE066203CE06D203AE07D20EF
:100E700038E0072036E07F2034E06F2032E0772032
:100E800030E07C202EE039202CE05E202AE0792022
:100E900028E0712026E0082024E0402022E0002005
:100EA00020E03D201EE077201CE006201AE03720DD
:100EB00018E0712016E03E2014E0382012E05020A7
:100EC00010E079200EE05E200CE06E200AE0762033
:100ED00008E005E05C2005E07C2003E0392001E02B
:100EE000002000BF00BF704710B500221021064847
:100EF000FFF71DFD8A2000F0A7F8102211460248D6
:100F0000FFF715FD10BD00000010064038B50025A4
:100F1000002210212448FFF70AFD422000F094F837
:100F2000002401E0601CC4B2052CFBDB002405E0BA
:100F300000F0B4F80DF80400601CC4B2042CF7DB18
:100F4000102211461848FFF7F2FC9DF80000042813
:100F500000D101259DF80000022800D102259DF84E
:100F60000000012800D103259DF80000402800D191
:100F700004259DF80000202800D105259DF80000DB
:100F8000102800D106259DF80100042800D107256E
:100F90009DF80100022800D108259DF801000128D4
:100FA00000D10925284638BD001006402DE9FF4133
:100FB00005460E4617464FF00108002419E0285D4B
:100FC000FFF710FF0DF8140006EA080028B11DF81D
:100FD000140040F080000DF814004FEA48604FEA1A
:100FE0001068385D012101EB44010DF80100601C1F
:100FF000C4B2082CE3DB002210211248FFF797FC53
:10100000402000F021F8102211460E48FFF78FFC17
:10101000002210210B48FFF78AFCC02000F014F8D2
:10102000002405E01DF8040000F00EF8601CC4B2B6
:10103000102CF7DB102211460248FFF778FCBDE8C0
:10104000FF8100000010064070B5044620211148C1
:10105000FFF75FFC00251AE0002201210E48FFF790
:1010600066FC04F0010028B1202211460948FFF770
:101070005EFC04E0002220210648FFF758FC6410C3
:10108000012211460448FFF752FC681CC5B2082D26
:10109000E2DB70BD001006400030064070B5002451
:1010A00020211148FFF727FC002518E064100022DA
:1010B00001210E48FFF73BFC012211460B48FFF7C8
:1010C00036FC20210848FFF705FC08B144F08004F5
:1010D000002201210548FFF72AFC681CC5B2082D33
:1010E000E4DB204670BD00000010064000300640E2
:1010F0002DED068BFFF7F2FA00BF70480078032849
:10110000FBDBFFF7F1FE01206D490870D5E06D486B
:10111000007801287DD100206A4908706A4800687B
:1011200041F2B031484340F61C41B0FBF1F0664952
:1011300008606648006800F0C6F99FED650B53EC47
:10114000102B00F0D3F99FED640B53EC102B00F043
:10115000E5F800F08BF95D4908606148007820B13E
:10116000594800685F49086003E0584800685D49D5
:1011700008605C4800684FF47A71B0FBF1F05A499E
:101180000871584800686421B0FBF1F00A21B0FBF7
:10119000F1F201FB120054494871524800680A21DB
:1011A000B0FBF1F0B0FBF1F201FB12004E49887187
:1011B0004C4800680A21B0FBF1F201FB12004A49D9
:1011C000C8714A4800684A490860484800681E28B3
:1011D00002D24848006808604548006845490968E7
:1011E000884203D943480068414908604048006884
:1011F00000F069F941EC1A0B9FED3F0B53EC102BFB
:1012000000F074F941EC180B9FED3D0B53EC102BE3
:1012100000E042E000F082F841EC190B00F026F902
:10122000394908603948007820B1314800683849A8
:10123000086003E02D4800683549086034480068BC
:101240004FF47A71B0FBF1F027490870304800681C
:101250006421B0FBF1F00A21B0FBF1F201FB1200B6
:10126000214948702A4800680A21B0FBF1F0B0FB20
:10127000F1F201FB12001C498870254800680A2120
:10128000B0FBF1F201FB12001749C87000200E49B3
:1012900008600E490860154908601E48007801285A
:1012A00004D100201B490870FFF7D8F91A480078CC
:1012B000012802D100201849087028E70100002009
:1012C000480000200400002020000020240000200E
:1012D000956588635DDCE03F454772F90F8D5240AC
:1012E00050000020300000200600002028000020D0
:1012F000400000204C000020B31FA194A068D43F00
:1013000065277662277635C03C000020510000201A
:1013100034000020030000200500002010B591EAF1
:10132000030F48BF83F0004300F1E681841A71EB9C
:10133000030C05D2121943EB0C03001B61EB0C01EB
:10134000DFF824E14FEA1154A4EB135C1EEA430FCB
:1013500018BF9EEA445F73D023EA0E03DCF1200E2F
:1013600021EA045143F4801332D322FA0CFE10EB2D
:101370000E0023FA0CFE41EB0E01CCF1200E03FA15
:101380000EFE10EB0E0051F10001B1F5801FCCF103
:10139000200E32D201EB045112FA0EF2BDE81040D9
:1013A00058BF7047401C38BF5FEA420218BF704701
:1013B000002814BF20F0010041F100014FEA410371
:1013C00013F5001F38BF7047A1F1C04100F086B986
:1013D000012A43EB0302ACF1200CDCF11F0E32BFFB
:1013E0004FF0000E23FA0CF310EB030041EB045115
:1013F000B4EB115FD0D0A1EB045101F58011490885
:101400005FEA300001EB04510ED350F1000038BF09
:1014100012FA0EFE08D1BDE81040C9E7401C38BFE3
:101420005FEA4202CAD1C3E7BDE810404FEA410378
:1014300013F5001F38BF7047A1F1C04100F04EB94D
:101440009EEA445F08D011EA5E0FBDE8104004BF79
:1014500001F0004100207047BDE8104070B500F079
:10146000EFF800BF64FBBE3E0000E0FF4FEA1153FF
:10147000A3F58063D3F11E03A8BFD3F1200C08DBD2
:101480004FF0004242EAC12252EA505232FA03F0CF
:10149000704709420BD4102BC4BF0020704703F5DE
:1014A000787CBCF1FF3F05D04FF0FF3070474FF024
:1014B0000000704770B500F0C3F800BF4992248067
:1014C00000207047F0E7B0FA80F310FA03F10AD079
:1014D000C3F11D0303F580634FEA41504FEA035205
:1014E00002EBD12170474FF000007047DFF848C190
:1014F00070B51CEA111E1EBF1CEA13159EEA0C0FE4
:1015000095EA0C0F00F06F8081EA030423EA4C1384
:101510004EEAD47E21EA4C1141F4801143F4801349
:10152000AE44A1FB024CA0FB0365AEF17F7E3619F1
:1015300055EB0C05A1FB034C4CF10003A0FB021C76
:1015400016EB0C06654153F10003094218BF46F043
:10155000010613F4007F0BD14FEA03314FEA053047
:10156000340341EA155140EA16506FF003020AE0D5
:101570004FEAC3214FEAC520F40241EA555140EA3F
:1015800056506FF0020202EB2E4201EB025585EA43
:10159000CE710AD05FEA440C18BF24F0004450F129
:1015A000000041F1000120EAD47040F2FE7C624567
:1015B00000D270BDA84214BF4FF080444FF04044A9
:1015C000002E08BF0024BEF1806FA8BFA1F1C0416A
:1015D000BDE8704080F282804FF0000001F1C04110
:1015E00001F0004170479EEA0C0F0CEA131518BF7A
:1015F00095EA0C0F06D04FF0000081EA030E0EF0C2
:10160000004170BD00F01CF88900013E00F007B8F1
:1016100000F009B84FEA430C5FEA5C5C08D081EA4D
:10162000030100F05BB84FEA410C5FEA5C5CF6D165
:101630004FF00000014970470000FF070000F87FED
:101640000EF1020E2EF0030E5EF8046B364205D446
:10165000012A43EB030515F5001F12D8012841EBC1
:10166000010C1CF5001F0CD80ED14FEAD17C15F5EA
:10167000001F0CEB4C0C0CF1020C08BF4CEBD37CA4
:1016800004E04FF0080C01E04FEAD37C0CEB4C0572
:1016900026FA05F606F00706B6F1040C06D20EEBA4
:1016A000860CBDE870404CF0010C6047DFE80CF0A0
:1016B000090B02024FF000414FF00000A1F500219C
:1016C00070BD19461046012851EB010418BFD4F52E
:1016D000001484BF002001F0004170BD0808A0F58F
:1016E00000114FEA3101704710B591EA030F48BF6E
:1016F00083F000433FF51AAE841A71EB030C07D256
:1017000012198CF0004C43EB0C03001B61EB0C0135
:10171000DFF8A4E14FEA1154A4EB135C1EEA430F77
:1017200018BF9EEA445F00F0B08023EA6E03524285
:1017300021EA0451C3EB6E0338BF5B1EDCF1200EBF
:1017400025D322FA0CFE10EB0E0043FA0CFE41EBFF
:101750000E01CCF1200E03FA0EFE10EB0E0051F13B
:101760000001CCF1200E29D412FA0EF201EB045143
:10177000BDE8104058BF7047401C1CBFB2F1004F7D
:10178000704700280CBF491C20F00100704712EB85
:10179000020E43EB030218BF4FF0010E4EEA420265
:1017A000ACF1200CDCF11E0E54D943FA0CFE10EB08
:1017B0000E0051F1FF31CCF11E0ED5D50EF1010E08
:1017C00012FA0EFE404141EB010101EB445C5FEA7D
:1017D0005C5C10D910EBDE7001EB045138BFBEF138
:1017E000004FBDE8104018BF704700280CBF491CCF
:1017F00020F00100704730D24FEAD42C11F50011CF
:1018000024F400641BD0B1FA81F20B3AA41AA41E8E
:10181000D2F12003914030FA03F31943904001EBD9
:10182000CC71002C01EB0451BDE81040A8BF7047FB
:1018300001F1C0414FF0000001F000417047B0FAE3
:1018400080F310FA03F100D110BDE41A173C4805EB
:10185000C90AE4E701EB045110BD491001EB045142
:10186000BDE810404FEA300002E04FF00001704741
:101870004A0008BF0042F8D0B2F5001F28BF7047E9
:1018800001F000414FF0000070479EEA445F07D02E
:1018900011EA5E0FBDE8104004BF00210020704730
:1018A000BDE8104070B5FFF7CBFE00BF40DFF63E4D
:1018B00083F00041104670470000E0FF4FF0407099
:1018C000E1EE100A7047000000688909001C4E0E06
:1018D00040420F0000201C0080841E000080250074
:1018E000999E36000040380000093D0000803E000F
:1018F00000004B00404B4C0000204E00808D5B00F0
:1019000000C05D000080700000127A0000007D00C1
:1019100080969800001BB7000080BB00C0E8CE0096
:10192000647ADA000024F4000000FA0080A81201B2
:10193000002D310100366E0140787D01400000002D
:1019400000000000000100003E0008000000000050
:1019500000010000A00000000200000000010000E3
:101960003454010000000000000100002B7006004C
:10197000000000000001000028000000000000003E
:10198000000100002700010000000000000100002D
:1019900020000000000000000001000050000000D6
:1019A00002000000000100001AAC0000000000006E
:1019B0000001000017940900000000000001000071
:1019C000169805000000000000010000140000004F
:1019D000000000000001000013800800000000006B
:1019E00000010000A000000008000000000100004D
:1019F00010000000000000000001000028000000AE
:101A0000020000000001000040000000040000008F
:101A10000001000060000000000000000001000064
:101A20005D000C00000000000001000050000000FC
:101A300000000000000100004E0002000000000055
:101A40000001000041AC01000000000000010000A6
:101A50003C00000000000000000100003A80090086
:101A60000000000000010000300000000000000045
:101A7000000100002800000000000000000100003C
:101A800027000100000000000001000023600600A4
:101A900000000000000100002160080000000000BC
:101AA000000100001E000000000000000001000016
:101AB0001DC00400000000000001000050000000F4
:101AC00002000000000100001800000000000000FB
:101AD00000010000140000000000000000010000F0
:101AE0006000000004000000000100000024F40079
:101AF00030003000005A6202910091000087930389
:101B0000D200D20000B4C4041301130100E1F505B2
:101B100054015401000E2707950195013C1B00005C
:101B200000000020580000003C020000941B000050
:101B30005800002070020000580200000000000061
:101B40000000202020202020202011000000000084
:101B50000000000000000000000000000000000085
:101B60000000000000000000000000000000000075
:101B700000000000000000002C010000E80300004D
:101B8000FA00000000000000E9030000010100006D
:041B90000024F40039
:0400000500000201F4
:00000001FF
