:020000040000FA
:1000000090020020D1020000D9020000DB020000B3
:10001000DD020000DF020000E1020000000000003D
:10002000000000000000000000000000E3020000EB
:10003000E502000000000000E7020000950C00004F
:10004000EB020000ED020000EF020000F1020000F0
:10005000F3020000F5020000F7020000F9020000C0
:10006000FB020000FD020000FF020000010300008F
:10007000030300000503000007030000090300005C
:100080000B0300000D0300000F030000110300002C
:1000900013030000150300001703000019030000FC
:1000A0001B0300001D0300001F03000021030000CC
:1000B000230300002503000027030000290300009C
:1000C0002B0300002D0300002F030000310300006C
:1000D000330300003503000037030000390300003C
:1000E0003B0300003D0300003F030000410300000C
:1000F00043030000450300004703000049030000DC
:100100004B0300004D0300004F03000051030000AB
:10011000530300005503000057030000590300007B
:100120005B0300005D0300005F030000610300004B
:10013000630300006503000067030000690300001B
:100140006B0300006D0300006F03000089030000D3
:1001500000000000000000008B0300008D03000081
:100160008F030000910300000000000093030000D3
:100170009503000097030000990300009B03000013
:100180009D0300009F030000A1030000A3030000E3
:10019000A5030000A7030000A9030000AB030000B3
:1001A000AD030000AF030000B1030000B303000083
:1001B000B5030000B7030000B9030000BB03000053
:1001C000BD030000BF030000C1030000C303000023
:1001D000C5030000C7030000C9030000CB030000F3
:1001E000CD030000CF030000D1030000D3030000C3
:1001F000D5030000D7030000D9030000DB03000093
:1002000000F002F800F03CF80AA090E8000C8244EC
:100210008344AAF10107DA4501D100F031F8AFF2C9
:10022000090EBAE80F0013F0010F18BFFB1A43F0D4
:10023000010318473415000054150000103A24BF7C
:1002400078C878C1FAD8520724BF30C830C144BF3B
:1002500004680C607047000000230024002500267D
:10026000103A28BF78C1FBD8520728BF30C148BF19
:100270000B6070471FB501F02FF81FBD10B510BD02
:1002800000F0BFF81146FFF7F5FF00F045FE00F063
:10029000DDF803B4FFF7F2FF03BC00F0E5F800005F
:1002A0000138FDD170470000EFF3108072B670473F
:1002B000EFF310807047EFF3108062B6704730BFE5
:1002C000704780F311887047EFF31180704700008A
:1002D0004548804745480047FEE7FEE7FEE7FEE762
:1002E000FEE7FEE7FEE7FEE7FEE7FEE7FEE7FEE7E6
:1002F000FEE7FEE7FEE7FEE7FEE7FEE7FEE7FEE7D6
:10030000FEE7FEE7FEE7FEE7FEE7FEE7FEE7FEE7C5
:10031000FEE7FEE7FEE7FEE7FEE7FEE7FEE7FEE7B5
:10032000FEE7FEE7FEE7FEE7FEE7FEE7FEE7FEE7A5
:10033000FEE7FEE7FEE7FEE7FEE7FEE7FEE7FEE795
:10034000FEE7FEE7FEE7FEE7FEE7FEE7FEE7FEE785
:10035000FEE7FEE7FEE7FEE7FEE7FEE7FEE7FEE775
:10036000FEE7FEE7FEE7FEE7FEE7FEE7FEE7FEE765
:10037000FEE7FEE7FEE7FEE7FEE7FEE7FEE7FEE755
:10038000FEE7FEE7FEE7FEE7FEE7FEE7FEE7FEE745
:10039000FEE7FEE7FEE7FEE7FEE7FEE7FEE7FEE735
:1003A000FEE7FEE7FEE7FEE7FEE7FEE7FEE7FEE725
:1003B000FEE7FEE7FEE7FEE7FEE7FEE7FEE7FEE715
:1003C000FEE7FEE7FEE7FEE7FEE7FEE7FEE7FEE705
:1003D000FEE7FEE7FEE7FEE7FEE7FEE70448054925
:1003E000034A054B70470000E10C000001020000C9
:1003F000900000209002002090000020704770477D
:100400007047754600F02CF8AE4605006946534625
:1004100020F00700854618B020B5FFF7DFFFBDE8E4
:1004200020404FF000064FF000074FF000084FF05B
:10043000000B21F00701AC46ACE8C009ACE8C009EC
:10044000ACE8C009ACE8C0098D46704710B5044659
:10045000AFF300802046BDE81040FFF71ABF000050
:10046000004870472C00002001491820ABBEFEE771
:10047000260002007047002100E0491C8142FCD3A5
:100480007047000010B50949094800F043FA0949CE
:10049000086000F019F800F00FF800F031F800F0F3
:1004A000B9F900F0DBFB00F02DFA10BD0024F400D8
:1004B000800600F11C0000200248016841F4700130
:1004C0000160704788ED00E00248016841F040415A
:1004D0000160704734EF00E0D0F8003412F0010FF3
:1004E00014BF0B438B43C0F8003412F0020FD0F856
:1004F000202414BF114322EA0101C0F820147047E0
:1005000010B50E4800F078FB00BF0C4800F088FBE7
:100510000028FAD00948801C00F06EFB00BF074895
:10052000801C00F07DFB0028F9D03021044800F049
:10053000C9F80121034800F0C5F810BD090800F012
:1005400000100640003006402DE9F00301264FF070
:10055000000C0325C2F3411706FA0CF40C4211D02B
:10056000D0F8C48F4FEA4C0405FA04F928EA0908C8
:10057000C0F8C48FD0F8C48F07FA04F448EA040422
:10058000C0F8C44F0CF1010C0CF0FF0CBCF1080FCB
:10059000E2D3D0F800C512F0010F14BF4CEA010CF1
:1005A0002CEA010CC0F800C5D0F804C512F0020F07
:1005B00014BF4CEA010C2CEA010CC0F804C5D0F8B9
:1005C00008C512F0040F14BF4CEA010C2CEA010C10
:1005D000C0F808C5D0F818C512F0080F14BF4CEACF
:1005E000010C2CEA010CC0F818C512F0100FD0F85D
:1005F0003C2514BF0A438A43C0F83C25D0F80C259B
:1006000013F0010F14BF0A438A43C0F80C25D0F839
:10061000102513F0020F14BF0A438A43C0F81025B7
:10062000D0F8142513F0040F14BF0A438A43C0F80E
:100630001425D0F81C2513F0080F14BF0A438A4371
:10064000C0F81C25D0F8442513F4007F14BF0A43DA
:100650008A43C0F84425D0F8402513F4407F14BFE6
:100660000A438A43C0F84025D0F82825002B0CBF48
:10067000114322EA0101C0F82815BDE8F0037047D4
:100680000E4AC0F30741D26E01238B401A420C4A36
:100690001ABF02EBC101496852F83110020AD1F8C1
:1006A0002C354FF00F0C0CFA02FC00F00F0023EA7F
:1006B0000C0390401843C1F82C05704700E00F4030
:1006C0008414000030B50C46054608230122FFF7CC
:1006D0003BFF21462846BDE830400122FFF7FCBE23
:1006E00030B50C4605460222FFF7F6FE21462846A5
:1006F000BDE8304009230122FFF726BF30B50C4684
:1007000005460222FFF7E8FE21462846BDE83040B4
:1007100008230122FFF718BF40F82120704700008E
:100720002DE9F0412DED068B05460122294636487C
:1007300000F0E4F800BF344800F09AF80028FAD13D
:100740000B21314800F09AF800BF2F4800F090F8D4
:100750000028FAD12C4800F09AF818B92A4800F07D
:100760008FF887B20521284800F088F800BF264896
:1007700000F07EF80028FAD1234800F088F818B974
:10078000214800F07DF886B26420FFF774FE06EB86
:10079000072084B2641104F48060B0B140F2FF72AB
:1007A00084EA0201491C484200F06DFC41EC1A0B3E
:1007B0009FED160B53EC102B00F090FC41EC190B45
:1007C00000F030FC08EE100A10E0204600F072FC49
:1007D00041EC1A0B9FED0D0B53EC102B00F07EFC3F
:1007E00041EC190B00F01EFC08EE100AB2EE040AF0
:1007F00028EE000ABDEEC00A10EE100A00B2BDECF1
:10080000068BBDE8F08100000000024000000000FF
:100810000000C03F10B50F4800F0EEF90E4800F0A0
:10082000EBF90E48FFF72CFF0D48FFF729FF0421D5
:100830000C48FFF763FF08210A48FFF751FF012228
:1008400009480168094800F02FF8084800F01AF834
:1008500010BD0000002000F0010800F0020C0100B3
:1008600002080100005000401C000020000002406F
:10087000406810F0010018BF0120704741607047C8
:1008800080687047016A41F010010162704740685A
:1008900010F0010F05D110F0120F1CBF00F01C006A
:1008A0007047002070470000036A43F010030362A2
:1008B000002A14BF0E4A0F4A02EB820301EB8303A6
:1008C00002EB820292005B1EB3FBF2F2521EC26088
:1008D000D0F8C02F12F0010F08BF7047064A11442C
:1008E000521CB1FBF2F1491E41F08001C16070471A
:1008F000801A0600A08601007F47370142EA4101C5
:100900000160704710B5FFF7D6FC002818BF012022
:1009100010BD00002DE9F003AD4D02462868AD4B37
:100920001840A0F18053B3F5A02358D002F0380945
:10093000DFF8A482C2F38414B9F1100F24D0B9F106
:10094000300F04BF47F230504FF400130CD0382062
:10095000904304BF4FF40040C30105D012F0380F9C
:100960001CBF0020034613D09C4F12F4605F4FF071
:10097000000618BF00222CD057F8324044457DD3E2
:1009800007EBC2025268DFE0002340461524EBE784
:10099000A4F10900122822D29148D5F87CC04FF06A
:1009A0004C7350F824002CF01C0C072CA8BF4CF002
:1009B000100CC5F87CC02E6D4FF4002C16F4807F0F
:1009C000D2D1BCF1010C0AD02E6D16F4807FF8D084
:1009D000CAE712F0380F18BFB9F1100F03D0BDE805
:1009E000F00300207047C2F30268DFF8F8C100226C
:1009F00057F83290E14503D307EBC202526803E097
:100A0000521C062AF4D33246C5F8C020D5F8B020CF
:100A1000DFF8D4C102EA0C0242F00042C5F8B0206F
:100A2000DFF8C8C1A4F109024C1E5CF828C0A44438
:100A3000BCFBF1FCD5F8B0101943C5F8B01008EBB9
:100A4000C80101EB41046A4902EB420201EBC40117
:100A500001EB82046468C5F86441D5F864416FF025
:100A6000FF0808EB0C2C44EA0C0CC5F864C151F8E3
:100A70002210D5F8602102F4000200E05FE011438B
:100A8000C5F86011D5F86011D5F86021C1F389214E
:100A9000C2F30904D5F86421C2F3042202F1010C67
:100AA000D5F8642102F01F02521CB0FBF2F04A0993
:100AB000C2F100084443424301EB481104EB5212D7
:100AC000484302EB9020B0FBFCF0410808460022AE
:100AD00057F832C0844503D307EBC200466802E0F2
:100AE000521C062AF4D3C5F8C060D5F8600110F492
:100AF000000F1DBFD5F8B00040F08040C5F8B00031
:100B0000D5F8600104BF40F40000C5F860014FF45F
:100B10000040D5F8682112F0010F02D1401E0028D4
:100B2000F7DC002808BF002148D0D5F8B0001843F2
:100B300040F0010040F01040C5F8B0003EE0521C0B
:100B4000062AFFF419AF3246C5F8C020D5F8602157
:100B500022F40002C5F86021D5F8B020DFF894C077
:100B600002EA0C0242F00042C5F8B020002908BF9A
:100B70004FF0000C0AD0B0FBF1FCBCF1000F18BF25
:100B8000ACF1010C0CF10101B0FBF1F108460022BF
:100B900057F83240844203D307EBC200466802E0B4
:100BA000521C062AF4D3C5F8C060D5F8B00043EA59
:100BB0008C22104340F00040C5F8B000D5F8B000DA
:100BC00020F47000C5F8B000BDE8F0030846704797
:100BD00000E00F400000FF700024F4003817000010
:100BE0001C15000040787D0100FC0FE0141500008A
:100BF00088150000FF0300EFC0F307230749C0B2C8
:100C0000194401F07043C1F3130143EA411141EA71
:100C1000800040F0007001220260704700E60F4043
:100C2000C0F307220849C0B2114401F07042C1F379
:100C3000130142EA411141EA800040F0007000686F
:100C4000002818BF0120704700EA0F404FF0E02055
:100C5000016941F0050101617047000010B50648C7
:100C600000683221B0FBF1F4204600F00EF8FFF7E7
:100C7000EDFF00F003F810BD1C0000204FF0E02055
:100C8000016941F00201016170474FF0E021401E0F
:100C90004861704710B50C480078401CC0B20A4942
:100CA0000870322805DB0120084908700020064939
:100CB00008700748007828B9064A074801780748AD
:100CC00000F0B2F810BD000000000020010000207C
:100CD0002400002011000020100000200800002047
:100CE0000448006840F47000024908600248034963
:100CF0000860704788ED00E00024F4002800002020
:100D0000014600202D2956D014DC212976D2DFE8B7
:100D100001F030323436383A3C3E40424446484A8C
:100D20004C4E7575757575757575757575757575C3
:100D3000757554004C294ED00ADCA1F14102092AF4
:100D40005CD2DFE802F03E5B594E4C443C5240001E
:100D5000592948D006DC4E2937D052293DD0552993
:100D60004CD136E05F2924D0622943D06F2945D188
:100D70003EE03F2044E0062042E05B2040E04F2080
:100D80003EE066203CE06D203AE07D2038E0072020
:100D900036E07F2034E06F2032E0772030E07C20A6
:100DA0002EE039202CE05E202AE0792028E0712016
:100DB00026E0082024E0402022E0002020E03D2022
:100DC0001EE077201CE006201AE0372018E0712092
:100DD00016E03E2014E0382012E0502010E0792088
:100DE0000EE05E200CE06E200AE0762008E005E0D0
:100DF0005C2005E07C2003E0392001E0002000BFFA
:100E000000BF704710B5002210210648FFF784FC90
:100E10008A2000F057F8102211460248FFF77CFCA8
:100E200010BD0000001006402DE9FF4105460E46AA
:100E300017464FF00108002419E0285DFFF760FF16
:100E40000DF8140006EA080028B11DF8140040F05F
:100E500080000DF814004FEA48604FEA1068385DD2
:100E6000012101EB44010DF80100601CC4B2082C03
:100E7000E3DB002210211248FFF74EFC402000F077
:100E800021F8102211460E48FFF746FC00221021DF
:100E90000B48FFF741FCC02000F014F8002405E0E7
:100EA0001DF8040000F00EF8601CC4B2102CF7DB33
:100EB000102211460248FFF72FFCBDE8FF81000019
:100EC0000010064070B5044620211148FFF7FAFBD8
:100ED00000251AE0002201210E48FFF71DFC04F056
:100EE000010028B1202211460948FFF715FC04E053
:100EF000002220210648FFF70FFC64100122114652
:100F00000448FFF709FC681CC5B2082DE2DB70BD80
:100F10000010064000300640FFF7B4FA3B48006876
:100F200040F6B831B0FBF1F0C0EB0010860030465F
:100F3000FFF7B6F9FFF766FF67E03548007801284C
:100F400063D10020324908704F20FFF7E9FB314997
:100F500008804820FFF7E4FB2F49088001202F4933
:100F600008702C48B0F90000002807DA29480088EA
:100F7000404284B22D202A49087005E025480088A7
:100F800084B2202026490870642094FBF0F02449A4
:100F900048700A2094FBF0F00A2190FBF1F201FB6B
:100FA00012001F4988700A2094FBF0F100FB1140E9
:100FB0001B49C8701848B0F90000002806DA164826
:100FC0000088404285B22D20087105E01248008853
:100FD00085B2202012490871642095FBF0F0104979
:100FE00048710A2095FBF0F00A2190FBF1F201FB19
:100FF00012000B4988710A2095FBF0F100FB11509B
:101000000749C87100200549087096E71C000020B8
:1010100001000020200000202200002024000020E9
:101020000800002021F00042A2F16052B2F5801FBA
:1010300001F0004328BFD2F17F6C0BD95FEA001C9E
:1010400043EAC20242EB507018BF704728BF20F03D
:1010500001007047B2F5801FBCBF184670474FEAC9
:10106000410C1CF5001F02D2084600F03AB970B5D9
:1010700000F0DEF800000089FFF7F6BF4FF00040F7
:10108000A0F58000704710F0004248BF4042B0FA1F
:1010900080F310FA03F10AD0C3F11D0303F5806356
:1010A0004FEA415002EB035202EBD12170474FF05F
:1010B00000007047B0FA80F310FA03F10AD0C3F1D0
:1010C0001D0303F580634FEA41504FEA035202EBE0
:1010D000D12170474FF0000070470000DFF848C191
:1010E00070B51CEA111E1EBF1CEA13159EEA0C0FF8
:1010F00095EA0C0F00F06F8081EA030423EA4C1399
:101100004EEAD47E21EA4C1141F4801143F480135D
:10111000AE44A1FB024CA0FB0365AEF17F7E361905
:1011200055EB0C05A1FB034C4CF10003A0FB021C8A
:1011300016EB0C06654153F10003094218BF46F057
:10114000010613F4007F0BD14FEA03314FEA05305B
:10115000340341EA155140EA16506FF003020AE0E9
:101160004FEAC3214FEAC520F40241EA555140EA53
:1011700056506FF0020202EB2E4201EB025585EA57
:10118000CE710AD05FEA440C18BF24F0004450F13D
:10119000000041F1000120EAD47040F2FE7C62457B
:1011A00000D270BDA84214BF4FF080444FF04044BD
:1011B000002E08BF0024BEF1806FA8BFA1F1C0417E
:1011C000BDE8704080F282804FF0000001F1C04124
:1011D00001F0004170479EEA0C0F0CEA131518BF8E
:1011E00095EA0C0F06D04FF0000081EA030E0EF0D6
:1011F000004170BD00F01CF88900013E00F007B806
:1012000000F009B84FEA430C5FEA5C5C08D081EA61
:10121000030100F05BB84FEA410C5FEA5C5CF6D179
:101220004FF00000014970470000FF070000F87F01
:101230000EF1020E2EF0030E5EF8046B364205D45A
:10124000012A43EB030515F5001F12D8012841EBD5
:10125000010C1CF5001F0CD80ED14FEAD17C15F5FE
:10126000001F0CEB4C0C0CF1020C08BF4CEBD37CB8
:1012700004E04FF0080C01E04FEAD37C0CEB4C0586
:1012800026FA05F606F00706B6F1040C06D20EEBB8
:10129000860CBDE870404CF0010C6047DFE80CF0B4
:1012A000090B02024FF000414FF00000A1F50021B0
:1012B00070BD19461046012851EB010418BFD4F542
:1012C000001484BF002001F0004170BD0808A0F5A3
:1012D00000114FEA310170474FF04070E1EE100A03
:1012E0007047FF2141EAD050C005704700400040E0
:1012F0001000000000800540100000000050004079
:101300001100000000900540110000000060004046
:101310001200000000A00540120000000070004014
:101320001300000000B00540130000000040024020
:101330001400000000C005401400000000500240EE
:101340002E00000000D005402E000000006002408A
:101350002F00000000E005402F0000000070024058
:101360003000000000F005403000000000D00340D5
:101370004600000000000640460000000010064045
:1013800047000000002006404800000000300640F2
:101390007F00000000400640800000000050064032
:1013A00084000000006006408C0000000040004007
:1013B00010000000008005401000000000500040B8
:1013C0001100000000900540110000000060004086
:1013D0001200000000A00540120000000070004054
:1013E0001300000000B00540130000000040024060
:1013F0001400000000C0054014000000005002402E
:101400002E00000000D005402E00000000600240C9
:101410002F00000000E005402F0000000070024097
:101420003000000000F005403000000000D0034014
:10143000430000000000064043000000001006408A
:101440004400000000200640450000000030064037
:1014500058000000004006405900000000500640BF
:101460005C00000000600640640000000070064060
:101470006C000000008006406D00000000900640F7
:101480007F00000000400040008005400050004008
:10149000009005400060004000A005400070004042
:1014A00000B005400040024000C00540005002402E
:1014B00000D005400060024000E00540007002409E
:1014C00000F0054000D00340000006400010064038
:1014D0000010064000200640002006400030064074
:1014E00000300640004006400040064000500640E4
:1014F0000050064000600640006006400070064054
:1015000000700640008006400080064000900640C3
:101510000090064000688909001C4E0E40420F00F2
:1015200000201C0080841E0000802500999E36004B
:101530000040380000093D0000803E0000004B00E4
:10154000404B4C0000204E00808D5B0000C05D00D1
:101550000080700000127A0000007D0080969800E4
:10156000001BB7000080BB00C0E8CE00647ADA0040
:101570000024F4000000FA0080A81201002D3101BF
:1015800000366E0140787D01400000000000000040
:10159000000100003E000800000000000001000003
:1015A000A00000000200000000010000345401000F
:1015B00000000000000100002B7006000000000089
:1015C00000010000280000000000000000010000F1
:1015D00027000100000000000001000020000000C2
:1015E00000000000000100005000000002000000A8
:1015F000000100001AAC0000000000000001000023
:101600001794090000000000000100001698050072
:1016100000000000000100001400000000000000B5
:10162000000100001380080000000000000100001D
:10163000A0000000080000000001000010000000F1
:10164000000000000001000028000000020000006F
:101650000001000040000000040000000001000044
:101660006000000000000000000100005D000C00B0
:101670000000000000010000500000000000000019
:10168000000100004E000200000000000001000008
:1016900041AC010000000000000100003C0000001F
:1016A00000000000000100003A8009000000000076
:1016B00000010000300000000000000000010000F8
:1016C00028000000000000000001000027000100C9
:1016D0000000000000010000236006000000000080
:1016E000000100002160080000000000000100006F
:1016F0001E00000000000000000100001DC00400EA
:101700000000000000010000500000000200000086
:1017100000010000180000000000000000010000AF
:101720001400000000000000000100006000000044
:1017300004000000000100000024F400300030002C
:10174000005A62029100910000879303D200D200F8
:1017500000B4C4041301130100E1F5055401540160
:10176000000E270795019501881700000000002052
:101770002C0000003C020000B41700002C000020E8
:101780006402000058020000000000000000000099
:1017900020202020202020204401010101010101FE
:1017A0000000000000000000000000000000000039
:0417B0000024F4001D
:0400000500000201F4
:00000001FF
