:020000040000FA
:100000000807002011030000190300001B03000073
:100010001D0300001F03000021030000000000007A
:1000200000000000000000000000000023030000AA
:10003000250300000000000027030000D511000088
:100040002B0300002D0300002F03000031030000EC
:1000500033030000350300003703000039030000BC
:100060003B0300003D0300003F030000410300008C
:10007000430300004503000047030000490300005C
:100080004B0300004D0300004F030000510300002C
:1000900053030000550300005703000059030000FC
:1000A0005B0300005D0300005F03000061030000CC
:1000B000630300006503000067030000690300009C
:1000C0006B0300006D0300006F030000710300006C
:1000D000730300007503000077030000790300003C
:1000E0007B0300007D0300007F030000810300000C
:1000F00083030000850300008703000089030000DC
:100100008B0300008D0300008F03000091030000AB
:10011000930300009503000097030000990300007B
:100120009B0300009D0300009F030000A10300004B
:10013000A3030000A5030000A7030000A90300001B
:10014000AB030000AD030000AF030000C9030000D3
:100150000000000000000000CB030000CD03000001
:10016000CF030000D103000000000000D303000013
:10017000D5030000D7030000D9030000DB03000013
:10018000DD030000DF030000E1030000E3030000E3
:10019000E5030000E7030000E9030000EB030000B3
:1001A000ED030000EF030000F1030000F303000083
:1001B000F5030000F7030000F9030000FB03000053
:1001C000FD030000FF030000010400000304000021
:1001D0000504000007040000090400000B040000EF
:1001E0000D0400000F0400001104000013040000BF
:1001F0001504000017040000190400001B0400008F
:1002000000F002F800F05CF80AA090E8000C8244CC
:100210008344AAF10107DA4501D100F051F8AFF2A9
:10022000090EBAE80F0013F0010F18BFFB1A43F0D4
:100230000103184790240000B02400000A444FF046
:10024000000C10F8013B13F0070408BF10F8014B35
:100250001D1108BF10F8015B641E05D010F8016B7A
:10026000641E01F8016BF9D113F0080F1EBF10F8DE
:10027000014BAD1C0C1B09D16D1E58BF01F801CB01
:10028000FAD505E014F8016B01F8016B6D1EF9D584
:100290009142D6D370470000002300240025002699
:1002A000103A28BF78C1FBD8520728BF30C148BFD9
:1002B0000B6070471FB501F0BDFF1FBD10B510BD2D
:1002C00000F0BFF81146FFF7F5FF01F02DFC00F03C
:1002D000DDF803B4FFF7F2FF03BC00F0E5F800001F
:1002E0000138FDD170470000EFF3108072B67047FF
:1002F000EFF310807047EFF3108062B6704730BFA5
:10030000704780F311887047EFF311807047000049
:100310004548804745480047FEE7FEE7FEE7FEE721
:10032000FEE7FEE7FEE7FEE7FEE7FEE7FEE7FEE7A5
:10033000FEE7FEE7FEE7FEE7FEE7FEE7FEE7FEE795
:10034000FEE7FEE7FEE7FEE7FEE7FEE7FEE7FEE785
:10035000FEE7FEE7FEE7FEE7FEE7FEE7FEE7FEE775
:10036000FEE7FEE7FEE7FEE7FEE7FEE7FEE7FEE765
:10037000FEE7FEE7FEE7FEE7FEE7FEE7FEE7FEE755
:10038000FEE7FEE7FEE7FEE7FEE7FEE7FEE7FEE745
:10039000FEE7FEE7FEE7FEE7FEE7FEE7FEE7FEE735
:1003A000FEE7FEE7FEE7FEE7FEE7FEE7FEE7FEE725
:1003B000FEE7FEE7FEE7FEE7FEE7FEE7FEE7FEE715
:1003C000FEE7FEE7FEE7FEE7FEE7FEE7FEE7FEE705
:1003D000FEE7FEE7FEE7FEE7FEE7FEE7FEE7FEE7F5
:1003E000FEE7FEE7FEE7FEE7FEE7FEE7FEE7FEE7E5
:1003F000FEE7FEE7FEE7FEE7FEE7FEE7FEE7FEE7D5
:10040000FEE7FEE7FEE7FEE7FEE7FEE7FEE7FEE7C4
:10041000FEE7FEE7FEE7FEE7FEE7FEE704480549E4
:10042000034A054B704700008912000001020000DA
:1004300008050020080700200805002070477047C5
:100440007047754600F02CF8AE46050069465346E5
:1004500020F00700854618B020B5FFF7DFFFBDE8A4
:1004600020404FF000064FF000074FF000084FF01B
:10047000000B21F00701AC46ACE8C009ACE8C009AC
:10048000ACE8C009ACE8C0098D46704710B5044619
:10049000AFF300802046BDE81040FFF71ABF000010
:1004A00000487047A404002001491820ABBEFEE7B5
:1004B000260002007047000010B50F4800F03CFE17
:1004C0000E4800F039FE02210D4800F04AFA0023E0
:1004D0001A4603210B4800F043F86223002203214F
:1004E000084800F086F80321064800F07BF8032155
:1004F000044800F009F810BD003800F0040800F0CE
:100500000040024000800340012202FA01F1C16074
:10051000704732B1C0684FF0011202FA01F1084091
:100520007047406801228A4042F48032104010F443
:10053000803F08BF704740F470204FF4803202FAC9
:1005400001F1884370470A4601F00F0101236FF360
:100550000F0203FA01F11143826A1143816270476D
:1005600030B4446989004FF00F0C0CFA01FC02F022
:100570000F0524EA0C048D402C434461046A03F007
:10058000030324EA0C0C03FA01F14CEA01010162B5
:1005900002F00F018B1F032B84BF30BC7047C900D2
:1005A000C3694FF0300C30390CFA01FC02F0300214
:1005B00023EA0C0302FA01F11943C16130BC704710
:1005C00000EB411000F14001002003E08B6842F88D
:1005D000043B401CCB6813F4807F18BF7047082889
:1005E000F4D370470268012303FA01F1114301605B
:1005F000704710B400EB4110910050F840CF0F222B
:100600008A4003F00F042CEA020C8C404CEA040CE4
:10061000C0F800C0D0F818C0C3F303242CEA020CC1
:100620008C404CEA040CC0F818C0D0F804C0C3F3E6
:1006300003142CEA020C8C404CEA040CC0F804C0F1
:10064000D0F81CC0C3F303542CEA020C8C404CEAD3
:10065000040CC0F81CC013F4702F4FF001040DD02F
:10066000D0F814C0C3F302432CEA02028B401A43B1
:100670004261026904FA01F1114304E0026904FADB
:1006800001F122EA0101016110BC704708B50321A4
:100690000A48FFF758FF00BF002203210748FFF771
:1006A00038FF0028F8D003210448FFF72DFF6A46E1
:1006B00003210248FFF784FF009808BD0080034033
:1006C000002100E0491C8142FCD370474FF47A625C
:1006D0005043002100E0491C8142FCD370470000D8
:1006E00010B50E490E4800F0B5FB0E4908600846EB
:1006F00000680D49086000F021F800F017F800F0DC
:1007000039F800F00BFA00F049FD00F091FF00F01D
:100710007DFAFFF7D1FE00F03BFB10BD0024F40092
:10072000800600F18C04002090040020024801683B
:1007300041F470010160704788ED00E002480168F3
:1007400041F040410160704734EF00E0D0F80034E0
:1007500012F0010F14BF0B438B43C0F8003412F0AA
:10076000020FD0F8202414BF114322EA0101C0F87F
:100770002014704710B5164800F0DEFC00BF144886
:1007800000F0EEFC0028FAD01148801C00F0D4FCE8
:1007900000BF0F48801C00F0E3FC0028F9D0302196
:1007A0000C4800F0FAF801210B4800F0F6F8084870
:1007B000001F00F0C1FC00BF0548001F00F0D0FC86
:1007C0000028F9D00821054800F0E7F810BD000026
:1007D000090800F0001006400030064000500240BA
:1007E0002DE9F00301264FF0000C0325C2F3411759
:1007F00006FA0CF40C4211D0D0F8C48F4FEA4C0426
:1008000005FA04F928EA0908C0F8C48FD0F8C48FA3
:1008100007FA04F448EA0404C0F8C44F0CF1010CD0
:100820000CF0FF0CBCF1080FE2D3D0F800C512F0B9
:10083000010F14BF4CEA010C2CEA010CC0F800C5F2
:10084000D0F804C512F0020F14BF4CEA010C2CEAD8
:10085000010CC0F804C5D0F808C512F0040F14BF8D
:100860004CEA010C2CEA010CC0F808C5D0F818C5F8
:1008700012F0080F14BF4CEA010C2CEA010CC0F86E
:1008800018C512F0100FD0F83C2514BF0A438A4354
:10089000C0F83C25D0F80C2513F0010F14BF0A4313
:1008A0008A43C0F80C25D0F8102513F0020F14BFAE
:1008B0000A438A43C0F81025D0F8142513F0040F1A
:1008C00014BF0A438A43C0F81425D0F81C2513F03E
:1008D000080F14BF0A438A43C0F81C25D0F84425EA
:1008E00013F4007F14BF0A438A43C0F84425D0F8AC
:1008F000402513F4407F14BF0A438A43C0F84025C3
:10090000D0F82825002B0CBF114322EA0101C0F8C2
:100910002815BDE8F00370470E4AC0F30741D26EB8
:1009200001238B401A420C4A1ABF02EBC1014968ED
:1009300052F83110020AD1F82C354FF00F0C0CFA96
:1009400002FC00F00F0023EA0C0390401843C1F8AA
:100950002C05704700E00F40E023000050F8210014
:10096000704730B50C4605460022FFF7EFFE2146E2
:100970002846BDE8304000230122FFF731BF30B5E3
:100980000C4605460022FFF7E1FE21462846BDE859
:10099000304008230122FFF723BF30B50C4605463F
:1009A00008230122FFF71CFF21462846BDE83040FE
:1009B0000122FFF7CBBE30B50C4605460222FFF7F9
:1009C000C5FE21462846BDE8304009230122FFF735
:1009D00007BF30B50C4605460222FFF7B7FE214699
:1009E0002846BDE8304008230122FFF7F9BE30B5A4
:1009F0000C4605460222FFF7A9FE21462846BDE81F
:100A0000304008230122FFF7EBBE30B50C46054607
:100A10000222FFF79BFE21462846BDE8304008230E
:100A20000122FFF7DDBE40F8212070472DE9F0419B
:100A30002DED068B054601222946354800F0E2F8E7
:100A400000BF334800F098F80028FAD10B21304855
:100A500000F098F800BF2E4800F08EF80028FAD178
:100A60002B4800F098F818B9294800F08DF887B2A3
:100A70000521274800F086F800BF254800F07CF8E3
:100A80000028FAD1224800F086F818B9204800F072
:100A90007BF886B26420FFF713FE06EB072084B2D2
:100AA000641104F48060A8B1E143491CC1F3090159
:100AB000484201F096FA41EC1A0B9FED160B53ECED
:100AC000102B01F0B9FA41EC190B01F059FA08EEBC
:100AD000100A10E0204601F09BFA41EC1A0B9FED42
:100AE0000D0B53EC102B01F0A7FA41EC190B01F0A0
:100AF00047FA08EE100AB2EE040A28EE000ABDEE2C
:100B0000C00A10EE100A00B2BDEC068BBDE8F08101
:100B100000000240000000000000C03F10B50F4878
:100B200000F00AFB0E4800F007FB0E48FFF7F4FE4A
:100B30000D48FFF7F1FE04210C48FFF74AFF08219A
:100B40000A48FFF738FF012209480168094800F008
:100B50002FF8084800F01AF810BD0000002000F03F
:100B6000010800F0020C01000208010000500040E2
:100B70008C04002000000240406810F0010018BF03
:100B8000012070474160704780687047016A41F0FA
:100B9000100101627047406810F0010F05D110F09C
:100BA000120F1CBF00F01C007047002070470000AF
:100BB000036A43F010030362002A14BF0E4A0F4A6F
:100BC00002EB820301EB830302EB820292005B1EC5
:100BD000B3FBF2F2521EC260D0F8C02F12F0010F28
:100BE00008BF7047064A1144521CB1FBF2F1491E7E
:100BF00041F08001C1607047801A0600A0860100A4
:100C00007F47370142EA41010160704710B5FFF7A5
:100C100072FB002818BF012010BD000010B5274846
:100C200000F08AFA00BF254800F09AFA0028FAD0AE
:100C30002248C01D00F080FA00BF2048C01D00F00F
:100C40008FFA0028F9D01D48401E00F075FA00BF49
:100C50001A48401E00F084FA0028F9D01748801C7A
:100C600000F06AFA00BF1548801C00F079FA0028ED
:100C7000F9D007211248FFF790FE30211148FFF705
:100C80008CFE30211048FFF788FE10210F48FFF737
:100C900084FE40210B48FFF772FE0848C01C00F09C
:100CA0004BFA00BF0548C01C00F05AFA0028F9D0E2
:100CB00002210748FFF771FE10BD0000020800F096
:100CC000001006400060004000500040004002401C
:100CD0000050024070B50446002202210948FFF787
:100CE000A2FE002505E0002600E0761C6E2EFCDB4F
:100CF0006D1CA542F7DB022211460248FFF793FE66
:100D000070BD00000050024070B504460022022170
:100D10000948FFF788FE002505E0002600E0761C64
:100D2000012EFCDB6D1CA542F7DB022211460248B6
:100D3000FFF779FE70BD00000050024008440168D2
:100D40006FF352011143016012F0020F14BFB02182
:100D50008C21016214BF4FF4306140F60C014162F6
:100D60007047425842F001024250704708440168FF
:100D7000006911F0020F14BF4000401C7047084486
:100D8000016811F0020F14BF5108511E0161704734
:100D900010B50E4800F0D0F9012210210C4800F0E7
:100DA0001FF8C0210A48FFF7DCFF0A4800F0C4F929
:100DB0000948FFF7B1FD08210848FFF718FE002297
:100DC000C0210348FFF7BAFF10BD0000004000F04B
:100DD00000800240050800F0060C050000500240AB
:100DE000002A826814BF114322EA01018160704722
:100DF00021F03F031844036813F0020F18BF520894
:100E000003699A1A11F0010F14BFC2618261704721
:100E100070B50446C0210D48FFF7A3FF0C480068D9
:100E2000B0FBF4F52A46C0210848FFF7A8FFC0210F
:100E30000648FFF79BFF45082A46C4210348FFF7F1
:100E4000D7FFC0210148FFF78CFF70BD0080024032
:100E5000900400202DE9F003AD4D02462868AD4B0B
:100E60001840A0F18053B3F5A02358D002F0380900
:100E7000DFF8A482C2F38414B9F1100F24D0B9F1C1
:100E8000300F04BF47F230504FF400130CD038201D
:100E9000904304BF4FF40040C30105D012F0380F57
:100EA0001CBF0020034613D09C4F12F4605F4FF02C
:100EB000000618BF00222CD057F8324044457DD39D
:100EC00007EBC2025268DFE0002340461524EBE73F
:100ED000A4F10900122822D29148D5F87CC04FF025
:100EE0004C7350F824002CF01C0C072CA8BF4CF0BD
:100EF000100CC5F87CC02E6D4FF4002C16F4807FCA
:100F0000D2D1BCF1010C0AD02E6D16F4807FF8D03E
:100F1000CAE712F0380F18BFB9F1100F03D0BDE8BF
:100F2000F00300207047C2F30268DFF8F8C1002226
:100F300057F83290E14503D307EBC202526803E051
:100F4000521C062AF4D33246C5F8C020D5F8B0208A
:100F5000DFF8D4C102EA0C0242F00042C5F8B0202A
:100F6000DFF8C8C1A4F109024C1E5CF828C0A444F3
:100F7000BCFBF1FCD5F8B0101943C5F8B01008EB74
:100F8000C80101EB41046A4902EB420201EBC401D2
:100F900001EB82046468C5F86441D5F864416FF0E0
:100FA000FF0808EB0C2C44EA0C0CC5F864C151F89E
:100FB0002210D5F8602102F4000200E05FE0114346
:100FC000C5F86011D5F86011D5F86021C1F3892109
:100FD000C2F30904D5F86421C2F3042202F1010C22
:100FE000D5F8642102F01F02521CB0FBF2F04A094E
:100FF000C2F100084443424301EB481104EB521292
:10100000484302EB9020B0FBFCF041080846002268
:1010100057F832C0844503D307EBC200466802E0AC
:10102000521C062AF4D3C5F8C060D5F8600110F44C
:10103000000F1DBFD5F8B00040F08040C5F8B000EB
:10104000D5F8600104BF40F40000C5F860014FF41A
:101050000040D5F8682112F0010F02D1401E00288F
:10106000F7DC002808BF002148D0D5F8B0001843AD
:1010700040F0010040F01040C5F8B0003EE0521CC6
:10108000062AFFF419AF3246C5F8C020D5F8602112
:1010900022F40002C5F86021D5F8B020DFF894C032
:1010A00002EA0C0242F00042C5F8B020002908BF55
:1010B0004FF0000C0AD0B0FBF1FCBCF1000F18BFE0
:1010C000ACF1010C0CF10101B0FBF1F1084600227A
:1010D00057F83240844203D307EBC200466802E06F
:1010E000521C062AF4D3C5F8C060D5F8B00043EA14
:1010F0008C22104340F00040C5F8B000D5F8B00095
:1011000020F47000C5F8B000BDE8F0030846704751
:1011100000E00F400000FF700024F400942600005F
:101120007824000040787D0100FC0FE0702400006E
:10113000E4240000FF0300EFC0F307230749C0B217
:10114000194401F07043C1F3130143EA411141EA2C
:10115000800040F0007001220260704700E60F40FE
:10116000C0F307220849C0B2114401F07042C1F334
:10117000130142EA411141EA800040F0007000682A
:10118000002818BF0120704700EA0F404FF0E02010
:10119000016941F0050101617047000010B5064882
:1011A00000683221B0FBF1F4204600F00EF8FFF7A2
:1011B000EDFF00F003F810BD8C0400204FF0E0209C
:1011C000016941F00201016170474FF0E021401ECA
:1011D0004861704710B520480078401CC0B21E49D5
:1011E0000870322805DB01201C49087000201A49CC
:1011F00008701B480078401CC0B2194908700228CA
:1012000005DB0120174908700020154908701648B1
:10121000007828B9154A16480178164800F028F9D0
:1012200000F0D6F814490870144800781449087082
:1012300011480078114908701148007838B90846FB
:10124000007820B1084600780E49087002E00020BE
:101250000C49087010BD000046040020470400201F
:101260004404002045040020980400205504002078
:10127000540400204C040020780400207B0400204B
:101280007A0400207C0400200448006840F47000C8
:1012900002490860024803490860704788ED00E091
:1012A0000024F400A0040020014600202D2956D07F
:1012B00014DC212976D2DFE801F030323436383AB6
:1012C0003C3E40424446484A4C4E757575757575AE
:1012D0007575757575757575757554004C294ED095
:1012E0000ADCA1F14102092A5CD2DFE802F03E5B90
:1012F000594E4C443C524000592948D006DC4E29F6
:1013000037D052293DD055294CD136E05F2924D021
:10131000622943D06F2945D13EE03F2044E00620BA
:1013200042E05B2040E04F203EE066203CE06D2044
:101330003AE07D2038E0072036E07F2034E06F205F
:1013400032E0772030E07C202EE039202CE05E2057
:101350002AE0792028E0712026E0082024E04020BF
:1013600022E0002020E03D201EE077201CE0062047
:101370001AE0372018E0712016E03E2014E03820F3
:1013800012E0502010E079200EE05E200CE06E208C
:101390000AE0762008E005E05C2005E07C2003E020
:1013A000392001E0002000BF00BF704710B50022C7
:1013B00010210648FFF737FB8A2000F0A7F810221B
:1013C00011460248FFF72FFB10BD00000010064039
:1013D00038B50025002210212448FFF724FB4220C5
:1013E00000F094F8002401E0601CC4B2052CFBDB83
:1013F000002405E000F0B4F80DF80400601CC4B24D
:10140000042CF7DB102211461848FFF70CFB9DF85F
:101410000000042800D101259DF80000022800D119
:1014200002259DF80000012800D103259DF8000049
:10143000402800D104259DF80000202800D1052572
:101440009DF80000102800D106259DF80100042811
:1014500000D107259DF80100022800D108259DF83C
:101460000100012800D10925284638BD001006409A
:101470002DE9FF4105460E4617464FF001080024AE
:1014800019E0285DFFF710FF0DF8140006EA0800C8
:1014900028B11DF8140040F080000DF814004FEA48
:1014A00048604FEA1068385D012101EB44010DF8F6
:1014B0000100601CC4B2082CE3DB0022102112489A
:1014C000FFF7B1FA402000F021F8102211460E4833
:1014D000FFF7A9FA002210210B48FFF7A4FAC02059
:1014E00000F014F8002405E01DF8040000F00EF8E8
:1014F000601CC4B2102CF7DB102211460248FFF723
:1015000092FABDE8FF8100000010064070B5044665
:1015100020211148FFF741FA00251AE0002201219D
:101520000E48FFF780FA04F0010028B1202211468E
:101530000948FFF778FA04E0002220210648FFF767
:1015400072FA6410012211460448FFF76CFA681C15
:10155000C5B2082DE2DB70BD001006400030064029
:1015600070B5002420211148FFF709FA002518E082
:101570006410002201210E48FFF755FA012211469E
:101580000B48FFF750FA20210848FFF7E7F908B1A8
:1015900044F08004002201210548FFF744FA681C4A
:1015A000C5B2082DE4DB204670BD000000100640E7
:1015B00000300640826912F0200FFBD101607047B5
:1015C000D0F818C01CF0080FFAD1D0F82CC02CF0BD
:1015D000100CC0F82CC0D0F830C02CF0010C2CF44A
:1015E000407CC0F830C0D0F830C0B1EB021F34BF2F
:1015F0004CF0200C2CF0200CC0F830C038BF520842
:10160000C900B1FBF2F1491C49088A09426201F0A4
:101610003F018162C36200218161C16A41F0100112
:10162000C162016B40F20132114301637047000057
:1016300010B52148FFF780FD2048FFF77DFD00BF72
:101640001E48FFF78DFD0028FAD00120FFF764F94E
:1016500040F20140FFF760F903214FF04020FFF70F
:10166000D4F960234FF41642154801681548FFF776
:10167000A7FF1148801DFFF75FFD10480D30FFF7F1
:101680005BFD00BF0D480D30FFF76AFD0028F9D063
:101690000D48FFF741F90D48FFF73EF903210C48CB
:1016A000FFF7B3F960234FF4164205480168094873
:1016B000FFF786FF10BD0000001800F0000800F0E2
:1016C0008C04002000C0004001000D0001040D004A
:1016D000005006400020014070B505460C4604E06D
:1016E00014F8011B2846FFF765FF20780028F7D182
:1016F0000120FEF7EBFF70BD70B5002414E004F18B
:10170000B00000F0CDFB102000F0CAFB002000F07C
:10171000C7FB002504E0002000F0FAFB681CC5B2FE
:10172000842DF8DB601CC4B2092CE8DB70BD00001E
:101730002DE9F04104460D4616461F462EB9E9B282
:10174000E0B23B4626A200F05FF8012E05D1E9B2D7
:10175000E0B23B4623A200F057F8022E05D1E9B2D1
:10176000E0B23B4620A200F04FF8032E05D1E9B2CB
:10177000E0B23B461DA200F047F8042E05D1E9B2C5
:10178000E0B23B461AA200F03FF8052E05D1E9B2BF
:10179000E0B23B4617A200F037F8062E05D1E9B2B9
:1017A000E0B23B4614A200F02FF8072E05D1E9B2B3
:1017B000E0B23B4611A200F027F8082E05D1E9B2AD
:1017C000E0B23B460EA200F01FF8092E05D1E9B2A7
:1017D000E0B23B460BA200F017F8BDE8F081000034
:1017E0003000000031000000320000003300000033
:1017F0003400000035000000360000003700000013
:1018000038000000390000002DE9F04107460E467F
:1018100015469846002475E0285DB02826DB285D33
:10182000F72823DC601C285CA1281FDB285DB0386A
:101830005E2110FB01F036490860601C285C00F254
:10184000AD20096808443249086008460068400134
:1018500008604346324639462D48006800F05CF87F
:10186000A01CC4B206F11000C6B24BE0285DA1284E
:1018700025DB285DA32822DC601C285CA1281EDB58
:10188000285DA1385E2110FB01F021490860601C31
:10189000285CA138096808441D49086008460068AA
:1018A000400108604346324639461948006800F056
:1018B00033F8A01CC4B206F11000C6B222E0285DC5
:1018C00020281DDB285D7E281ADC285D2038104981
:1018D00008600846006800010860084600680D4975
:1018E00008440B49086043463246394608480068B8
:1018F00000F058F8601CC4B206F10800C6B201E05E
:10190000601CC4B2285D002886DCBDE8F0810000C0
:101910004000002080CF03002DE9F04704460E462A
:1019200017469846002210211D48FFF77CF8032037
:1019300000F088FAC4F3074000F084FAC4F30720EB
:1019400000F080FAE0B200F07DFA00251EE0701988
:10195000394600F0D5F84FF0000912E0B8F1000F59
:1019600003D100F065F8824604E000F061F8C0435E
:1019700000F0FF0A504600F0CBFA09F1010000F038
:10198000FF09B9F1100FE9DB681CC5B2022DDEDBDF
:10199000102211460248FFF746F8BDE8F087000024
:1019A000006000402DE9F04704460E461746984671
:1019B000002210211D48FFF736F8032000F042FAFC
:1019C000C4F3074000F03EFAC4F3072000F03AFAEF
:1019D000E0B200F037FA00251EE07019394600F039
:1019E0008FF84FF0000912E0B8F1000F03D100F0BA
:1019F0001FF8824604E000F01BF8C04300F0FF0A25
:101A0000504600F085FA09F1010000F0FF09B9F134
:101A1000080FE9DB681CC5B2022DDEDB102211467F
:101A20000248FFF700F8BDE8F087000000600040C2
:101A300070B50024002516E0002220210C48FEF796
:101A4000F2FF6006040E40210948FEF787FF10B13F
:101A5000601CC4B200E0E4B2202211460448FEF744
:101A6000E2FF681CC5B2082DE6DB204670BD000011
:101A70000060004010B5FFF7D1F8002201211F4897
:101A8000FEF7D1FF6420FFF725F9012211461B481C
:101A9000FEF7C9FF6420FFF71DF9E22000F000FA0D
:101AA0000520FFF717F92C2000F0FAF93220FFF794
:101AB00011F92E2000F0F4F93220FFF70BF92F2056
:101AC00000F0EEF90520FFF705F9232000F0E8F912
:101AD000812000F0E5F9282000F0E2F9A22000F0D2
:101AE000DFF9C82000F0DCF9A02000F0D9F940208F
:101AF00000F0D6F9AF2000F0D3F910BD0010064079
:101B000070B505460C46641E05F1AF0000F0C8F93B
:101B1000C4F3031101F1100000F0C2F904F00F004A
:101B200000F0BEF970BD0000FEF7DAFDAC480068B9
:101B300040F6B831B0FBF1F0C0EB00108400204655
:101B4000FEF7CEFBFFF732FCFFF794FFA5A1A948F3
:101B5000FFF7C2FD4F20FEF769FFA7490880482024
:101B6000FEF764FFA5490880A348B0F900000028EB
:101B700008DAA14800884042A14908800120A14913
:101B8000087006E09C4800889D49088000209D4917
:101B900008709A48B0F90000002808DA97480088D1
:101BA00040429949088001209849087006E093480E
:101BB0000088954908800020944908709048008862
:101BC000642190FBF1F08F4948708D4800880A210C
:101BD00090FBF1F090FBF1F201FB12008949887053
:101BE000874800880A2190FBF1F201FB1200854929
:101BF000C87085480088642190FBF1F083494870E3
:101C0000814800880A2190FBF1F090FBF1F201FB82
:101C100012007E4988707C4800880A2190FBF1F20E
:101C200001FB12007949C870FEF730FD7849086061
:101C30000846006840F6E441484340F6FF71B0FBB7
:101C4000F1F074490860084600684FF47A71B0FBFF
:101C5000F1F00A21B0FBF1F201FB12006E490870AD
:101C60006C4800686421B0FBF1F00A21B0FBF1F28E
:101C700001FB120068494870664800680A21B0FB01
:101C8000F1F0B0FBF1F201FB12006349887061488A
:101C900000680A21B0FBF1F201FB12005E49C87036
:101CA000FFF72AFD00235DA201210846FFF7ACFDE6
:101CB00000235CA201210320FFF7A6FD564802780D
:101CC000002329210120FFF733FD002357A23121F2
:101CD0000120FFF799FD5048427800233921012067
:101CE000FFF726FD4C488278002341210120FFF7B1
:101CF0001FFD4948C278002349210120FFF718FD44
:101D000000234BA251210120FFF77EFD3D480078C2
:101D1000012806D1002347A229210320FFF774FDE3
:101D200005E0002344A229210320FFF76DFD35487B
:101D30004278002331210320FFF7FAFC31488278F2
:101D4000002339210320FFF7F3FC002337A24121B0
:101D50000320FFF759FD2B48C278002349210320B7
:101D6000FFF7E6FC002335A259210320FFF74CFDC5
:101D700026480078012806D100232EA2292105201B
:101D8000FFF742FD05E000232BA229210520FFF7E4
:101D90003BFD1E484278002331210520FFF7C8FC97
:101DA0001A488278002339210520FFF7C1FC00235F
:101DB0001EA241210520FFF727FD1448C278002309
:101DC00049210520FFF7B4FC00231CA2592105205E
:101DD000FFF71AFD03E01A480068FFF719F8FAE761
:101DE0008C04002041542B4652453D3837360D0AAD
:101DF0000000000000200140940400209604002010
:101E00009A0400205D0400209C040020610400204E
:101E1000840400208804002065040020B5E7D1B9BF
:101E20003A000000CEC2B6C83A0000002E00000002
:101E3000560000002D00000020000000A1E6000078
:101E40006C04002070B50446002521E0002220210A
:101E50001148FEF7E8FD0A20FEF756FF04F0800067
:101E600028B1042211460D48FEF7DDFD04E00022F2
:101E700004210A48FEF7D7FD6006040E2022114611
:101E80000548FEF7D0FD0A20FEF73EFF681CC5B2EC
:101E9000082DDBDB70BD0000006000400010064034
:101EA00070B50446002210211648FEF7BCFD002242
:101EB00002211548FEF7B7FD00251BE00022202176
:101EC0001048FEF7B0FD04F0800028B11022114642
:101ED0000E48FEF7A8FD04E0002210210B48FEF793
:101EE000A2FD202211460748FEF79DFD6000044632
:101EF000681CC5B2082DE1DB102211460148FEF72F
:101F000092FD70BD005000400010064000400240AD
:101F100070B50446002210211648FEF784FD022207
:101F200011461548FEF77FFD00251BE00022202109
:101F30001048FEF778FD04F0800028B11022114609
:101F40000E48FEF770FD04E0002210210B48FEF75A
:101F50006AFD202211460748FEF765FD6000044631
:101F6000681CC5B2082DE1DB102211460148FEF7BE
:101F70005AFD70BD00500040001006400040024075
:101F800021F00042A2F16052B2F5801F01F000433F
:101F900028BFD2F17F6C0BD95FEA001C43EAC20272
:101FA00042EB507018BF704728BF20F00100704707
:101FB000B2F5801FBCBF184670474FEA410C1CF5B4
:101FC000001F02D2084600F03AB970B500F0DEF802
:101FD00000000089FFF7F6BF4FF00040A0F5800039
:101FE000704710F0004248BF4042B0FA80F310FA48
:101FF00003F10AD0C3F11D0303F580634FEA41509A
:1020000002EB035202EBD12170474FF00000704702
:10201000B0FA80F310FA03F10AD0C3F11D0303F5FF
:1020200080634FEA41504FEA035202EBD1217047DF
:102030004FF0000070470000DFF848C170B51CEA9F
:10204000111E1EBF1CEA13159EEA0C0F95EA0C0F19
:1020500000F06F8081EA030423EA4C134EEAD47E39
:1020600021EA4C1141F4801143F48013AE44A1FBEA
:10207000024CA0FB0365AEF17F7E361955EB0C05D3
:10208000A1FB034C4CF10003A0FB021C16EB0C0659
:10209000654153F10003094218BF46F0010613F4ED
:1020A000007F0BD14FEA03314FEA0530340341EA98
:1020B000155140EA16506FF003020AE04FEAC321BF
:1020C0004FEAC520F40241EA555140EA56506FF0FC
:1020D000020202EB2E4201EB025585EACE710AD0D4
:1020E0005FEA440C18BF24F0004450F1000041F1B5
:1020F000000120EAD47040F2FE7C624500D270BD3F
:10210000A84214BF4FF080444FF04044002E08BF57
:102110000024BEF1806FA8BFA1F1C041BDE87040AE
:1021200080F282804FF0000001F1C04101F00041D7
:1021300070479EEA0C0F0CEA131518BF95EA0C0FB6
:1021400006D04FF0000081EA030E0EF0004170BD92
:1021500000F01CF88900013E00F007B800F009B853
:102160004FEA430C5FEA5C5C08D081EA030100F0AF
:102170005BB84FEA410C5FEA5C5CF6D14FF00000BF
:10218000014970470000FF070000F87F0EF1020EC2
:102190002EF0030E5EF8046B364205D4012A43EBA1
:1021A000030515F5001F12D8012841EB010C1CF5A1
:1021B000001F0CD80ED14FEAD17C15F5001F0CEB97
:1021C0004C0C0CF1020C08BF4CEBD37C04E04FF03C
:1021D000080C01E04FEAD37C0CEB4C0526FA05F61F
:1021E00006F00706B6F1040C06D20EEB860CBDE82D
:1021F00070404CF0010C6047DFE80CF0090B020264
:102200004FF000414FF00000A1F5002170BD1946CC
:102210001046012851EB010418BFD4F5001484BF07
:10222000002001F0004170BD0808A0F500114FEA40
:10223000310170474FF04070E1EE100A7047FF2106
:1022400041EAD050C0057047004000401000000037
:102250000080054010000000005000401100000008
:1022600000900540110000000060004012000000D6
:1022700000A00540120000000070004013000000A4
:1022800000B00540130000000040024014000000B0
:1022900000C0054014000000005002402E00000065
:1022A00000D005402E000000006002402F0000001A
:1022B00000E005402F0000000070024030000000E8
:1022C00000F005403000000000D003404600000050
:1022D00000000640460000000010064047000000D5
:1022E0000020064048000000003006407F0000004B
:1022F00000400640800000000050064084000000BE
:10230000006006408C00000000400040100000000B
:102310000080054010000000005000401100000047
:102320000090054011000000006000401200000015
:1023300000A00540120000000070004013000000E3
:1023400000B00540130000000040024014000000EF
:1023500000C0054014000000005002402E000000A4
:1023600000D005402E000000006002402F00000059
:1023700000E005402F000000007002403000000027
:1023800000F005403000000000D003404300000092
:10239000000006404300000000100640440000001A
:1023A00000200640450000000030064058000000B4
:1023B0000040064059000000005006405C0000004C
:1023C0000060064064000000007006406C000000E1
:1023D000008006406D000000009006407F00000075
:1023E0000040004000800540005000400090054043
:1023F0000060004000A005400070004000B00540B3
:102400000040024000C005400050024000D005409E
:102410000060024000E005400070024000F005400E
:1024200000D00340000006400010064000100640A7
:1024300000200640002006400030064000300640E4
:102440000040064000400640005006400050064054
:1024500000600640006006400070064000700640C4
:102460000080064000800640009006400090064034
:1024700000688909001C4E0E40420F0000201C001D
:1024800080841E0000802500999E360000403800A0
:1024900000093D0000803E0000004B00404B4C0016
:1024A00000204E00808D5B0000C05D000080700049
:1024B00000127A0000007D0080969800001BB70093
:1024C0000080BB00C0E8CE00647ADA000024F4008B
:1024D0000000FA0080A81201002D310100366E01C3
:1024E00040787D0140000000000000000001000075
:1024F0003E0008000000000000010000A0000000F5
:10250000020000000001000034540100000000003F
:10251000000100002B700600000000000001000018
:10252000280000000000000000010000270001005A
:10253000000000000001000020000000000000007A
:102540000001000050000000020000000001000037
:102550001AAC000000000000000100001794090000
:1025600000000000000100001698050000000000B7
:102570000001000014000000000000000001000045
:10258000138008000000000000010000A00000000F
:102590000800000000010000100000000000000022
:1025A00000010000280000000200000000010000FF
:1025B0004000000004000000000100006000000076
:1025C00000000000000100005D000C0000000000A1
:1025D00000010000500000000000000000010000A9
:1025E0004E000200000000000001000041AC0100AC
:1025F00000000000000100003C000000000000009E
:10260000000100003A800900000000000001000005
:102610003000000000000000000100002800000061
:102620000000000000010000270001000000000081
:10263000000100002360060000000000000100000F
:102640002160080000000000000100001E000000E2
:1026500000000000000100001DC004000000000098
:102660000001000050000000020000000001000016
:10267000180000000000000000010000140000002D
:1026800000000000000100006000000004000000E5
:10269000000100000024F40030003000005A620203
:1026A0009100910000879303D200D20000B4C404CB
:1026B0001301130100E1F50554015401000E270731
:1026C00095019501E426000000000020A40400000C
:1026D0003C020000AC280000A404002064020000BA
:1026E0009802000011300EFE8242A29E8A82868AE3
:1026F000B26202FE1C7F404003190129092118091A
:10270000808080BFA5A5A53F041ABF0C1178087F63
:1027100024243F24247F08410A1DFF01B0087F3F85
:102720001F0F070301194A1AC0011808207060FE24
:10273000FEAEFE77900BF8F8B8F8D080C0E0C0800D
:10274000080D1E0103070F1F3F7FFFFFFBF1F06223
:10275000091A01A978111D98B8BEBF01180ABBBBA0
:10276000BBB9B91110B890BC2CFAFFFFC3D00DFA59
:10277000FF1D01071D7FFBFEF8E0C01A0187093A23
:1027800080D18B193B011511103B112A3F012129E2
:10279000064A10F6F60F1F1F1F0C093F802F7CFE04
:1027A000FFFF07070F080C197F3F8FC3F0FC3F0E98
:1027B000C2F0FC351B7F7F910809419FDFFFDF9F3F
:1027C0000F0F0F8081100880E0F87E1F0703380884
:1027D00008193979F9F999011A9F01180D9B9999EE
:1027E000F9F979391F0F0703010161567FE1E1E132
:1027F0007F093D8052801CC0F0FC7C195CB80A80C7
:10280000C0E0F0B83C3E3F390148093B3F3E3CF850
:10281000F0E0C02D410E40F81C1F1CF880581C022F
:102820000F3F3F7E7EFEFFFFFBF1F060E0F01010F7
:10283000D3D393131393D3D353530A2A530A59135D
:102840005753D3D01030F01E0306040607AF0B3ADF
:10285000E0F0803BFFFED6280F808081838381805B
:10286000BFFFE0E0E0EFEF04180AEBEAEAEBEFE588
:10287000E0E0EB092AEA133AE7131EEEEEE0E0BFD0
:102880002F1901080A1DC0E0F0F8FCFFFF9F9FE22E
:10289000715A20014B4401010110230B0212012B3C
:0C28A00001070461F92301121324F40065
:0400000500000201F4
:00000001FF
