:020000040000FA
:1000000070020020A1020000A9020000AB02000063
:10001000AD020000AF020000B102000000000000CD
:10002000000000000000000000000000B30200001B
:10003000B502000000000000B7020000B902000095
:10004000BB020000BD020000BF020000C1020000B0
:10005000C3020000C5020000C7020000C902000080
:10006000CB020000CD020000CF020000D102000050
:10007000D3020000D5020000D7020000D902000020
:10008000DB020000DD020000DF020000E1020000F0
:10009000E3020000E5020000E7020000E9020000C0
:1000A000EB020000ED020000EF020000F102000090
:1000B000F3020000F5020000F7020000F902000060
:1000C000FB020000FD020000FF020000010300002F
:1000D00003030000050300000703000009030000FC
:1000E0000B0300000D0300000F03000011030000CC
:1000F000130300001503000017030000190300009C
:100100001B0300001D0300001F030000210300006B
:10011000230300002503000027030000290300003B
:100120002B0300002D0300002F030000310300000B
:1001300033030000350300003703000039030000DB
:100140003B0300003D0300003F0300005903000093
:1001500000000000000000005B0300005D030000E1
:100160005F03000061030000000000006303000063
:100170006503000067030000690300006B030000D3
:100180006D0300006F0300007103000073030000A3
:100190007503000077030000790300007B03000073
:1001A0007D0300007F030000810300008303000043
:1001B0008503000087030000890300008B03000013
:1001C0008D0300008F0300009103000093030000E3
:1001D0009503000097030000990300009B030000B3
:1001E0009D0300009F030000A1030000A303000083
:1001F000A5030000A7030000A9030000AB03000053
:1002000000F002F800F03CF80AA090E8000C8244EC
:100210008344AAF10107DA4501D100F031F8AFF2C9
:10022000090EBAE80F0013F0010F18BFFB1A43F0D4
:10023000010318473411000054110000103A24BF84
:1002400078C878C1FAD8520724BF30C830C144BF3B
:1002500004680C607047000000230024002500267D
:10026000103A28BF78C1FBD8520728BF30C148BF19
:100270000B6070471FB500F01BFE1FBD10B510BD11
:1002800000F0A7F81146FFF7F5FF00F0CFFD00F0F2
:10029000C5F803B4FFF7F2FF03BC00F0CDF800008F
:1002A0004548804745480047FEE7FEE7FEE7FEE792
:1002B000FEE7FEE7FEE7FEE7FEE7FEE7FEE7FEE716
:1002C000FEE7FEE7FEE7FEE7FEE7FEE7FEE7FEE706
:1002D000FEE7FEE7FEE7FEE7FEE7FEE7FEE7FEE7F6
:1002E000FEE7FEE7FEE7FEE7FEE7FEE7FEE7FEE7E6
:1002F000FEE7FEE7FEE7FEE7FEE7FEE7FEE7FEE7D6
:10030000FEE7FEE7FEE7FEE7FEE7FEE7FEE7FEE7C5
:10031000FEE7FEE7FEE7FEE7FEE7FEE7FEE7FEE7B5
:10032000FEE7FEE7FEE7FEE7FEE7FEE7FEE7FEE7A5
:10033000FEE7FEE7FEE7FEE7FEE7FEE7FEE7FEE795
:10034000FEE7FEE7FEE7FEE7FEE7FEE7FEE7FEE785
:10035000FEE7FEE7FEE7FEE7FEE7FEE7FEE7FEE775
:10036000FEE7FEE7FEE7FEE7FEE7FEE7FEE7FEE765
:10037000FEE7FEE7FEE7FEE7FEE7FEE7FEE7FEE755
:10038000FEE7FEE7FEE7FEE7FEE7FEE7FEE7FEE745
:10039000FEE7FEE7FEE7FEE7FEE7FEE7FEE7FEE735
:1003A000FEE7FEE7FEE7FEE7FEE7FEE70448054955
:1003B000034A054B704700008D0A0000010200004F
:1003C000700000207002002070000020704770470D
:1003D0007047754600F02CF8AE4605006946534656
:1003E00020F00700854618B020B5FFF7DFFFBDE815
:1003F00020404FF000064FF000074FF000084FF08C
:10040000000B21F00701AC46ACE8C009ACE8C0091C
:10041000ACE8C009ACE8C0098D46704710B5044689
:10042000AFF300802046BDE81040FFF732BF000068
:10043000004870471000002001491820ABBEFEE7BD
:100440002600020070474FF47A625043002100E01A
:10045000491C8142FCD37047D0F8003412F0010FE0
:1004600014BF0B438B43C0F8003412F0020FD0F8D6
:10047000202414BF114322EA0101C0F82014704760
:1004800010B5114800F0C2FA00BF0F4800F0E8FABA
:100490000028FAD00C48C01C00F0B8FA00BF0A4887
:1004A000C01C00F0DDFA0028F9D00121074800F057
:1004B000E0F80121064800F0CEF80A230122114697
:1004C000034800F007F810BD050800F00050024096
:1004D00000D003402DE9F00301264FF0000C032566
:1004E000C2F3411706FA0CF40C4211D0D0F8C48FB5
:1004F0004FEA4C0405FA04F928EA0908C0F8C48F49
:10050000D0F8C48F07FA04F448EA0404C0F8C44FD2
:100510000CF1010C0CF0FF0CBCF1080FE2D3D0F889
:1005200000C512F0010F14BF4CEA010C2CEA010CBB
:10053000C0F800C5D0F804C512F0020F14BF4CEA91
:10054000010C2CEA010CC0F804C5D0F808C512F063
:10055000040F14BF4CEA010C2CEA010CC0F808C5CA
:10056000D0F818C512F0080F14BF4CEA010C2CEAA1
:10057000010CC0F818C512F0100FD0F83C2514BFBC
:100580000A438A43C0F83C25D0F80C2513F0010F2C
:1005900014BF0A438A43C0F80C25D0F8102513F085
:1005A000020F14BF0A438A43C0F81025D0F814255F
:1005B00013F0040F14BF0A438A43C0F81425D0F87F
:1005C0001C2513F0080F14BF0A438A43C0F81C25EA
:1005D000D0F8442513F4007F14BF0A438A43C0F8BF
:1005E0004425D0F8402513F4407F14BF0A438A43C2
:1005F000C0F84025D0F82825002B0CBF114322EA73
:100600000101C0F82815BDE8F00370470E4AC0F399
:100610000741D26E01238B401A420C4A1ABF02EBEB
:10062000C101496852F83110020AD1F82C354FF057
:100630000F0C0CFA02FC00F00F0023EA0C039040B0
:100640001843C1F82C05704700E00F4070100000FF
:1006500050F82100704730B50C4605460022FFF7E0
:10066000FBFE21462846BDE8304008230122FFF763
:1006700031BF30B50C46054608230122FFF72AFF9B
:1006800021462846BDE830400122FFF7E5BE30B5DF
:100690000C4605460222FFF7DFFE21462846BDE84C
:1006A000304008230122FFF715BF40F82120704792
:1006B00010B50D4800F0AAF90120FFF7A7FF40F29E
:1006C0000140FFF7A3FF094800F0A0F903214FF014
:1006D0004020FFF7DCFF06484FF4E13102680020BC
:1006E00000F02CFA10BD0000000800F0001800F027
:1006F0000800002070B505460DB9642401E041F200
:100700007074012211460748FFF7CFFF2046FFF71C
:100710009AFE002201210348FFF7C7FF2046FFF79A
:1007200092FE70BD005002402DE9F003AD4D02462F
:100730002868AD4B1840A0F18053B3F5A02358D0E2
:1007400002F03809DFF8A482C2F38414B9F1100F63
:1007500024D0B9F1300F04BF47F230504FF40013EA
:100760000CD03820904304BF4FF40040C30105D0A3
:1007700012F0380F1CBF0020034613D09C4F12F418
:10078000605F4FF0000618BF00222CD057F83240AF
:1007900044457DD307EBC2025268DFE000234046A8
:1007A0001524EBE7A4F10900122822D29148D5F8CC
:1007B0007CC04FF04C7350F824002CF01C0C072C1C
:1007C000A8BF4CF0100CC5F87CC02E6D4FF4002C67
:1007D00016F4807FD2D1BCF1010C0AD02E6D16F434
:1007E000807FF8D0CAE712F0380F18BFB9F1100FA8
:1007F00003D0BDE8F00300207047C2F30268DFF8C1
:10080000F8C1002257F83290E14503D307EBC2024A
:10081000526803E0521C062AF4D33246C5F8C020C1
:10082000D5F8B020DFF8D4C102EA0C0242F0004251
:10083000C5F8B020DFF8C8C1A4F109024C1E5CF86D
:1008400028C0A444BCFBF1FCD5F8B0101943C5F88E
:10085000B01008EBC80101EB41046A4902EB420207
:1008600001EBC40101EB82046468C5F86441D5F86A
:1008700064416FF0FF0808EB0C2C44EA0C0CC5F83F
:1008800064C151F82210D5F8602102F4000200E0A2
:100890005FE01143C5F86011D5F86011D5F860210B
:1008A000C1F38921C2F30904D5F86421C2F30422FB
:1008B00002F1010CD5F8642102F01F02521CB0FBBA
:1008C000F2F04A09C2F100084443424301EB4811E7
:1008D00004EB5212484302EB9020B0FBFCF04108BD
:1008E0000846002257F832C0844503D307EBC20004
:1008F000466802E0521C062AF4D3C5F8C060D5F859
:10090000600110F4000F1DBFD5F8B00040F080402A
:10091000C5F8B000D5F8600104BF40F40000C5F888
:1009200060014FF40040D5F8682112F0010F02D1A8
:10093000401E0028F7DC002808BF002148D0D5F869
:10094000B000184340F0010040F01040C5F8B0007E
:100950003EE0521C062AFFF419AF3246C5F8C0200B
:10096000D5F8602122F40002C5F86021D5F8B02046
:10097000DFF894C002EA0C0242F00042C5F8B02051
:10098000002908BF4FF0000C0AD0B0FBF1FCBCF10D
:10099000000F18BFACF1010C0CF10101B0FBF1F13B
:1009A0000846002257F83240844203D307EBC200C6
:1009B000466802E0521C062AF4D3C5F8C060D5F898
:1009C000B00043EA8C22104340F00040C5F8B0006C
:1009D000D5F8B00020F47000C5F8B000BDE8F00311
:1009E0000846704700E00F400000FF700024F4004C
:1009F000241300000811000040787D0100FC0FE086
:100A00000011000074110000FF0300EFC0F3072382
:100A10000749C0B2194401F07043C1F3130143EA1E
:100A2000411141EA800040F00070012202607047ED
:100A300000E60F40C0F307220849C0B2114401F09C
:100A40007042C1F3130142EA411141EA800040F0D3
:100A500000700068002818BF0120704700E30F40B5
:100A6000C0F307220849C0B2114401F07042C1F33B
:100A7000130142EA411141EA800040F00070006831
:100A8000002818BF0120704700EA0F4004480068A2
:100A900040F470000249086002480349086070474A
:100AA00088ED00E00024F4000C000020826912F0C0
:100AB000200FFBD101607047D0F818C01CF0080F60
:100AC000FAD1D0F82CC02CF0100CC0F82CC0D0F803
:100AD00030C02CF0010C2CF4407CC0F830C0D0F8B1
:100AE00030C0B1EB021F34BF4CF0200C2CF0200CB6
:100AF000C0F830C038BF5208C900B1FBF2F1491C40
:100B000049088A09426201F03F018162C362002103
:100B10008161C16A41F01001C162016B40F2013292
:100B2000114301637047C16A41F01001C162016B5A
:100B300040F20132114301637047000070B5044672
:100B40000D4616460E4951F82400FFF773FF00B911
:100B500070BD0C4850F824000B490860084951F852
:100B60002400FFF753FF60232A46314606480068F9
:100B7000FFF7A2FF04480068FFF7D5FF00BFE7E7D3
:100B8000CC0E0000C00E0000000000200FB408B51D
:100B900003A800900099029800F006F80020009049
:100BA00001B05DF814FB00002DE9F34F85B0064657
:100BB00012E1002400E0641C305D252802D0305D85
:100BC0000028F8D12146304600F016F92644307846
:100BD0002528EDD1761C00254FF0200B00BF16F81C
:100BE000011B382932D014DC33292AD008DC25290E
:100BF0006FD0302922D0312921D032296AD11FE08B
:100C000034291FD035291ED036291DD03729F5D1DA
:100C10001BE0692935D008DC392918D0582972D051
:100C2000632922D06429E9D12AE070296CD0732984
:100C30003CD0752958D07829E0D163E000BF00BFCF
:100C400000BF00BF00BF00BF00BF00BF00BF16F85D
:100C5000010C302801D105B9834605EB850045001C
:100C600016F8010C30380544B9E70698006804907E
:100C70000698001D0690012104A800F0BDF8AAE026
:100C800000BF0698006804900698001D06904FF07B
:100C900000080498002805DA0498404204904FF0B8
:100CA000010901E04FF000090A2739E0069850F8E1
:100CB00004AB0690002400E0641C1AF8040000282D
:100CC000FAD12146504600F097F8A5420BD92D1BCA
:100CD00005E076E07AE0012143A000F08DF8281EBF
:100CE000A5F10105F7D176E0069800680490069812
:100CF000001D06904FF000080A274FF000090FE092
:100D000001E001E000BF00BF06980068049006986B
:100D1000001D06904FF0000810274FF0000900BF9B
:100D2000012401E07C436D1E04FB07F00499884216
:100D300005D804FB07F0B0FBF7F0A042F2D0B9F100
:100D4000000F00D06D1EB9F1000F0AD0BBF1300FBB
:100D500007D12D22404608F101080DF800204FF080
:100D60000009012D0BD9102D09D26D1E05E040465A
:100D700008F101080DF800B06D1E002DF7D1B9F192
:100D8000000F05D02D22404608F101080DF8002083
:100D900010E00498B0FBF4F0B0FBF7F107FB110092
:100DA000124909680A5C404608F101080DF8002064
:100DB000B4FBF7F4002CECD14146684600F01CF877
:100DC00009E0701E012100F017F804E0052108A0D9
:100DD00000F012F800BF00BF307800287FF4E9AEC1
:100DE00007B0BDE8F08F000020000000BC0E00003E
:100DF0004552524F5200000070B505460E46002481
:100E00000DE0285D0A2804D10D2107480068FFF78E
:100E10004DFE295D04480068FFF748FE641CB4429B
:100E2000EFD3204670BD0000000000200F4910489D
:100E3000FFF77AFC0F490860FFF722FBFFF738FC49
:100E40000DA0FFF7A3FE0B4801680FA0FFF79EFE61
:100E50000BE001211248FFF7FBFBC4B2214611A0B1
:100E6000FFF794FE2046FFF745FCF2E7002D310125
:100E7000800600F10800002048656C6C6F20457604
:100E80006572796F6E650A0053797374656D2043DE
:100E90006C6F636B203D20256420487A0A000000B7
:100EA00000D00340504A313D2025640A0000000074
:100EB0004FF04070E1EE100A70470000541300003C
:100EC00000C0004000D0004000E00040001800F0EA
:100ED000011800F0021800F000400040100000006F
:100EE000008005401000000000500040110000008C
:100EF000009005401100000000600040120000005A
:100F000000A0054012000000007000401300000027
:100F100000B0054013000000004002401400000033
:100F200000C0054014000000005002402E000000E8
:100F300000D005402E000000006002402F0000009D
:100F400000E005402F00000000700240300000006B
:100F500000F005403000000000D0034046000000D3
:100F60000000064046000000001006404700000058
:100F70000020064048000000003006407F000000CE
:100F80000040064080000000005006408400000041
:100F9000006006408C00000000400040100000008F
:100FA00000800540100000000050004011000000CB
:100FB0000090054011000000006000401200000099
:100FC00000A0054012000000007000401300000067
:100FD00000B0054013000000004002401400000073
:100FE00000C0054014000000005002402E00000028
:100FF00000D005402E000000006002402F000000DD
:1010000000E005402F0000000070024030000000AA
:1010100000F005403000000000D003404300000015
:10102000000006404300000000100640440000009D
:101030000020064045000000003006405800000037
:101040000040064059000000005006405C000000CF
:101050000060064064000000007006406C00000064
:10106000008006406D000000009006407F000000F8
:1010700000400040008005400050004000900540C6
:101080000060004000A005400070004000B0054036
:101090000040024000C005400050024000D0054022
:1010A0000060024000E005400070024000F0054092
:1010B00000D003400000064000100640001006402B
:1010C0000020064000200640003006400030064068
:1010D00000400640004006400050064000500640D8
:1010E0000060064000600640007006400070064048
:1010F00000800640008006400090064000900640B8
:1011000000688909001C4E0E40420F0000201C00A0
:1011100080841E0000802500999E36000040380023
:1011200000093D0000803E0000004B00404B4C0099
:1011300000204E00808D5B0000C05D0000807000CC
:1011400000127A0000007D0080969800001BB70016
:101150000080BB00C0E8CE00647ADA000024F4000E
:101160000000FA0080A81201002D310100366E0146
:1011700040787D01400000000000000000010000F8
:101180003E0008000000000000010000A000000078
:1011900002000000000100003454010000000000C3
:1011A000000100002B70060000000000000100009C
:1011B00028000000000000000001000027000100DE
:1011C00000000000000100002000000000000000FE
:1011D00000010000500000000200000000010000BB
:1011E0001AAC000000000000000100001794090084
:1011F000000000000001000016980500000000003B
:1012000000010000140000000000000000010000C8
:10121000138008000000000000010000A000000092
:1012200008000000000100001000000000000000A5
:101230000001000028000000020000000001000082
:1012400040000000040000000001000060000000F9
:1012500000000000000100005D000C000000000024
:10126000000100005000000000000000000100002C
:101270004E000200000000000001000041AC01002F
:1012800000000000000100003C0000000000000021
:10129000000100003A800900000000000001000089
:1012A00030000000000000000001000028000000E5
:1012B0000000000000010000270001000000000005
:1012C0000001000023600600000000000001000093
:1012D0002160080000000000000100001E00000066
:1012E00000000000000100001DC00400000000001C
:1012F000000100005000000002000000000100009A
:1013000018000000000000000001000014000000B0
:101310000000000000010000600000000400000068
:10132000000100000024F40030003000005A620286
:101330009100910000879303D200D20000B4C4044E
:101340001301130100E1F50554015401000E2707B4
:101350009501950130313233343536373839616291
:101360006364656600000000881300000000002030
:10137000100000003C020000981300001000002044
:1013800060020000580200000000000000000000A1
:08139000000000000024F4003D
:0400000500000201F4
:00000001FF
