:020000040000FA
:10000000600A002009030000110300001303000030
:100010001503000017030000190300000000000092
:100020000000000000000000000000001B030000B2
:100030001D030000000000001F030000291900003C
:10004000230300002503000027030000290300000C
:100050002B0300002D0300002F03000031030000DC
:1000600033030000350300003703000039030000AC
:100070003B0300003D0300003F030000410300007C
:10008000430300004503000047030000490300004C
:100090004B030000B91A00004F0300005103000099
:1000A00053030000550300005703000059030000EC
:1000B0005B0300005D0300005F03000061030000BC
:1000C000630300006503000067030000690300008C
:1000D0006B0300006D0300006F030000710300005C
:1000E000730300007503000077030000790300002C
:1000F0007B0300007D0300007F03000081030000FC
:1001000083030000850300008703000089030000CB
:100110008B0300008D0300008F030000910300009B
:10012000930300009503000097030000990300006B
:100130009B0300009D0300009F030000A10300003B
:10014000A3030000A5030000A7030000C1030000F3
:100150000000000000000000C3030000C503000011
:10016000C7030000C903000000000000CB0300002B
:10017000CD030000CF030000D1030000D303000033
:10018000D5030000D7030000D9030000DB03000003
:10019000DD030000DF030000E1030000E3030000D3
:1001A000E5030000E7030000E9030000EB030000A3
:1001B000ED030000EF030000F1030000F303000073
:1001C000F5030000F7030000F9030000FB03000043
:1001D000FD030000FF030000010400000304000011
:1001E0000504000007040000090400000B040000DF
:1001F0000D0400000F0400001104000013040000AF
:1002000000F002F800F05CF80AA090E8000C8244CC
:100210008344AAF10107DA4501D100F051F8AFF2A9
:10022000090EBAE80F0013F0010F18BFFB1A43F0D4
:10023000010318472C2A00004C2A00000A444FF002
:10024000000C10F8013B13F0070408BF10F8014B35
:100250001D1108BF10F8015B641E05D010F8016B7A
:10026000641E01F8016BF9D113F0080F1EBF10F8DE
:10027000014BAD1C0C1B09D16D1E58BF01F801CB01
:10028000FAD505E014F8016B01F8016B6D1EF9D584
:100290009142D6D370470000002300240025002699
:1002A000103A28BF78C1FBD8520728BF30C148BFD9
:1002B0000B6070471FB502F00AFA1FBD10B510BDE4
:1002C00000F0BBF81146FFF7F5FF02F0A5F800F0CB
:1002D000D9F803B4FFF7F2FF03BC00F0E1F8000027
:1002E000EFF3108072B67047EFF310807047EFF3B2
:1002F000108062B6704730BF704780F31188704736
:10030000EFF311807047000045488047454800479B
:10031000FEE7FEE7FEE7FEE7FEE7FEE7FEE7FEE7B5
:10032000FEE7FEE7FEE7FEE7FEE7FEE7FEE7FEE7A5
:10033000FEE7FEE7FEE7FEE7FEE7FEE7FEE7FEE795
:10034000FEE7FEE7FEE7FEE7FEE7FEE7FEE7FEE785
:10035000FEE7FEE7FEE7FEE7FEE7FEE7FEE7FEE775
:10036000FEE7FEE7FEE7FEE7FEE7FEE7FEE7FEE765
:10037000FEE7FEE7FEE7FEE7FEE7FEE7FEE7FEE755
:10038000FEE7FEE7FEE7FEE7FEE7FEE7FEE7FEE745
:10039000FEE7FEE7FEE7FEE7FEE7FEE7FEE7FEE735
:1003A000FEE7FEE7FEE7FEE7FEE7FEE7FEE7FEE725
:1003B000FEE7FEE7FEE7FEE7FEE7FEE7FEE7FEE715
:1003C000FEE7FEE7FEE7FEE7FEE7FEE7FEE7FEE705
:1003D000FEE7FEE7FEE7FEE7FEE7FEE7FEE7FEE7F5
:1003E000FEE7FEE7FEE7FEE7FEE7FEE7FEE7FEE7E5
:1003F000FEE7FEE7FEE7FEE7FEE7FEE7FEE7FEE7D5
:10040000FEE7FEE7FEE7FEE7FEE7FEE7FEE7FEE7C4
:10041000FEE7FEE704480549034A054B7047000024
:10042000991A00000102000060080020600A002004
:1004300060080020704770477047754600F02CF840
:10044000AE4605006946534620F00700854618B0C1
:1004500020B5FFF7DFFFBDE820404FF000064FF06A
:1004600000074FF000084FF0000B21F00701AC46E9
:10047000ACE8C009ACE8C009ACE8C009ACE8C00908
:100480008D46704710B50446AFF300802046BDE8A6
:100490001040FFF71EBF0000004870470008002012
:1004A00001491820ABBEFEE726000200704700009D
:1004B00010B500233FA20121032001F013FE002309
:1004C0003E4A5121032001F00DFE00233C4A5921F0
:1004D000032001F007FE00233AA26121032001F06E
:1004E00001FE0023384A6921032001F0FBFD0023AF
:1004F00036A27121032001F0F5FD3548007801286E
:1005000013D03448007801280FD0334800780128F0
:100510000BD032480078012807D0314800780128F4
:1005200003D030480078012843D1002028490870C2
:100530002849087028490870284908702849087017
:100540002849087001F0B2FD002327A201210846C6
:1005500001F0C8FD0123264A2921184601F0C2FDF9
:100560000023244A3121012001F0BCFD0023224A4E
:100570003921012001F0B6FD002312A24121012002
:1005800001F0B0FD00231D4A4921012001F0AAFD20
:1005900000231BA25121012001F0A4FD002319A278
:1005A0006121072001F09EFD0120184908701849BB
:1005B000086010BDCEC2B6C8A3BA0000B4040020C3
:1005C000B60400202E000000B8040020A1E60000C0
:1005D000A3040020A00400209F040020A104002008
:1005E000A2040020A4040020D4D8C6B5A3BA0000F9
:1005F000BA040020BC040020BE040020C004002077
:100600004D487A00C8B7B6A800000000C204002018
:10061000A804002010B5FA48007800285CD000201B
:10062000F7490870F7480078062854D2DFE800F050
:100630005303132333430023F34A2921012001F0FC
:1006400051FD0123F14A3121184601F04BFD0220F2
:10065000EC4908703FE00023EC4A3121012001F011
:1006600041FD0123EA4A3921184601F03BFD0320F0
:10067000E44908702FE00023E54A3921012001F008
:1006800031FD0123E34A4921184601F02BFD0420E6
:10069000DC4908701FE00023DE4A4921012001F0F7
:1006A00021FD0123DCA26121072001F01BFD0520B3
:1006B000D44908700FE00023D7A26121072001F080
:1006C00011FD0123D04A2921184601F00BFD01201C
:1006D000CC49087000BFD7E1D148007800285CD031
:1006E0000020CF490870C7480078062854D2DFE8B8
:1006F00000F05303132333430023C34A292101206D
:1007000001F0F0FC0123C4A26121072001F0EAFC02
:100710000520BC4908703FE00023BC4A312101207C
:1007200001F0E0FC0123B84A2921184601F0DAFC67
:100730000120B44908702FE00023B54A3921012077
:1007400001F0D0FC0123B14A3121184601F0CAFC66
:100750000220AC4908701FE00023AE4A4921012065
:1007600001F0C0FC0123AA4A3921184601F0BAFC65
:100770000320A44908700FE00023A7A261210720ED
:1007800001F0B0FC0123A34A4921184601F0AAFC5C
:1007900004209C49087000BF76E1A248007870B33D
:1007A0000020A049087097480078012809D196498F
:1007B00001F0C2FD0123944A2921184601F092FC60
:1007C00062E19048007802280AD19049012001F0A6
:1007D000B3FD01238D4A3121184601F083FC53E11A
:1007E0008848007803280BD18949012001F0A4FD35
:1007F0000123874A3921184601F074FC44E10EE0D8
:10080000804800780428C7D18249012001F094FD76
:100810000123804A4921184601F064FC34E18248F2
:10082000007870B30020804908707648007801286D
:100830000AD17549022001F07FFD0123724A292166
:10084000184601F04FFC1FE16E480078022809D1DC
:100850006E4901F071FD01236C4A3121184601F007
:1008600041FC11E16748007803280BD16849022058
:1008700001F062FD0123664A3921184601F032FC7D
:1008800002E10EE05F480078042885D1614902202A
:1008900001F052FD01235F4A4921184601F022FC74
:1008A000F2E06248007800287DD000205F4908709F
:1008B00054480078052892D1564B554A534952481E
:1008C00001F0AEFB5A48007801286DD14E480078FF
:1008D00030282FD14121574801F036FB542155488B
:1008E00001F032FB2B21534801F02EFB46215148E9
:1008F00001F02AFB52214F4801F026FB45214D48CB
:1009000001F022FB51214B4801F01EFB3D214948DB
:1009100001F01AFB3D480178464801F015FB3C48C0
:100920000178444801F010FB3A480178414801F051
:100930000BFB37E034480078312833D141213D4862
:1009400001F002FB54213B4801F0FEFA2B2139480B
:1009500001F0FAFA4621374801F0F6FA52213548FB
:1009600001F0F2FA4521334801F0EEFA5121314805
:1009700001F0EAFA3D212F4801F0E6FA2248017819
:100980002C4801F0E1FA214801782A4801F0DCFA0C
:100990001F480178274801F0D7FA1E4801782548FA
:1009A00001F0D2FA01E069E056E001F07FFB00239C
:1009B00021A20121032001F095FB0023204A5121AF
:1009C000032001F08FFB00231E4A5921032001F070
:1009D00089FB00231CA26121032001F083FB00237B
:1009E0001A4A6921032001F07DFB002318A271211E
:1009F000032001F077FB00201649086044E0000066
:100A00009F040020C2040020BA040020BC0400207F
:100A1000BE040020C0040020C8B7B6A80000000033
:100A2000A0040020A1040020A2040020A3040020B0
:100A3000C304002000200140CEC2B6C8A3BA000003
:100A4000B4040020B60400202E000000B8040020EA
:100A5000A1E60000A80400200C480078A0B90120FD
:100A60000B49087001F022FB00230AA2012108466D
:100A700001F038FB02200B49086005E00A480078C5
:100A800010B100200849087010BD0000C304002008
:100A9000C4040020C6B5C2CAB3ACB7B6CEA7A3A1E2
:100AA00000000000A8040020A404002010B51F4886
:100AB0000068012839D100201C49086001F0F6FACD
:100AC00000231BA20121084601F00CFB01231A4A56
:100AD0002921184601F006FB0023184A3121012084
:100AE00001F000FB0023164A3921012001F0FAFA37
:100AF000002314A24121012001F0F4FA0023124A3C
:100B00004921012001F0EEFA002310A25121012019
:100B100001F0E8FA00230EA26121072001F0E2FAB9
:100B200001200D4908700D49086010BD880400209F
:100B3000D4D8C6B5A3BA0000BA040020BC04002073
:100B4000BE0400202E000000C00400204D487A00A2
:100B5000C8B7B6A800000000C2040020A804002006
:100B600010B50F4800F092FE0E4800F08FFE0221F3
:100B70000D4800F046FA00231A4603210B4800F006
:100B80001CF8622300220321084800F04DF80321DD
:100B9000064800F042F80321044800F009F810BDAF
:100BA000003800F0040800F00040024000800340DC
:100BB000012202FA01F1C160704730B44469890032
:100BC0004FF00F0C0CFA01FC02F00F0524EA0C04A4
:100BD0008D402C434461046A03F0030324EA0C0CA7
:100BE00003FA01F14CEA0101016202F00F018B1FCF
:100BF000032B84BF30BC7047C900C3694FF0300C71
:100C000030390CFA01FC02F0300223EA0C0302FA3C
:100C100001F11943C16130BC70470268012303FA36
:100C200001F111430160704710B400EB41109100D5
:100C300050F840CF0F228A4003F00F042CEA020C38
:100C40008C404CEA040CC0F800C0D0F818C0C3F3C4
:100C500003242CEA020C8C404CEA040CC0F818C0A7
:100C6000D0F804C0C3F303142CEA020C8C404CEA05
:100C7000040CC0F804C0D0F81CC0C3F303542CEA21
:100C8000020C8C404CEA040CC0F81CC013F4702F0A
:100C90004FF001040DD0D0F814C0C3F302432CEA86
:100CA00002028B401A434261026904FA01F11143C6
:100CB00004E0026904FA01F122EA0101016110BCB9
:100CC000704700000E48007801280BD00C480078CF
:100CD000032807D00A480078072803D0084800787E
:100CE000092809D107480078012801D10649087070
:100CF00000200449087002E0012002490870704792
:100D0000C50400209D040020A404002008480078A9
:100D1000082809D107480078012801D10649087040
:100D200000200449087002E0012002490870704761
:100D3000C50400209B040020A204002010B5144923
:100D4000144800F031FC1449086000F063F8FFF724
:100D500007FF00F0CDFD01F035F900F0C5FA01F014
:100D600053F840F2D24000F0A5FB01F077F800F014
:100D700035F800F02BF80021252000F0BDFA012104
:100D8000232000F0B9FAE0210F2000F0B5FA10BDE1
:100D9000002D3101800600F1580400200848007839
:100DA000052809D107480078012801D106490870B3
:100DB00000200449087002E00120024908707047D1
:100DC000C50400209C040020A30400200248016800
:100DD00041F470010160704788ED00E0024801684D
:100DE00041F040410160704734EF00E0D0F800343A
:100DF00012F0010F14BF0B438B43C0F8003412F004
:100E0000020FD0F8202414BF114322EA0101C0F8D8
:100E10002014704710B5164800F038FD00BF144884
:100E200000F048FD0028FAD01148801C00F02EFD8B
:100E300000BF0F48801C00F03DFD0028F9D0302194
:100E40000C4800F0FAF801210B4800F0F6F80848C9
:100E5000001F00F01BFD00BF0548001F00F02AFD29
:100E60000028F9D00821054800F0D9F810BD00008D
:100E7000090800F000100640003006400050024013
:100E80002DE9F00301264FF0000C0325C2F34117B2
:100E900006FA0CF40C4211D0D0F8C48F4FEA4C047F
:100EA00005FA04F928EA0908C0F8C48FD0F8C48FFD
:100EB00007FA04F448EA0404C0F8C44F0CF1010C2A
:100EC0000CF0FF0CBCF1080FE2D3D0F800C512F013
:100ED000010F14BF4CEA010C2CEA010CC0F800C54C
:100EE000D0F804C512F0020F14BF4CEA010C2CEA32
:100EF000010CC0F804C5D0F808C512F0040F14BFE7
:100F00004CEA010C2CEA010CC0F808C5D0F818C551
:100F100012F0080F14BF4CEA010C2CEA010CC0F8C7
:100F200018C512F0100FD0F83C2514BF0A438A43AD
:100F3000C0F83C25D0F80C2513F0010F14BF0A436C
:100F40008A43C0F80C25D0F8102513F0020F14BF07
:100F50000A438A43C0F81025D0F8142513F0040F73
:100F600014BF0A438A43C0F81425D0F81C2513F097
:100F7000080F14BF0A438A43C0F81C25D0F8442543
:100F800013F4007F14BF0A438A43C0F84425D0F805
:100F9000402513F4407F14BF0A438A43C0F840251C
:100FA000D0F82825002B0CBF114322EA0101C0F81C
:100FB0002815BDE8F00370470E4AC0F30741D26E12
:100FC00001238B401A420C4A1ABF02EBC101496847
:100FD00052F83110020AD1F82C354FF00F0C0CFAF0
:100FE00002FC00F00F0023EA0C0390401843C1F804
:100FF0002C05704700E00F407028000050F82100D9
:10100000704730B50C4605460022FFF7EFFE21463B
:101010002846BDE8304000230122FFF731BF30B53C
:101020000C4605460022FFF7E1FE21462846BDE8B2
:10103000304008230122FFF723BF30B50C46054698
:1010400008230122FFF71CFF21462846BDE8304057
:101050000122FFF7CBBE30B50C4605460222FFF752
:10106000C5FE21462846BDE8304008230122FFF78F
:1010700007BF30B50C4605460222FFF7B7FE2146F2
:101080002846BDE8304008230122FFF7F9BE30B5FD
:101090000C4605460222FFF7A9FE21462846BDE878
:1010A000304008230122FFF7EBBE40F821207047B3
:1010B00010B50121394800F035FF252000F0E2F895
:1010C000FF21364800F025FFFF21354800F021FFC1
:1010D0003448007801281FD1002032490870324876
:1010E000006832490968884205D32F4800682F49B3
:1010F0000968401A07E02C4800682C490968401A22
:101100004FF6FF7108442A49086008460068C0EBA2
:10111000C00000EB40000860254800680A2833D36F
:101120002348006842F20F7188422DD82048006899
:101130004FF47A71B0FBF1F00A21B0FBF1F201FB40
:1011400012001C4908711A4800686421B0FBF1F0D4
:101150000A21B0FBF1F201FB120016494871144854
:1011600000680A21B0FBF1F0B0FBF1F201FB1200C4
:10117000104988710E4800680A21B0FBF1F201FBAA
:1011800012000C49C87107E045200A490871522035
:10119000487188712020C87110BD00000010034004
:1011A00000000340640400206C0400206804002058
:1011B000700400204404002010B5FFF779FF204898
:1011C0000068A0F5967000EB8000C0004FF49671A7
:1011D000B0FBF1F01B4908601B480078401C1A491D
:1011E0000870184800686421B0FBF1F00A21B0FBD8
:1011F000F1F201FB120030301349087013480078F7
:10120000401C124908700F4800680A21B0FBF1F039
:10121000B0FBF1F201FB120030300C4908700C48B1
:101220000078401C0A490870064800680A21B0FB93
:10123000F1F201FB120030300549087010BD0000CA
:1012400070040020C8040020B4040020B60400206C
:10125000B804002008480078022809D1074800781F
:10126000012801D10649087000200449087002E0F5
:101270000120024908707047C50400209A0400202C
:10128000A10400201649042804BF086840F48030F7
:1012900018D0052804BF086840F4003012D0062892
:1012A00012D00F2815D0102838BF7047103800F022
:1012B0001F01012202FA01F142090A4850F82200F6
:1012C0000160704708607047086840F4802008603B
:1012D00070474FF0E020016941F002010161704761
:1012E00024ED00E0BC29000010B5FFF700F800284D
:1012F00018BF012010BD0000084A20F00303D25897
:1013000013688007C00E4FF0FF0C0CFA00FC23EAB4
:101310000C0301FA00F01843106070472029000008
:1013200010B5274800F0B2FA00BF254800F0C2FA15
:101330000028FAD02248C01D00F0A8FA00BF2048BB
:10134000C01D00F0B7FA0028F9D01D48401E00F07B
:101350009DFA00BF1A48401E00F0ACFA0028F9D0F0
:101360001748801C00F092FA00BF1548801C00F05E
:10137000A1FA0028F9D007211248FFF75EFE3021BC
:101380001148FFF75AFE30211048FFF756FE102192
:101390000F48FFF752FE40210B48FFF740FE084878
:1013A000C01C00F073FA00BF0548C01C00F082FAB0
:1013B0000028F9D002210748FFF73FFE10BD0000CA
:1013C000020800F00010064000600040005000409D
:1013D000004002400050024070B504460022022145
:1013E0000948FFF762FE002505E0002600E0761CB4
:1013F0006E2EFCDB6D1CA542F7DB02221146024873
:10140000FFF753FE70BD000000500240002105E0D0
:10141000002200E0521C012AFCDB491C8142F7DB60
:101420007047000008480078042809D10748007870
:10143000012801D10649087000200449087002E023
:101440000120024908707047C5040020990400205B
:10145000A0040020084401686FF3520111430160A9
:1014600012F0020F14BFB0218C21016214BF4FF49F
:10147000306140F60C0141627047425822F001028F
:1014800042507047425842F00102425070470844AF
:101490000168006911F0020F14BF4000401C704742
:1014A0000844016811F0020F14BF5108511E016178
:1014B0007047000010B504460D4800F0E7F901221E
:1014C00008210C4800F01EF880210A48FFF7DAFFD7
:1014D000094800F0DBF90948FFF76EFD08210848CC
:1014E000FFF7B9FD002280210248FFF7B3FF10BDCE
:1014F000004000F000800240050800F0060C0500E6
:1015000000500240002A826814BF114322EA010100
:101510008160704721F03F031844036813F0020F05
:1015200018BF520803699A1A11F0010F14BFC26163
:101530008261704770B5044680210D48FFF79DFF1A
:101540000C480068B0FBF4F52A4680210848FFF7F4
:10155000A7FF80210648FFF79AFF45082A46832106
:101560000348FFF7D7FF80210148FFF78BFF70BDCD
:10157000008002405804002008480078062809D15D
:1015800007480078012801D1064908700020044965
:10159000087002E00120024908707047C50400206D
:1015A000980400209F0400202DE9F003AD4D024671
:1015B0002868AD4B1840A0F18053B3F5A02358D054
:1015C00002F03809DFF8A482C2F38414B9F1100FD5
:1015D00024D0B9F1300F04BF47F230504FF400135C
:1015E0000CD03820904304BF4FF40040C30105D015
:1015F00012F0380F1CBF0020034613D09C4F12F48A
:10160000605F4FF0000618BF00222CD057F8324020
:1016100044457DD307EBC2025268DFE00023404619
:101620001524EBE7A4F10900122822D29148D5F83D
:101630007CC04FF04C7350F824002CF01C0C072C8D
:10164000A8BF4CF0100CC5F87CC02E6D4FF4002CD8
:1016500016F4807FD2D1BCF1010C0AD02E6D16F4A5
:10166000807FF8D0CAE712F0380F18BFB9F1100F19
:1016700003D0BDE8F00300207047C2F30268DFF832
:10168000F8C1002257F83290E14503D307EBC202BC
:10169000526803E0521C062AF4D33246C5F8C02033
:1016A000D5F8B020DFF8D4C102EA0C0242F00042C3
:1016B000C5F8B020DFF8C8C1A4F109024C1E5CF8DF
:1016C00028C0A444BCFBF1FCD5F8B0101943C5F800
:1016D000B01008EBC80101EB41046A4902EB420279
:1016E00001EBC40101EB82046468C5F86441D5F8DC
:1016F00064416FF0FF0808EB0C2C44EA0C0CC5F8B1
:1017000064C151F82210D5F8602102F4000200E013
:101710005FE01143C5F86011D5F86011D5F860217C
:10172000C1F38921C2F30904D5F86421C2F304226C
:1017300002F1010CD5F8642102F01F02521CB0FB2B
:10174000F2F04A09C2F100084443424301EB481158
:1017500004EB5212484302EB9020B0FBFCF041082E
:101760000846002257F832C0844503D307EBC20075
:10177000466802E0521C062AF4D3C5F8C060D5F8CA
:10178000600110F4000F1DBFD5F8B00040F080409C
:10179000C5F8B000D5F8600104BF40F40000C5F8FA
:1017A00060014FF40040D5F8682112F0010F02D11A
:1017B000401E0028F7DC002808BF002148D0D5F8DB
:1017C000B000184340F0010040F01040C5F8B000F0
:1017D0003EE0521C062AFFF419AF3246C5F8C0207D
:1017E000D5F8602122F40002C5F86021D5F8B020B8
:1017F000DFF894C002EA0C0242F00042C5F8B020C3
:10180000002908BF4FF0000C0AD0B0FBF1FCBCF17E
:10181000000F18BFACF1010C0CF10101B0FBF1F1AC
:101820000846002257F83240844203D307EBC20037
:10183000466802E0521C062AF4D3C5F8C060D5F809
:10184000B00043EA8C22104340F00040C5F8B000DD
:10185000D5F8B00020F47000C5F8B000BDE8F00382
:101860000846704700E00F400000FF700024F400BD
:10187000302C0000142A000040787D0100FC0FE0AD
:101880000C2A0000802A0000FF0300EFC0F30723AA
:101890000749C0B2194401F07043C1F3130143EA90
:1018A000411141EA800040F000700122026070475F
:1018B00000E60F40C0F307220849C0B2114401F00E
:1018C0007042C1F3130142EA411141EA800040F045
:1018D00000700068002818BF0120704700EA0F4020
:1018E0004FF0E020016941F00501016170470000FF
:1018F00010B5064800683221B0FBF1F4204600F034
:101900000EF8FFF7EDFF00F003F810BD58040020BB
:101910004FF0E020016941F00201016170474FF092
:10192000E021401E4861704710B549480078401CCE
:10193000C0B247490870012805DB012045490870FD
:1019400000204349087044480078401CC0B2424916
:101950000870022805DB01204049087000203E493C
:1019600008703F480078401CC0B23D490870052807
:1019700005DB01203B4908700020394908703A48CE
:101980000078401CC0B2384908700F2805DB0120E0
:101990003649087000203449087035480068401CFA
:1019A000334908600A2805D3012032490860002025
:1019B0002F4908603048007801280ED12F48006870
:1019C000401C2E490860642807D301202C49086078
:1019D000002029490870294908602A4A2A480178C4
:1019E0002A4800F06FF900F01DF9294908700846EF
:1019F0000078E0B108460078012806D0032808D016
:101A000007280AD0092810D10BE0012021490870CD
:101A10000CE003201F49087008E007201D490870EA
:101A200004E009201B49087000E000BF00BF19480E
:101A3000007801280BD1FFF7B1F9FFF7F3FCFFF7AE
:101A40009BFDFFF707FCFFF761F9FFF73BF910BDBE
:101A5000740400208004002075040020810400200C
:101A600076040020820400207704002083040020F4
:101A70007804002084040020C40400207C0400209A
:101A8000880400204D0400204C0400204404002061
:101A9000C5040020D90400200448006840F4700008
:101AA00002490860024803490860704788ED00E079
:101AB0000024F400DC04002010B501210A4800F0E5
:101AC0002FFA0A4800680A490860FF21094800F017
:101AD00036FA06490860FF21064800F012FA012094
:101AE0000549087010BD0000001003406C04002080
:101AF0006804002000000340640400200146002028
:101B00002D2956D014DC212976D2DFE801F03032BD
:101B10003436383A3C3E40424446484A4C4E75754D
:101B200075757575757575757575757575755400FB
:101B30004C294ED00ADCA1F14102092A5CD2DFE82F
:101B400002F03E5B594E4C443C524000592948D06B
:101B500006DC4E2937D052293DD055294CD136E0EC
:101B60005F2924D0622943D06F2945D13EE03F2030
:101B700044E0062042E05B2040E04F203EE066204B
:101B80003CE06D203AE07D2038E0072036E07F2001
:101B900034E06F2032E0772030E07C202EE03920E6
:101BA0002CE05E202AE0792028E0712026E0082041
:101BB00024E0402022E0002020E03D201EE07720AD
:101BC0001CE006201AE0372018E0712016E03E20C5
:101BD00014E0382012E0502010E079200EE05E2062
:101BE0000CE06E200AE0762008E005E05C2005E0CD
:101BF0007C2003E0392001E0002000BF00BF7047D7
:101C000010B5002210210648FFF74FFA8A2000F095
:101C1000A7F8102211460248FFF747FA10BD00004E
:101C20000010064038B50025002210212448FFF797
:101C30003CFA422000F094F8002401E0601CC4B299
:101C4000052CFBDB002405E000F0B4F80DF80400DF
:101C5000601CC4B2042CF7DB102211461848FFF7B1
:101C600024FA9DF80000042800D101259DF8000009
:101C7000022800D102259DF80000012800D103258B
:101C80009DF80000402800D104259DF80000202880
:101C900000D105259DF80000102800D106259DF8EB
:101CA0000100042800D107259DF80100022800D179
:101CB00008259DF80100012800D10925284638BDD6
:101CC000001006402DE9FF4105460E4617464FF02D
:101CD0000108002419E0285DFFF710FF0DF814003B
:101CE00006EA080028B11DF8140040F080000DF845
:101CF00014004FEA48604FEA1068385D012101EB9B
:101D000044010DF80100601CC4B2082CE3DB002282
:101D100010211248FFF7C9F9402000F021F81022E5
:101D200011460E48FFF7C1F9002210210B48FFF7BA
:101D3000BCF9C02000F014F8002405E01DF80400F0
:101D400000F00EF8601CC4B2102CF7DB1022114614
:101D50000248FFF7AAF9BDE8FF8100000010064025
:101D600070B5044620211148FFF767F900251AE0F5
:101D7000002201210E48FFF798F904F0010028B174
:101D8000202211460948FFF790F904E000222021A3
:101D90000648FFF78AF96410012211460448FFF74C
:101DA00084F9681CC5B2082DE2DB70BD0010064046
:101DB0000030064070B5002420211148FFF72FF9AC
:101DC000002518E06410002201210E48FFF76DF98C
:101DD000012211460B48FFF768F920210848FFF758
:101DE0000DF908B144F08004002201210548FFF7F5
:101DF0005CF9681CC5B2082DE4DB204670BD00000C
:101E0000001006400030064010B50E48FFF73EFDBA
:101E10000D48FFF73BFD0D48FFF7CEF810210C48A9
:101E2000FFF727F90A23012210210948FFF728F8B4
:101E30000849094800F02CF80022FF21064800F06C
:101E400057F810BD000400F00A0800F003100A0063
:101E500000200640130000040000034010B50948AC
:101E6000FFF714FD2121084800F012F80748006828
:101E70001521B0FBF1F42246FF21034800F056F88B
:101E800010BD0000010400F00010034058040020C1
:101E900010B4C26822F0010222F48072C2600A0EFD
:101EA0000260114A1268114B02EA030CACF1805433
:101EB000CBB2C1F30722B4F5202407D043F400715C
:101EC000416042F40071816010BC70474FF4704C67
:101ED0000CEA1114234343F4007343600CEA11210C
:101EE000114341F40071EEE700E00F400000FF7085
:101EF00040F60C431940C3688B4311401943C1603D
:101F00007047C26840F20113194022EA0101C16022
:101F10007047C26840F2011319401143C160704715
:101F200041627047826911438161704711F0FF0F70
:101F300018BF826211F47F4F18BFC2627047FF2939
:101F40000CBF806CC06C7047826912F0200FFBD10F
:101F500001607047D0F818C01CF0080FFAD1D0F813
:101F60002CC02CF0100CC0F82CC0D0F830C02CF0D5
:101F7000010C2CF4407CC0F830C0D0F830C0B1EB7C
:101F8000021F34BF4CF0200C2CF0200CC0F830C0E5
:101F900038BF5208C900B1FBF2F1491C49088A094F
:101FA000426201F03F018162C36200218161C16A26
:101FB00041F01001C162016B40F201321143016333
:101FC0007047000010B50F48FFF760FC0E48FFF7A0
:101FD0005DFC00BF0C48FFF76DFC0028FAD00B48F1
:101FE000FEF7EAFF0A48FEF7E7FF03210948FFF77B
:101FF0004EF860234FF41652074801680748FFF770
:10200000A9FF10BD061800F00D0800F001000D003A
:1020100001040D000050064058040020002001403B
:1020200030B50478302C1BD10C78382C0DD11478B5
:10203000382C02D01478392C03D101241A4D2C707D
:1020400030E00024184D2C702CE00C78392C03D192
:102050000124154D2C7025E00024134D2C7021E037
:102060000478312C1BD10C78302C14D11478382CF6
:1020700003DA01240C4D2C7014E01478382C06D1AE
:102080001C78302C03D10124074D2C700AE0002469
:10209000054D2C7006E00024034D2C7002E0002456
:1020A000014D2C7030BD0000C304002070B5002429
:1020B00014E004F1B00000F085FA102000F082FA7C
:1020C000002000F07FFA002504E0002000F0B2FAC2
:1020D000681CC5B2842DF8DB601CC4B2092CE8DB97
:1020E00070BD00002DE9F04107460E4615469846A2
:1020F000002475E0285DB02826DB285DF72823DC66
:10210000601C285CA1281FDB285DB0385E2110FB15
:1021100001F036490860601C285C00F2AD200968B7
:102120000844324908600846006840010860434698
:10213000324639462D48006800F05CF8A01CC4B255
:1021400006F11000C6B24BE0285DA12825DB285D12
:10215000A32822DC601C285CA1281EDB285DA13896
:102160005E2110FB01F021490860601C285CA13849
:10217000096808441D490860084600684001086075
:102180004346324639461948006800F033F8A01C2F
:10219000C4B206F11000C6B222E0285D20281DDB83
:1021A000285D7E281ADC285D203810490860084622
:1021B000006800010860084600680D4908440B49A2
:1021C00008604346324639460848006800F050F837
:1021D000601CC4B206F10800C6B201E0601CC4B2C3
:1021E000285D002886DCBDE8F0810000400000206A
:1021F00080CF03002DE9F04704460E461746984667
:10220000002210211948FEF750FF032000F0ACF91E
:10221000C4F3074000F0A8F9C4F3072000F0A4F9C4
:10222000E0B200F0A1F9002516E07019394600F07F
:10223000DFF84FF000090AE0404600F057F8824608
:10224000504600F0F7F909F1010000F0FF09B9F17B
:10225000100FF1DB681CC5B2022DE6DB102211461F
:102260000248FEF722FFBDE8F08700000060004052
:102270002DE9F04704460E461746984600221021E5
:102280001948FEF712FF032000F06EF9C4F307406F
:1022900000F06AF9C4F3072000F066F9E0B200F03C
:1022A00063F9002516E07019394600F0A1F84FF0E7
:1022B00000090AE0404600F019F88246504600F056
:1022C000B9F909F1010000F0FF09B9F1080FF1DBDC
:1022D000681CC5B2022DE6DB102211460248FEF74B
:1022E000E4FEBDE8F08700000060004070B50546E0
:1022F0000024002616E0002220210E48FEF7D5FE1D
:102300006006040E40210B48FEF778FE10B1601CF9
:10231000C4B200E0E4B2202211460648FEF7C5FE32
:10232000701CC6B2082EE6DB012D01D1E043C4B219
:10233000204670BD00600040012808D10A78521C78
:102340000A700A78392A0CDD30220A7009E0022866
:1023500007D10A78521E0A700A78302A01DA392227
:102360000A70704710B5FEF7DBFF002201211F48FD
:10237000FEF79BFE6420FFF72FF8012211461B4851
:10238000FEF793FE6420FFF727F8E22000F01AF929
:102390000520FFF721F82C2000F014F93220FFF778
:1023A0001BF82E2000F00EF93220FFF715F82F2031
:1023B00000F008F90520FFF70FF8232000F002F9DC
:1023C000812000F0FFF8282000F0FCF8A22000F0A7
:1023D000F9F8C82000F0F6F8A02000F0F3F840204B
:1023E00000F0F0F8AF2000F0EDF810BD001006404E
:1023F00070B505460C46641E05F1AF0000F0E2F82A
:10240000C4F3031101F1100000F0DCF804F00F0038
:1024100000F0D8F870BD0000FEF790FC00BF4848FF
:1024200000780328FBDBFFF7EBFBFEF779FFFFF7F4
:1024300099FFFFF73BFE81E042480078012806D073
:10244000032824D0072844D0092876D15FE08021D2
:102450003D48FFF712F814E03C480078012802D10B
:1024600000203A4908703A480068012804D1002049
:1024700037490860FEF7A0FE3648006800F012F900
:1024800003E0304800780128E6D000BF00BF80217B
:102490002D48FEF7F2FF00202F49087014E02F4866
:1024A0000078012810D100202C490870FEF700FEAA
:1024B0002B4800682B49284A127841F82200264808
:1024C0000078401C244908701E4800780328E6D094
:1024D00033E000202049087014E0204800780128EB
:1024E00010D100201D490870FEF7E2FD1D491A4A6F
:1024F000127851F82200FFF71DF817480078401CA9
:10250000154908700F4800780728E6D015E000202C
:10251000114908700CE011480078012808D100200A
:102520000E490870FEF7C4FD0D480068FFF702F879
:10253000044800780928EED000BF00BF7CE7000007
:1025400076040020D904002000800240810400208D
:1025500084040020A8040020D80400208204002065
:1025600070040020E004002070B50446002521E03E
:10257000002220211148FEF798FD0A20FEF746FFB1
:1025800004F0800028B1042211460D48FEF78DFDAD
:1025900004E0002204210A48FEF787FD6006040ECD
:1025A000202211460548FEF780FD0A20FEF72EFF87
:1025B000681CC5B2082DDBDB70BD00000060004068
:1025C0000010064070B50446002210211648FEF7A0
:1025D0006CFD002202211548FEF767FD00251BE077
:1025E000002220211048FEF760FD04F0800028B191
:1025F000102211460E48FEF758FD04E0002210217B
:102600000B48FEF752FD202211460748FEF74DFD0C
:1026100060000446681CC5B2082DE1DB102211469B
:102620000148FEF742FD70BD00500040001006401A
:102630000040024070B50446002210211648FEF703
:1026400034FD022211461548FEF72FFD00251BE040
:10265000002220211048FEF728FD04F0800028B158
:10266000102211460E48FEF720FD04E00022102142
:102670000B48FEF71AFD202211460748FEF715FD0C
:1026800060000446681CC5B2082DE1DB102211462B
:102690000148FEF70AFD70BD0050004000100640E2
:1026A0000040024010B5044624B1012C05D0022C94
:1026B00009D105E0FDF7FCFE07E0FDF7ABFF04E004
:1026C000FEF7F4F901E0002400BF00BF10BD4FF099
:1026D0004070E1EE100A704700400040100000001A
:1026E0000080054010000000005000401100000074
:1026F0000090054011000000006000401200000042
:1027000000A005401200000000700040130000000F
:1027100000B005401300000000400240140000001B
:1027200000C0054014000000005002402E000000D0
:1027300000D005402E000000006002402F00000085
:1027400000E005402F000000007002403000000053
:1027500000F005403000000000D0034046000000BB
:102760000000064046000000001006404700000040
:102770000020064048000000003006407F000000B6
:102780000040064080000000005006408400000029
:10279000006006408C000000004000401000000077
:1027A00000800540100000000050004011000000B3
:1027B0000090054011000000006000401200000081
:1027C00000A005401200000000700040130000004F
:1027D00000B005401300000000400240140000005B
:1027E00000C0054014000000005002402E00000010
:1027F00000D005402E000000006002402F000000C5
:1028000000E005402F000000007002403000000092
:1028100000F005403000000000D0034043000000FD
:102820000000064043000000001006404400000085
:10283000002006404500000000300640580000001F
:102840000040064059000000005006405C000000B7
:102850000060064064000000007006406C0000004C
:10286000008006406D000000009006407F000000E0
:1028700000400040008005400050004000900540AE
:102880000060004000A005400070004000B005401E
:102890000040024000C005400050024000D005400A
:1028A0000060024000E005400070024000F005407A
:1028B00000D0034000000640001006400010064013
:1028C0000020064000200640003006400030064050
:1028D00000400640004006400050064000500640C0
:1028E0000060064000600640007006400070064030
:1028F00000800640008006400090064000900640A0
:1029000000070000000600000005000000040000B1
:1029100000030000000200000001000000000000B1
:102920000000000018ED00E01CED00E020ED00E0EC
:1029300000E400E004E400E008E400E00CE400E06F
:1029400010E400E014E400E018E400E01CE400E01F
:1029500020E400E024E400E028E400E02CE400E0CF
:1029600030E400E034E400E038E400E03CE400E07F
:1029700040E400E044E400E048E400E04CE400E02F
:1029800050E400E054E400E058E400E05CE400E0DF
:1029900060E400E064E400E068E400E06CE400E08F
:1029A00070E400E074E400E078E400E07CE400E03F
:1029B00080E400E084E400E088E400E000E100E07E
:1029C00004E100E008E100E00CE100E010E100E0DB
:1029D00080E100E084E100E088E100E08CE100E0DB
:1029E00090E100E000E200E004E200E008E200E044
:1029F0000CE200E010E200E080E200E084E200E0AF
:102A000088E200E08CE200E090E200E000688909E2
:102A1000001C4E0E40420F0000201C0080841E004F
:102A200000802500999E36000040380000093D00D6
:102A300000803E0000004B00404B4C0000204E0048
:102A4000808D5B0000C05D000080700000127A0085
:102A500000007D0080969800001BB7000080BB003E
:102A6000C0E8CE00647ADA000024F4000000FA0026
:102A700080A81201002D310100366E0140787D01E1
:102A80004000000000000000000100003E000800BF
:102A90000000000000010000A00000000200000093
:102AA000000100003454010000000000000100009B
:102AB0002B7006000000000000010000280000004C
:102AC00000000000000100002700010000000000DD
:102AD00000010000200000000000000000010000D4
:102AE0005000000002000000000100001AAC0000CD
:102AF0000000000000010000179409000000000021
:102B00000001000016980500000000000001000010
:102B10001400000000000000000100001380080005
:102B20000000000000010000A000000008000000FC
:102B30000001000010000000000000000001000083
:102B4000280000000200000000010000400000001A
:102B50000400000000010000600000000000000010
:102B6000000100005D000C000000000000010000FA
:102B70005000000000000000000100004E000200B4
:102B8000000000000001000041AC01000000000056
:102B9000000100003C0000000000000000010000F7
:102BA0003A80090000000000000100003000000031
:102BB00000000000000100002800000000000000EC
:102BC00000010000270001000000000000010000DB
:102BD00023600600000000000001000021600800E2
:102BE00000000000000100001E00000000000000C6
:102BF000000100001DC004000000000000010000F2
:102C00005000000002000000000100001800000059
:102C1000000000000001000014000000000000009F
:102C2000000100006000000004000000000100003E
:102C30000024F40030003000005A6202910091003C
:102C400000879303D200D20000B4C404130113011F
:102C500000E1F50554015401000E27079501950187
:102C6000802C000000000020E00400003C02000076
:102C70005C2E0000E00400208005000098020000A7
:102C800011300EFE8242A29E8A82868AB26202FEC3
:102C90001C7F40400319012909211809808080BF49
:102CA000A5A5A53F041ABF0C1178087F24243F2452
:102CB000247F0801171C8080C0011CE060E0014AED
:102CC0006001290B291519450157181280C0E070C1
:102CD00038181C0C0E0703030181E0781C09B201AF
:102CE00018090103070E1C79E18307F8080C1C186A
:102CF0003870E0C08B59B8091F012926A93E280861
:102D000080F0781E0703813E29F00F1370F0FE3F1C
:102D1000191801280838313FFEF0606042780880B9
:102D20008103071E78F047080C11C0FCFF7F070FD6
:102D30001F3D7971F09BA9A4480BE0F071793D1F0C
:102D40000FFFFEFC122CFEFFF9ED5B0301EF031DEC
:102D5000FFFF491F780B01010303070E1CF9FFFE5B
:102D600017793718090103070F0E9EFCF889598A55
:102D700019DB2808E0F0F8F8FC9E0F68D9312E3FE7
:102D8000FFDF38702B59B609238019C87008C0E0DE
:102D90007038DFFF3F5A7F3729E01C783C1E692AD4
:102DA00001A52E070F1E1E0E0D690E1B3C789729DC
:102DB0006A99B11809070F3C70E0C18103D3080A72
:102DC000130606060E0F7FFC98180118080C8CFCE1
:102DD0007F0F0606C5A0090381C1E0703C0F0708FC
:102DE0000C1D0F1F3F7CFCFEEFE7E3E1E001D00A82
:102DF000E1E3E7EFFE7C3F1F0F199E580E0E0C1CFF
:102E000018387060E0C0C1879EB8A78129D8280C07
:102E1000B8DEC7E1607038181C0C0EDF015A1A01C9
:102E20000119E46C03030701190C291501525A20FA
:102E3000010A49025C29AAE9AD5A30021A33041288
:102E4000351A3106123112378924600C41542B4651
:0C2E50005245513D3837361324F4000081
:0400000500000201F4
:00000001FF
